{
	"ERC20.sol": {
		"ERC20": {
			"abi": [
				{
					"inputs": [
						{
							"internalType": "string",
							"name": "name_",
							"type": "string"
						},
						{
							"internalType": "string",
							"name": "symbol_",
							"type": "string"
						}
					],
					"stateMutability": "nonpayable",
					"type": "constructor"
				},
				{
					"anonymous": false,
					"inputs": [
						{
							"indexed": true,
							"internalType": "address",
							"name": "owner",
							"type": "address"
						},
						{
							"indexed": true,
							"internalType": "address",
							"name": "spender",
							"type": "address"
						},
						{
							"indexed": false,
							"internalType": "uint256",
							"name": "value",
							"type": "uint256"
						}
					],
					"name": "Approval",
					"type": "event"
				},
				{
					"anonymous": false,
					"inputs": [
						{
							"indexed": true,
							"internalType": "address",
							"name": "from",
							"type": "address"
						},
						{
							"indexed": true,
							"internalType": "address",
							"name": "to",
							"type": "address"
						},
						{
							"indexed": false,
							"internalType": "uint256",
							"name": "value",
							"type": "uint256"
						}
					],
					"name": "Transfer",
					"type": "event"
				},
				{
					"inputs": [
						{
							"internalType": "address",
							"name": "account",
							"type": "address"
						},
						{
							"internalType": "uint256",
							"name": "amount",
							"type": "uint256"
						}
					],
					"name": "Burn",
					"outputs": [],
					"stateMutability": "nonpayable",
					"type": "function"
				},
				{
					"inputs": [
						{
							"internalType": "address",
							"name": "account",
							"type": "address"
						},
						{
							"internalType": "uint256",
							"name": "amount",
							"type": "uint256"
						}
					],
					"name": "Mint",
					"outputs": [],
					"stateMutability": "nonpayable",
					"type": "function"
				},
				{
					"inputs": [],
					"name": "Owner",
					"outputs": [
						{
							"internalType": "address",
							"name": "",
							"type": "address"
						}
					],
					"stateMutability": "view",
					"type": "function"
				},
				{
					"inputs": [
						{
							"internalType": "address",
							"name": "owner",
							"type": "address"
						},
						{
							"internalType": "address",
							"name": "spender",
							"type": "address"
						}
					],
					"name": "allowance",
					"outputs": [
						{
							"internalType": "uint256",
							"name": "",
							"type": "uint256"
						}
					],
					"stateMutability": "view",
					"type": "function"
				},
				{
					"inputs": [
						{
							"internalType": "address",
							"name": "spender",
							"type": "address"
						},
						{
							"internalType": "uint256",
							"name": "amount",
							"type": "uint256"
						}
					],
					"name": "approve",
					"outputs": [
						{
							"internalType": "bool",
							"name": "",
							"type": "bool"
						}
					],
					"stateMutability": "nonpayable",
					"type": "function"
				},
				{
					"inputs": [
						{
							"internalType": "address",
							"name": "account",
							"type": "address"
						}
					],
					"name": "balanceOf",
					"outputs": [
						{
							"internalType": "uint256",
							"name": "",
							"type": "uint256"
						}
					],
					"stateMutability": "view",
					"type": "function"
				},
				{
					"inputs": [],
					"name": "decimals",
					"outputs": [
						{
							"internalType": "uint8",
							"name": "",
							"type": "uint8"
						}
					],
					"stateMutability": "view",
					"type": "function"
				},
				{
					"inputs": [
						{
							"internalType": "address",
							"name": "spender",
							"type": "address"
						},
						{
							"internalType": "uint256",
							"name": "subtractedValue",
							"type": "uint256"
						}
					],
					"name": "decreaseAllowance",
					"outputs": [
						{
							"internalType": "bool",
							"name": "",
							"type": "bool"
						}
					],
					"stateMutability": "nonpayable",
					"type": "function"
				},
				{
					"inputs": [
						{
							"internalType": "address",
							"name": "spender",
							"type": "address"
						},
						{
							"internalType": "uint256",
							"name": "addedValue",
							"type": "uint256"
						}
					],
					"name": "increaseAllowance",
					"outputs": [
						{
							"internalType": "bool",
							"name": "",
							"type": "bool"
						}
					],
					"stateMutability": "nonpayable",
					"type": "function"
				},
				{
					"inputs": [],
					"name": "name",
					"outputs": [
						{
							"internalType": "string",
							"name": "",
							"type": "string"
						}
					],
					"stateMutability": "view",
					"type": "function"
				},
				{
					"inputs": [],
					"name": "symbol",
					"outputs": [
						{
							"internalType": "string",
							"name": "",
							"type": "string"
						}
					],
					"stateMutability": "view",
					"type": "function"
				},
				{
					"inputs": [],
					"name": "totalSupply",
					"outputs": [
						{
							"internalType": "uint256",
							"name": "",
							"type": "uint256"
						}
					],
					"stateMutability": "view",
					"type": "function"
				},
				{
					"inputs": [
						{
							"internalType": "address",
							"name": "to",
							"type": "address"
						},
						{
							"internalType": "uint256",
							"name": "amount",
							"type": "uint256"
						}
					],
					"name": "transfer",
					"outputs": [
						{
							"internalType": "bool",
							"name": "",
							"type": "bool"
						}
					],
					"stateMutability": "nonpayable",
					"type": "function"
				},
				{
					"inputs": [
						{
							"internalType": "address",
							"name": "from",
							"type": "address"
						},
						{
							"internalType": "address",
							"name": "to",
							"type": "address"
						},
						{
							"internalType": "uint256",
							"name": "amount",
							"type": "uint256"
						}
					],
					"name": "transferFrom",
					"outputs": [
						{
							"internalType": "bool",
							"name": "",
							"type": "bool"
						}
					],
					"stateMutability": "nonpayable",
					"type": "function"
				}
			],
			"devdoc": {
				"details": "Implementation of the {IERC20} interface. This implementation is agnostic to the way tokens are created. This means that a supply mechanism has to be added in a derived contract using {_mint}. For a generic mechanism see {ERC20PresetMinterPauser}. TIP: For a detailed writeup see our guide https://forum.zeppelin.solutions/t/how-to-implement-erc20-supply-mechanisms/226[How to implement supply mechanisms]. We have followed general OpenZeppelin Contracts guidelines: functions revert instead returning `false` on failure. This behavior is nonetheless conventional and does not conflict with the expectations of ERC20 applications. Additionally, an {Approval} event is emitted on calls to {transferFrom}. This allows applications to reconstruct the allowance for all accounts just by listening to said events. Other implementations of the EIP may not emit these events, as it isn't required by the specification. Finally, the non-standard {decreaseAllowance} and {increaseAllowance} functions have been added to mitigate the well-known issues around setting allowances. See {IERC20-approve}.",
				"kind": "dev",
				"methods": {
					"allowance(address,address)": {
						"details": "See {IERC20-allowance}."
					},
					"approve(address,uint256)": {
						"details": "See {IERC20-approve}. NOTE: If `amount` is the maximum `uint256`, the allowance is not updated on `transferFrom`. This is semantically equivalent to an infinite approval. Requirements: - `spender` cannot be the zero address."
					},
					"balanceOf(address)": {
						"details": "See {IERC20-balanceOf}."
					},
					"constructor": {
						"details": "Sets the values for {name} and {symbol}. The default value of {decimals} is 18. To select a different value for {decimals} you should overload it. All two of these values are immutable: they can only be set once during construction."
					},
					"decimals()": {
						"details": "Returns the number of decimals used to get its user representation. For example, if `decimals` equals `2`, a balance of `505` tokens should be displayed to a user as `5.05` (`505 / 10 ** 2`). Tokens usually opt for a value of 18, imitating the relationship between Ether and Wei. This is the value {ERC20} uses, unless this function is overridden; NOTE: This information is only used for _display_ purposes: it in no way affects any of the arithmetic of the contract, including {IERC20-balanceOf} and {IERC20-transfer}."
					},
					"decreaseAllowance(address,uint256)": {
						"details": "Atomically decreases the allowance granted to `spender` by the caller. This is an alternative to {approve} that can be used as a mitigation for problems described in {IERC20-approve}. Emits an {Approval} event indicating the updated allowance. Requirements: - `spender` cannot be the zero address. - `spender` must have allowance for the caller of at least `subtractedValue`."
					},
					"increaseAllowance(address,uint256)": {
						"details": "Atomically increases the allowance granted to `spender` by the caller. This is an alternative to {approve} that can be used as a mitigation for problems described in {IERC20-approve}. Emits an {Approval} event indicating the updated allowance. Requirements: - `spender` cannot be the zero address."
					},
					"name()": {
						"details": "Returns the name of the token."
					},
					"symbol()": {
						"details": "Returns the symbol of the token, usually a shorter version of the name."
					},
					"totalSupply()": {
						"details": "See {IERC20-totalSupply}."
					},
					"transfer(address,uint256)": {
						"details": "See {IERC20-transfer}. Requirements: - `to` cannot be the zero address. - the caller must have a balance of at least `amount`."
					},
					"transferFrom(address,address,uint256)": {
						"details": "See {IERC20-transferFrom}. Emits an {Approval} event indicating the updated allowance. This is not required by the EIP. See the note at the beginning of {ERC20}. NOTE: Does not update the allowance if the current allowance is the maximum `uint256`. Requirements: - `from` and `to` cannot be the zero address. - `from` must have a balance of at least `amount`. - the caller must have allowance for ``from``'s tokens of at least `amount`."
					}
				},
				"version": 1
			},
			"evm": {
				"assembly": "    /* \"ERC20.sol\":1382:12865  contract ERC20 is Context, IERC20, IERC20Metadata {... */\n  mstore(0x40, 0x80)\n    /* \"ERC20.sol\":1595:1604  369000000 */\n  0x15fe7e40\n    /* \"ERC20.sol\":1564:1604  uint256 private _totalSupply = 369000000 */\n  0x02\n  sstore\n    /* \"ERC20.sol\":1996:2137  constructor(string memory name_, string memory symbol_) {... */\n  callvalue\n  dup1\n  iszero\n  tag_1\n  jumpi\n  0x00\n  dup1\n  revert\ntag_1:\n  pop\n  mload(0x40)\n  sub(codesize, bytecodeSize)\n  dup1\n  bytecodeSize\n  dup4\n  codecopy\n  dup2\n  dup2\n  add\n  0x40\n  mstore\n  dup2\n  add\n  swap1\n  tag_2\n  swap2\n  swap1\n  tag_3\n  jump\t// in\ntag_2:\n    /* \"ERC20.sol\":2070:2075  name_ */\n  dup2\n    /* \"ERC20.sol\":2062:2067  _name */\n  0x03\n    /* \"ERC20.sol\":2062:2075  _name = name_ */\n  swap1\n  dup1\n  mload\n  swap1\n  0x20\n  add\n  swap1\n  tag_6\n  swap3\n  swap2\n  swap1\n  tag_7\n  jump\t// in\ntag_6:\n  pop\n    /* \"ERC20.sol\":2095:2102  symbol_ */\n  dup1\n    /* \"ERC20.sol\":2085:2092  _symbol */\n  0x04\n    /* \"ERC20.sol\":2085:2102  _symbol = symbol_ */\n  swap1\n  dup1\n  mload\n  swap1\n  0x20\n  add\n  swap1\n  tag_8\n  swap3\n  swap2\n  swap1\n  tag_7\n  jump\t// in\ntag_8:\n  pop\n    /* \"ERC20.sol\":2120:2130  msg.sender */\n  caller\n    /* \"ERC20.sol\":2112:2117  Owner */\n  0x05\n  0x00\n    /* \"ERC20.sol\":2112:2130  Owner = msg.sender */\n  0x0100\n  exp\n  dup2\n  sload\n  dup2\n  0xffffffffffffffffffffffffffffffffffffffff\n  mul\n  not\n  and\n  swap1\n  dup4\n  0xffffffffffffffffffffffffffffffffffffffff\n  and\n  mul\n  or\n  swap1\n  sstore\n  pop\n    /* \"ERC20.sol\":1996:2137  constructor(string memory name_, string memory symbol_) {... */\n  pop\n  pop\n    /* \"ERC20.sol\":1382:12865  contract ERC20 is Context, IERC20, IERC20Metadata {... */\n  jump(tag_9)\ntag_7:\n  dup3\n  dup1\n  sload\n  tag_10\n  swap1\n  tag_11\n  jump\t// in\ntag_10:\n  swap1\n  0x00\n  mstore\n  keccak256(0x00, 0x20)\n  swap1\n  0x1f\n  add\n  0x20\n  swap1\n  div\n  dup2\n  add\n  swap3\n  dup3\n  tag_13\n  jumpi\n  0x00\n  dup6\n  sstore\n  jump(tag_12)\ntag_13:\n  dup3\n  0x1f\n  lt\n  tag_14\n  jumpi\n  dup1\n  mload\n  not(0xff)\n  and\n  dup4\n  dup1\n  add\n  or\n  dup6\n  sstore\n  jump(tag_12)\ntag_14:\n  dup3\n  dup1\n  add\n  0x01\n  add\n  dup6\n  sstore\n  dup3\n  iszero\n  tag_12\n  jumpi\n  swap2\n  dup3\n  add\ntag_15:\n  dup3\n  dup2\n  gt\n  iszero\n  tag_16\n  jumpi\n  dup3\n  mload\n  dup3\n  sstore\n  swap2\n  0x20\n  add\n  swap2\n  swap1\n  0x01\n  add\n  swap1\n  jump(tag_15)\ntag_16:\ntag_12:\n  pop\n  swap1\n  pop\n  tag_17\n  swap2\n  swap1\n  tag_18\n  jump\t// in\ntag_17:\n  pop\n  swap1\n  jump\t// out\ntag_18:\ntag_19:\n  dup1\n  dup3\n  gt\n  iszero\n  tag_20\n  jumpi\n  0x00\n  dup2\n  0x00\n  swap1\n  sstore\n  pop\n  0x01\n  add\n  jump(tag_19)\ntag_20:\n  pop\n  swap1\n  jump\t// out\n    /* \"#utility.yul\":7:360   */\ntag_22:\n  0x00\n    /* \"#utility.yul\":121:186   */\n  tag_24\n    /* \"#utility.yul\":136:185   */\n  tag_25\n    /* \"#utility.yul\":178:184   */\n  dup5\n    /* \"#utility.yul\":136:185   */\n  tag_26\n  jump\t// in\ntag_25:\n    /* \"#utility.yul\":121:186   */\n  tag_27\n  jump\t// in\ntag_24:\n    /* \"#utility.yul\":112:186   */\n  swap1\n  pop\n    /* \"#utility.yul\":209:215   */\n  dup3\n    /* \"#utility.yul\":202:207   */\n  dup2\n    /* \"#utility.yul\":195:216   */\n  mstore\n    /* \"#utility.yul\":247:251   */\n  0x20\n    /* \"#utility.yul\":240:245   */\n  dup2\n    /* \"#utility.yul\":236:252   */\n  add\n    /* \"#utility.yul\":285:288   */\n  dup5\n    /* \"#utility.yul\":276:282   */\n  dup5\n    /* \"#utility.yul\":271:274   */\n  dup5\n    /* \"#utility.yul\":267:283   */\n  add\n    /* \"#utility.yul\":264:289   */\n  gt\n    /* \"#utility.yul\":261:263   */\n  iszero\n  tag_28\n  jumpi\n    /* \"#utility.yul\":302:303   */\n  0x00\n    /* \"#utility.yul\":299:300   */\n  dup1\n    /* \"#utility.yul\":292:304   */\n  revert\n    /* \"#utility.yul\":261:263   */\ntag_28:\n    /* \"#utility.yul\":315:354   */\n  tag_29\n    /* \"#utility.yul\":347:353   */\n  dup5\n    /* \"#utility.yul\":342:345   */\n  dup3\n    /* \"#utility.yul\":337:340   */\n  dup6\n    /* \"#utility.yul\":315:354   */\n  tag_30\n  jump\t// in\ntag_29:\n    /* \"#utility.yul\":102:360   */\n  pop\n  swap4\n  swap3\n  pop\n  pop\n  pop\n  jump\t// out\n    /* \"#utility.yul\":380:668   */\ntag_31:\n  0x00\n    /* \"#utility.yul\":496:499   */\n  dup3\n    /* \"#utility.yul\":489:493   */\n  0x1f\n    /* \"#utility.yul\":481:487   */\n  dup4\n    /* \"#utility.yul\":477:494   */\n  add\n    /* \"#utility.yul\":473:500   */\n  slt\n    /* \"#utility.yul\":463:465   */\n  tag_33\n  jumpi\n    /* \"#utility.yul\":514:515   */\n  0x00\n    /* \"#utility.yul\":511:512   */\n  dup1\n    /* \"#utility.yul\":504:516   */\n  revert\n    /* \"#utility.yul\":463:465   */\ntag_33:\n    /* \"#utility.yul\":547:553   */\n  dup2\n    /* \"#utility.yul\":541:554   */\n  mload\n    /* \"#utility.yul\":572:662   */\n  tag_34\n    /* \"#utility.yul\":658:661   */\n  dup5\n    /* \"#utility.yul\":650:656   */\n  dup3\n    /* \"#utility.yul\":643:647   */\n  0x20\n    /* \"#utility.yul\":635:641   */\n  dup7\n    /* \"#utility.yul\":631:648   */\n  add\n    /* \"#utility.yul\":572:662   */\n  tag_22\n  jump\t// in\ntag_34:\n    /* \"#utility.yul\":563:662   */\n  swap2\n  pop\n    /* \"#utility.yul\":453:668   */\n  pop\n  swap3\n  swap2\n  pop\n  pop\n  jump\t// out\n    /* \"#utility.yul\":674:1326   */\ntag_3:\n  0x00\n  dup1\n    /* \"#utility.yul\":830:832   */\n  0x40\n    /* \"#utility.yul\":818:827   */\n  dup4\n    /* \"#utility.yul\":809:816   */\n  dup6\n    /* \"#utility.yul\":805:828   */\n  sub\n    /* \"#utility.yul\":801:833   */\n  slt\n    /* \"#utility.yul\":798:800   */\n  iszero\n  tag_36\n  jumpi\n    /* \"#utility.yul\":846:847   */\n  0x00\n    /* \"#utility.yul\":843:844   */\n  dup1\n    /* \"#utility.yul\":836:848   */\n  revert\n    /* \"#utility.yul\":798:800   */\ntag_36:\n    /* \"#utility.yul\":910:911   */\n  0x00\n    /* \"#utility.yul\":899:908   */\n  dup4\n    /* \"#utility.yul\":895:912   */\n  add\n    /* \"#utility.yul\":889:913   */\n  mload\n    /* \"#utility.yul\":940:958   */\n  0xffffffffffffffff\n    /* \"#utility.yul\":932:938   */\n  dup2\n    /* \"#utility.yul\":929:959   */\n  gt\n    /* \"#utility.yul\":926:928   */\n  iszero\n  tag_37\n  jumpi\n    /* \"#utility.yul\":972:973   */\n  0x00\n    /* \"#utility.yul\":969:970   */\n  dup1\n    /* \"#utility.yul\":962:974   */\n  revert\n    /* \"#utility.yul\":926:928   */\ntag_37:\n    /* \"#utility.yul\":1000:1074   */\n  tag_38\n    /* \"#utility.yul\":1066:1073   */\n  dup6\n    /* \"#utility.yul\":1057:1063   */\n  dup3\n    /* \"#utility.yul\":1046:1055   */\n  dup7\n    /* \"#utility.yul\":1042:1064   */\n  add\n    /* \"#utility.yul\":1000:1074   */\n  tag_31\n  jump\t// in\ntag_38:\n    /* \"#utility.yul\":990:1074   */\n  swap3\n  pop\n    /* \"#utility.yul\":860:1084   */\n  pop\n    /* \"#utility.yul\":1144:1146   */\n  0x20\n    /* \"#utility.yul\":1133:1142   */\n  dup4\n    /* \"#utility.yul\":1129:1147   */\n  add\n    /* \"#utility.yul\":1123:1148   */\n  mload\n    /* \"#utility.yul\":1175:1193   */\n  0xffffffffffffffff\n    /* \"#utility.yul\":1167:1173   */\n  dup2\n    /* \"#utility.yul\":1164:1194   */\n  gt\n    /* \"#utility.yul\":1161:1163   */\n  iszero\n  tag_39\n  jumpi\n    /* \"#utility.yul\":1207:1208   */\n  0x00\n    /* \"#utility.yul\":1204:1205   */\n  dup1\n    /* \"#utility.yul\":1197:1209   */\n  revert\n    /* \"#utility.yul\":1161:1163   */\ntag_39:\n    /* \"#utility.yul\":1235:1309   */\n  tag_40\n    /* \"#utility.yul\":1301:1308   */\n  dup6\n    /* \"#utility.yul\":1292:1298   */\n  dup3\n    /* \"#utility.yul\":1281:1290   */\n  dup7\n    /* \"#utility.yul\":1277:1299   */\n  add\n    /* \"#utility.yul\":1235:1309   */\n  tag_31\n  jump\t// in\ntag_40:\n    /* \"#utility.yul\":1225:1309   */\n  swap2\n  pop\n    /* \"#utility.yul\":1094:1319   */\n  pop\n    /* \"#utility.yul\":788:1326   */\n  swap3\n  pop\n  swap3\n  swap1\n  pop\n  jump\t// out\n    /* \"#utility.yul\":1332:1615   */\ntag_27:\n  0x00\n    /* \"#utility.yul\":1398:1400   */\n  0x40\n    /* \"#utility.yul\":1392:1401   */\n  mload\n    /* \"#utility.yul\":1382:1401   */\n  swap1\n  pop\n    /* \"#utility.yul\":1440:1444   */\n  dup2\n    /* \"#utility.yul\":1432:1438   */\n  dup2\n    /* \"#utility.yul\":1428:1445   */\n  add\n    /* \"#utility.yul\":1547:1553   */\n  dup2\n    /* \"#utility.yul\":1535:1545   */\n  dup2\n    /* \"#utility.yul\":1532:1554   */\n  lt\n    /* \"#utility.yul\":1511:1529   */\n  0xffffffffffffffff\n    /* \"#utility.yul\":1499:1509   */\n  dup3\n    /* \"#utility.yul\":1496:1530   */\n  gt\n    /* \"#utility.yul\":1493:1555   */\n  or\n    /* \"#utility.yul\":1490:1492   */\n  iszero\n  tag_42\n  jumpi\n    /* \"#utility.yul\":1558:1576   */\n  tag_43\n  tag_44\n  jump\t// in\ntag_43:\n    /* \"#utility.yul\":1490:1492   */\ntag_42:\n    /* \"#utility.yul\":1598:1608   */\n  dup1\n    /* \"#utility.yul\":1594:1596   */\n  0x40\n    /* \"#utility.yul\":1587:1609   */\n  mstore\n    /* \"#utility.yul\":1372:1615   */\n  pop\n  swap2\n  swap1\n  pop\n  jump\t// out\n    /* \"#utility.yul\":1621:1953   */\ntag_26:\n  0x00\n    /* \"#utility.yul\":1773:1791   */\n  0xffffffffffffffff\n    /* \"#utility.yul\":1765:1771   */\n  dup3\n    /* \"#utility.yul\":1762:1792   */\n  gt\n    /* \"#utility.yul\":1759:1761   */\n  iszero\n  tag_46\n  jumpi\n    /* \"#utility.yul\":1795:1813   */\n  tag_47\n  tag_44\n  jump\t// in\ntag_47:\n    /* \"#utility.yul\":1759:1761   */\ntag_46:\n    /* \"#utility.yul\":1880:1884   */\n  0x1f\n    /* \"#utility.yul\":1876:1885   */\n  not\n    /* \"#utility.yul\":1869:1873   */\n  0x1f\n    /* \"#utility.yul\":1861:1867   */\n  dup4\n    /* \"#utility.yul\":1857:1874   */\n  add\n    /* \"#utility.yul\":1853:1886   */\n  and\n    /* \"#utility.yul\":1845:1886   */\n  swap1\n  pop\n    /* \"#utility.yul\":1941:1945   */\n  0x20\n    /* \"#utility.yul\":1935:1939   */\n  dup2\n    /* \"#utility.yul\":1931:1946   */\n  add\n    /* \"#utility.yul\":1923:1946   */\n  swap1\n  pop\n    /* \"#utility.yul\":1688:1953   */\n  swap2\n  swap1\n  pop\n  jump\t// out\n    /* \"#utility.yul\":1959:2266   */\ntag_30:\n    /* \"#utility.yul\":2027:2028   */\n  0x00\n    /* \"#utility.yul\":2037:2150   */\ntag_49:\n    /* \"#utility.yul\":2051:2057   */\n  dup4\n    /* \"#utility.yul\":2048:2049   */\n  dup2\n    /* \"#utility.yul\":2045:2058   */\n  lt\n    /* \"#utility.yul\":2037:2150   */\n  iszero\n  tag_51\n  jumpi\n    /* \"#utility.yul\":2136:2137   */\n  dup1\n    /* \"#utility.yul\":2131:2134   */\n  dup3\n    /* \"#utility.yul\":2127:2138   */\n  add\n    /* \"#utility.yul\":2121:2139   */\n  mload\n    /* \"#utility.yul\":2117:2118   */\n  dup2\n    /* \"#utility.yul\":2112:2115   */\n  dup5\n    /* \"#utility.yul\":2108:2119   */\n  add\n    /* \"#utility.yul\":2101:2140   */\n  mstore\n    /* \"#utility.yul\":2073:2075   */\n  0x20\n    /* \"#utility.yul\":2070:2071   */\n  dup2\n    /* \"#utility.yul\":2066:2076   */\n  add\n    /* \"#utility.yul\":2061:2076   */\n  swap1\n  pop\n    /* \"#utility.yul\":2037:2150   */\n  jump(tag_49)\ntag_51:\n    /* \"#utility.yul\":2168:2174   */\n  dup4\n    /* \"#utility.yul\":2165:2166   */\n  dup2\n    /* \"#utility.yul\":2162:2175   */\n  gt\n    /* \"#utility.yul\":2159:2161   */\n  iszero\n  tag_52\n  jumpi\n    /* \"#utility.yul\":2248:2249   */\n  0x00\n    /* \"#utility.yul\":2239:2245   */\n  dup5\n    /* \"#utility.yul\":2234:2237   */\n  dup5\n    /* \"#utility.yul\":2230:2246   */\n  add\n    /* \"#utility.yul\":2223:2250   */\n  mstore\n    /* \"#utility.yul\":2159:2161   */\ntag_52:\n    /* \"#utility.yul\":2008:2266   */\n  pop\n  pop\n  pop\n  pop\n  jump\t// out\n    /* \"#utility.yul\":2272:2592   */\ntag_11:\n  0x00\n    /* \"#utility.yul\":2353:2354   */\n  0x02\n    /* \"#utility.yul\":2347:2351   */\n  dup3\n    /* \"#utility.yul\":2343:2355   */\n  div\n    /* \"#utility.yul\":2333:2355   */\n  swap1\n  pop\n    /* \"#utility.yul\":2400:2401   */\n  0x01\n    /* \"#utility.yul\":2394:2398   */\n  dup3\n    /* \"#utility.yul\":2390:2402   */\n  and\n    /* \"#utility.yul\":2421:2439   */\n  dup1\n    /* \"#utility.yul\":2411:2413   */\n  tag_54\n  jumpi\n    /* \"#utility.yul\":2477:2481   */\n  0x7f\n    /* \"#utility.yul\":2469:2475   */\n  dup3\n    /* \"#utility.yul\":2465:2482   */\n  and\n    /* \"#utility.yul\":2455:2482   */\n  swap2\n  pop\n    /* \"#utility.yul\":2411:2413   */\ntag_54:\n    /* \"#utility.yul\":2539:2541   */\n  0x20\n    /* \"#utility.yul\":2531:2537   */\n  dup3\n    /* \"#utility.yul\":2528:2542   */\n  lt\n    /* \"#utility.yul\":2508:2526   */\n  dup2\n    /* \"#utility.yul\":2505:2543   */\n  eq\n    /* \"#utility.yul\":2502:2504   */\n  iszero\n  tag_55\n  jumpi\n    /* \"#utility.yul\":2558:2576   */\n  tag_56\n  tag_57\n  jump\t// in\ntag_56:\n    /* \"#utility.yul\":2502:2504   */\ntag_55:\n    /* \"#utility.yul\":2323:2592   */\n  pop\n  swap2\n  swap1\n  pop\n  jump\t// out\n    /* \"#utility.yul\":2598:2778   */\ntag_57:\n    /* \"#utility.yul\":2646:2723   */\n  0x4e487b7100000000000000000000000000000000000000000000000000000000\n    /* \"#utility.yul\":2643:2644   */\n  0x00\n    /* \"#utility.yul\":2636:2724   */\n  mstore\n    /* \"#utility.yul\":2743:2747   */\n  0x22\n    /* \"#utility.yul\":2740:2741   */\n  0x04\n    /* \"#utility.yul\":2733:2748   */\n  mstore\n    /* \"#utility.yul\":2767:2771   */\n  0x24\n    /* \"#utility.yul\":2764:2765   */\n  0x00\n    /* \"#utility.yul\":2757:2772   */\n  revert\n    /* \"#utility.yul\":2784:2964   */\ntag_44:\n    /* \"#utility.yul\":2832:2909   */\n  0x4e487b7100000000000000000000000000000000000000000000000000000000\n    /* \"#utility.yul\":2829:2830   */\n  0x00\n    /* \"#utility.yul\":2822:2910   */\n  mstore\n    /* \"#utility.yul\":2929:2933   */\n  0x41\n    /* \"#utility.yul\":2926:2927   */\n  0x04\n    /* \"#utility.yul\":2919:2934   */\n  mstore\n    /* \"#utility.yul\":2953:2957   */\n  0x24\n    /* \"#utility.yul\":2950:2951   */\n  0x00\n    /* \"#utility.yul\":2943:2958   */\n  revert\n    /* \"ERC20.sol\":1382:12865  contract ERC20 is Context, IERC20, IERC20Metadata {... */\ntag_9:\n  dataSize(sub_0)\n  dup1\n  dataOffset(sub_0)\n  0x00\n  codecopy\n  0x00\n  return\nstop\n\nsub_0: assembly {\n        /* \"ERC20.sol\":1382:12865  contract ERC20 is Context, IERC20, IERC20Metadata {... */\n      mstore(0x40, 0x80)\n      callvalue\n      dup1\n      iszero\n      tag_1\n      jumpi\n      0x00\n      dup1\n      revert\n    tag_1:\n      pop\n      jumpi(tag_2, lt(calldatasize, 0x04))\n      shr(0xe0, calldataload(0x00))\n      dup1\n      0x70a08231\n      gt\n      tag_17\n      jumpi\n      dup1\n      0xa9059cbb\n      gt\n      tag_18\n      jumpi\n      dup1\n      0xa9059cbb\n      eq\n      tag_13\n      jumpi\n      dup1\n      0xb4a99a4e\n      eq\n      tag_14\n      jumpi\n      dup1\n      0xcc16f5db\n      eq\n      tag_15\n      jumpi\n      dup1\n      0xdd62ed3e\n      eq\n      tag_16\n      jumpi\n      jump(tag_2)\n    tag_18:\n      dup1\n      0x70a08231\n      eq\n      tag_10\n      jumpi\n      dup1\n      0x95d89b41\n      eq\n      tag_11\n      jumpi\n      dup1\n      0xa457c2d7\n      eq\n      tag_12\n      jumpi\n      jump(tag_2)\n    tag_17:\n      dup1\n      0x18160ddd\n      gt\n      tag_19\n      jumpi\n      dup1\n      0x18160ddd\n      eq\n      tag_6\n      jumpi\n      dup1\n      0x23b872dd\n      eq\n      tag_7\n      jumpi\n      dup1\n      0x313ce567\n      eq\n      tag_8\n      jumpi\n      dup1\n      0x39509351\n      eq\n      tag_9\n      jumpi\n      jump(tag_2)\n    tag_19:\n      dup1\n      0x06fdde03\n      eq\n      tag_3\n      jumpi\n      dup1\n      0x095ea7b3\n      eq\n      tag_4\n      jumpi\n      dup1\n      0x0f6798a5\n      eq\n      tag_5\n      jumpi\n    tag_2:\n      0x00\n      dup1\n      revert\n        /* \"ERC20.sol\":2207:2305  function name() public view virtual override returns (string memory) {... */\n    tag_3:\n      tag_20\n      tag_21\n      jump\t// in\n    tag_20:\n      mload(0x40)\n      tag_22\n      swap2\n      swap1\n      tag_23\n      jump\t// in\n    tag_22:\n      mload(0x40)\n      dup1\n      swap2\n      sub\n      swap1\n      return\n        /* \"ERC20.sol\":4484:4681  function approve(address spender, uint256 amount) public virtual override returns (bool) {... */\n    tag_4:\n      tag_24\n      0x04\n      dup1\n      calldatasize\n      sub\n      dup2\n      add\n      swap1\n      tag_25\n      swap2\n      swap1\n      tag_26\n      jump\t// in\n    tag_25:\n      tag_27\n      jump\t// in\n    tag_24:\n      mload(0x40)\n      tag_28\n      swap2\n      swap1\n      tag_29\n      jump\t// in\n    tag_28:\n      mload(0x40)\n      dup1\n      swap2\n      sub\n      swap1\n      return\n        /* \"ERC20.sol\":6163:6257  function Mint(address account, uint256 amount) public {... */\n    tag_5:\n      tag_30\n      0x04\n      dup1\n      calldatasize\n      sub\n      dup2\n      add\n      swap1\n      tag_31\n      swap2\n      swap1\n      tag_26\n      jump\t// in\n    tag_31:\n      tag_32\n      jump\t// in\n    tag_30:\n      stop\n        /* \"ERC20.sol\":3295:3401  function totalSupply() public view virtual override returns (uint256) {... */\n    tag_6:\n      tag_33\n      tag_34\n      jump\t// in\n    tag_33:\n      mload(0x40)\n      tag_35\n      swap2\n      swap1\n      tag_36\n      jump\t// in\n    tag_35:\n      mload(0x40)\n      dup1\n      swap2\n      sub\n      swap1\n      return\n        /* \"ERC20.sol\":5243:5529  function transferFrom(... */\n    tag_7:\n      tag_37\n      0x04\n      dup1\n      calldatasize\n      sub\n      dup2\n      add\n      swap1\n      tag_38\n      swap2\n      swap1\n      tag_39\n      jump\t// in\n    tag_38:\n      tag_40\n      jump\t// in\n    tag_37:\n      mload(0x40)\n      tag_41\n      swap2\n      swap1\n      tag_29\n      jump\t// in\n    tag_41:\n      mload(0x40)\n      dup1\n      swap2\n      sub\n      swap1\n      return\n        /* \"ERC20.sol\":3144:3235  function decimals() public view virtual override returns (uint8) {... */\n    tag_8:\n      tag_42\n      tag_43\n      jump\t// in\n    tag_42:\n      mload(0x40)\n      tag_44\n      swap2\n      swap1\n      tag_45\n      jump\t// in\n    tag_44:\n      mload(0x40)\n      dup1\n      swap2\n      sub\n      swap1\n      return\n        /* \"ERC20.sol\":5924:6158  function increaseAllowance(address spender, uint256 addedValue) public virtual returns (bool) {... */\n    tag_9:\n      tag_46\n      0x04\n      dup1\n      calldatasize\n      sub\n      dup2\n      add\n      swap1\n      tag_47\n      swap2\n      swap1\n      tag_26\n      jump\t// in\n    tag_47:\n      tag_48\n      jump\t// in\n    tag_46:\n      mload(0x40)\n      tag_49\n      swap2\n      swap1\n      tag_29\n      jump\t// in\n    tag_49:\n      mload(0x40)\n      dup1\n      swap2\n      sub\n      swap1\n      return\n        /* \"ERC20.sol\":3459:3584  function balanceOf(address account) public view virtual override returns (uint256) {... */\n    tag_10:\n      tag_50\n      0x04\n      dup1\n      calldatasize\n      sub\n      dup2\n      add\n      swap1\n      tag_51\n      swap2\n      swap1\n      tag_52\n      jump\t// in\n    tag_51:\n      tag_53\n      jump\t// in\n    tag_50:\n      mload(0x40)\n      tag_54\n      swap2\n      swap1\n      tag_36\n      jump\t// in\n    tag_54:\n      mload(0x40)\n      dup1\n      swap2\n      sub\n      swap1\n      return\n        /* \"ERC20.sol\":2418:2520  function symbol() public view virtual override returns (string memory) {... */\n    tag_11:\n      tag_55\n      tag_56\n      jump\t// in\n    tag_55:\n      mload(0x40)\n      tag_57\n      swap2\n      swap1\n      tag_23\n      jump\t// in\n    tag_57:\n      mload(0x40)\n      dup1\n      swap2\n      sub\n      swap1\n      return\n        /* \"ERC20.sol\":6842:7269  function decreaseAllowance(address spender, uint256 subtractedValue) public virtual returns (bool) {... */\n    tag_12:\n      tag_58\n      0x04\n      dup1\n      calldatasize\n      sub\n      dup2\n      add\n      swap1\n      tag_59\n      swap2\n      swap1\n      tag_26\n      jump\t// in\n    tag_59:\n      tag_60\n      jump\t// in\n    tag_58:\n      mload(0x40)\n      tag_61\n      swap2\n      swap1\n      tag_29\n      jump\t// in\n    tag_61:\n      mload(0x40)\n      dup1\n      swap2\n      sub\n      swap1\n      return\n        /* \"ERC20.sol\":3780:3969  function transfer(address to, uint256 amount) public virtual override returns (bool) {... */\n    tag_13:\n      tag_62\n      0x04\n      dup1\n      calldatasize\n      sub\n      dup2\n      add\n      swap1\n      tag_63\n      swap2\n      swap1\n      tag_26\n      jump\t// in\n    tag_63:\n      tag_64\n      jump\t// in\n    tag_62:\n      mload(0x40)\n      tag_65\n      swap2\n      swap1\n      tag_29\n      jump\t// in\n    tag_65:\n      mload(0x40)\n      dup1\n      swap2\n      sub\n      swap1\n      return\n        /* \"ERC20.sol\":1665:1685  address public Owner */\n    tag_14:\n      tag_66\n      tag_67\n      jump\t// in\n    tag_66:\n      mload(0x40)\n      tag_68\n      swap2\n      swap1\n      tag_69\n      jump\t// in\n    tag_68:\n      mload(0x40)\n      dup1\n      swap2\n      sub\n      swap1\n      return\n        /* \"ERC20.sol\":6262:6356  function Burn(address account, uint256 amount) public {... */\n    tag_15:\n      tag_70\n      0x04\n      dup1\n      calldatasize\n      sub\n      dup2\n      add\n      swap1\n      tag_71\n      swap2\n      swap1\n      tag_26\n      jump\t// in\n    tag_71:\n      tag_72\n      jump\t// in\n    tag_70:\n      stop\n        /* \"ERC20.sol\":4027:4176  function allowance(address owner, address spender) public view virtual override returns (uint256) {... */\n    tag_16:\n      tag_73\n      0x04\n      dup1\n      calldatasize\n      sub\n      dup2\n      add\n      swap1\n      tag_74\n      swap2\n      swap1\n      tag_75\n      jump\t// in\n    tag_74:\n      tag_76\n      jump\t// in\n    tag_73:\n      mload(0x40)\n      tag_77\n      swap2\n      swap1\n      tag_36\n      jump\t// in\n    tag_77:\n      mload(0x40)\n      dup1\n      swap2\n      sub\n      swap1\n      return\n        /* \"ERC20.sol\":2207:2305  function name() public view virtual override returns (string memory) {... */\n    tag_21:\n        /* \"ERC20.sol\":2261:2274  string memory */\n      0x60\n        /* \"ERC20.sol\":2293:2298  _name */\n      0x03\n        /* \"ERC20.sol\":2286:2298  return _name */\n      dup1\n      sload\n      tag_79\n      swap1\n      tag_80\n      jump\t// in\n    tag_79:\n      dup1\n      0x1f\n      add\n      0x20\n      dup1\n      swap2\n      div\n      mul\n      0x20\n      add\n      mload(0x40)\n      swap1\n      dup2\n      add\n      0x40\n      mstore\n      dup1\n      swap3\n      swap2\n      swap1\n      dup2\n      dup2\n      mstore\n      0x20\n      add\n      dup3\n      dup1\n      sload\n      tag_81\n      swap1\n      tag_80\n      jump\t// in\n    tag_81:\n      dup1\n      iszero\n      tag_82\n      jumpi\n      dup1\n      0x1f\n      lt\n      tag_83\n      jumpi\n      0x0100\n      dup1\n      dup4\n      sload\n      div\n      mul\n      dup4\n      mstore\n      swap2\n      0x20\n      add\n      swap2\n      jump(tag_82)\n    tag_83:\n      dup3\n      add\n      swap2\n      swap1\n      0x00\n      mstore\n      keccak256(0x00, 0x20)\n      swap1\n    tag_84:\n      dup2\n      sload\n      dup2\n      mstore\n      swap1\n      0x01\n      add\n      swap1\n      0x20\n      add\n      dup1\n      dup4\n      gt\n      tag_84\n      jumpi\n      dup3\n      swap1\n      sub\n      0x1f\n      and\n      dup3\n      add\n      swap2\n    tag_82:\n      pop\n      pop\n      pop\n      pop\n      pop\n      swap1\n      pop\n        /* \"ERC20.sol\":2207:2305  function name() public view virtual override returns (string memory) {... */\n      swap1\n      jump\t// out\n        /* \"ERC20.sol\":4484:4681  function approve(address spender, uint256 amount) public virtual override returns (bool) {... */\n    tag_27:\n        /* \"ERC20.sol\":4567:4571  bool */\n      0x00\n        /* \"ERC20.sol\":4583:4596  address owner */\n      dup1\n        /* \"ERC20.sol\":4599:4611  _msgSender() */\n      tag_86\n        /* \"ERC20.sol\":4599:4609  _msgSender */\n      tag_87\n        /* \"ERC20.sol\":4599:4611  _msgSender() */\n      jump\t// in\n    tag_86:\n        /* \"ERC20.sol\":4583:4611  address owner = _msgSender() */\n      swap1\n      pop\n        /* \"ERC20.sol\":4621:4653  _approve(owner, spender, amount) */\n      tag_88\n        /* \"ERC20.sol\":4630:4635  owner */\n      dup2\n        /* \"ERC20.sol\":4637:4644  spender */\n      dup6\n        /* \"ERC20.sol\":4646:4652  amount */\n      dup6\n        /* \"ERC20.sol\":4621:4629  _approve */\n      tag_89\n        /* \"ERC20.sol\":4621:4653  _approve(owner, spender, amount) */\n      jump\t// in\n    tag_88:\n        /* \"ERC20.sol\":4670:4674  true */\n      0x01\n        /* \"ERC20.sol\":4663:4674  return true */\n      swap2\n      pop\n      pop\n        /* \"ERC20.sol\":4484:4681  function approve(address spender, uint256 amount) public virtual override returns (bool) {... */\n      swap3\n      swap2\n      pop\n      pop\n      jump\t// out\n        /* \"ERC20.sol\":6163:6257  function Mint(address account, uint256 amount) public {... */\n    tag_32:\n        /* \"ERC20.sol\":6227:6250  _mint( account, amount) */\n      tag_91\n        /* \"ERC20.sol\":6234:6241  account */\n      dup3\n        /* \"ERC20.sol\":6243:6249  amount */\n      dup3\n        /* \"ERC20.sol\":6227:6232  _mint */\n      tag_92\n        /* \"ERC20.sol\":6227:6250  _mint( account, amount) */\n      jump\t// in\n    tag_91:\n        /* \"ERC20.sol\":6163:6257  function Mint(address account, uint256 amount) public {... */\n      pop\n      pop\n      jump\t// out\n        /* \"ERC20.sol\":3295:3401  function totalSupply() public view virtual override returns (uint256) {... */\n    tag_34:\n        /* \"ERC20.sol\":3356:3363  uint256 */\n      0x00\n        /* \"ERC20.sol\":3382:3394  _totalSupply */\n      sload(0x02)\n        /* \"ERC20.sol\":3375:3394  return _totalSupply */\n      swap1\n      pop\n        /* \"ERC20.sol\":3295:3401  function totalSupply() public view virtual override returns (uint256) {... */\n      swap1\n      jump\t// out\n        /* \"ERC20.sol\":5243:5529  function transferFrom(... */\n    tag_40:\n        /* \"ERC20.sol\":5370:5374  bool */\n      0x00\n        /* \"ERC20.sol\":5386:5401  address spender */\n      dup1\n        /* \"ERC20.sol\":5404:5416  _msgSender() */\n      tag_95\n        /* \"ERC20.sol\":5404:5414  _msgSender */\n      tag_87\n        /* \"ERC20.sol\":5404:5416  _msgSender() */\n      jump\t// in\n    tag_95:\n        /* \"ERC20.sol\":5386:5416  address spender = _msgSender() */\n      swap1\n      pop\n        /* \"ERC20.sol\":5426:5464  _spendAllowance(from, spender, amount) */\n      tag_96\n        /* \"ERC20.sol\":5442:5446  from */\n      dup6\n        /* \"ERC20.sol\":5448:5455  spender */\n      dup3\n        /* \"ERC20.sol\":5457:5463  amount */\n      dup6\n        /* \"ERC20.sol\":5426:5441  _spendAllowance */\n      tag_97\n        /* \"ERC20.sol\":5426:5464  _spendAllowance(from, spender, amount) */\n      jump\t// in\n    tag_96:\n        /* \"ERC20.sol\":5474:5501  _transfer(from, to, amount) */\n      tag_98\n        /* \"ERC20.sol\":5484:5488  from */\n      dup6\n        /* \"ERC20.sol\":5490:5492  to */\n      dup6\n        /* \"ERC20.sol\":5494:5500  amount */\n      dup6\n        /* \"ERC20.sol\":5474:5483  _transfer */\n      tag_99\n        /* \"ERC20.sol\":5474:5501  _transfer(from, to, amount) */\n      jump\t// in\n    tag_98:\n        /* \"ERC20.sol\":5518:5522  true */\n      0x01\n        /* \"ERC20.sol\":5511:5522  return true */\n      swap2\n      pop\n      pop\n        /* \"ERC20.sol\":5243:5529  function transferFrom(... */\n      swap4\n      swap3\n      pop\n      pop\n      pop\n      jump\t// out\n        /* \"ERC20.sol\":3144:3235  function decimals() public view virtual override returns (uint8) {... */\n    tag_43:\n        /* \"ERC20.sol\":3202:3207  uint8 */\n      0x00\n        /* \"ERC20.sol\":3226:3228  18 */\n      0x12\n        /* \"ERC20.sol\":3219:3228  return 18 */\n      swap1\n      pop\n        /* \"ERC20.sol\":3144:3235  function decimals() public view virtual override returns (uint8) {... */\n      swap1\n      jump\t// out\n        /* \"ERC20.sol\":5924:6158  function increaseAllowance(address spender, uint256 addedValue) public virtual returns (bool) {... */\n    tag_48:\n        /* \"ERC20.sol\":6012:6016  bool */\n      0x00\n        /* \"ERC20.sol\":6028:6041  address owner */\n      dup1\n        /* \"ERC20.sol\":6044:6056  _msgSender() */\n      tag_102\n        /* \"ERC20.sol\":6044:6054  _msgSender */\n      tag_87\n        /* \"ERC20.sol\":6044:6056  _msgSender() */\n      jump\t// in\n    tag_102:\n        /* \"ERC20.sol\":6028:6056  address owner = _msgSender() */\n      swap1\n      pop\n        /* \"ERC20.sol\":6066:6130  _approve(owner, spender, allowance(owner, spender) + addedValue) */\n      tag_103\n        /* \"ERC20.sol\":6075:6080  owner */\n      dup2\n        /* \"ERC20.sol\":6082:6089  spender */\n      dup6\n        /* \"ERC20.sol\":6119:6129  addedValue */\n      dup6\n        /* \"ERC20.sol\":6091:6116  allowance(owner, spender) */\n      tag_104\n        /* \"ERC20.sol\":6101:6106  owner */\n      dup6\n        /* \"ERC20.sol\":6108:6115  spender */\n      dup10\n        /* \"ERC20.sol\":6091:6100  allowance */\n      tag_76\n        /* \"ERC20.sol\":6091:6116  allowance(owner, spender) */\n      jump\t// in\n    tag_104:\n        /* \"ERC20.sol\":6091:6129  allowance(owner, spender) + addedValue */\n      tag_105\n      swap2\n      swap1\n      tag_106\n      jump\t// in\n    tag_105:\n        /* \"ERC20.sol\":6066:6074  _approve */\n      tag_89\n        /* \"ERC20.sol\":6066:6130  _approve(owner, spender, allowance(owner, spender) + addedValue) */\n      jump\t// in\n    tag_103:\n        /* \"ERC20.sol\":6147:6151  true */\n      0x01\n        /* \"ERC20.sol\":6140:6151  return true */\n      swap2\n      pop\n      pop\n        /* \"ERC20.sol\":5924:6158  function increaseAllowance(address spender, uint256 addedValue) public virtual returns (bool) {... */\n      swap3\n      swap2\n      pop\n      pop\n      jump\t// out\n        /* \"ERC20.sol\":3459:3584  function balanceOf(address account) public view virtual override returns (uint256) {... */\n    tag_53:\n        /* \"ERC20.sol\":3533:3540  uint256 */\n      0x00\n        /* \"ERC20.sol\":3559:3568  _balances */\n      dup1\n        /* \"ERC20.sol\":3559:3577  _balances[account] */\n      0x00\n        /* \"ERC20.sol\":3569:3576  account */\n      dup4\n        /* \"ERC20.sol\":3559:3577  _balances[account] */\n      0xffffffffffffffffffffffffffffffffffffffff\n      and\n      0xffffffffffffffffffffffffffffffffffffffff\n      and\n      dup2\n      mstore\n      0x20\n      add\n      swap1\n      dup2\n      mstore\n      0x20\n      add\n      0x00\n      keccak256\n      sload\n        /* \"ERC20.sol\":3552:3577  return _balances[account] */\n      swap1\n      pop\n        /* \"ERC20.sol\":3459:3584  function balanceOf(address account) public view virtual override returns (uint256) {... */\n      swap2\n      swap1\n      pop\n      jump\t// out\n        /* \"ERC20.sol\":2418:2520  function symbol() public view virtual override returns (string memory) {... */\n    tag_56:\n        /* \"ERC20.sol\":2474:2487  string memory */\n      0x60\n        /* \"ERC20.sol\":2506:2513  _symbol */\n      0x04\n        /* \"ERC20.sol\":2499:2513  return _symbol */\n      dup1\n      sload\n      tag_109\n      swap1\n      tag_80\n      jump\t// in\n    tag_109:\n      dup1\n      0x1f\n      add\n      0x20\n      dup1\n      swap2\n      div\n      mul\n      0x20\n      add\n      mload(0x40)\n      swap1\n      dup2\n      add\n      0x40\n      mstore\n      dup1\n      swap3\n      swap2\n      swap1\n      dup2\n      dup2\n      mstore\n      0x20\n      add\n      dup3\n      dup1\n      sload\n      tag_110\n      swap1\n      tag_80\n      jump\t// in\n    tag_110:\n      dup1\n      iszero\n      tag_111\n      jumpi\n      dup1\n      0x1f\n      lt\n      tag_112\n      jumpi\n      0x0100\n      dup1\n      dup4\n      sload\n      div\n      mul\n      dup4\n      mstore\n      swap2\n      0x20\n      add\n      swap2\n      jump(tag_111)\n    tag_112:\n      dup3\n      add\n      swap2\n      swap1\n      0x00\n      mstore\n      keccak256(0x00, 0x20)\n      swap1\n    tag_113:\n      dup2\n      sload\n      dup2\n      mstore\n      swap1\n      0x01\n      add\n      swap1\n      0x20\n      add\n      dup1\n      dup4\n      gt\n      tag_113\n      jumpi\n      dup3\n      swap1\n      sub\n      0x1f\n      and\n      dup3\n      add\n      swap2\n    tag_111:\n      pop\n      pop\n      pop\n      pop\n      pop\n      swap1\n      pop\n        /* \"ERC20.sol\":2418:2520  function symbol() public view virtual override returns (string memory) {... */\n      swap1\n      jump\t// out\n        /* \"ERC20.sol\":6842:7269  function decreaseAllowance(address spender, uint256 subtractedValue) public virtual returns (bool) {... */\n    tag_60:\n        /* \"ERC20.sol\":6935:6939  bool */\n      0x00\n        /* \"ERC20.sol\":6951:6964  address owner */\n      dup1\n        /* \"ERC20.sol\":6967:6979  _msgSender() */\n      tag_115\n        /* \"ERC20.sol\":6967:6977  _msgSender */\n      tag_87\n        /* \"ERC20.sol\":6967:6979  _msgSender() */\n      jump\t// in\n    tag_115:\n        /* \"ERC20.sol\":6951:6979  address owner = _msgSender() */\n      swap1\n      pop\n        /* \"ERC20.sol\":6989:7013  uint256 currentAllowance */\n      0x00\n        /* \"ERC20.sol\":7016:7041  allowance(owner, spender) */\n      tag_116\n        /* \"ERC20.sol\":7026:7031  owner */\n      dup3\n        /* \"ERC20.sol\":7033:7040  spender */\n      dup7\n        /* \"ERC20.sol\":7016:7025  allowance */\n      tag_76\n        /* \"ERC20.sol\":7016:7041  allowance(owner, spender) */\n      jump\t// in\n    tag_116:\n        /* \"ERC20.sol\":6989:7041  uint256 currentAllowance = allowance(owner, spender) */\n      swap1\n      pop\n        /* \"ERC20.sol\":7079:7094  subtractedValue */\n      dup4\n        /* \"ERC20.sol\":7059:7075  currentAllowance */\n      dup2\n        /* \"ERC20.sol\":7059:7094  currentAllowance >= subtractedValue */\n      lt\n      iszero\n        /* \"ERC20.sol\":7051:7136  require(currentAllowance >= subtractedValue, \"ERC20: decreased allowance below zero\") */\n      tag_117\n      jumpi\n      mload(0x40)\n      0x08c379a000000000000000000000000000000000000000000000000000000000\n      dup2\n      mstore\n      0x04\n      add\n      tag_118\n      swap1\n      tag_119\n      jump\t// in\n    tag_118:\n      mload(0x40)\n      dup1\n      swap2\n      sub\n      swap1\n      revert\n    tag_117:\n        /* \"ERC20.sol\":7170:7230  _approve(owner, spender, currentAllowance - subtractedValue) */\n      tag_120\n        /* \"ERC20.sol\":7179:7184  owner */\n      dup3\n        /* \"ERC20.sol\":7186:7193  spender */\n      dup7\n        /* \"ERC20.sol\":7214:7229  subtractedValue */\n      dup7\n        /* \"ERC20.sol\":7195:7211  currentAllowance */\n      dup5\n        /* \"ERC20.sol\":7195:7229  currentAllowance - subtractedValue */\n      sub\n        /* \"ERC20.sol\":7170:7178  _approve */\n      tag_89\n        /* \"ERC20.sol\":7170:7230  _approve(owner, spender, currentAllowance - subtractedValue) */\n      jump\t// in\n    tag_120:\n        /* \"ERC20.sol\":7258:7262  true */\n      0x01\n        /* \"ERC20.sol\":7251:7262  return true */\n      swap3\n      pop\n      pop\n      pop\n        /* \"ERC20.sol\":6842:7269  function decreaseAllowance(address spender, uint256 subtractedValue) public virtual returns (bool) {... */\n      swap3\n      swap2\n      pop\n      pop\n      jump\t// out\n        /* \"ERC20.sol\":3780:3969  function transfer(address to, uint256 amount) public virtual override returns (bool) {... */\n    tag_64:\n        /* \"ERC20.sol\":3859:3863  bool */\n      0x00\n        /* \"ERC20.sol\":3875:3888  address owner */\n      dup1\n        /* \"ERC20.sol\":3891:3903  _msgSender() */\n      tag_122\n        /* \"ERC20.sol\":3891:3901  _msgSender */\n      tag_87\n        /* \"ERC20.sol\":3891:3903  _msgSender() */\n      jump\t// in\n    tag_122:\n        /* \"ERC20.sol\":3875:3903  address owner = _msgSender() */\n      swap1\n      pop\n        /* \"ERC20.sol\":3913:3941  _transfer(owner, to, amount) */\n      tag_123\n        /* \"ERC20.sol\":3923:3928  owner */\n      dup2\n        /* \"ERC20.sol\":3930:3932  to */\n      dup6\n        /* \"ERC20.sol\":3934:3940  amount */\n      dup6\n        /* \"ERC20.sol\":3913:3922  _transfer */\n      tag_99\n        /* \"ERC20.sol\":3913:3941  _transfer(owner, to, amount) */\n      jump\t// in\n    tag_123:\n        /* \"ERC20.sol\":3958:3962  true */\n      0x01\n        /* \"ERC20.sol\":3951:3962  return true */\n      swap2\n      pop\n      pop\n        /* \"ERC20.sol\":3780:3969  function transfer(address to, uint256 amount) public virtual override returns (bool) {... */\n      swap3\n      swap2\n      pop\n      pop\n      jump\t// out\n        /* \"ERC20.sol\":1665:1685  address public Owner */\n    tag_67:\n      0x05\n      0x00\n      swap1\n      sload\n      swap1\n      0x0100\n      exp\n      swap1\n      div\n      0xffffffffffffffffffffffffffffffffffffffff\n      and\n      dup2\n      jump\t// out\n        /* \"ERC20.sol\":6262:6356  function Burn(address account, uint256 amount) public {... */\n    tag_72:\n        /* \"ERC20.sol\":6326:6349  _burn( account, amount) */\n      tag_125\n        /* \"ERC20.sol\":6333:6340  account */\n      dup3\n        /* \"ERC20.sol\":6342:6348  amount */\n      dup3\n        /* \"ERC20.sol\":6326:6331  _burn */\n      tag_126\n        /* \"ERC20.sol\":6326:6349  _burn( account, amount) */\n      jump\t// in\n    tag_125:\n        /* \"ERC20.sol\":6262:6356  function Burn(address account, uint256 amount) public {... */\n      pop\n      pop\n      jump\t// out\n        /* \"ERC20.sol\":4027:4176  function allowance(address owner, address spender) public view virtual override returns (uint256) {... */\n    tag_76:\n        /* \"ERC20.sol\":4116:4123  uint256 */\n      0x00\n        /* \"ERC20.sol\":4142:4153  _allowances */\n      0x01\n        /* \"ERC20.sol\":4142:4160  _allowances[owner] */\n      0x00\n        /* \"ERC20.sol\":4154:4159  owner */\n      dup5\n        /* \"ERC20.sol\":4142:4160  _allowances[owner] */\n      0xffffffffffffffffffffffffffffffffffffffff\n      and\n      0xffffffffffffffffffffffffffffffffffffffff\n      and\n      dup2\n      mstore\n      0x20\n      add\n      swap1\n      dup2\n      mstore\n      0x20\n      add\n      0x00\n      keccak256\n        /* \"ERC20.sol\":4142:4169  _allowances[owner][spender] */\n      0x00\n        /* \"ERC20.sol\":4161:4168  spender */\n      dup4\n        /* \"ERC20.sol\":4142:4169  _allowances[owner][spender] */\n      0xffffffffffffffffffffffffffffffffffffffff\n      and\n      0xffffffffffffffffffffffffffffffffffffffff\n      and\n      dup2\n      mstore\n      0x20\n      add\n      swap1\n      dup2\n      mstore\n      0x20\n      add\n      0x00\n      keccak256\n      sload\n        /* \"ERC20.sol\":4135:4169  return _allowances[owner][spender] */\n      swap1\n      pop\n        /* \"ERC20.sol\":4027:4176  function allowance(address owner, address spender) public view virtual override returns (uint256) {... */\n      swap3\n      swap2\n      pop\n      pop\n      jump\t// out\n        /* \"Context.sol\":640:736  function _msgSender() internal view virtual returns (address) {... */\n    tag_87:\n        /* \"Context.sol\":693:700  address */\n      0x00\n        /* \"Context.sol\":719:729  msg.sender */\n      caller\n        /* \"Context.sol\":712:729  return msg.sender */\n      swap1\n      pop\n        /* \"Context.sol\":640:736  function _msgSender() internal view virtual returns (address) {... */\n      swap1\n      jump\t// out\n        /* \"ERC20.sol\":10358:10728  function _approve(... */\n    tag_89:\n        /* \"ERC20.sol\":10506:10507  0 */\n      0x00\n        /* \"ERC20.sol\":10489:10508  owner != address(0) */\n      0xffffffffffffffffffffffffffffffffffffffff\n      and\n        /* \"ERC20.sol\":10489:10494  owner */\n      dup4\n        /* \"ERC20.sol\":10489:10508  owner != address(0) */\n      0xffffffffffffffffffffffffffffffffffffffff\n      and\n      eq\n      iszero\n        /* \"ERC20.sol\":10481:10549  require(owner != address(0), \"ERC20: approve from the zero address\") */\n      tag_130\n      jumpi\n      mload(0x40)\n      0x08c379a000000000000000000000000000000000000000000000000000000000\n      dup2\n      mstore\n      0x04\n      add\n      tag_131\n      swap1\n      tag_132\n      jump\t// in\n    tag_131:\n      mload(0x40)\n      dup1\n      swap2\n      sub\n      swap1\n      revert\n    tag_130:\n        /* \"ERC20.sol\":10586:10587  0 */\n      0x00\n        /* \"ERC20.sol\":10567:10588  spender != address(0) */\n      0xffffffffffffffffffffffffffffffffffffffff\n      and\n        /* \"ERC20.sol\":10567:10574  spender */\n      dup3\n        /* \"ERC20.sol\":10567:10588  spender != address(0) */\n      0xffffffffffffffffffffffffffffffffffffffff\n      and\n      eq\n      iszero\n        /* \"ERC20.sol\":10559:10627  require(spender != address(0), \"ERC20: approve to the zero address\") */\n      tag_133\n      jumpi\n      mload(0x40)\n      0x08c379a000000000000000000000000000000000000000000000000000000000\n      dup2\n      mstore\n      0x04\n      add\n      tag_134\n      swap1\n      tag_135\n      jump\t// in\n    tag_134:\n      mload(0x40)\n      dup1\n      swap2\n      sub\n      swap1\n      revert\n    tag_133:\n        /* \"ERC20.sol\":10668:10674  amount */\n      dup1\n        /* \"ERC20.sol\":10638:10649  _allowances */\n      0x01\n        /* \"ERC20.sol\":10638:10656  _allowances[owner] */\n      0x00\n        /* \"ERC20.sol\":10650:10655  owner */\n      dup6\n        /* \"ERC20.sol\":10638:10656  _allowances[owner] */\n      0xffffffffffffffffffffffffffffffffffffffff\n      and\n      0xffffffffffffffffffffffffffffffffffffffff\n      and\n      dup2\n      mstore\n      0x20\n      add\n      swap1\n      dup2\n      mstore\n      0x20\n      add\n      0x00\n      keccak256\n        /* \"ERC20.sol\":10638:10665  _allowances[owner][spender] */\n      0x00\n        /* \"ERC20.sol\":10657:10664  spender */\n      dup5\n        /* \"ERC20.sol\":10638:10665  _allowances[owner][spender] */\n      0xffffffffffffffffffffffffffffffffffffffff\n      and\n      0xffffffffffffffffffffffffffffffffffffffff\n      and\n      dup2\n      mstore\n      0x20\n      add\n      swap1\n      dup2\n      mstore\n      0x20\n      add\n      0x00\n      keccak256\n        /* \"ERC20.sol\":10638:10674  _allowances[owner][spender] = amount */\n      dup2\n      swap1\n      sstore\n      pop\n        /* \"ERC20.sol\":10705:10712  spender */\n      dup2\n        /* \"ERC20.sol\":10689:10721  Approval(owner, spender, amount) */\n      0xffffffffffffffffffffffffffffffffffffffff\n      and\n        /* \"ERC20.sol\":10698:10703  owner */\n      dup4\n        /* \"ERC20.sol\":10689:10721  Approval(owner, spender, amount) */\n      0xffffffffffffffffffffffffffffffffffffffff\n      and\n      0x8c5be1e5ebec7d5bd14f71427d1e84f3dd0314c0f7b2291e5b200ac8c7c3b925\n        /* \"ERC20.sol\":10714:10720  amount */\n      dup4\n        /* \"ERC20.sol\":10689:10721  Approval(owner, spender, amount) */\n      mload(0x40)\n      tag_136\n      swap2\n      swap1\n      tag_36\n      jump\t// in\n    tag_136:\n      mload(0x40)\n      dup1\n      swap2\n      sub\n      swap1\n      log3\n        /* \"ERC20.sol\":10358:10728  function _approve(... */\n      pop\n      pop\n      pop\n      jump\t// out\n        /* \"ERC20.sol\":8650:9039  function _mint(address account, uint256 amount) internal virtual {... */\n    tag_92:\n        /* \"ERC20.sol\":8752:8753  0 */\n      0x00\n        /* \"ERC20.sol\":8733:8754  account != address(0) */\n      0xffffffffffffffffffffffffffffffffffffffff\n      and\n        /* \"ERC20.sol\":8733:8740  account */\n      dup3\n        /* \"ERC20.sol\":8733:8754  account != address(0) */\n      0xffffffffffffffffffffffffffffffffffffffff\n      and\n      eq\n      iszero\n        /* \"ERC20.sol\":8725:8790  require(account != address(0), \"ERC20: mint to the zero address\") */\n      tag_138\n      jumpi\n      mload(0x40)\n      0x08c379a000000000000000000000000000000000000000000000000000000000\n      dup2\n      mstore\n      0x04\n      add\n      tag_139\n      swap1\n      tag_140\n      jump\t// in\n    tag_139:\n      mload(0x40)\n      dup1\n      swap2\n      sub\n      swap1\n      revert\n    tag_138:\n        /* \"ERC20.sol\":8801:8850  _beforeTokenTransfer(address(0), account, amount) */\n      tag_141\n        /* \"ERC20.sol\":8830:8831  0 */\n      0x00\n        /* \"ERC20.sol\":8834:8841  account */\n      dup4\n        /* \"ERC20.sol\":8843:8849  amount */\n      dup4\n        /* \"ERC20.sol\":8801:8821  _beforeTokenTransfer */\n      tag_142\n        /* \"ERC20.sol\":8801:8850  _beforeTokenTransfer(address(0), account, amount) */\n      jump\t// in\n    tag_141:\n        /* \"ERC20.sol\":8877:8883  amount */\n      dup1\n        /* \"ERC20.sol\":8861:8873  _totalSupply */\n      0x02\n      0x00\n        /* \"ERC20.sol\":8861:8883  _totalSupply += amount */\n      dup3\n      dup3\n      sload\n      tag_143\n      swap2\n      swap1\n      tag_106\n      jump\t// in\n    tag_143:\n      swap3\n      pop\n      pop\n      dup2\n      swap1\n      sstore\n      pop\n        /* \"ERC20.sol\":8915:8921  amount */\n      dup1\n        /* \"ERC20.sol\":8893:8902  _balances */\n      0x00\n        /* \"ERC20.sol\":8893:8911  _balances[account] */\n      dup1\n        /* \"ERC20.sol\":8903:8910  account */\n      dup5\n        /* \"ERC20.sol\":8893:8911  _balances[account] */\n      0xffffffffffffffffffffffffffffffffffffffff\n      and\n      0xffffffffffffffffffffffffffffffffffffffff\n      and\n      dup2\n      mstore\n      0x20\n      add\n      swap1\n      dup2\n      mstore\n      0x20\n      add\n      0x00\n      keccak256\n      0x00\n        /* \"ERC20.sol\":8893:8921  _balances[account] += amount */\n      dup3\n      dup3\n      sload\n      tag_144\n      swap2\n      swap1\n      tag_106\n      jump\t// in\n    tag_144:\n      swap3\n      pop\n      pop\n      dup2\n      swap1\n      sstore\n      pop\n        /* \"ERC20.sol\":8957:8964  account */\n      dup2\n        /* \"ERC20.sol\":8936:8973  Transfer(address(0), account, amount) */\n      0xffffffffffffffffffffffffffffffffffffffff\n      and\n        /* \"ERC20.sol\":8953:8954  0 */\n      0x00\n        /* \"ERC20.sol\":8936:8973  Transfer(address(0), account, amount) */\n      0xffffffffffffffffffffffffffffffffffffffff\n      and\n      0xddf252ad1be2c89b69c2b068fc378daa952ba7f163c4a11628f55a4df523b3ef\n        /* \"ERC20.sol\":8966:8972  amount */\n      dup4\n        /* \"ERC20.sol\":8936:8973  Transfer(address(0), account, amount) */\n      mload(0x40)\n      tag_145\n      swap2\n      swap1\n      tag_36\n      jump\t// in\n    tag_145:\n      mload(0x40)\n      dup1\n      swap2\n      sub\n      swap1\n      log3\n        /* \"ERC20.sol\":8984:9032  _afterTokenTransfer(address(0), account, amount) */\n      tag_146\n        /* \"ERC20.sol\":9012:9013  0 */\n      0x00\n        /* \"ERC20.sol\":9016:9023  account */\n      dup4\n        /* \"ERC20.sol\":9025:9031  amount */\n      dup4\n        /* \"ERC20.sol\":8984:9003  _afterTokenTransfer */\n      tag_147\n        /* \"ERC20.sol\":8984:9032  _afterTokenTransfer(address(0), account, amount) */\n      jump\t// in\n    tag_146:\n        /* \"ERC20.sol\":8650:9039  function _mint(address account, uint256 amount) internal virtual {... */\n      pop\n      pop\n      jump\t// out\n        /* \"ERC20.sol\":11009:11450  function _spendAllowance(... */\n    tag_97:\n        /* \"ERC20.sol\":11139:11163  uint256 currentAllowance */\n      0x00\n        /* \"ERC20.sol\":11166:11191  allowance(owner, spender) */\n      tag_149\n        /* \"ERC20.sol\":11176:11181  owner */\n      dup5\n        /* \"ERC20.sol\":11183:11190  spender */\n      dup5\n        /* \"ERC20.sol\":11166:11175  allowance */\n      tag_76\n        /* \"ERC20.sol\":11166:11191  allowance(owner, spender) */\n      jump\t// in\n    tag_149:\n        /* \"ERC20.sol\":11139:11191  uint256 currentAllowance = allowance(owner, spender) */\n      swap1\n      pop\n        /* \"ERC20.sol\":11225:11242  type(uint256).max */\n      0xffffffffffffffffffffffffffffffffffffffffffffffffffffffffffffffff\n        /* \"ERC20.sol\":11205:11221  currentAllowance */\n      dup2\n        /* \"ERC20.sol\":11205:11242  currentAllowance != type(uint256).max */\n      eq\n        /* \"ERC20.sol\":11201:11444  if (currentAllowance != type(uint256).max) {... */\n      tag_150\n      jumpi\n        /* \"ERC20.sol\":11286:11292  amount */\n      dup2\n        /* \"ERC20.sol\":11266:11282  currentAllowance */\n      dup2\n        /* \"ERC20.sol\":11266:11292  currentAllowance >= amount */\n      lt\n      iszero\n        /* \"ERC20.sol\":11258:11326  require(currentAllowance >= amount, \"ERC20: insufficient allowance\") */\n      tag_151\n      jumpi\n      mload(0x40)\n      0x08c379a000000000000000000000000000000000000000000000000000000000\n      dup2\n      mstore\n      0x04\n      add\n      tag_152\n      swap1\n      tag_153\n      jump\t// in\n    tag_152:\n      mload(0x40)\n      dup1\n      swap2\n      sub\n      swap1\n      revert\n    tag_151:\n        /* \"ERC20.sol\":11368:11419  _approve(owner, spender, currentAllowance - amount) */\n      tag_154\n        /* \"ERC20.sol\":11377:11382  owner */\n      dup5\n        /* \"ERC20.sol\":11384:11391  spender */\n      dup5\n        /* \"ERC20.sol\":11412:11418  amount */\n      dup5\n        /* \"ERC20.sol\":11393:11409  currentAllowance */\n      dup5\n        /* \"ERC20.sol\":11393:11418  currentAllowance - amount */\n      sub\n        /* \"ERC20.sol\":11368:11376  _approve */\n      tag_89\n        /* \"ERC20.sol\":11368:11419  _approve(owner, spender, currentAllowance - amount) */\n      jump\t// in\n    tag_154:\n        /* \"ERC20.sol\":11201:11444  if (currentAllowance != type(uint256).max) {... */\n    tag_150:\n        /* \"ERC20.sol\":11009:11450  function _spendAllowance(... */\n      pop\n      pop\n      pop\n      pop\n      jump\t// out\n        /* \"ERC20.sol\":7723:8374  function _transfer(... */\n    tag_99:\n        /* \"ERC20.sol\":7865:7866  0 */\n      0x00\n        /* \"ERC20.sol\":7849:7867  from != address(0) */\n      0xffffffffffffffffffffffffffffffffffffffff\n      and\n        /* \"ERC20.sol\":7849:7853  from */\n      dup4\n        /* \"ERC20.sol\":7849:7867  from != address(0) */\n      0xffffffffffffffffffffffffffffffffffffffff\n      and\n      eq\n      iszero\n        /* \"ERC20.sol\":7841:7909  require(from != address(0), \"ERC20: transfer from the zero address\") */\n      tag_156\n      jumpi\n      mload(0x40)\n      0x08c379a000000000000000000000000000000000000000000000000000000000\n      dup2\n      mstore\n      0x04\n      add\n      tag_157\n      swap1\n      tag_158\n      jump\t// in\n    tag_157:\n      mload(0x40)\n      dup1\n      swap2\n      sub\n      swap1\n      revert\n    tag_156:\n        /* \"ERC20.sol\":7941:7942  0 */\n      0x00\n        /* \"ERC20.sol\":7927:7943  to != address(0) */\n      0xffffffffffffffffffffffffffffffffffffffff\n      and\n        /* \"ERC20.sol\":7927:7929  to */\n      dup3\n        /* \"ERC20.sol\":7927:7943  to != address(0) */\n      0xffffffffffffffffffffffffffffffffffffffff\n      and\n      eq\n      iszero\n        /* \"ERC20.sol\":7919:7983  require(to != address(0), \"ERC20: transfer to the zero address\") */\n      tag_159\n      jumpi\n      mload(0x40)\n      0x08c379a000000000000000000000000000000000000000000000000000000000\n      dup2\n      mstore\n      0x04\n      add\n      tag_160\n      swap1\n      tag_161\n      jump\t// in\n    tag_160:\n      mload(0x40)\n      dup1\n      swap2\n      sub\n      swap1\n      revert\n    tag_159:\n        /* \"ERC20.sol\":7994:8032  _beforeTokenTransfer(from, to, amount) */\n      tag_162\n        /* \"ERC20.sol\":8015:8019  from */\n      dup4\n        /* \"ERC20.sol\":8021:8023  to */\n      dup4\n        /* \"ERC20.sol\":8025:8031  amount */\n      dup4\n        /* \"ERC20.sol\":7994:8014  _beforeTokenTransfer */\n      tag_142\n        /* \"ERC20.sol\":7994:8032  _beforeTokenTransfer(from, to, amount) */\n      jump\t// in\n    tag_162:\n        /* \"ERC20.sol\":8043:8062  uint256 fromBalance */\n      0x00\n        /* \"ERC20.sol\":8065:8074  _balances */\n      dup1\n        /* \"ERC20.sol\":8065:8080  _balances[from] */\n      0x00\n        /* \"ERC20.sol\":8075:8079  from */\n      dup6\n        /* \"ERC20.sol\":8065:8080  _balances[from] */\n      0xffffffffffffffffffffffffffffffffffffffff\n      and\n      0xffffffffffffffffffffffffffffffffffffffff\n      and\n      dup2\n      mstore\n      0x20\n      add\n      swap1\n      dup2\n      mstore\n      0x20\n      add\n      0x00\n      keccak256\n      sload\n        /* \"ERC20.sol\":8043:8080  uint256 fromBalance = _balances[from] */\n      swap1\n      pop\n        /* \"ERC20.sol\":8113:8119  amount */\n      dup2\n        /* \"ERC20.sol\":8098:8109  fromBalance */\n      dup2\n        /* \"ERC20.sol\":8098:8119  fromBalance >= amount */\n      lt\n      iszero\n        /* \"ERC20.sol\":8090:8162  require(fromBalance >= amount, \"ERC20: transfer amount exceeds balance\") */\n      tag_163\n      jumpi\n      mload(0x40)\n      0x08c379a000000000000000000000000000000000000000000000000000000000\n      dup2\n      mstore\n      0x04\n      add\n      tag_164\n      swap1\n      tag_165\n      jump\t// in\n    tag_164:\n      mload(0x40)\n      dup1\n      swap2\n      sub\n      swap1\n      revert\n    tag_163:\n        /* \"ERC20.sol\":8228:8234  amount */\n      dup2\n        /* \"ERC20.sol\":8214:8225  fromBalance */\n      dup2\n        /* \"ERC20.sol\":8214:8234  fromBalance - amount */\n      sub\n        /* \"ERC20.sol\":8196:8205  _balances */\n      0x00\n        /* \"ERC20.sol\":8196:8211  _balances[from] */\n      dup1\n        /* \"ERC20.sol\":8206:8210  from */\n      dup7\n        /* \"ERC20.sol\":8196:8211  _balances[from] */\n      0xffffffffffffffffffffffffffffffffffffffff\n      and\n      0xffffffffffffffffffffffffffffffffffffffff\n      and\n      dup2\n      mstore\n      0x20\n      add\n      swap1\n      dup2\n      mstore\n      0x20\n      add\n      0x00\n      keccak256\n        /* \"ERC20.sol\":8196:8234  _balances[from] = fromBalance - amount */\n      dup2\n      swap1\n      sstore\n      pop\n        /* \"ERC20.sol\":8271:8277  amount */\n      dup2\n        /* \"ERC20.sol\":8254:8263  _balances */\n      0x00\n        /* \"ERC20.sol\":8254:8267  _balances[to] */\n      dup1\n        /* \"ERC20.sol\":8264:8266  to */\n      dup6\n        /* \"ERC20.sol\":8254:8267  _balances[to] */\n      0xffffffffffffffffffffffffffffffffffffffff\n      and\n      0xffffffffffffffffffffffffffffffffffffffff\n      and\n      dup2\n      mstore\n      0x20\n      add\n      swap1\n      dup2\n      mstore\n      0x20\n      add\n      0x00\n      keccak256\n      0x00\n        /* \"ERC20.sol\":8254:8277  _balances[to] += amount */\n      dup3\n      dup3\n      sload\n      tag_166\n      swap2\n      swap1\n      tag_106\n      jump\t// in\n    tag_166:\n      swap3\n      pop\n      pop\n      dup2\n      swap1\n      sstore\n      pop\n        /* \"ERC20.sol\":8308:8310  to */\n      dup3\n        /* \"ERC20.sol\":8293:8319  Transfer(from, to, amount) */\n      0xffffffffffffffffffffffffffffffffffffffff\n      and\n        /* \"ERC20.sol\":8302:8306  from */\n      dup5\n        /* \"ERC20.sol\":8293:8319  Transfer(from, to, amount) */\n      0xffffffffffffffffffffffffffffffffffffffff\n      and\n      0xddf252ad1be2c89b69c2b068fc378daa952ba7f163c4a11628f55a4df523b3ef\n        /* \"ERC20.sol\":8312:8318  amount */\n      dup5\n        /* \"ERC20.sol\":8293:8319  Transfer(from, to, amount) */\n      mload(0x40)\n      tag_167\n      swap2\n      swap1\n      tag_36\n      jump\t// in\n    tag_167:\n      mload(0x40)\n      dup1\n      swap2\n      sub\n      swap1\n      log3\n        /* \"ERC20.sol\":8330:8367  _afterTokenTransfer(from, to, amount) */\n      tag_168\n        /* \"ERC20.sol\":8350:8354  from */\n      dup5\n        /* \"ERC20.sol\":8356:8358  to */\n      dup5\n        /* \"ERC20.sol\":8360:8366  amount */\n      dup5\n        /* \"ERC20.sol\":8330:8349  _afterTokenTransfer */\n      tag_147\n        /* \"ERC20.sol\":8330:8367  _afterTokenTransfer(from, to, amount) */\n      jump\t// in\n    tag_168:\n        /* \"ERC20.sol\":7723:8374  function _transfer(... */\n      pop\n      pop\n      pop\n      pop\n      jump\t// out\n        /* \"ERC20.sol\":9359:9935  function _burn(address account, uint256 amount) internal virtual {... */\n    tag_126:\n        /* \"ERC20.sol\":9461:9462  0 */\n      0x00\n        /* \"ERC20.sol\":9442:9463  account != address(0) */\n      0xffffffffffffffffffffffffffffffffffffffff\n      and\n        /* \"ERC20.sol\":9442:9449  account */\n      dup3\n        /* \"ERC20.sol\":9442:9463  account != address(0) */\n      0xffffffffffffffffffffffffffffffffffffffff\n      and\n      eq\n      iszero\n        /* \"ERC20.sol\":9434:9501  require(account != address(0), \"ERC20: burn from the zero address\") */\n      tag_170\n      jumpi\n      mload(0x40)\n      0x08c379a000000000000000000000000000000000000000000000000000000000\n      dup2\n      mstore\n      0x04\n      add\n      tag_171\n      swap1\n      tag_172\n      jump\t// in\n    tag_171:\n      mload(0x40)\n      dup1\n      swap2\n      sub\n      swap1\n      revert\n    tag_170:\n        /* \"ERC20.sol\":9512:9561  _beforeTokenTransfer(account, address(0), amount) */\n      tag_173\n        /* \"ERC20.sol\":9533:9540  account */\n      dup3\n        /* \"ERC20.sol\":9550:9551  0 */\n      0x00\n        /* \"ERC20.sol\":9554:9560  amount */\n      dup4\n        /* \"ERC20.sol\":9512:9532  _beforeTokenTransfer */\n      tag_142\n        /* \"ERC20.sol\":9512:9561  _beforeTokenTransfer(account, address(0), amount) */\n      jump\t// in\n    tag_173:\n        /* \"ERC20.sol\":9572:9594  uint256 accountBalance */\n      0x00\n        /* \"ERC20.sol\":9597:9606  _balances */\n      dup1\n        /* \"ERC20.sol\":9597:9615  _balances[account] */\n      0x00\n        /* \"ERC20.sol\":9607:9614  account */\n      dup5\n        /* \"ERC20.sol\":9597:9615  _balances[account] */\n      0xffffffffffffffffffffffffffffffffffffffff\n      and\n      0xffffffffffffffffffffffffffffffffffffffff\n      and\n      dup2\n      mstore\n      0x20\n      add\n      swap1\n      dup2\n      mstore\n      0x20\n      add\n      0x00\n      keccak256\n      sload\n        /* \"ERC20.sol\":9572:9615  uint256 accountBalance = _balances[account] */\n      swap1\n      pop\n        /* \"ERC20.sol\":9651:9657  amount */\n      dup2\n        /* \"ERC20.sol\":9633:9647  accountBalance */\n      dup2\n        /* \"ERC20.sol\":9633:9657  accountBalance >= amount */\n      lt\n      iszero\n        /* \"ERC20.sol\":9625:9696  require(accountBalance >= amount, \"ERC20: burn amount exceeds balance\") */\n      tag_174\n      jumpi\n      mload(0x40)\n      0x08c379a000000000000000000000000000000000000000000000000000000000\n      dup2\n      mstore\n      0x04\n      add\n      tag_175\n      swap1\n      tag_176\n      jump\t// in\n    tag_175:\n      mload(0x40)\n      dup1\n      swap2\n      sub\n      swap1\n      revert\n    tag_174:\n        /* \"ERC20.sol\":9768:9774  amount */\n      dup2\n        /* \"ERC20.sol\":9751:9765  accountBalance */\n      dup2\n        /* \"ERC20.sol\":9751:9774  accountBalance - amount */\n      sub\n        /* \"ERC20.sol\":9730:9739  _balances */\n      0x00\n        /* \"ERC20.sol\":9730:9748  _balances[account] */\n      dup1\n        /* \"ERC20.sol\":9740:9747  account */\n      dup6\n        /* \"ERC20.sol\":9730:9748  _balances[account] */\n      0xffffffffffffffffffffffffffffffffffffffff\n      and\n      0xffffffffffffffffffffffffffffffffffffffff\n      and\n      dup2\n      mstore\n      0x20\n      add\n      swap1\n      dup2\n      mstore\n      0x20\n      add\n      0x00\n      keccak256\n        /* \"ERC20.sol\":9730:9774  _balances[account] = accountBalance - amount */\n      dup2\n      swap1\n      sstore\n      pop\n        /* \"ERC20.sol\":9810:9816  amount */\n      dup2\n        /* \"ERC20.sol\":9794:9806  _totalSupply */\n      0x02\n      0x00\n        /* \"ERC20.sol\":9794:9816  _totalSupply -= amount */\n      dup3\n      dup3\n      sload\n      tag_177\n      swap2\n      swap1\n      tag_178\n      jump\t// in\n    tag_177:\n      swap3\n      pop\n      pop\n      dup2\n      swap1\n      sstore\n      pop\n        /* \"ERC20.sol\":9858:9859  0 */\n      0x00\n        /* \"ERC20.sol\":9832:9869  Transfer(account, address(0), amount) */\n      0xffffffffffffffffffffffffffffffffffffffff\n      and\n        /* \"ERC20.sol\":9841:9848  account */\n      dup4\n        /* \"ERC20.sol\":9832:9869  Transfer(account, address(0), amount) */\n      0xffffffffffffffffffffffffffffffffffffffff\n      and\n      0xddf252ad1be2c89b69c2b068fc378daa952ba7f163c4a11628f55a4df523b3ef\n        /* \"ERC20.sol\":9862:9868  amount */\n      dup5\n        /* \"ERC20.sol\":9832:9869  Transfer(account, address(0), amount) */\n      mload(0x40)\n      tag_179\n      swap2\n      swap1\n      tag_36\n      jump\t// in\n    tag_179:\n      mload(0x40)\n      dup1\n      swap2\n      sub\n      swap1\n      log3\n        /* \"ERC20.sol\":9880:9928  _afterTokenTransfer(account, address(0), amount) */\n      tag_180\n        /* \"ERC20.sol\":9900:9907  account */\n      dup4\n        /* \"ERC20.sol\":9917:9918  0 */\n      0x00\n        /* \"ERC20.sol\":9921:9927  amount */\n      dup5\n        /* \"ERC20.sol\":9880:9899  _afterTokenTransfer */\n      tag_147\n        /* \"ERC20.sol\":9880:9928  _afterTokenTransfer(account, address(0), amount) */\n      jump\t// in\n    tag_180:\n        /* \"ERC20.sol\":9359:9935  function _burn(address account, uint256 amount) internal virtual {... */\n      pop\n      pop\n      pop\n      jump\t// out\n        /* \"ERC20.sol\":12034:12155  function _beforeTokenTransfer(... */\n    tag_142:\n      pop\n      pop\n      pop\n      jump\t// out\n        /* \"ERC20.sol\":12743:12863  function _afterTokenTransfer(... */\n    tag_147:\n      pop\n      pop\n      pop\n      jump\t// out\n        /* \"#utility.yul\":7:146   */\n    tag_184:\n      0x00\n        /* \"#utility.yul\":91:97   */\n      dup2\n        /* \"#utility.yul\":78:98   */\n      calldataload\n        /* \"#utility.yul\":69:98   */\n      swap1\n      pop\n        /* \"#utility.yul\":107:140   */\n      tag_186\n        /* \"#utility.yul\":134:139   */\n      dup2\n        /* \"#utility.yul\":107:140   */\n      tag_187\n      jump\t// in\n    tag_186:\n        /* \"#utility.yul\":59:146   */\n      swap3\n      swap2\n      pop\n      pop\n      jump\t// out\n        /* \"#utility.yul\":152:291   */\n    tag_188:\n      0x00\n        /* \"#utility.yul\":236:242   */\n      dup2\n        /* \"#utility.yul\":223:243   */\n      calldataload\n        /* \"#utility.yul\":214:243   */\n      swap1\n      pop\n        /* \"#utility.yul\":252:285   */\n      tag_190\n        /* \"#utility.yul\":279:284   */\n      dup2\n        /* \"#utility.yul\":252:285   */\n      tag_191\n      jump\t// in\n    tag_190:\n        /* \"#utility.yul\":204:291   */\n      swap3\n      swap2\n      pop\n      pop\n      jump\t// out\n        /* \"#utility.yul\":297:559   */\n    tag_52:\n      0x00\n        /* \"#utility.yul\":405:407   */\n      0x20\n        /* \"#utility.yul\":393:402   */\n      dup3\n        /* \"#utility.yul\":384:391   */\n      dup5\n        /* \"#utility.yul\":380:403   */\n      sub\n        /* \"#utility.yul\":376:408   */\n      slt\n        /* \"#utility.yul\":373:375   */\n      iszero\n      tag_193\n      jumpi\n        /* \"#utility.yul\":421:422   */\n      0x00\n        /* \"#utility.yul\":418:419   */\n      dup1\n        /* \"#utility.yul\":411:423   */\n      revert\n        /* \"#utility.yul\":373:375   */\n    tag_193:\n        /* \"#utility.yul\":464:465   */\n      0x00\n        /* \"#utility.yul\":489:542   */\n      tag_194\n        /* \"#utility.yul\":534:541   */\n      dup5\n        /* \"#utility.yul\":525:531   */\n      dup3\n        /* \"#utility.yul\":514:523   */\n      dup6\n        /* \"#utility.yul\":510:532   */\n      add\n        /* \"#utility.yul\":489:542   */\n      tag_184\n      jump\t// in\n    tag_194:\n        /* \"#utility.yul\":479:542   */\n      swap2\n      pop\n        /* \"#utility.yul\":435:552   */\n      pop\n        /* \"#utility.yul\":363:559   */\n      swap3\n      swap2\n      pop\n      pop\n      jump\t// out\n        /* \"#utility.yul\":565:972   */\n    tag_75:\n      0x00\n      dup1\n        /* \"#utility.yul\":690:692   */\n      0x40\n        /* \"#utility.yul\":678:687   */\n      dup4\n        /* \"#utility.yul\":669:676   */\n      dup6\n        /* \"#utility.yul\":665:688   */\n      sub\n        /* \"#utility.yul\":661:693   */\n      slt\n        /* \"#utility.yul\":658:660   */\n      iszero\n      tag_196\n      jumpi\n        /* \"#utility.yul\":706:707   */\n      0x00\n        /* \"#utility.yul\":703:704   */\n      dup1\n        /* \"#utility.yul\":696:708   */\n      revert\n        /* \"#utility.yul\":658:660   */\n    tag_196:\n        /* \"#utility.yul\":749:750   */\n      0x00\n        /* \"#utility.yul\":774:827   */\n      tag_197\n        /* \"#utility.yul\":819:826   */\n      dup6\n        /* \"#utility.yul\":810:816   */\n      dup3\n        /* \"#utility.yul\":799:808   */\n      dup7\n        /* \"#utility.yul\":795:817   */\n      add\n        /* \"#utility.yul\":774:827   */\n      tag_184\n      jump\t// in\n    tag_197:\n        /* \"#utility.yul\":764:827   */\n      swap3\n      pop\n        /* \"#utility.yul\":720:837   */\n      pop\n        /* \"#utility.yul\":876:878   */\n      0x20\n        /* \"#utility.yul\":902:955   */\n      tag_198\n        /* \"#utility.yul\":947:954   */\n      dup6\n        /* \"#utility.yul\":938:944   */\n      dup3\n        /* \"#utility.yul\":927:936   */\n      dup7\n        /* \"#utility.yul\":923:945   */\n      add\n        /* \"#utility.yul\":902:955   */\n      tag_184\n      jump\t// in\n    tag_198:\n        /* \"#utility.yul\":892:955   */\n      swap2\n      pop\n        /* \"#utility.yul\":847:965   */\n      pop\n        /* \"#utility.yul\":648:972   */\n      swap3\n      pop\n      swap3\n      swap1\n      pop\n      jump\t// out\n        /* \"#utility.yul\":978:1530   */\n    tag_39:\n      0x00\n      dup1\n      0x00\n        /* \"#utility.yul\":1120:1122   */\n      0x60\n        /* \"#utility.yul\":1108:1117   */\n      dup5\n        /* \"#utility.yul\":1099:1106   */\n      dup7\n        /* \"#utility.yul\":1095:1118   */\n      sub\n        /* \"#utility.yul\":1091:1123   */\n      slt\n        /* \"#utility.yul\":1088:1090   */\n      iszero\n      tag_200\n      jumpi\n        /* \"#utility.yul\":1136:1137   */\n      0x00\n        /* \"#utility.yul\":1133:1134   */\n      dup1\n        /* \"#utility.yul\":1126:1138   */\n      revert\n        /* \"#utility.yul\":1088:1090   */\n    tag_200:\n        /* \"#utility.yul\":1179:1180   */\n      0x00\n        /* \"#utility.yul\":1204:1257   */\n      tag_201\n        /* \"#utility.yul\":1249:1256   */\n      dup7\n        /* \"#utility.yul\":1240:1246   */\n      dup3\n        /* \"#utility.yul\":1229:1238   */\n      dup8\n        /* \"#utility.yul\":1225:1247   */\n      add\n        /* \"#utility.yul\":1204:1257   */\n      tag_184\n      jump\t// in\n    tag_201:\n        /* \"#utility.yul\":1194:1257   */\n      swap4\n      pop\n        /* \"#utility.yul\":1150:1267   */\n      pop\n        /* \"#utility.yul\":1306:1308   */\n      0x20\n        /* \"#utility.yul\":1332:1385   */\n      tag_202\n        /* \"#utility.yul\":1377:1384   */\n      dup7\n        /* \"#utility.yul\":1368:1374   */\n      dup3\n        /* \"#utility.yul\":1357:1366   */\n      dup8\n        /* \"#utility.yul\":1353:1375   */\n      add\n        /* \"#utility.yul\":1332:1385   */\n      tag_184\n      jump\t// in\n    tag_202:\n        /* \"#utility.yul\":1322:1385   */\n      swap3\n      pop\n        /* \"#utility.yul\":1277:1395   */\n      pop\n        /* \"#utility.yul\":1434:1436   */\n      0x40\n        /* \"#utility.yul\":1460:1513   */\n      tag_203\n        /* \"#utility.yul\":1505:1512   */\n      dup7\n        /* \"#utility.yul\":1496:1502   */\n      dup3\n        /* \"#utility.yul\":1485:1494   */\n      dup8\n        /* \"#utility.yul\":1481:1503   */\n      add\n        /* \"#utility.yul\":1460:1513   */\n      tag_188\n      jump\t// in\n    tag_203:\n        /* \"#utility.yul\":1450:1513   */\n      swap2\n      pop\n        /* \"#utility.yul\":1405:1523   */\n      pop\n        /* \"#utility.yul\":1078:1530   */\n      swap3\n      pop\n      swap3\n      pop\n      swap3\n      jump\t// out\n        /* \"#utility.yul\":1536:1943   */\n    tag_26:\n      0x00\n      dup1\n        /* \"#utility.yul\":1661:1663   */\n      0x40\n        /* \"#utility.yul\":1649:1658   */\n      dup4\n        /* \"#utility.yul\":1640:1647   */\n      dup6\n        /* \"#utility.yul\":1636:1659   */\n      sub\n        /* \"#utility.yul\":1632:1664   */\n      slt\n        /* \"#utility.yul\":1629:1631   */\n      iszero\n      tag_205\n      jumpi\n        /* \"#utility.yul\":1677:1678   */\n      0x00\n        /* \"#utility.yul\":1674:1675   */\n      dup1\n        /* \"#utility.yul\":1667:1679   */\n      revert\n        /* \"#utility.yul\":1629:1631   */\n    tag_205:\n        /* \"#utility.yul\":1720:1721   */\n      0x00\n        /* \"#utility.yul\":1745:1798   */\n      tag_206\n        /* \"#utility.yul\":1790:1797   */\n      dup6\n        /* \"#utility.yul\":1781:1787   */\n      dup3\n        /* \"#utility.yul\":1770:1779   */\n      dup7\n        /* \"#utility.yul\":1766:1788   */\n      add\n        /* \"#utility.yul\":1745:1798   */\n      tag_184\n      jump\t// in\n    tag_206:\n        /* \"#utility.yul\":1735:1798   */\n      swap3\n      pop\n        /* \"#utility.yul\":1691:1808   */\n      pop\n        /* \"#utility.yul\":1847:1849   */\n      0x20\n        /* \"#utility.yul\":1873:1926   */\n      tag_207\n        /* \"#utility.yul\":1918:1925   */\n      dup6\n        /* \"#utility.yul\":1909:1915   */\n      dup3\n        /* \"#utility.yul\":1898:1907   */\n      dup7\n        /* \"#utility.yul\":1894:1916   */\n      add\n        /* \"#utility.yul\":1873:1926   */\n      tag_188\n      jump\t// in\n    tag_207:\n        /* \"#utility.yul\":1863:1926   */\n      swap2\n      pop\n        /* \"#utility.yul\":1818:1936   */\n      pop\n        /* \"#utility.yul\":1619:1943   */\n      swap3\n      pop\n      swap3\n      swap1\n      pop\n      jump\t// out\n        /* \"#utility.yul\":1949:2067   */\n    tag_208:\n        /* \"#utility.yul\":2036:2060   */\n      tag_210\n        /* \"#utility.yul\":2054:2059   */\n      dup2\n        /* \"#utility.yul\":2036:2060   */\n      tag_211\n      jump\t// in\n    tag_210:\n        /* \"#utility.yul\":2031:2034   */\n      dup3\n        /* \"#utility.yul\":2024:2061   */\n      mstore\n        /* \"#utility.yul\":2014:2067   */\n      pop\n      pop\n      jump\t// out\n        /* \"#utility.yul\":2073:2182   */\n    tag_212:\n        /* \"#utility.yul\":2154:2175   */\n      tag_214\n        /* \"#utility.yul\":2169:2174   */\n      dup2\n        /* \"#utility.yul\":2154:2175   */\n      tag_215\n      jump\t// in\n    tag_214:\n        /* \"#utility.yul\":2149:2152   */\n      dup3\n        /* \"#utility.yul\":2142:2176   */\n      mstore\n        /* \"#utility.yul\":2132:2182   */\n      pop\n      pop\n      jump\t// out\n        /* \"#utility.yul\":2188:2552   */\n    tag_216:\n      0x00\n        /* \"#utility.yul\":2304:2343   */\n      tag_218\n        /* \"#utility.yul\":2337:2342   */\n      dup3\n        /* \"#utility.yul\":2304:2343   */\n      tag_219\n      jump\t// in\n    tag_218:\n        /* \"#utility.yul\":2359:2430   */\n      tag_220\n        /* \"#utility.yul\":2423:2429   */\n      dup2\n        /* \"#utility.yul\":2418:2421   */\n      dup6\n        /* \"#utility.yul\":2359:2430   */\n      tag_221\n      jump\t// in\n    tag_220:\n        /* \"#utility.yul\":2352:2430   */\n      swap4\n      pop\n        /* \"#utility.yul\":2439:2491   */\n      tag_222\n        /* \"#utility.yul\":2484:2490   */\n      dup2\n        /* \"#utility.yul\":2479:2482   */\n      dup6\n        /* \"#utility.yul\":2472:2476   */\n      0x20\n        /* \"#utility.yul\":2465:2470   */\n      dup7\n        /* \"#utility.yul\":2461:2477   */\n      add\n        /* \"#utility.yul\":2439:2491   */\n      tag_223\n      jump\t// in\n    tag_222:\n        /* \"#utility.yul\":2516:2545   */\n      tag_224\n        /* \"#utility.yul\":2538:2544   */\n      dup2\n        /* \"#utility.yul\":2516:2545   */\n      tag_225\n      jump\t// in\n    tag_224:\n        /* \"#utility.yul\":2511:2514   */\n      dup5\n        /* \"#utility.yul\":2507:2546   */\n      add\n        /* \"#utility.yul\":2500:2546   */\n      swap2\n      pop\n        /* \"#utility.yul\":2280:2552   */\n      pop\n      swap3\n      swap2\n      pop\n      pop\n      jump\t// out\n        /* \"#utility.yul\":2558:2925   */\n    tag_226:\n      0x00\n        /* \"#utility.yul\":2721:2788   */\n      tag_228\n        /* \"#utility.yul\":2785:2787   */\n      0x23\n        /* \"#utility.yul\":2780:2783   */\n      dup4\n        /* \"#utility.yul\":2721:2788   */\n      tag_221\n      jump\t// in\n    tag_228:\n        /* \"#utility.yul\":2714:2788   */\n      swap2\n      pop\n        /* \"#utility.yul\":2818:2852   */\n      0x45524332303a207472616e7366657220746f20746865207a65726f2061646472\n        /* \"#utility.yul\":2814:2815   */\n      0x00\n        /* \"#utility.yul\":2809:2812   */\n      dup4\n        /* \"#utility.yul\":2805:2816   */\n      add\n        /* \"#utility.yul\":2798:2853   */\n      mstore\n        /* \"#utility.yul\":2884:2889   */\n      0x6573730000000000000000000000000000000000000000000000000000000000\n        /* \"#utility.yul\":2879:2881   */\n      0x20\n        /* \"#utility.yul\":2874:2877   */\n      dup4\n        /* \"#utility.yul\":2870:2882   */\n      add\n        /* \"#utility.yul\":2863:2890   */\n      mstore\n        /* \"#utility.yul\":2916:2918   */\n      0x40\n        /* \"#utility.yul\":2911:2914   */\n      dup3\n        /* \"#utility.yul\":2907:2919   */\n      add\n        /* \"#utility.yul\":2900:2919   */\n      swap1\n      pop\n        /* \"#utility.yul\":2704:2925   */\n      swap2\n      swap1\n      pop\n      jump\t// out\n        /* \"#utility.yul\":2931:3297   */\n    tag_229:\n      0x00\n        /* \"#utility.yul\":3094:3161   */\n      tag_231\n        /* \"#utility.yul\":3158:3160   */\n      0x22\n        /* \"#utility.yul\":3153:3156   */\n      dup4\n        /* \"#utility.yul\":3094:3161   */\n      tag_221\n      jump\t// in\n    tag_231:\n        /* \"#utility.yul\":3087:3161   */\n      swap2\n      pop\n        /* \"#utility.yul\":3191:3225   */\n      0x45524332303a206275726e20616d6f756e7420657863656564732062616c616e\n        /* \"#utility.yul\":3187:3188   */\n      0x00\n        /* \"#utility.yul\":3182:3185   */\n      dup4\n        /* \"#utility.yul\":3178:3189   */\n      add\n        /* \"#utility.yul\":3171:3226   */\n      mstore\n        /* \"#utility.yul\":3257:3261   */\n      0x6365000000000000000000000000000000000000000000000000000000000000\n        /* \"#utility.yul\":3252:3254   */\n      0x20\n        /* \"#utility.yul\":3247:3250   */\n      dup4\n        /* \"#utility.yul\":3243:3255   */\n      add\n        /* \"#utility.yul\":3236:3262   */\n      mstore\n        /* \"#utility.yul\":3288:3290   */\n      0x40\n        /* \"#utility.yul\":3283:3286   */\n      dup3\n        /* \"#utility.yul\":3279:3291   */\n      add\n        /* \"#utility.yul\":3272:3291   */\n      swap1\n      pop\n        /* \"#utility.yul\":3077:3297   */\n      swap2\n      swap1\n      pop\n      jump\t// out\n        /* \"#utility.yul\":3303:3669   */\n    tag_232:\n      0x00\n        /* \"#utility.yul\":3466:3533   */\n      tag_234\n        /* \"#utility.yul\":3530:3532   */\n      0x22\n        /* \"#utility.yul\":3525:3528   */\n      dup4\n        /* \"#utility.yul\":3466:3533   */\n      tag_221\n      jump\t// in\n    tag_234:\n        /* \"#utility.yul\":3459:3533   */\n      swap2\n      pop\n        /* \"#utility.yul\":3563:3597   */\n      0x45524332303a20617070726f766520746f20746865207a65726f206164647265\n        /* \"#utility.yul\":3559:3560   */\n      0x00\n        /* \"#utility.yul\":3554:3557   */\n      dup4\n        /* \"#utility.yul\":3550:3561   */\n      add\n        /* \"#utility.yul\":3543:3598   */\n      mstore\n        /* \"#utility.yul\":3629:3633   */\n      0x7373000000000000000000000000000000000000000000000000000000000000\n        /* \"#utility.yul\":3624:3626   */\n      0x20\n        /* \"#utility.yul\":3619:3622   */\n      dup4\n        /* \"#utility.yul\":3615:3627   */\n      add\n        /* \"#utility.yul\":3608:3634   */\n      mstore\n        /* \"#utility.yul\":3660:3662   */\n      0x40\n        /* \"#utility.yul\":3655:3658   */\n      dup3\n        /* \"#utility.yul\":3651:3663   */\n      add\n        /* \"#utility.yul\":3644:3663   */\n      swap1\n      pop\n        /* \"#utility.yul\":3449:3669   */\n      swap2\n      swap1\n      pop\n      jump\t// out\n        /* \"#utility.yul\":3675:4002   */\n    tag_235:\n      0x00\n        /* \"#utility.yul\":3838:3905   */\n      tag_237\n        /* \"#utility.yul\":3902:3904   */\n      0x1d\n        /* \"#utility.yul\":3897:3900   */\n      dup4\n        /* \"#utility.yul\":3838:3905   */\n      tag_221\n      jump\t// in\n    tag_237:\n        /* \"#utility.yul\":3831:3905   */\n      swap2\n      pop\n        /* \"#utility.yul\":3935:3966   */\n      0x45524332303a20696e73756666696369656e7420616c6c6f77616e6365000000\n        /* \"#utility.yul\":3931:3932   */\n      0x00\n        /* \"#utility.yul\":3926:3929   */\n      dup4\n        /* \"#utility.yul\":3922:3933   */\n      add\n        /* \"#utility.yul\":3915:3967   */\n      mstore\n        /* \"#utility.yul\":3993:3995   */\n      0x20\n        /* \"#utility.yul\":3988:3991   */\n      dup3\n        /* \"#utility.yul\":3984:3996   */\n      add\n        /* \"#utility.yul\":3977:3996   */\n      swap1\n      pop\n        /* \"#utility.yul\":3821:4002   */\n      swap2\n      swap1\n      pop\n      jump\t// out\n        /* \"#utility.yul\":4008:4378   */\n    tag_238:\n      0x00\n        /* \"#utility.yul\":4171:4238   */\n      tag_240\n        /* \"#utility.yul\":4235:4237   */\n      0x26\n        /* \"#utility.yul\":4230:4233   */\n      dup4\n        /* \"#utility.yul\":4171:4238   */\n      tag_221\n      jump\t// in\n    tag_240:\n        /* \"#utility.yul\":4164:4238   */\n      swap2\n      pop\n        /* \"#utility.yul\":4268:4302   */\n      0x45524332303a207472616e7366657220616d6f756e7420657863656564732062\n        /* \"#utility.yul\":4264:4265   */\n      0x00\n        /* \"#utility.yul\":4259:4262   */\n      dup4\n        /* \"#utility.yul\":4255:4266   */\n      add\n        /* \"#utility.yul\":4248:4303   */\n      mstore\n        /* \"#utility.yul\":4334:4342   */\n      0x616c616e63650000000000000000000000000000000000000000000000000000\n        /* \"#utility.yul\":4329:4331   */\n      0x20\n        /* \"#utility.yul\":4324:4327   */\n      dup4\n        /* \"#utility.yul\":4320:4332   */\n      add\n        /* \"#utility.yul\":4313:4343   */\n      mstore\n        /* \"#utility.yul\":4369:4371   */\n      0x40\n        /* \"#utility.yul\":4364:4367   */\n      dup3\n        /* \"#utility.yul\":4360:4372   */\n      add\n        /* \"#utility.yul\":4353:4372   */\n      swap1\n      pop\n        /* \"#utility.yul\":4154:4378   */\n      swap2\n      swap1\n      pop\n      jump\t// out\n        /* \"#utility.yul\":4384:4749   */\n    tag_241:\n      0x00\n        /* \"#utility.yul\":4547:4614   */\n      tag_243\n        /* \"#utility.yul\":4611:4613   */\n      0x21\n        /* \"#utility.yul\":4606:4609   */\n      dup4\n        /* \"#utility.yul\":4547:4614   */\n      tag_221\n      jump\t// in\n    tag_243:\n        /* \"#utility.yul\":4540:4614   */\n      swap2\n      pop\n        /* \"#utility.yul\":4644:4678   */\n      0x45524332303a206275726e2066726f6d20746865207a65726f20616464726573\n        /* \"#utility.yul\":4640:4641   */\n      0x00\n        /* \"#utility.yul\":4635:4638   */\n      dup4\n        /* \"#utility.yul\":4631:4642   */\n      add\n        /* \"#utility.yul\":4624:4679   */\n      mstore\n        /* \"#utility.yul\":4710:4713   */\n      0x7300000000000000000000000000000000000000000000000000000000000000\n        /* \"#utility.yul\":4705:4707   */\n      0x20\n        /* \"#utility.yul\":4700:4703   */\n      dup4\n        /* \"#utility.yul\":4696:4708   */\n      add\n        /* \"#utility.yul\":4689:4714   */\n      mstore\n        /* \"#utility.yul\":4740:4742   */\n      0x40\n        /* \"#utility.yul\":4735:4738   */\n      dup3\n        /* \"#utility.yul\":4731:4743   */\n      add\n        /* \"#utility.yul\":4724:4743   */\n      swap1\n      pop\n        /* \"#utility.yul\":4530:4749   */\n      swap2\n      swap1\n      pop\n      jump\t// out\n        /* \"#utility.yul\":4755:5124   */\n    tag_244:\n      0x00\n        /* \"#utility.yul\":4918:4985   */\n      tag_246\n        /* \"#utility.yul\":4982:4984   */\n      0x25\n        /* \"#utility.yul\":4977:4980   */\n      dup4\n        /* \"#utility.yul\":4918:4985   */\n      tag_221\n      jump\t// in\n    tag_246:\n        /* \"#utility.yul\":4911:4985   */\n      swap2\n      pop\n        /* \"#utility.yul\":5015:5049   */\n      0x45524332303a207472616e736665722066726f6d20746865207a65726f206164\n        /* \"#utility.yul\":5011:5012   */\n      0x00\n        /* \"#utility.yul\":5006:5009   */\n      dup4\n        /* \"#utility.yul\":5002:5013   */\n      add\n        /* \"#utility.yul\":4995:5050   */\n      mstore\n        /* \"#utility.yul\":5081:5088   */\n      0x6472657373000000000000000000000000000000000000000000000000000000\n        /* \"#utility.yul\":5076:5078   */\n      0x20\n        /* \"#utility.yul\":5071:5074   */\n      dup4\n        /* \"#utility.yul\":5067:5079   */\n      add\n        /* \"#utility.yul\":5060:5089   */\n      mstore\n        /* \"#utility.yul\":5115:5117   */\n      0x40\n        /* \"#utility.yul\":5110:5113   */\n      dup3\n        /* \"#utility.yul\":5106:5118   */\n      add\n        /* \"#utility.yul\":5099:5118   */\n      swap1\n      pop\n        /* \"#utility.yul\":4901:5124   */\n      swap2\n      swap1\n      pop\n      jump\t// out\n        /* \"#utility.yul\":5130:5498   */\n    tag_247:\n      0x00\n        /* \"#utility.yul\":5293:5360   */\n      tag_249\n        /* \"#utility.yul\":5357:5359   */\n      0x24\n        /* \"#utility.yul\":5352:5355   */\n      dup4\n        /* \"#utility.yul\":5293:5360   */\n      tag_221\n      jump\t// in\n    tag_249:\n        /* \"#utility.yul\":5286:5360   */\n      swap2\n      pop\n        /* \"#utility.yul\":5390:5424   */\n      0x45524332303a20617070726f76652066726f6d20746865207a65726f20616464\n        /* \"#utility.yul\":5386:5387   */\n      0x00\n        /* \"#utility.yul\":5381:5384   */\n      dup4\n        /* \"#utility.yul\":5377:5388   */\n      add\n        /* \"#utility.yul\":5370:5425   */\n      mstore\n        /* \"#utility.yul\":5456:5462   */\n      0x7265737300000000000000000000000000000000000000000000000000000000\n        /* \"#utility.yul\":5451:5453   */\n      0x20\n        /* \"#utility.yul\":5446:5449   */\n      dup4\n        /* \"#utility.yul\":5442:5454   */\n      add\n        /* \"#utility.yul\":5435:5463   */\n      mstore\n        /* \"#utility.yul\":5489:5491   */\n      0x40\n        /* \"#utility.yul\":5484:5487   */\n      dup3\n        /* \"#utility.yul\":5480:5492   */\n      add\n        /* \"#utility.yul\":5473:5492   */\n      swap1\n      pop\n        /* \"#utility.yul\":5276:5498   */\n      swap2\n      swap1\n      pop\n      jump\t// out\n        /* \"#utility.yul\":5504:5873   */\n    tag_250:\n      0x00\n        /* \"#utility.yul\":5667:5734   */\n      tag_252\n        /* \"#utility.yul\":5731:5733   */\n      0x25\n        /* \"#utility.yul\":5726:5729   */\n      dup4\n        /* \"#utility.yul\":5667:5734   */\n      tag_221\n      jump\t// in\n    tag_252:\n        /* \"#utility.yul\":5660:5734   */\n      swap2\n      pop\n        /* \"#utility.yul\":5764:5798   */\n      0x45524332303a2064656372656173656420616c6c6f77616e63652062656c6f77\n        /* \"#utility.yul\":5760:5761   */\n      0x00\n        /* \"#utility.yul\":5755:5758   */\n      dup4\n        /* \"#utility.yul\":5751:5762   */\n      add\n        /* \"#utility.yul\":5744:5799   */\n      mstore\n        /* \"#utility.yul\":5830:5837   */\n      0x207a65726f000000000000000000000000000000000000000000000000000000\n        /* \"#utility.yul\":5825:5827   */\n      0x20\n        /* \"#utility.yul\":5820:5823   */\n      dup4\n        /* \"#utility.yul\":5816:5828   */\n      add\n        /* \"#utility.yul\":5809:5838   */\n      mstore\n        /* \"#utility.yul\":5864:5866   */\n      0x40\n        /* \"#utility.yul\":5859:5862   */\n      dup3\n        /* \"#utility.yul\":5855:5867   */\n      add\n        /* \"#utility.yul\":5848:5867   */\n      swap1\n      pop\n        /* \"#utility.yul\":5650:5873   */\n      swap2\n      swap1\n      pop\n      jump\t// out\n        /* \"#utility.yul\":5879:6208   */\n    tag_253:\n      0x00\n        /* \"#utility.yul\":6042:6109   */\n      tag_255\n        /* \"#utility.yul\":6106:6108   */\n      0x1f\n        /* \"#utility.yul\":6101:6104   */\n      dup4\n        /* \"#utility.yul\":6042:6109   */\n      tag_221\n      jump\t// in\n    tag_255:\n        /* \"#utility.yul\":6035:6109   */\n      swap2\n      pop\n        /* \"#utility.yul\":6139:6172   */\n      0x45524332303a206d696e7420746f20746865207a65726f206164647265737300\n        /* \"#utility.yul\":6135:6136   */\n      0x00\n        /* \"#utility.yul\":6130:6133   */\n      dup4\n        /* \"#utility.yul\":6126:6137   */\n      add\n        /* \"#utility.yul\":6119:6173   */\n      mstore\n        /* \"#utility.yul\":6199:6201   */\n      0x20\n        /* \"#utility.yul\":6194:6197   */\n      dup3\n        /* \"#utility.yul\":6190:6202   */\n      add\n        /* \"#utility.yul\":6183:6202   */\n      swap1\n      pop\n        /* \"#utility.yul\":6025:6208   */\n      swap2\n      swap1\n      pop\n      jump\t// out\n        /* \"#utility.yul\":6214:6332   */\n    tag_256:\n        /* \"#utility.yul\":6301:6325   */\n      tag_258\n        /* \"#utility.yul\":6319:6324   */\n      dup2\n        /* \"#utility.yul\":6301:6325   */\n      tag_259\n      jump\t// in\n    tag_258:\n        /* \"#utility.yul\":6296:6299   */\n      dup3\n        /* \"#utility.yul\":6289:6326   */\n      mstore\n        /* \"#utility.yul\":6279:6332   */\n      pop\n      pop\n      jump\t// out\n        /* \"#utility.yul\":6338:6450   */\n    tag_260:\n        /* \"#utility.yul\":6421:6443   */\n      tag_262\n        /* \"#utility.yul\":6437:6442   */\n      dup2\n        /* \"#utility.yul\":6421:6443   */\n      tag_263\n      jump\t// in\n    tag_262:\n        /* \"#utility.yul\":6416:6419   */\n      dup3\n        /* \"#utility.yul\":6409:6444   */\n      mstore\n        /* \"#utility.yul\":6399:6450   */\n      pop\n      pop\n      jump\t// out\n        /* \"#utility.yul\":6456:6678   */\n    tag_69:\n      0x00\n        /* \"#utility.yul\":6587:6589   */\n      0x20\n        /* \"#utility.yul\":6576:6585   */\n      dup3\n        /* \"#utility.yul\":6572:6590   */\n      add\n        /* \"#utility.yul\":6564:6590   */\n      swap1\n      pop\n        /* \"#utility.yul\":6600:6671   */\n      tag_265\n        /* \"#utility.yul\":6668:6669   */\n      0x00\n        /* \"#utility.yul\":6657:6666   */\n      dup4\n        /* \"#utility.yul\":6653:6670   */\n      add\n        /* \"#utility.yul\":6644:6650   */\n      dup5\n        /* \"#utility.yul\":6600:6671   */\n      tag_208\n      jump\t// in\n    tag_265:\n        /* \"#utility.yul\":6554:6678   */\n      swap3\n      swap2\n      pop\n      pop\n      jump\t// out\n        /* \"#utility.yul\":6684:6894   */\n    tag_29:\n      0x00\n        /* \"#utility.yul\":6809:6811   */\n      0x20\n        /* \"#utility.yul\":6798:6807   */\n      dup3\n        /* \"#utility.yul\":6794:6812   */\n      add\n        /* \"#utility.yul\":6786:6812   */\n      swap1\n      pop\n        /* \"#utility.yul\":6822:6887   */\n      tag_267\n        /* \"#utility.yul\":6884:6885   */\n      0x00\n        /* \"#utility.yul\":6873:6882   */\n      dup4\n        /* \"#utility.yul\":6869:6886   */\n      add\n        /* \"#utility.yul\":6860:6866   */\n      dup5\n        /* \"#utility.yul\":6822:6887   */\n      tag_212\n      jump\t// in\n    tag_267:\n        /* \"#utility.yul\":6776:6894   */\n      swap3\n      swap2\n      pop\n      pop\n      jump\t// out\n        /* \"#utility.yul\":6900:7213   */\n    tag_23:\n      0x00\n        /* \"#utility.yul\":7051:7053   */\n      0x20\n        /* \"#utility.yul\":7040:7049   */\n      dup3\n        /* \"#utility.yul\":7036:7054   */\n      add\n        /* \"#utility.yul\":7028:7054   */\n      swap1\n      pop\n        /* \"#utility.yul\":7100:7109   */\n      dup2\n        /* \"#utility.yul\":7094:7098   */\n      dup2\n        /* \"#utility.yul\":7090:7110   */\n      sub\n        /* \"#utility.yul\":7086:7087   */\n      0x00\n        /* \"#utility.yul\":7075:7084   */\n      dup4\n        /* \"#utility.yul\":7071:7088   */\n      add\n        /* \"#utility.yul\":7064:7111   */\n      mstore\n        /* \"#utility.yul\":7128:7206   */\n      tag_269\n        /* \"#utility.yul\":7201:7205   */\n      dup2\n        /* \"#utility.yul\":7192:7198   */\n      dup5\n        /* \"#utility.yul\":7128:7206   */\n      tag_216\n      jump\t// in\n    tag_269:\n        /* \"#utility.yul\":7120:7206   */\n      swap1\n      pop\n        /* \"#utility.yul\":7018:7213   */\n      swap3\n      swap2\n      pop\n      pop\n      jump\t// out\n        /* \"#utility.yul\":7219:7638   */\n    tag_161:\n      0x00\n        /* \"#utility.yul\":7423:7425   */\n      0x20\n        /* \"#utility.yul\":7412:7421   */\n      dup3\n        /* \"#utility.yul\":7408:7426   */\n      add\n        /* \"#utility.yul\":7400:7426   */\n      swap1\n      pop\n        /* \"#utility.yul\":7472:7481   */\n      dup2\n        /* \"#utility.yul\":7466:7470   */\n      dup2\n        /* \"#utility.yul\":7462:7482   */\n      sub\n        /* \"#utility.yul\":7458:7459   */\n      0x00\n        /* \"#utility.yul\":7447:7456   */\n      dup4\n        /* \"#utility.yul\":7443:7460   */\n      add\n        /* \"#utility.yul\":7436:7483   */\n      mstore\n        /* \"#utility.yul\":7500:7631   */\n      tag_271\n        /* \"#utility.yul\":7626:7630   */\n      dup2\n        /* \"#utility.yul\":7500:7631   */\n      tag_226\n      jump\t// in\n    tag_271:\n        /* \"#utility.yul\":7492:7631   */\n      swap1\n      pop\n        /* \"#utility.yul\":7390:7638   */\n      swap2\n      swap1\n      pop\n      jump\t// out\n        /* \"#utility.yul\":7644:8063   */\n    tag_176:\n      0x00\n        /* \"#utility.yul\":7848:7850   */\n      0x20\n        /* \"#utility.yul\":7837:7846   */\n      dup3\n        /* \"#utility.yul\":7833:7851   */\n      add\n        /* \"#utility.yul\":7825:7851   */\n      swap1\n      pop\n        /* \"#utility.yul\":7897:7906   */\n      dup2\n        /* \"#utility.yul\":7891:7895   */\n      dup2\n        /* \"#utility.yul\":7887:7907   */\n      sub\n        /* \"#utility.yul\":7883:7884   */\n      0x00\n        /* \"#utility.yul\":7872:7881   */\n      dup4\n        /* \"#utility.yul\":7868:7885   */\n      add\n        /* \"#utility.yul\":7861:7908   */\n      mstore\n        /* \"#utility.yul\":7925:8056   */\n      tag_273\n        /* \"#utility.yul\":8051:8055   */\n      dup2\n        /* \"#utility.yul\":7925:8056   */\n      tag_229\n      jump\t// in\n    tag_273:\n        /* \"#utility.yul\":7917:8056   */\n      swap1\n      pop\n        /* \"#utility.yul\":7815:8063   */\n      swap2\n      swap1\n      pop\n      jump\t// out\n        /* \"#utility.yul\":8069:8488   */\n    tag_135:\n      0x00\n        /* \"#utility.yul\":8273:8275   */\n      0x20\n        /* \"#utility.yul\":8262:8271   */\n      dup3\n        /* \"#utility.yul\":8258:8276   */\n      add\n        /* \"#utility.yul\":8250:8276   */\n      swap1\n      pop\n        /* \"#utility.yul\":8322:8331   */\n      dup2\n        /* \"#utility.yul\":8316:8320   */\n      dup2\n        /* \"#utility.yul\":8312:8332   */\n      sub\n        /* \"#utility.yul\":8308:8309   */\n      0x00\n        /* \"#utility.yul\":8297:8306   */\n      dup4\n        /* \"#utility.yul\":8293:8310   */\n      add\n        /* \"#utility.yul\":8286:8333   */\n      mstore\n        /* \"#utility.yul\":8350:8481   */\n      tag_275\n        /* \"#utility.yul\":8476:8480   */\n      dup2\n        /* \"#utility.yul\":8350:8481   */\n      tag_232\n      jump\t// in\n    tag_275:\n        /* \"#utility.yul\":8342:8481   */\n      swap1\n      pop\n        /* \"#utility.yul\":8240:8488   */\n      swap2\n      swap1\n      pop\n      jump\t// out\n        /* \"#utility.yul\":8494:8913   */\n    tag_153:\n      0x00\n        /* \"#utility.yul\":8698:8700   */\n      0x20\n        /* \"#utility.yul\":8687:8696   */\n      dup3\n        /* \"#utility.yul\":8683:8701   */\n      add\n        /* \"#utility.yul\":8675:8701   */\n      swap1\n      pop\n        /* \"#utility.yul\":8747:8756   */\n      dup2\n        /* \"#utility.yul\":8741:8745   */\n      dup2\n        /* \"#utility.yul\":8737:8757   */\n      sub\n        /* \"#utility.yul\":8733:8734   */\n      0x00\n        /* \"#utility.yul\":8722:8731   */\n      dup4\n        /* \"#utility.yul\":8718:8735   */\n      add\n        /* \"#utility.yul\":8711:8758   */\n      mstore\n        /* \"#utility.yul\":8775:8906   */\n      tag_277\n        /* \"#utility.yul\":8901:8905   */\n      dup2\n        /* \"#utility.yul\":8775:8906   */\n      tag_235\n      jump\t// in\n    tag_277:\n        /* \"#utility.yul\":8767:8906   */\n      swap1\n      pop\n        /* \"#utility.yul\":8665:8913   */\n      swap2\n      swap1\n      pop\n      jump\t// out\n        /* \"#utility.yul\":8919:9338   */\n    tag_165:\n      0x00\n        /* \"#utility.yul\":9123:9125   */\n      0x20\n        /* \"#utility.yul\":9112:9121   */\n      dup3\n        /* \"#utility.yul\":9108:9126   */\n      add\n        /* \"#utility.yul\":9100:9126   */\n      swap1\n      pop\n        /* \"#utility.yul\":9172:9181   */\n      dup2\n        /* \"#utility.yul\":9166:9170   */\n      dup2\n        /* \"#utility.yul\":9162:9182   */\n      sub\n        /* \"#utility.yul\":9158:9159   */\n      0x00\n        /* \"#utility.yul\":9147:9156   */\n      dup4\n        /* \"#utility.yul\":9143:9160   */\n      add\n        /* \"#utility.yul\":9136:9183   */\n      mstore\n        /* \"#utility.yul\":9200:9331   */\n      tag_279\n        /* \"#utility.yul\":9326:9330   */\n      dup2\n        /* \"#utility.yul\":9200:9331   */\n      tag_238\n      jump\t// in\n    tag_279:\n        /* \"#utility.yul\":9192:9331   */\n      swap1\n      pop\n        /* \"#utility.yul\":9090:9338   */\n      swap2\n      swap1\n      pop\n      jump\t// out\n        /* \"#utility.yul\":9344:9763   */\n    tag_172:\n      0x00\n        /* \"#utility.yul\":9548:9550   */\n      0x20\n        /* \"#utility.yul\":9537:9546   */\n      dup3\n        /* \"#utility.yul\":9533:9551   */\n      add\n        /* \"#utility.yul\":9525:9551   */\n      swap1\n      pop\n        /* \"#utility.yul\":9597:9606   */\n      dup2\n        /* \"#utility.yul\":9591:9595   */\n      dup2\n        /* \"#utility.yul\":9587:9607   */\n      sub\n        /* \"#utility.yul\":9583:9584   */\n      0x00\n        /* \"#utility.yul\":9572:9581   */\n      dup4\n        /* \"#utility.yul\":9568:9585   */\n      add\n        /* \"#utility.yul\":9561:9608   */\n      mstore\n        /* \"#utility.yul\":9625:9756   */\n      tag_281\n        /* \"#utility.yul\":9751:9755   */\n      dup2\n        /* \"#utility.yul\":9625:9756   */\n      tag_241\n      jump\t// in\n    tag_281:\n        /* \"#utility.yul\":9617:9756   */\n      swap1\n      pop\n        /* \"#utility.yul\":9515:9763   */\n      swap2\n      swap1\n      pop\n      jump\t// out\n        /* \"#utility.yul\":9769:10188   */\n    tag_158:\n      0x00\n        /* \"#utility.yul\":9973:9975   */\n      0x20\n        /* \"#utility.yul\":9962:9971   */\n      dup3\n        /* \"#utility.yul\":9958:9976   */\n      add\n        /* \"#utility.yul\":9950:9976   */\n      swap1\n      pop\n        /* \"#utility.yul\":10022:10031   */\n      dup2\n        /* \"#utility.yul\":10016:10020   */\n      dup2\n        /* \"#utility.yul\":10012:10032   */\n      sub\n        /* \"#utility.yul\":10008:10009   */\n      0x00\n        /* \"#utility.yul\":9997:10006   */\n      dup4\n        /* \"#utility.yul\":9993:10010   */\n      add\n        /* \"#utility.yul\":9986:10033   */\n      mstore\n        /* \"#utility.yul\":10050:10181   */\n      tag_283\n        /* \"#utility.yul\":10176:10180   */\n      dup2\n        /* \"#utility.yul\":10050:10181   */\n      tag_244\n      jump\t// in\n    tag_283:\n        /* \"#utility.yul\":10042:10181   */\n      swap1\n      pop\n        /* \"#utility.yul\":9940:10188   */\n      swap2\n      swap1\n      pop\n      jump\t// out\n        /* \"#utility.yul\":10194:10613   */\n    tag_132:\n      0x00\n        /* \"#utility.yul\":10398:10400   */\n      0x20\n        /* \"#utility.yul\":10387:10396   */\n      dup3\n        /* \"#utility.yul\":10383:10401   */\n      add\n        /* \"#utility.yul\":10375:10401   */\n      swap1\n      pop\n        /* \"#utility.yul\":10447:10456   */\n      dup2\n        /* \"#utility.yul\":10441:10445   */\n      dup2\n        /* \"#utility.yul\":10437:10457   */\n      sub\n        /* \"#utility.yul\":10433:10434   */\n      0x00\n        /* \"#utility.yul\":10422:10431   */\n      dup4\n        /* \"#utility.yul\":10418:10435   */\n      add\n        /* \"#utility.yul\":10411:10458   */\n      mstore\n        /* \"#utility.yul\":10475:10606   */\n      tag_285\n        /* \"#utility.yul\":10601:10605   */\n      dup2\n        /* \"#utility.yul\":10475:10606   */\n      tag_247\n      jump\t// in\n    tag_285:\n        /* \"#utility.yul\":10467:10606   */\n      swap1\n      pop\n        /* \"#utility.yul\":10365:10613   */\n      swap2\n      swap1\n      pop\n      jump\t// out\n        /* \"#utility.yul\":10619:11038   */\n    tag_119:\n      0x00\n        /* \"#utility.yul\":10823:10825   */\n      0x20\n        /* \"#utility.yul\":10812:10821   */\n      dup3\n        /* \"#utility.yul\":10808:10826   */\n      add\n        /* \"#utility.yul\":10800:10826   */\n      swap1\n      pop\n        /* \"#utility.yul\":10872:10881   */\n      dup2\n        /* \"#utility.yul\":10866:10870   */\n      dup2\n        /* \"#utility.yul\":10862:10882   */\n      sub\n        /* \"#utility.yul\":10858:10859   */\n      0x00\n        /* \"#utility.yul\":10847:10856   */\n      dup4\n        /* \"#utility.yul\":10843:10860   */\n      add\n        /* \"#utility.yul\":10836:10883   */\n      mstore\n        /* \"#utility.yul\":10900:11031   */\n      tag_287\n        /* \"#utility.yul\":11026:11030   */\n      dup2\n        /* \"#utility.yul\":10900:11031   */\n      tag_250\n      jump\t// in\n    tag_287:\n        /* \"#utility.yul\":10892:11031   */\n      swap1\n      pop\n        /* \"#utility.yul\":10790:11038   */\n      swap2\n      swap1\n      pop\n      jump\t// out\n        /* \"#utility.yul\":11044:11463   */\n    tag_140:\n      0x00\n        /* \"#utility.yul\":11248:11250   */\n      0x20\n        /* \"#utility.yul\":11237:11246   */\n      dup3\n        /* \"#utility.yul\":11233:11251   */\n      add\n        /* \"#utility.yul\":11225:11251   */\n      swap1\n      pop\n        /* \"#utility.yul\":11297:11306   */\n      dup2\n        /* \"#utility.yul\":11291:11295   */\n      dup2\n        /* \"#utility.yul\":11287:11307   */\n      sub\n        /* \"#utility.yul\":11283:11284   */\n      0x00\n        /* \"#utility.yul\":11272:11281   */\n      dup4\n        /* \"#utility.yul\":11268:11285   */\n      add\n        /* \"#utility.yul\":11261:11308   */\n      mstore\n        /* \"#utility.yul\":11325:11456   */\n      tag_289\n        /* \"#utility.yul\":11451:11455   */\n      dup2\n        /* \"#utility.yul\":11325:11456   */\n      tag_253\n      jump\t// in\n    tag_289:\n        /* \"#utility.yul\":11317:11456   */\n      swap1\n      pop\n        /* \"#utility.yul\":11215:11463   */\n      swap2\n      swap1\n      pop\n      jump\t// out\n        /* \"#utility.yul\":11469:11691   */\n    tag_36:\n      0x00\n        /* \"#utility.yul\":11600:11602   */\n      0x20\n        /* \"#utility.yul\":11589:11598   */\n      dup3\n        /* \"#utility.yul\":11585:11603   */\n      add\n        /* \"#utility.yul\":11577:11603   */\n      swap1\n      pop\n        /* \"#utility.yul\":11613:11684   */\n      tag_291\n        /* \"#utility.yul\":11681:11682   */\n      0x00\n        /* \"#utility.yul\":11670:11679   */\n      dup4\n        /* \"#utility.yul\":11666:11683   */\n      add\n        /* \"#utility.yul\":11657:11663   */\n      dup5\n        /* \"#utility.yul\":11613:11684   */\n      tag_256\n      jump\t// in\n    tag_291:\n        /* \"#utility.yul\":11567:11691   */\n      swap3\n      swap2\n      pop\n      pop\n      jump\t// out\n        /* \"#utility.yul\":11697:11911   */\n    tag_45:\n      0x00\n        /* \"#utility.yul\":11824:11826   */\n      0x20\n        /* \"#utility.yul\":11813:11822   */\n      dup3\n        /* \"#utility.yul\":11809:11827   */\n      add\n        /* \"#utility.yul\":11801:11827   */\n      swap1\n      pop\n        /* \"#utility.yul\":11837:11904   */\n      tag_293\n        /* \"#utility.yul\":11901:11902   */\n      0x00\n        /* \"#utility.yul\":11890:11899   */\n      dup4\n        /* \"#utility.yul\":11886:11903   */\n      add\n        /* \"#utility.yul\":11877:11883   */\n      dup5\n        /* \"#utility.yul\":11837:11904   */\n      tag_260\n      jump\t// in\n    tag_293:\n        /* \"#utility.yul\":11791:11911   */\n      swap3\n      swap2\n      pop\n      pop\n      jump\t// out\n        /* \"#utility.yul\":11917:12016   */\n    tag_219:\n      0x00\n        /* \"#utility.yul\":12003:12008   */\n      dup2\n        /* \"#utility.yul\":11997:12009   */\n      mload\n        /* \"#utility.yul\":11987:12009   */\n      swap1\n      pop\n        /* \"#utility.yul\":11976:12016   */\n      swap2\n      swap1\n      pop\n      jump\t// out\n        /* \"#utility.yul\":12022:12191   */\n    tag_221:\n      0x00\n        /* \"#utility.yul\":12140:12146   */\n      dup3\n        /* \"#utility.yul\":12135:12138   */\n      dup3\n        /* \"#utility.yul\":12128:12147   */\n      mstore\n        /* \"#utility.yul\":12180:12184   */\n      0x20\n        /* \"#utility.yul\":12175:12178   */\n      dup3\n        /* \"#utility.yul\":12171:12185   */\n      add\n        /* \"#utility.yul\":12156:12185   */\n      swap1\n      pop\n        /* \"#utility.yul\":12118:12191   */\n      swap3\n      swap2\n      pop\n      pop\n      jump\t// out\n        /* \"#utility.yul\":12197:12502   */\n    tag_106:\n      0x00\n        /* \"#utility.yul\":12256:12276   */\n      tag_297\n        /* \"#utility.yul\":12274:12275   */\n      dup3\n        /* \"#utility.yul\":12256:12276   */\n      tag_259\n      jump\t// in\n    tag_297:\n        /* \"#utility.yul\":12251:12276   */\n      swap2\n      pop\n        /* \"#utility.yul\":12290:12310   */\n      tag_298\n        /* \"#utility.yul\":12308:12309   */\n      dup4\n        /* \"#utility.yul\":12290:12310   */\n      tag_259\n      jump\t// in\n    tag_298:\n        /* \"#utility.yul\":12285:12310   */\n      swap3\n      pop\n        /* \"#utility.yul\":12444:12445   */\n      dup3\n        /* \"#utility.yul\":12376:12442   */\n      0xffffffffffffffffffffffffffffffffffffffffffffffffffffffffffffffff\n        /* \"#utility.yul\":12372:12446   */\n      sub\n        /* \"#utility.yul\":12369:12370   */\n      dup3\n        /* \"#utility.yul\":12366:12447   */\n      gt\n        /* \"#utility.yul\":12363:12365   */\n      iszero\n      tag_299\n      jumpi\n        /* \"#utility.yul\":12450:12468   */\n      tag_300\n      tag_301\n      jump\t// in\n    tag_300:\n        /* \"#utility.yul\":12363:12365   */\n    tag_299:\n        /* \"#utility.yul\":12494:12495   */\n      dup3\n        /* \"#utility.yul\":12491:12492   */\n      dup3\n        /* \"#utility.yul\":12487:12496   */\n      add\n        /* \"#utility.yul\":12480:12496   */\n      swap1\n      pop\n        /* \"#utility.yul\":12241:12502   */\n      swap3\n      swap2\n      pop\n      pop\n      jump\t// out\n        /* \"#utility.yul\":12508:12699   */\n    tag_178:\n      0x00\n        /* \"#utility.yul\":12568:12588   */\n      tag_303\n        /* \"#utility.yul\":12586:12587   */\n      dup3\n        /* \"#utility.yul\":12568:12588   */\n      tag_259\n      jump\t// in\n    tag_303:\n        /* \"#utility.yul\":12563:12588   */\n      swap2\n      pop\n        /* \"#utility.yul\":12602:12622   */\n      tag_304\n        /* \"#utility.yul\":12620:12621   */\n      dup4\n        /* \"#utility.yul\":12602:12622   */\n      tag_259\n      jump\t// in\n    tag_304:\n        /* \"#utility.yul\":12597:12622   */\n      swap3\n      pop\n        /* \"#utility.yul\":12641:12642   */\n      dup3\n        /* \"#utility.yul\":12638:12639   */\n      dup3\n        /* \"#utility.yul\":12635:12643   */\n      lt\n        /* \"#utility.yul\":12632:12634   */\n      iszero\n      tag_305\n      jumpi\n        /* \"#utility.yul\":12646:12664   */\n      tag_306\n      tag_301\n      jump\t// in\n    tag_306:\n        /* \"#utility.yul\":12632:12634   */\n    tag_305:\n        /* \"#utility.yul\":12691:12692   */\n      dup3\n        /* \"#utility.yul\":12688:12689   */\n      dup3\n        /* \"#utility.yul\":12684:12693   */\n      sub\n        /* \"#utility.yul\":12676:12693   */\n      swap1\n      pop\n        /* \"#utility.yul\":12553:12699   */\n      swap3\n      swap2\n      pop\n      pop\n      jump\t// out\n        /* \"#utility.yul\":12705:12801   */\n    tag_211:\n      0x00\n        /* \"#utility.yul\":12771:12795   */\n      tag_308\n        /* \"#utility.yul\":12789:12794   */\n      dup3\n        /* \"#utility.yul\":12771:12795   */\n      tag_309\n      jump\t// in\n    tag_308:\n        /* \"#utility.yul\":12760:12795   */\n      swap1\n      pop\n        /* \"#utility.yul\":12750:12801   */\n      swap2\n      swap1\n      pop\n      jump\t// out\n        /* \"#utility.yul\":12807:12897   */\n    tag_215:\n      0x00\n        /* \"#utility.yul\":12884:12889   */\n      dup2\n        /* \"#utility.yul\":12877:12890   */\n      iszero\n        /* \"#utility.yul\":12870:12891   */\n      iszero\n        /* \"#utility.yul\":12859:12891   */\n      swap1\n      pop\n        /* \"#utility.yul\":12849:12897   */\n      swap2\n      swap1\n      pop\n      jump\t// out\n        /* \"#utility.yul\":12903:13029   */\n    tag_309:\n      0x00\n        /* \"#utility.yul\":12980:13022   */\n      0xffffffffffffffffffffffffffffffffffffffff\n        /* \"#utility.yul\":12973:12978   */\n      dup3\n        /* \"#utility.yul\":12969:13023   */\n      and\n        /* \"#utility.yul\":12958:13023   */\n      swap1\n      pop\n        /* \"#utility.yul\":12948:13029   */\n      swap2\n      swap1\n      pop\n      jump\t// out\n        /* \"#utility.yul\":13035:13112   */\n    tag_259:\n      0x00\n        /* \"#utility.yul\":13101:13106   */\n      dup2\n        /* \"#utility.yul\":13090:13106   */\n      swap1\n      pop\n        /* \"#utility.yul\":13080:13112   */\n      swap2\n      swap1\n      pop\n      jump\t// out\n        /* \"#utility.yul\":13118:13204   */\n    tag_263:\n      0x00\n        /* \"#utility.yul\":13193:13197   */\n      0xff\n        /* \"#utility.yul\":13186:13191   */\n      dup3\n        /* \"#utility.yul\":13182:13198   */\n      and\n        /* \"#utility.yul\":13171:13198   */\n      swap1\n      pop\n        /* \"#utility.yul\":13161:13204   */\n      swap2\n      swap1\n      pop\n      jump\t// out\n        /* \"#utility.yul\":13210:13517   */\n    tag_223:\n        /* \"#utility.yul\":13278:13279   */\n      0x00\n        /* \"#utility.yul\":13288:13401   */\n    tag_315:\n        /* \"#utility.yul\":13302:13308   */\n      dup4\n        /* \"#utility.yul\":13299:13300   */\n      dup2\n        /* \"#utility.yul\":13296:13309   */\n      lt\n        /* \"#utility.yul\":13288:13401   */\n      iszero\n      tag_317\n      jumpi\n        /* \"#utility.yul\":13387:13388   */\n      dup1\n        /* \"#utility.yul\":13382:13385   */\n      dup3\n        /* \"#utility.yul\":13378:13389   */\n      add\n        /* \"#utility.yul\":13372:13390   */\n      mload\n        /* \"#utility.yul\":13368:13369   */\n      dup2\n        /* \"#utility.yul\":13363:13366   */\n      dup5\n        /* \"#utility.yul\":13359:13370   */\n      add\n        /* \"#utility.yul\":13352:13391   */\n      mstore\n        /* \"#utility.yul\":13324:13326   */\n      0x20\n        /* \"#utility.yul\":13321:13322   */\n      dup2\n        /* \"#utility.yul\":13317:13327   */\n      add\n        /* \"#utility.yul\":13312:13327   */\n      swap1\n      pop\n        /* \"#utility.yul\":13288:13401   */\n      jump(tag_315)\n    tag_317:\n        /* \"#utility.yul\":13419:13425   */\n      dup4\n        /* \"#utility.yul\":13416:13417   */\n      dup2\n        /* \"#utility.yul\":13413:13426   */\n      gt\n        /* \"#utility.yul\":13410:13412   */\n      iszero\n      tag_318\n      jumpi\n        /* \"#utility.yul\":13499:13500   */\n      0x00\n        /* \"#utility.yul\":13490:13496   */\n      dup5\n        /* \"#utility.yul\":13485:13488   */\n      dup5\n        /* \"#utility.yul\":13481:13497   */\n      add\n        /* \"#utility.yul\":13474:13501   */\n      mstore\n        /* \"#utility.yul\":13410:13412   */\n    tag_318:\n        /* \"#utility.yul\":13259:13517   */\n      pop\n      pop\n      pop\n      pop\n      jump\t// out\n        /* \"#utility.yul\":13523:13843   */\n    tag_80:\n      0x00\n        /* \"#utility.yul\":13604:13605   */\n      0x02\n        /* \"#utility.yul\":13598:13602   */\n      dup3\n        /* \"#utility.yul\":13594:13606   */\n      div\n        /* \"#utility.yul\":13584:13606   */\n      swap1\n      pop\n        /* \"#utility.yul\":13651:13652   */\n      0x01\n        /* \"#utility.yul\":13645:13649   */\n      dup3\n        /* \"#utility.yul\":13641:13653   */\n      and\n        /* \"#utility.yul\":13672:13690   */\n      dup1\n        /* \"#utility.yul\":13662:13664   */\n      tag_320\n      jumpi\n        /* \"#utility.yul\":13728:13732   */\n      0x7f\n        /* \"#utility.yul\":13720:13726   */\n      dup3\n        /* \"#utility.yul\":13716:13733   */\n      and\n        /* \"#utility.yul\":13706:13733   */\n      swap2\n      pop\n        /* \"#utility.yul\":13662:13664   */\n    tag_320:\n        /* \"#utility.yul\":13790:13792   */\n      0x20\n        /* \"#utility.yul\":13782:13788   */\n      dup3\n        /* \"#utility.yul\":13779:13793   */\n      lt\n        /* \"#utility.yul\":13759:13777   */\n      dup2\n        /* \"#utility.yul\":13756:13794   */\n      eq\n        /* \"#utility.yul\":13753:13755   */\n      iszero\n      tag_321\n      jumpi\n        /* \"#utility.yul\":13809:13827   */\n      tag_322\n      tag_323\n      jump\t// in\n    tag_322:\n        /* \"#utility.yul\":13753:13755   */\n    tag_321:\n        /* \"#utility.yul\":13574:13843   */\n      pop\n      swap2\n      swap1\n      pop\n      jump\t// out\n        /* \"#utility.yul\":13849:14029   */\n    tag_301:\n        /* \"#utility.yul\":13897:13974   */\n      0x4e487b7100000000000000000000000000000000000000000000000000000000\n        /* \"#utility.yul\":13894:13895   */\n      0x00\n        /* \"#utility.yul\":13887:13975   */\n      mstore\n        /* \"#utility.yul\":13994:13998   */\n      0x11\n        /* \"#utility.yul\":13991:13992   */\n      0x04\n        /* \"#utility.yul\":13984:13999   */\n      mstore\n        /* \"#utility.yul\":14018:14022   */\n      0x24\n        /* \"#utility.yul\":14015:14016   */\n      0x00\n        /* \"#utility.yul\":14008:14023   */\n      revert\n        /* \"#utility.yul\":14035:14215   */\n    tag_323:\n        /* \"#utility.yul\":14083:14160   */\n      0x4e487b7100000000000000000000000000000000000000000000000000000000\n        /* \"#utility.yul\":14080:14081   */\n      0x00\n        /* \"#utility.yul\":14073:14161   */\n      mstore\n        /* \"#utility.yul\":14180:14184   */\n      0x22\n        /* \"#utility.yul\":14177:14178   */\n      0x04\n        /* \"#utility.yul\":14170:14185   */\n      mstore\n        /* \"#utility.yul\":14204:14208   */\n      0x24\n        /* \"#utility.yul\":14201:14202   */\n      0x00\n        /* \"#utility.yul\":14194:14209   */\n      revert\n        /* \"#utility.yul\":14221:14323   */\n    tag_225:\n      0x00\n        /* \"#utility.yul\":14313:14315   */\n      0x1f\n        /* \"#utility.yul\":14309:14316   */\n      not\n        /* \"#utility.yul\":14304:14306   */\n      0x1f\n        /* \"#utility.yul\":14297:14302   */\n      dup4\n        /* \"#utility.yul\":14293:14307   */\n      add\n        /* \"#utility.yul\":14289:14317   */\n      and\n        /* \"#utility.yul\":14279:14317   */\n      swap1\n      pop\n        /* \"#utility.yul\":14269:14323   */\n      swap2\n      swap1\n      pop\n      jump\t// out\n        /* \"#utility.yul\":14329:14451   */\n    tag_187:\n        /* \"#utility.yul\":14402:14426   */\n      tag_328\n        /* \"#utility.yul\":14420:14425   */\n      dup2\n        /* \"#utility.yul\":14402:14426   */\n      tag_211\n      jump\t// in\n    tag_328:\n        /* \"#utility.yul\":14395:14400   */\n      dup2\n        /* \"#utility.yul\":14392:14427   */\n      eq\n        /* \"#utility.yul\":14382:14384   */\n      tag_329\n      jumpi\n        /* \"#utility.yul\":14441:14442   */\n      0x00\n        /* \"#utility.yul\":14438:14439   */\n      dup1\n        /* \"#utility.yul\":14431:14443   */\n      revert\n        /* \"#utility.yul\":14382:14384   */\n    tag_329:\n        /* \"#utility.yul\":14372:14451   */\n      pop\n      jump\t// out\n        /* \"#utility.yul\":14457:14579   */\n    tag_191:\n        /* \"#utility.yul\":14530:14554   */\n      tag_331\n        /* \"#utility.yul\":14548:14553   */\n      dup2\n        /* \"#utility.yul\":14530:14554   */\n      tag_259\n      jump\t// in\n    tag_331:\n        /* \"#utility.yul\":14523:14528   */\n      dup2\n        /* \"#utility.yul\":14520:14555   */\n      eq\n        /* \"#utility.yul\":14510:14512   */\n      tag_332\n      jumpi\n        /* \"#utility.yul\":14569:14570   */\n      0x00\n        /* \"#utility.yul\":14566:14567   */\n      dup1\n        /* \"#utility.yul\":14559:14571   */\n      revert\n        /* \"#utility.yul\":14510:14512   */\n    tag_332:\n        /* \"#utility.yul\":14500:14579   */\n      pop\n      jump\t// out\n\n    auxdata: 0xa2646970667358221220ae8e5b2830ecebb430864ca85c8478400698d5c5e8eba51f8e385f9c6cffdd6864736f6c63430008000033\n}\n",
				"bytecode": {
					"linkReferences": {},
					"object": "60806040526315fe7e406002553480156200001957600080fd5b5060405162001b6938038062001b6983398181016040528101906200003f9190620001dc565b816003908051906020019062000057929190620000ba565b50806004908051906020019062000070929190620000ba565b5033600560006101000a81548173ffffffffffffffffffffffffffffffffffffffff021916908373ffffffffffffffffffffffffffffffffffffffff160217905550505062000380565b828054620000c890620002ec565b90600052602060002090601f016020900481019282620000ec576000855562000138565b82601f106200010757805160ff191683800117855562000138565b8280016001018555821562000138579182015b82811115620001375782518255916020019190600101906200011a565b5b5090506200014791906200014b565b5090565b5b80821115620001665760008160009055506001016200014c565b5090565b6000620001816200017b8462000283565b6200024f565b9050828152602081018484840111156200019a57600080fd5b620001a7848285620002b6565b509392505050565b600082601f830112620001c157600080fd5b8151620001d38482602086016200016a565b91505092915050565b60008060408385031215620001f057600080fd5b600083015167ffffffffffffffff8111156200020b57600080fd5b6200021985828601620001af565b925050602083015167ffffffffffffffff8111156200023757600080fd5b6200024585828601620001af565b9150509250929050565b6000604051905081810181811067ffffffffffffffff8211171562000279576200027862000351565b5b8060405250919050565b600067ffffffffffffffff821115620002a157620002a062000351565b5b601f19601f8301169050602081019050919050565b60005b83811015620002d6578082015181840152602081019050620002b9565b83811115620002e6576000848401525b50505050565b600060028204905060018216806200030557607f821691505b602082108114156200031c576200031b62000322565b5b50919050565b7f4e487b7100000000000000000000000000000000000000000000000000000000600052602260045260246000fd5b7f4e487b7100000000000000000000000000000000000000000000000000000000600052604160045260246000fd5b6117d980620003906000396000f3fe608060405234801561001057600080fd5b50600436106100ea5760003560e01c806370a082311161008c578063a9059cbb11610066578063a9059cbb14610273578063b4a99a4e146102a3578063cc16f5db146102c1578063dd62ed3e146102dd576100ea565b806370a08231146101f557806395d89b4114610225578063a457c2d714610243576100ea565b806318160ddd116100c857806318160ddd1461015957806323b872dd14610177578063313ce567146101a757806339509351146101c5576100ea565b806306fdde03146100ef578063095ea7b31461010d5780630f6798a51461013d575b600080fd5b6100f761030d565b604051610104919061140e565b60405180910390f35b61012760048036038101906101229190610f77565b61039f565b60405161013491906113f3565b60405180910390f35b61015760048036038101906101529190610f77565b6103c2565b005b6101616103d0565b60405161016e9190611570565b60405180910390f35b610191600480360381019061018c9190610f28565b6103da565b60405161019e91906113f3565b60405180910390f35b6101af610409565b6040516101bc919061158b565b60405180910390f35b6101df60048036038101906101da9190610f77565b610412565b6040516101ec91906113f3565b60405180910390f35b61020f600480360381019061020a9190610ec3565b610449565b60405161021c9190611570565b60405180910390f35b61022d610491565b60405161023a919061140e565b60405180910390f35b61025d60048036038101906102589190610f77565b610523565b60405161026a91906113f3565b60405180910390f35b61028d60048036038101906102889190610f77565b61059a565b60405161029a91906113f3565b60405180910390f35b6102ab6105bd565b6040516102b891906113d8565b60405180910390f35b6102db60048036038101906102d69190610f77565b6105e3565b005b6102f760048036038101906102f29190610eec565b6105f1565b6040516103049190611570565b60405180910390f35b60606003805461031c906116d4565b80601f0160208091040260200160405190810160405280929190818152602001828054610348906116d4565b80156103955780601f1061036a57610100808354040283529160200191610395565b820191906000526020600020905b81548152906001019060200180831161037857829003601f168201915b5050505050905090565b6000806103aa610678565b90506103b7818585610680565b600191505092915050565b6103cc828261084b565b5050565b6000600254905090565b6000806103e5610678565b90506103f28582856109ab565b6103fd858585610a37565b60019150509392505050565b60006012905090565b60008061041d610678565b905061043e81858561042f85896105f1565b61043991906115c2565b610680565b600191505092915050565b60008060008373ffffffffffffffffffffffffffffffffffffffff1673ffffffffffffffffffffffffffffffffffffffff168152602001908152602001600020549050919050565b6060600480546104a0906116d4565b80601f01602080910402602001604051908101604052809291908181526020018280546104cc906116d4565b80156105195780601f106104ee57610100808354040283529160200191610519565b820191906000526020600020905b8154815290600101906020018083116104fc57829003601f168201915b5050505050905090565b60008061052e610678565b9050600061053c82866105f1565b905083811015610581576040517f08c379a000000000000000000000000000000000000000000000000000000000815260040161057890611530565b60405180910390fd5b61058e8286868403610680565b60019250505092915050565b6000806105a5610678565b90506105b2818585610a37565b600191505092915050565b600560009054906101000a900473ffffffffffffffffffffffffffffffffffffffff1681565b6105ed8282610cb8565b5050565b6000600160008473ffffffffffffffffffffffffffffffffffffffff1673ffffffffffffffffffffffffffffffffffffffff16815260200190815260200160002060008373ffffffffffffffffffffffffffffffffffffffff1673ffffffffffffffffffffffffffffffffffffffff16815260200190815260200160002054905092915050565b600033905090565b600073ffffffffffffffffffffffffffffffffffffffff168373ffffffffffffffffffffffffffffffffffffffff1614156106f0576040517f08c379a00000000000000000000000000000000000000000000000000000000081526004016106e790611510565b60405180910390fd5b600073ffffffffffffffffffffffffffffffffffffffff168273ffffffffffffffffffffffffffffffffffffffff161415610760576040517f08c379a000000000000000000000000000000000000000000000000000000000815260040161075790611470565b60405180910390fd5b80600160008573ffffffffffffffffffffffffffffffffffffffff1673ffffffffffffffffffffffffffffffffffffffff16815260200190815260200160002060008473ffffffffffffffffffffffffffffffffffffffff1673ffffffffffffffffffffffffffffffffffffffff168152602001908152602001600020819055508173ffffffffffffffffffffffffffffffffffffffff168373ffffffffffffffffffffffffffffffffffffffff167f8c5be1e5ebec7d5bd14f71427d1e84f3dd0314c0f7b2291e5b200ac8c7c3b9258360405161083e9190611570565b60405180910390a3505050565b600073ffffffffffffffffffffffffffffffffffffffff168273ffffffffffffffffffffffffffffffffffffffff1614156108bb576040517f08c379a00000000000000000000000000000000000000000000000000000000081526004016108b290611550565b60405180910390fd5b6108c760008383610e8f565b80600260008282546108d991906115c2565b92505081905550806000808473ffffffffffffffffffffffffffffffffffffffff1673ffffffffffffffffffffffffffffffffffffffff168152602001908152602001600020600082825461092e91906115c2565b925050819055508173ffffffffffffffffffffffffffffffffffffffff16600073ffffffffffffffffffffffffffffffffffffffff167fddf252ad1be2c89b69c2b068fc378daa952ba7f163c4a11628f55a4df523b3ef836040516109939190611570565b60405180910390a36109a760008383610e94565b5050565b60006109b784846105f1565b90507fffffffffffffffffffffffffffffffffffffffffffffffffffffffffffffffff8114610a315781811015610a23576040517f08c379a0000000000000000000000000000000000000000000000000000000008152600401610a1a90611490565b60405180910390fd5b610a308484848403610680565b5b50505050565b600073ffffffffffffffffffffffffffffffffffffffff168373ffffffffffffffffffffffffffffffffffffffff161415610aa7576040517f08c379a0000000000000000000000000000000000000000000000000000000008152600401610a9e906114f0565b60405180910390fd5b600073ffffffffffffffffffffffffffffffffffffffff168273ffffffffffffffffffffffffffffffffffffffff161415610b17576040517f08c379a0000000000000000000000000000000000000000000000000000000008152600401610b0e90611430565b60405180910390fd5b610b22838383610e8f565b60008060008573ffffffffffffffffffffffffffffffffffffffff1673ffffffffffffffffffffffffffffffffffffffff16815260200190815260200160002054905081811015610ba8576040517f08c379a0000000000000000000000000000000000000000000000000000000008152600401610b9f906114b0565b60405180910390fd5b8181036000808673ffffffffffffffffffffffffffffffffffffffff1673ffffffffffffffffffffffffffffffffffffffff16815260200190815260200160002081905550816000808573ffffffffffffffffffffffffffffffffffffffff1673ffffffffffffffffffffffffffffffffffffffff1681526020019081526020016000206000828254610c3b91906115c2565b925050819055508273ffffffffffffffffffffffffffffffffffffffff168473ffffffffffffffffffffffffffffffffffffffff167fddf252ad1be2c89b69c2b068fc378daa952ba7f163c4a11628f55a4df523b3ef84604051610c9f9190611570565b60405180910390a3610cb2848484610e94565b50505050565b600073ffffffffffffffffffffffffffffffffffffffff168273ffffffffffffffffffffffffffffffffffffffff161415610d28576040517f08c379a0000000000000000000000000000000000000000000000000000000008152600401610d1f906114d0565b60405180910390fd5b610d3482600083610e8f565b60008060008473ffffffffffffffffffffffffffffffffffffffff1673ffffffffffffffffffffffffffffffffffffffff16815260200190815260200160002054905081811015610dba576040517f08c379a0000000000000000000000000000000000000000000000000000000008152600401610db190611450565b60405180910390fd5b8181036000808573ffffffffffffffffffffffffffffffffffffffff1673ffffffffffffffffffffffffffffffffffffffff168152602001908152602001600020819055508160026000828254610e119190611618565b92505081905550600073ffffffffffffffffffffffffffffffffffffffff168373ffffffffffffffffffffffffffffffffffffffff167fddf252ad1be2c89b69c2b068fc378daa952ba7f163c4a11628f55a4df523b3ef84604051610e769190611570565b60405180910390a3610e8a83600084610e94565b505050565b505050565b505050565b600081359050610ea881611775565b92915050565b600081359050610ebd8161178c565b92915050565b600060208284031215610ed557600080fd5b6000610ee384828501610e99565b91505092915050565b60008060408385031215610eff57600080fd5b6000610f0d85828601610e99565b9250506020610f1e85828601610e99565b9150509250929050565b600080600060608486031215610f3d57600080fd5b6000610f4b86828701610e99565b9350506020610f5c86828701610e99565b9250506040610f6d86828701610eae565b9150509250925092565b60008060408385031215610f8a57600080fd5b6000610f9885828601610e99565b9250506020610fa985828601610eae565b9150509250929050565b610fbc8161164c565b82525050565b610fcb8161165e565b82525050565b6000610fdc826115a6565b610fe681856115b1565b9350610ff68185602086016116a1565b610fff81611764565b840191505092915050565b60006110176023836115b1565b91507f45524332303a207472616e7366657220746f20746865207a65726f206164647260008301527f65737300000000000000000000000000000000000000000000000000000000006020830152604082019050919050565b600061107d6022836115b1565b91507f45524332303a206275726e20616d6f756e7420657863656564732062616c616e60008301527f63650000000000000000000000000000000000000000000000000000000000006020830152604082019050919050565b60006110e36022836115b1565b91507f45524332303a20617070726f766520746f20746865207a65726f20616464726560008301527f73730000000000000000000000000000000000000000000000000000000000006020830152604082019050919050565b6000611149601d836115b1565b91507f45524332303a20696e73756666696369656e7420616c6c6f77616e63650000006000830152602082019050919050565b60006111896026836115b1565b91507f45524332303a207472616e7366657220616d6f756e742065786365656473206260008301527f616c616e636500000000000000000000000000000000000000000000000000006020830152604082019050919050565b60006111ef6021836115b1565b91507f45524332303a206275726e2066726f6d20746865207a65726f2061646472657360008301527f73000000000000000000000000000000000000000000000000000000000000006020830152604082019050919050565b60006112556025836115b1565b91507f45524332303a207472616e736665722066726f6d20746865207a65726f20616460008301527f64726573730000000000000000000000000000000000000000000000000000006020830152604082019050919050565b60006112bb6024836115b1565b91507f45524332303a20617070726f76652066726f6d20746865207a65726f2061646460008301527f72657373000000000000000000000000000000000000000000000000000000006020830152604082019050919050565b60006113216025836115b1565b91507f45524332303a2064656372656173656420616c6c6f77616e63652062656c6f7760008301527f207a65726f0000000000000000000000000000000000000000000000000000006020830152604082019050919050565b6000611387601f836115b1565b91507f45524332303a206d696e7420746f20746865207a65726f2061646472657373006000830152602082019050919050565b6113c38161168a565b82525050565b6113d281611694565b82525050565b60006020820190506113ed6000830184610fb3565b92915050565b60006020820190506114086000830184610fc2565b92915050565b600060208201905081810360008301526114288184610fd1565b905092915050565b600060208201905081810360008301526114498161100a565b9050919050565b6000602082019050818103600083015261146981611070565b9050919050565b60006020820190508181036000830152611489816110d6565b9050919050565b600060208201905081810360008301526114a98161113c565b9050919050565b600060208201905081810360008301526114c98161117c565b9050919050565b600060208201905081810360008301526114e9816111e2565b9050919050565b6000602082019050818103600083015261150981611248565b9050919050565b60006020820190508181036000830152611529816112ae565b9050919050565b6000602082019050818103600083015261154981611314565b9050919050565b600060208201905081810360008301526115698161137a565b9050919050565b600060208201905061158560008301846113ba565b92915050565b60006020820190506115a060008301846113c9565b92915050565b600081519050919050565b600082825260208201905092915050565b60006115cd8261168a565b91506115d88361168a565b9250827fffffffffffffffffffffffffffffffffffffffffffffffffffffffffffffffff0382111561160d5761160c611706565b5b828201905092915050565b60006116238261168a565b915061162e8361168a565b92508282101561164157611640611706565b5b828203905092915050565b60006116578261166a565b9050919050565b60008115159050919050565b600073ffffffffffffffffffffffffffffffffffffffff82169050919050565b6000819050919050565b600060ff82169050919050565b60005b838110156116bf5780820151818401526020810190506116a4565b838111156116ce576000848401525b50505050565b600060028204905060018216806116ec57607f821691505b60208210811415611700576116ff611735565b5b50919050565b7f4e487b7100000000000000000000000000000000000000000000000000000000600052601160045260246000fd5b7f4e487b7100000000000000000000000000000000000000000000000000000000600052602260045260246000fd5b6000601f19601f8301169050919050565b61177e8161164c565b811461178957600080fd5b50565b6117958161168a565b81146117a057600080fd5b5056fea2646970667358221220ae8e5b2830ecebb430864ca85c8478400698d5c5e8eba51f8e385f9c6cffdd6864736f6c63430008000033",
					"opcodes": "PUSH1 0x80 PUSH1 0x40 MSTORE PUSH4 0x15FE7E40 PUSH1 0x2 SSTORE CALLVALUE DUP1 ISZERO PUSH3 0x19 JUMPI PUSH1 0x0 DUP1 REVERT JUMPDEST POP PUSH1 0x40 MLOAD PUSH3 0x1B69 CODESIZE SUB DUP1 PUSH3 0x1B69 DUP4 CODECOPY DUP2 DUP2 ADD PUSH1 0x40 MSTORE DUP2 ADD SWAP1 PUSH3 0x3F SWAP2 SWAP1 PUSH3 0x1DC JUMP JUMPDEST DUP2 PUSH1 0x3 SWAP1 DUP1 MLOAD SWAP1 PUSH1 0x20 ADD SWAP1 PUSH3 0x57 SWAP3 SWAP2 SWAP1 PUSH3 0xBA JUMP JUMPDEST POP DUP1 PUSH1 0x4 SWAP1 DUP1 MLOAD SWAP1 PUSH1 0x20 ADD SWAP1 PUSH3 0x70 SWAP3 SWAP2 SWAP1 PUSH3 0xBA JUMP JUMPDEST POP CALLER PUSH1 0x5 PUSH1 0x0 PUSH2 0x100 EXP DUP2 SLOAD DUP2 PUSH20 0xFFFFFFFFFFFFFFFFFFFFFFFFFFFFFFFFFFFFFFFF MUL NOT AND SWAP1 DUP4 PUSH20 0xFFFFFFFFFFFFFFFFFFFFFFFFFFFFFFFFFFFFFFFF AND MUL OR SWAP1 SSTORE POP POP POP PUSH3 0x380 JUMP JUMPDEST DUP3 DUP1 SLOAD PUSH3 0xC8 SWAP1 PUSH3 0x2EC JUMP JUMPDEST SWAP1 PUSH1 0x0 MSTORE PUSH1 0x20 PUSH1 0x0 KECCAK256 SWAP1 PUSH1 0x1F ADD PUSH1 0x20 SWAP1 DIV DUP2 ADD SWAP3 DUP3 PUSH3 0xEC JUMPI PUSH1 0x0 DUP6 SSTORE PUSH3 0x138 JUMP JUMPDEST DUP3 PUSH1 0x1F LT PUSH3 0x107 JUMPI DUP1 MLOAD PUSH1 0xFF NOT AND DUP4 DUP1 ADD OR DUP6 SSTORE PUSH3 0x138 JUMP JUMPDEST DUP3 DUP1 ADD PUSH1 0x1 ADD DUP6 SSTORE DUP3 ISZERO PUSH3 0x138 JUMPI SWAP2 DUP3 ADD JUMPDEST DUP3 DUP2 GT ISZERO PUSH3 0x137 JUMPI DUP3 MLOAD DUP3 SSTORE SWAP2 PUSH1 0x20 ADD SWAP2 SWAP1 PUSH1 0x1 ADD SWAP1 PUSH3 0x11A JUMP JUMPDEST JUMPDEST POP SWAP1 POP PUSH3 0x147 SWAP2 SWAP1 PUSH3 0x14B JUMP JUMPDEST POP SWAP1 JUMP JUMPDEST JUMPDEST DUP1 DUP3 GT ISZERO PUSH3 0x166 JUMPI PUSH1 0x0 DUP2 PUSH1 0x0 SWAP1 SSTORE POP PUSH1 0x1 ADD PUSH3 0x14C JUMP JUMPDEST POP SWAP1 JUMP JUMPDEST PUSH1 0x0 PUSH3 0x181 PUSH3 0x17B DUP5 PUSH3 0x283 JUMP JUMPDEST PUSH3 0x24F JUMP JUMPDEST SWAP1 POP DUP3 DUP2 MSTORE PUSH1 0x20 DUP2 ADD DUP5 DUP5 DUP5 ADD GT ISZERO PUSH3 0x19A JUMPI PUSH1 0x0 DUP1 REVERT JUMPDEST PUSH3 0x1A7 DUP5 DUP3 DUP6 PUSH3 0x2B6 JUMP JUMPDEST POP SWAP4 SWAP3 POP POP POP JUMP JUMPDEST PUSH1 0x0 DUP3 PUSH1 0x1F DUP4 ADD SLT PUSH3 0x1C1 JUMPI PUSH1 0x0 DUP1 REVERT JUMPDEST DUP2 MLOAD PUSH3 0x1D3 DUP5 DUP3 PUSH1 0x20 DUP7 ADD PUSH3 0x16A JUMP JUMPDEST SWAP2 POP POP SWAP3 SWAP2 POP POP JUMP JUMPDEST PUSH1 0x0 DUP1 PUSH1 0x40 DUP4 DUP6 SUB SLT ISZERO PUSH3 0x1F0 JUMPI PUSH1 0x0 DUP1 REVERT JUMPDEST PUSH1 0x0 DUP4 ADD MLOAD PUSH8 0xFFFFFFFFFFFFFFFF DUP2 GT ISZERO PUSH3 0x20B JUMPI PUSH1 0x0 DUP1 REVERT JUMPDEST PUSH3 0x219 DUP6 DUP3 DUP7 ADD PUSH3 0x1AF JUMP JUMPDEST SWAP3 POP POP PUSH1 0x20 DUP4 ADD MLOAD PUSH8 0xFFFFFFFFFFFFFFFF DUP2 GT ISZERO PUSH3 0x237 JUMPI PUSH1 0x0 DUP1 REVERT JUMPDEST PUSH3 0x245 DUP6 DUP3 DUP7 ADD PUSH3 0x1AF JUMP JUMPDEST SWAP2 POP POP SWAP3 POP SWAP3 SWAP1 POP JUMP JUMPDEST PUSH1 0x0 PUSH1 0x40 MLOAD SWAP1 POP DUP2 DUP2 ADD DUP2 DUP2 LT PUSH8 0xFFFFFFFFFFFFFFFF DUP3 GT OR ISZERO PUSH3 0x279 JUMPI PUSH3 0x278 PUSH3 0x351 JUMP JUMPDEST JUMPDEST DUP1 PUSH1 0x40 MSTORE POP SWAP2 SWAP1 POP JUMP JUMPDEST PUSH1 0x0 PUSH8 0xFFFFFFFFFFFFFFFF DUP3 GT ISZERO PUSH3 0x2A1 JUMPI PUSH3 0x2A0 PUSH3 0x351 JUMP JUMPDEST JUMPDEST PUSH1 0x1F NOT PUSH1 0x1F DUP4 ADD AND SWAP1 POP PUSH1 0x20 DUP2 ADD SWAP1 POP SWAP2 SWAP1 POP JUMP JUMPDEST PUSH1 0x0 JUMPDEST DUP4 DUP2 LT ISZERO PUSH3 0x2D6 JUMPI DUP1 DUP3 ADD MLOAD DUP2 DUP5 ADD MSTORE PUSH1 0x20 DUP2 ADD SWAP1 POP PUSH3 0x2B9 JUMP JUMPDEST DUP4 DUP2 GT ISZERO PUSH3 0x2E6 JUMPI PUSH1 0x0 DUP5 DUP5 ADD MSTORE JUMPDEST POP POP POP POP JUMP JUMPDEST PUSH1 0x0 PUSH1 0x2 DUP3 DIV SWAP1 POP PUSH1 0x1 DUP3 AND DUP1 PUSH3 0x305 JUMPI PUSH1 0x7F DUP3 AND SWAP2 POP JUMPDEST PUSH1 0x20 DUP3 LT DUP2 EQ ISZERO PUSH3 0x31C JUMPI PUSH3 0x31B PUSH3 0x322 JUMP JUMPDEST JUMPDEST POP SWAP2 SWAP1 POP JUMP JUMPDEST PUSH32 0x4E487B7100000000000000000000000000000000000000000000000000000000 PUSH1 0x0 MSTORE PUSH1 0x22 PUSH1 0x4 MSTORE PUSH1 0x24 PUSH1 0x0 REVERT JUMPDEST PUSH32 0x4E487B7100000000000000000000000000000000000000000000000000000000 PUSH1 0x0 MSTORE PUSH1 0x41 PUSH1 0x4 MSTORE PUSH1 0x24 PUSH1 0x0 REVERT JUMPDEST PUSH2 0x17D9 DUP1 PUSH3 0x390 PUSH1 0x0 CODECOPY PUSH1 0x0 RETURN INVALID PUSH1 0x80 PUSH1 0x40 MSTORE CALLVALUE DUP1 ISZERO PUSH2 0x10 JUMPI PUSH1 0x0 DUP1 REVERT JUMPDEST POP PUSH1 0x4 CALLDATASIZE LT PUSH2 0xEA JUMPI PUSH1 0x0 CALLDATALOAD PUSH1 0xE0 SHR DUP1 PUSH4 0x70A08231 GT PUSH2 0x8C JUMPI DUP1 PUSH4 0xA9059CBB GT PUSH2 0x66 JUMPI DUP1 PUSH4 0xA9059CBB EQ PUSH2 0x273 JUMPI DUP1 PUSH4 0xB4A99A4E EQ PUSH2 0x2A3 JUMPI DUP1 PUSH4 0xCC16F5DB EQ PUSH2 0x2C1 JUMPI DUP1 PUSH4 0xDD62ED3E EQ PUSH2 0x2DD JUMPI PUSH2 0xEA JUMP JUMPDEST DUP1 PUSH4 0x70A08231 EQ PUSH2 0x1F5 JUMPI DUP1 PUSH4 0x95D89B41 EQ PUSH2 0x225 JUMPI DUP1 PUSH4 0xA457C2D7 EQ PUSH2 0x243 JUMPI PUSH2 0xEA JUMP JUMPDEST DUP1 PUSH4 0x18160DDD GT PUSH2 0xC8 JUMPI DUP1 PUSH4 0x18160DDD EQ PUSH2 0x159 JUMPI DUP1 PUSH4 0x23B872DD EQ PUSH2 0x177 JUMPI DUP1 PUSH4 0x313CE567 EQ PUSH2 0x1A7 JUMPI DUP1 PUSH4 0x39509351 EQ PUSH2 0x1C5 JUMPI PUSH2 0xEA JUMP JUMPDEST DUP1 PUSH4 0x6FDDE03 EQ PUSH2 0xEF JUMPI DUP1 PUSH4 0x95EA7B3 EQ PUSH2 0x10D JUMPI DUP1 PUSH4 0xF6798A5 EQ PUSH2 0x13D JUMPI JUMPDEST PUSH1 0x0 DUP1 REVERT JUMPDEST PUSH2 0xF7 PUSH2 0x30D JUMP JUMPDEST PUSH1 0x40 MLOAD PUSH2 0x104 SWAP2 SWAP1 PUSH2 0x140E JUMP JUMPDEST PUSH1 0x40 MLOAD DUP1 SWAP2 SUB SWAP1 RETURN JUMPDEST PUSH2 0x127 PUSH1 0x4 DUP1 CALLDATASIZE SUB DUP2 ADD SWAP1 PUSH2 0x122 SWAP2 SWAP1 PUSH2 0xF77 JUMP JUMPDEST PUSH2 0x39F JUMP JUMPDEST PUSH1 0x40 MLOAD PUSH2 0x134 SWAP2 SWAP1 PUSH2 0x13F3 JUMP JUMPDEST PUSH1 0x40 MLOAD DUP1 SWAP2 SUB SWAP1 RETURN JUMPDEST PUSH2 0x157 PUSH1 0x4 DUP1 CALLDATASIZE SUB DUP2 ADD SWAP1 PUSH2 0x152 SWAP2 SWAP1 PUSH2 0xF77 JUMP JUMPDEST PUSH2 0x3C2 JUMP JUMPDEST STOP JUMPDEST PUSH2 0x161 PUSH2 0x3D0 JUMP JUMPDEST PUSH1 0x40 MLOAD PUSH2 0x16E SWAP2 SWAP1 PUSH2 0x1570 JUMP JUMPDEST PUSH1 0x40 MLOAD DUP1 SWAP2 SUB SWAP1 RETURN JUMPDEST PUSH2 0x191 PUSH1 0x4 DUP1 CALLDATASIZE SUB DUP2 ADD SWAP1 PUSH2 0x18C SWAP2 SWAP1 PUSH2 0xF28 JUMP JUMPDEST PUSH2 0x3DA JUMP JUMPDEST PUSH1 0x40 MLOAD PUSH2 0x19E SWAP2 SWAP1 PUSH2 0x13F3 JUMP JUMPDEST PUSH1 0x40 MLOAD DUP1 SWAP2 SUB SWAP1 RETURN JUMPDEST PUSH2 0x1AF PUSH2 0x409 JUMP JUMPDEST PUSH1 0x40 MLOAD PUSH2 0x1BC SWAP2 SWAP1 PUSH2 0x158B JUMP JUMPDEST PUSH1 0x40 MLOAD DUP1 SWAP2 SUB SWAP1 RETURN JUMPDEST PUSH2 0x1DF PUSH1 0x4 DUP1 CALLDATASIZE SUB DUP2 ADD SWAP1 PUSH2 0x1DA SWAP2 SWAP1 PUSH2 0xF77 JUMP JUMPDEST PUSH2 0x412 JUMP JUMPDEST PUSH1 0x40 MLOAD PUSH2 0x1EC SWAP2 SWAP1 PUSH2 0x13F3 JUMP JUMPDEST PUSH1 0x40 MLOAD DUP1 SWAP2 SUB SWAP1 RETURN JUMPDEST PUSH2 0x20F PUSH1 0x4 DUP1 CALLDATASIZE SUB DUP2 ADD SWAP1 PUSH2 0x20A SWAP2 SWAP1 PUSH2 0xEC3 JUMP JUMPDEST PUSH2 0x449 JUMP JUMPDEST PUSH1 0x40 MLOAD PUSH2 0x21C SWAP2 SWAP1 PUSH2 0x1570 JUMP JUMPDEST PUSH1 0x40 MLOAD DUP1 SWAP2 SUB SWAP1 RETURN JUMPDEST PUSH2 0x22D PUSH2 0x491 JUMP JUMPDEST PUSH1 0x40 MLOAD PUSH2 0x23A SWAP2 SWAP1 PUSH2 0x140E JUMP JUMPDEST PUSH1 0x40 MLOAD DUP1 SWAP2 SUB SWAP1 RETURN JUMPDEST PUSH2 0x25D PUSH1 0x4 DUP1 CALLDATASIZE SUB DUP2 ADD SWAP1 PUSH2 0x258 SWAP2 SWAP1 PUSH2 0xF77 JUMP JUMPDEST PUSH2 0x523 JUMP JUMPDEST PUSH1 0x40 MLOAD PUSH2 0x26A SWAP2 SWAP1 PUSH2 0x13F3 JUMP JUMPDEST PUSH1 0x40 MLOAD DUP1 SWAP2 SUB SWAP1 RETURN JUMPDEST PUSH2 0x28D PUSH1 0x4 DUP1 CALLDATASIZE SUB DUP2 ADD SWAP1 PUSH2 0x288 SWAP2 SWAP1 PUSH2 0xF77 JUMP JUMPDEST PUSH2 0x59A JUMP JUMPDEST PUSH1 0x40 MLOAD PUSH2 0x29A SWAP2 SWAP1 PUSH2 0x13F3 JUMP JUMPDEST PUSH1 0x40 MLOAD DUP1 SWAP2 SUB SWAP1 RETURN JUMPDEST PUSH2 0x2AB PUSH2 0x5BD JUMP JUMPDEST PUSH1 0x40 MLOAD PUSH2 0x2B8 SWAP2 SWAP1 PUSH2 0x13D8 JUMP JUMPDEST PUSH1 0x40 MLOAD DUP1 SWAP2 SUB SWAP1 RETURN JUMPDEST PUSH2 0x2DB PUSH1 0x4 DUP1 CALLDATASIZE SUB DUP2 ADD SWAP1 PUSH2 0x2D6 SWAP2 SWAP1 PUSH2 0xF77 JUMP JUMPDEST PUSH2 0x5E3 JUMP JUMPDEST STOP JUMPDEST PUSH2 0x2F7 PUSH1 0x4 DUP1 CALLDATASIZE SUB DUP2 ADD SWAP1 PUSH2 0x2F2 SWAP2 SWAP1 PUSH2 0xEEC JUMP JUMPDEST PUSH2 0x5F1 JUMP JUMPDEST PUSH1 0x40 MLOAD PUSH2 0x304 SWAP2 SWAP1 PUSH2 0x1570 JUMP JUMPDEST PUSH1 0x40 MLOAD DUP1 SWAP2 SUB SWAP1 RETURN JUMPDEST PUSH1 0x60 PUSH1 0x3 DUP1 SLOAD PUSH2 0x31C SWAP1 PUSH2 0x16D4 JUMP JUMPDEST DUP1 PUSH1 0x1F ADD PUSH1 0x20 DUP1 SWAP2 DIV MUL PUSH1 0x20 ADD PUSH1 0x40 MLOAD SWAP1 DUP2 ADD PUSH1 0x40 MSTORE DUP1 SWAP3 SWAP2 SWAP1 DUP2 DUP2 MSTORE PUSH1 0x20 ADD DUP3 DUP1 SLOAD PUSH2 0x348 SWAP1 PUSH2 0x16D4 JUMP JUMPDEST DUP1 ISZERO PUSH2 0x395 JUMPI DUP1 PUSH1 0x1F LT PUSH2 0x36A JUMPI PUSH2 0x100 DUP1 DUP4 SLOAD DIV MUL DUP4 MSTORE SWAP2 PUSH1 0x20 ADD SWAP2 PUSH2 0x395 JUMP JUMPDEST DUP3 ADD SWAP2 SWAP1 PUSH1 0x0 MSTORE PUSH1 0x20 PUSH1 0x0 KECCAK256 SWAP1 JUMPDEST DUP2 SLOAD DUP2 MSTORE SWAP1 PUSH1 0x1 ADD SWAP1 PUSH1 0x20 ADD DUP1 DUP4 GT PUSH2 0x378 JUMPI DUP3 SWAP1 SUB PUSH1 0x1F AND DUP3 ADD SWAP2 JUMPDEST POP POP POP POP POP SWAP1 POP SWAP1 JUMP JUMPDEST PUSH1 0x0 DUP1 PUSH2 0x3AA PUSH2 0x678 JUMP JUMPDEST SWAP1 POP PUSH2 0x3B7 DUP2 DUP6 DUP6 PUSH2 0x680 JUMP JUMPDEST PUSH1 0x1 SWAP2 POP POP SWAP3 SWAP2 POP POP JUMP JUMPDEST PUSH2 0x3CC DUP3 DUP3 PUSH2 0x84B JUMP JUMPDEST POP POP JUMP JUMPDEST PUSH1 0x0 PUSH1 0x2 SLOAD SWAP1 POP SWAP1 JUMP JUMPDEST PUSH1 0x0 DUP1 PUSH2 0x3E5 PUSH2 0x678 JUMP JUMPDEST SWAP1 POP PUSH2 0x3F2 DUP6 DUP3 DUP6 PUSH2 0x9AB JUMP JUMPDEST PUSH2 0x3FD DUP6 DUP6 DUP6 PUSH2 0xA37 JUMP JUMPDEST PUSH1 0x1 SWAP2 POP POP SWAP4 SWAP3 POP POP POP JUMP JUMPDEST PUSH1 0x0 PUSH1 0x12 SWAP1 POP SWAP1 JUMP JUMPDEST PUSH1 0x0 DUP1 PUSH2 0x41D PUSH2 0x678 JUMP JUMPDEST SWAP1 POP PUSH2 0x43E DUP2 DUP6 DUP6 PUSH2 0x42F DUP6 DUP10 PUSH2 0x5F1 JUMP JUMPDEST PUSH2 0x439 SWAP2 SWAP1 PUSH2 0x15C2 JUMP JUMPDEST PUSH2 0x680 JUMP JUMPDEST PUSH1 0x1 SWAP2 POP POP SWAP3 SWAP2 POP POP JUMP JUMPDEST PUSH1 0x0 DUP1 PUSH1 0x0 DUP4 PUSH20 0xFFFFFFFFFFFFFFFFFFFFFFFFFFFFFFFFFFFFFFFF AND PUSH20 0xFFFFFFFFFFFFFFFFFFFFFFFFFFFFFFFFFFFFFFFF AND DUP2 MSTORE PUSH1 0x20 ADD SWAP1 DUP2 MSTORE PUSH1 0x20 ADD PUSH1 0x0 KECCAK256 SLOAD SWAP1 POP SWAP2 SWAP1 POP JUMP JUMPDEST PUSH1 0x60 PUSH1 0x4 DUP1 SLOAD PUSH2 0x4A0 SWAP1 PUSH2 0x16D4 JUMP JUMPDEST DUP1 PUSH1 0x1F ADD PUSH1 0x20 DUP1 SWAP2 DIV MUL PUSH1 0x20 ADD PUSH1 0x40 MLOAD SWAP1 DUP2 ADD PUSH1 0x40 MSTORE DUP1 SWAP3 SWAP2 SWAP1 DUP2 DUP2 MSTORE PUSH1 0x20 ADD DUP3 DUP1 SLOAD PUSH2 0x4CC SWAP1 PUSH2 0x16D4 JUMP JUMPDEST DUP1 ISZERO PUSH2 0x519 JUMPI DUP1 PUSH1 0x1F LT PUSH2 0x4EE JUMPI PUSH2 0x100 DUP1 DUP4 SLOAD DIV MUL DUP4 MSTORE SWAP2 PUSH1 0x20 ADD SWAP2 PUSH2 0x519 JUMP JUMPDEST DUP3 ADD SWAP2 SWAP1 PUSH1 0x0 MSTORE PUSH1 0x20 PUSH1 0x0 KECCAK256 SWAP1 JUMPDEST DUP2 SLOAD DUP2 MSTORE SWAP1 PUSH1 0x1 ADD SWAP1 PUSH1 0x20 ADD DUP1 DUP4 GT PUSH2 0x4FC JUMPI DUP3 SWAP1 SUB PUSH1 0x1F AND DUP3 ADD SWAP2 JUMPDEST POP POP POP POP POP SWAP1 POP SWAP1 JUMP JUMPDEST PUSH1 0x0 DUP1 PUSH2 0x52E PUSH2 0x678 JUMP JUMPDEST SWAP1 POP PUSH1 0x0 PUSH2 0x53C DUP3 DUP7 PUSH2 0x5F1 JUMP JUMPDEST SWAP1 POP DUP4 DUP2 LT ISZERO PUSH2 0x581 JUMPI PUSH1 0x40 MLOAD PUSH32 0x8C379A000000000000000000000000000000000000000000000000000000000 DUP2 MSTORE PUSH1 0x4 ADD PUSH2 0x578 SWAP1 PUSH2 0x1530 JUMP JUMPDEST PUSH1 0x40 MLOAD DUP1 SWAP2 SUB SWAP1 REVERT JUMPDEST PUSH2 0x58E DUP3 DUP7 DUP7 DUP5 SUB PUSH2 0x680 JUMP JUMPDEST PUSH1 0x1 SWAP3 POP POP POP SWAP3 SWAP2 POP POP JUMP JUMPDEST PUSH1 0x0 DUP1 PUSH2 0x5A5 PUSH2 0x678 JUMP JUMPDEST SWAP1 POP PUSH2 0x5B2 DUP2 DUP6 DUP6 PUSH2 0xA37 JUMP JUMPDEST PUSH1 0x1 SWAP2 POP POP SWAP3 SWAP2 POP POP JUMP JUMPDEST PUSH1 0x5 PUSH1 0x0 SWAP1 SLOAD SWAP1 PUSH2 0x100 EXP SWAP1 DIV PUSH20 0xFFFFFFFFFFFFFFFFFFFFFFFFFFFFFFFFFFFFFFFF AND DUP2 JUMP JUMPDEST PUSH2 0x5ED DUP3 DUP3 PUSH2 0xCB8 JUMP JUMPDEST POP POP JUMP JUMPDEST PUSH1 0x0 PUSH1 0x1 PUSH1 0x0 DUP5 PUSH20 0xFFFFFFFFFFFFFFFFFFFFFFFFFFFFFFFFFFFFFFFF AND PUSH20 0xFFFFFFFFFFFFFFFFFFFFFFFFFFFFFFFFFFFFFFFF AND DUP2 MSTORE PUSH1 0x20 ADD SWAP1 DUP2 MSTORE PUSH1 0x20 ADD PUSH1 0x0 KECCAK256 PUSH1 0x0 DUP4 PUSH20 0xFFFFFFFFFFFFFFFFFFFFFFFFFFFFFFFFFFFFFFFF AND PUSH20 0xFFFFFFFFFFFFFFFFFFFFFFFFFFFFFFFFFFFFFFFF AND DUP2 MSTORE PUSH1 0x20 ADD SWAP1 DUP2 MSTORE PUSH1 0x20 ADD PUSH1 0x0 KECCAK256 SLOAD SWAP1 POP SWAP3 SWAP2 POP POP JUMP JUMPDEST PUSH1 0x0 CALLER SWAP1 POP SWAP1 JUMP JUMPDEST PUSH1 0x0 PUSH20 0xFFFFFFFFFFFFFFFFFFFFFFFFFFFFFFFFFFFFFFFF AND DUP4 PUSH20 0xFFFFFFFFFFFFFFFFFFFFFFFFFFFFFFFFFFFFFFFF AND EQ ISZERO PUSH2 0x6F0 JUMPI PUSH1 0x40 MLOAD PUSH32 0x8C379A000000000000000000000000000000000000000000000000000000000 DUP2 MSTORE PUSH1 0x4 ADD PUSH2 0x6E7 SWAP1 PUSH2 0x1510 JUMP JUMPDEST PUSH1 0x40 MLOAD DUP1 SWAP2 SUB SWAP1 REVERT JUMPDEST PUSH1 0x0 PUSH20 0xFFFFFFFFFFFFFFFFFFFFFFFFFFFFFFFFFFFFFFFF AND DUP3 PUSH20 0xFFFFFFFFFFFFFFFFFFFFFFFFFFFFFFFFFFFFFFFF AND EQ ISZERO PUSH2 0x760 JUMPI PUSH1 0x40 MLOAD PUSH32 0x8C379A000000000000000000000000000000000000000000000000000000000 DUP2 MSTORE PUSH1 0x4 ADD PUSH2 0x757 SWAP1 PUSH2 0x1470 JUMP JUMPDEST PUSH1 0x40 MLOAD DUP1 SWAP2 SUB SWAP1 REVERT JUMPDEST DUP1 PUSH1 0x1 PUSH1 0x0 DUP6 PUSH20 0xFFFFFFFFFFFFFFFFFFFFFFFFFFFFFFFFFFFFFFFF AND PUSH20 0xFFFFFFFFFFFFFFFFFFFFFFFFFFFFFFFFFFFFFFFF AND DUP2 MSTORE PUSH1 0x20 ADD SWAP1 DUP2 MSTORE PUSH1 0x20 ADD PUSH1 0x0 KECCAK256 PUSH1 0x0 DUP5 PUSH20 0xFFFFFFFFFFFFFFFFFFFFFFFFFFFFFFFFFFFFFFFF AND PUSH20 0xFFFFFFFFFFFFFFFFFFFFFFFFFFFFFFFFFFFFFFFF AND DUP2 MSTORE PUSH1 0x20 ADD SWAP1 DUP2 MSTORE PUSH1 0x20 ADD PUSH1 0x0 KECCAK256 DUP2 SWAP1 SSTORE POP DUP2 PUSH20 0xFFFFFFFFFFFFFFFFFFFFFFFFFFFFFFFFFFFFFFFF AND DUP4 PUSH20 0xFFFFFFFFFFFFFFFFFFFFFFFFFFFFFFFFFFFFFFFF AND PUSH32 0x8C5BE1E5EBEC7D5BD14F71427D1E84F3DD0314C0F7B2291E5B200AC8C7C3B925 DUP4 PUSH1 0x40 MLOAD PUSH2 0x83E SWAP2 SWAP1 PUSH2 0x1570 JUMP JUMPDEST PUSH1 0x40 MLOAD DUP1 SWAP2 SUB SWAP1 LOG3 POP POP POP JUMP JUMPDEST PUSH1 0x0 PUSH20 0xFFFFFFFFFFFFFFFFFFFFFFFFFFFFFFFFFFFFFFFF AND DUP3 PUSH20 0xFFFFFFFFFFFFFFFFFFFFFFFFFFFFFFFFFFFFFFFF AND EQ ISZERO PUSH2 0x8BB JUMPI PUSH1 0x40 MLOAD PUSH32 0x8C379A000000000000000000000000000000000000000000000000000000000 DUP2 MSTORE PUSH1 0x4 ADD PUSH2 0x8B2 SWAP1 PUSH2 0x1550 JUMP JUMPDEST PUSH1 0x40 MLOAD DUP1 SWAP2 SUB SWAP1 REVERT JUMPDEST PUSH2 0x8C7 PUSH1 0x0 DUP4 DUP4 PUSH2 0xE8F JUMP JUMPDEST DUP1 PUSH1 0x2 PUSH1 0x0 DUP3 DUP3 SLOAD PUSH2 0x8D9 SWAP2 SWAP1 PUSH2 0x15C2 JUMP JUMPDEST SWAP3 POP POP DUP2 SWAP1 SSTORE POP DUP1 PUSH1 0x0 DUP1 DUP5 PUSH20 0xFFFFFFFFFFFFFFFFFFFFFFFFFFFFFFFFFFFFFFFF AND PUSH20 0xFFFFFFFFFFFFFFFFFFFFFFFFFFFFFFFFFFFFFFFF AND DUP2 MSTORE PUSH1 0x20 ADD SWAP1 DUP2 MSTORE PUSH1 0x20 ADD PUSH1 0x0 KECCAK256 PUSH1 0x0 DUP3 DUP3 SLOAD PUSH2 0x92E SWAP2 SWAP1 PUSH2 0x15C2 JUMP JUMPDEST SWAP3 POP POP DUP2 SWAP1 SSTORE POP DUP2 PUSH20 0xFFFFFFFFFFFFFFFFFFFFFFFFFFFFFFFFFFFFFFFF AND PUSH1 0x0 PUSH20 0xFFFFFFFFFFFFFFFFFFFFFFFFFFFFFFFFFFFFFFFF AND PUSH32 0xDDF252AD1BE2C89B69C2B068FC378DAA952BA7F163C4A11628F55A4DF523B3EF DUP4 PUSH1 0x40 MLOAD PUSH2 0x993 SWAP2 SWAP1 PUSH2 0x1570 JUMP JUMPDEST PUSH1 0x40 MLOAD DUP1 SWAP2 SUB SWAP1 LOG3 PUSH2 0x9A7 PUSH1 0x0 DUP4 DUP4 PUSH2 0xE94 JUMP JUMPDEST POP POP JUMP JUMPDEST PUSH1 0x0 PUSH2 0x9B7 DUP5 DUP5 PUSH2 0x5F1 JUMP JUMPDEST SWAP1 POP PUSH32 0xFFFFFFFFFFFFFFFFFFFFFFFFFFFFFFFFFFFFFFFFFFFFFFFFFFFFFFFFFFFFFFFF DUP2 EQ PUSH2 0xA31 JUMPI DUP2 DUP2 LT ISZERO PUSH2 0xA23 JUMPI PUSH1 0x40 MLOAD PUSH32 0x8C379A000000000000000000000000000000000000000000000000000000000 DUP2 MSTORE PUSH1 0x4 ADD PUSH2 0xA1A SWAP1 PUSH2 0x1490 JUMP JUMPDEST PUSH1 0x40 MLOAD DUP1 SWAP2 SUB SWAP1 REVERT JUMPDEST PUSH2 0xA30 DUP5 DUP5 DUP5 DUP5 SUB PUSH2 0x680 JUMP JUMPDEST JUMPDEST POP POP POP POP JUMP JUMPDEST PUSH1 0x0 PUSH20 0xFFFFFFFFFFFFFFFFFFFFFFFFFFFFFFFFFFFFFFFF AND DUP4 PUSH20 0xFFFFFFFFFFFFFFFFFFFFFFFFFFFFFFFFFFFFFFFF AND EQ ISZERO PUSH2 0xAA7 JUMPI PUSH1 0x40 MLOAD PUSH32 0x8C379A000000000000000000000000000000000000000000000000000000000 DUP2 MSTORE PUSH1 0x4 ADD PUSH2 0xA9E SWAP1 PUSH2 0x14F0 JUMP JUMPDEST PUSH1 0x40 MLOAD DUP1 SWAP2 SUB SWAP1 REVERT JUMPDEST PUSH1 0x0 PUSH20 0xFFFFFFFFFFFFFFFFFFFFFFFFFFFFFFFFFFFFFFFF AND DUP3 PUSH20 0xFFFFFFFFFFFFFFFFFFFFFFFFFFFFFFFFFFFFFFFF AND EQ ISZERO PUSH2 0xB17 JUMPI PUSH1 0x40 MLOAD PUSH32 0x8C379A000000000000000000000000000000000000000000000000000000000 DUP2 MSTORE PUSH1 0x4 ADD PUSH2 0xB0E SWAP1 PUSH2 0x1430 JUMP JUMPDEST PUSH1 0x40 MLOAD DUP1 SWAP2 SUB SWAP1 REVERT JUMPDEST PUSH2 0xB22 DUP4 DUP4 DUP4 PUSH2 0xE8F JUMP JUMPDEST PUSH1 0x0 DUP1 PUSH1 0x0 DUP6 PUSH20 0xFFFFFFFFFFFFFFFFFFFFFFFFFFFFFFFFFFFFFFFF AND PUSH20 0xFFFFFFFFFFFFFFFFFFFFFFFFFFFFFFFFFFFFFFFF AND DUP2 MSTORE PUSH1 0x20 ADD SWAP1 DUP2 MSTORE PUSH1 0x20 ADD PUSH1 0x0 KECCAK256 SLOAD SWAP1 POP DUP2 DUP2 LT ISZERO PUSH2 0xBA8 JUMPI PUSH1 0x40 MLOAD PUSH32 0x8C379A000000000000000000000000000000000000000000000000000000000 DUP2 MSTORE PUSH1 0x4 ADD PUSH2 0xB9F SWAP1 PUSH2 0x14B0 JUMP JUMPDEST PUSH1 0x40 MLOAD DUP1 SWAP2 SUB SWAP1 REVERT JUMPDEST DUP2 DUP2 SUB PUSH1 0x0 DUP1 DUP7 PUSH20 0xFFFFFFFFFFFFFFFFFFFFFFFFFFFFFFFFFFFFFFFF AND PUSH20 0xFFFFFFFFFFFFFFFFFFFFFFFFFFFFFFFFFFFFFFFF AND DUP2 MSTORE PUSH1 0x20 ADD SWAP1 DUP2 MSTORE PUSH1 0x20 ADD PUSH1 0x0 KECCAK256 DUP2 SWAP1 SSTORE POP DUP2 PUSH1 0x0 DUP1 DUP6 PUSH20 0xFFFFFFFFFFFFFFFFFFFFFFFFFFFFFFFFFFFFFFFF AND PUSH20 0xFFFFFFFFFFFFFFFFFFFFFFFFFFFFFFFFFFFFFFFF AND DUP2 MSTORE PUSH1 0x20 ADD SWAP1 DUP2 MSTORE PUSH1 0x20 ADD PUSH1 0x0 KECCAK256 PUSH1 0x0 DUP3 DUP3 SLOAD PUSH2 0xC3B SWAP2 SWAP1 PUSH2 0x15C2 JUMP JUMPDEST SWAP3 POP POP DUP2 SWAP1 SSTORE POP DUP3 PUSH20 0xFFFFFFFFFFFFFFFFFFFFFFFFFFFFFFFFFFFFFFFF AND DUP5 PUSH20 0xFFFFFFFFFFFFFFFFFFFFFFFFFFFFFFFFFFFFFFFF AND PUSH32 0xDDF252AD1BE2C89B69C2B068FC378DAA952BA7F163C4A11628F55A4DF523B3EF DUP5 PUSH1 0x40 MLOAD PUSH2 0xC9F SWAP2 SWAP1 PUSH2 0x1570 JUMP JUMPDEST PUSH1 0x40 MLOAD DUP1 SWAP2 SUB SWAP1 LOG3 PUSH2 0xCB2 DUP5 DUP5 DUP5 PUSH2 0xE94 JUMP JUMPDEST POP POP POP POP JUMP JUMPDEST PUSH1 0x0 PUSH20 0xFFFFFFFFFFFFFFFFFFFFFFFFFFFFFFFFFFFFFFFF AND DUP3 PUSH20 0xFFFFFFFFFFFFFFFFFFFFFFFFFFFFFFFFFFFFFFFF AND EQ ISZERO PUSH2 0xD28 JUMPI PUSH1 0x40 MLOAD PUSH32 0x8C379A000000000000000000000000000000000000000000000000000000000 DUP2 MSTORE PUSH1 0x4 ADD PUSH2 0xD1F SWAP1 PUSH2 0x14D0 JUMP JUMPDEST PUSH1 0x40 MLOAD DUP1 SWAP2 SUB SWAP1 REVERT JUMPDEST PUSH2 0xD34 DUP3 PUSH1 0x0 DUP4 PUSH2 0xE8F JUMP JUMPDEST PUSH1 0x0 DUP1 PUSH1 0x0 DUP5 PUSH20 0xFFFFFFFFFFFFFFFFFFFFFFFFFFFFFFFFFFFFFFFF AND PUSH20 0xFFFFFFFFFFFFFFFFFFFFFFFFFFFFFFFFFFFFFFFF AND DUP2 MSTORE PUSH1 0x20 ADD SWAP1 DUP2 MSTORE PUSH1 0x20 ADD PUSH1 0x0 KECCAK256 SLOAD SWAP1 POP DUP2 DUP2 LT ISZERO PUSH2 0xDBA JUMPI PUSH1 0x40 MLOAD PUSH32 0x8C379A000000000000000000000000000000000000000000000000000000000 DUP2 MSTORE PUSH1 0x4 ADD PUSH2 0xDB1 SWAP1 PUSH2 0x1450 JUMP JUMPDEST PUSH1 0x40 MLOAD DUP1 SWAP2 SUB SWAP1 REVERT JUMPDEST DUP2 DUP2 SUB PUSH1 0x0 DUP1 DUP6 PUSH20 0xFFFFFFFFFFFFFFFFFFFFFFFFFFFFFFFFFFFFFFFF AND PUSH20 0xFFFFFFFFFFFFFFFFFFFFFFFFFFFFFFFFFFFFFFFF AND DUP2 MSTORE PUSH1 0x20 ADD SWAP1 DUP2 MSTORE PUSH1 0x20 ADD PUSH1 0x0 KECCAK256 DUP2 SWAP1 SSTORE POP DUP2 PUSH1 0x2 PUSH1 0x0 DUP3 DUP3 SLOAD PUSH2 0xE11 SWAP2 SWAP1 PUSH2 0x1618 JUMP JUMPDEST SWAP3 POP POP DUP2 SWAP1 SSTORE POP PUSH1 0x0 PUSH20 0xFFFFFFFFFFFFFFFFFFFFFFFFFFFFFFFFFFFFFFFF AND DUP4 PUSH20 0xFFFFFFFFFFFFFFFFFFFFFFFFFFFFFFFFFFFFFFFF AND PUSH32 0xDDF252AD1BE2C89B69C2B068FC378DAA952BA7F163C4A11628F55A4DF523B3EF DUP5 PUSH1 0x40 MLOAD PUSH2 0xE76 SWAP2 SWAP1 PUSH2 0x1570 JUMP JUMPDEST PUSH1 0x40 MLOAD DUP1 SWAP2 SUB SWAP1 LOG3 PUSH2 0xE8A DUP4 PUSH1 0x0 DUP5 PUSH2 0xE94 JUMP JUMPDEST POP POP POP JUMP JUMPDEST POP POP POP JUMP JUMPDEST POP POP POP JUMP JUMPDEST PUSH1 0x0 DUP2 CALLDATALOAD SWAP1 POP PUSH2 0xEA8 DUP2 PUSH2 0x1775 JUMP JUMPDEST SWAP3 SWAP2 POP POP JUMP JUMPDEST PUSH1 0x0 DUP2 CALLDATALOAD SWAP1 POP PUSH2 0xEBD DUP2 PUSH2 0x178C JUMP JUMPDEST SWAP3 SWAP2 POP POP JUMP JUMPDEST PUSH1 0x0 PUSH1 0x20 DUP3 DUP5 SUB SLT ISZERO PUSH2 0xED5 JUMPI PUSH1 0x0 DUP1 REVERT JUMPDEST PUSH1 0x0 PUSH2 0xEE3 DUP5 DUP3 DUP6 ADD PUSH2 0xE99 JUMP JUMPDEST SWAP2 POP POP SWAP3 SWAP2 POP POP JUMP JUMPDEST PUSH1 0x0 DUP1 PUSH1 0x40 DUP4 DUP6 SUB SLT ISZERO PUSH2 0xEFF JUMPI PUSH1 0x0 DUP1 REVERT JUMPDEST PUSH1 0x0 PUSH2 0xF0D DUP6 DUP3 DUP7 ADD PUSH2 0xE99 JUMP JUMPDEST SWAP3 POP POP PUSH1 0x20 PUSH2 0xF1E DUP6 DUP3 DUP7 ADD PUSH2 0xE99 JUMP JUMPDEST SWAP2 POP POP SWAP3 POP SWAP3 SWAP1 POP JUMP JUMPDEST PUSH1 0x0 DUP1 PUSH1 0x0 PUSH1 0x60 DUP5 DUP7 SUB SLT ISZERO PUSH2 0xF3D JUMPI PUSH1 0x0 DUP1 REVERT JUMPDEST PUSH1 0x0 PUSH2 0xF4B DUP7 DUP3 DUP8 ADD PUSH2 0xE99 JUMP JUMPDEST SWAP4 POP POP PUSH1 0x20 PUSH2 0xF5C DUP7 DUP3 DUP8 ADD PUSH2 0xE99 JUMP JUMPDEST SWAP3 POP POP PUSH1 0x40 PUSH2 0xF6D DUP7 DUP3 DUP8 ADD PUSH2 0xEAE JUMP JUMPDEST SWAP2 POP POP SWAP3 POP SWAP3 POP SWAP3 JUMP JUMPDEST PUSH1 0x0 DUP1 PUSH1 0x40 DUP4 DUP6 SUB SLT ISZERO PUSH2 0xF8A JUMPI PUSH1 0x0 DUP1 REVERT JUMPDEST PUSH1 0x0 PUSH2 0xF98 DUP6 DUP3 DUP7 ADD PUSH2 0xE99 JUMP JUMPDEST SWAP3 POP POP PUSH1 0x20 PUSH2 0xFA9 DUP6 DUP3 DUP7 ADD PUSH2 0xEAE JUMP JUMPDEST SWAP2 POP POP SWAP3 POP SWAP3 SWAP1 POP JUMP JUMPDEST PUSH2 0xFBC DUP2 PUSH2 0x164C JUMP JUMPDEST DUP3 MSTORE POP POP JUMP JUMPDEST PUSH2 0xFCB DUP2 PUSH2 0x165E JUMP JUMPDEST DUP3 MSTORE POP POP JUMP JUMPDEST PUSH1 0x0 PUSH2 0xFDC DUP3 PUSH2 0x15A6 JUMP JUMPDEST PUSH2 0xFE6 DUP2 DUP6 PUSH2 0x15B1 JUMP JUMPDEST SWAP4 POP PUSH2 0xFF6 DUP2 DUP6 PUSH1 0x20 DUP7 ADD PUSH2 0x16A1 JUMP JUMPDEST PUSH2 0xFFF DUP2 PUSH2 0x1764 JUMP JUMPDEST DUP5 ADD SWAP2 POP POP SWAP3 SWAP2 POP POP JUMP JUMPDEST PUSH1 0x0 PUSH2 0x1017 PUSH1 0x23 DUP4 PUSH2 0x15B1 JUMP JUMPDEST SWAP2 POP PUSH32 0x45524332303A207472616E7366657220746F20746865207A65726F2061646472 PUSH1 0x0 DUP4 ADD MSTORE PUSH32 0x6573730000000000000000000000000000000000000000000000000000000000 PUSH1 0x20 DUP4 ADD MSTORE PUSH1 0x40 DUP3 ADD SWAP1 POP SWAP2 SWAP1 POP JUMP JUMPDEST PUSH1 0x0 PUSH2 0x107D PUSH1 0x22 DUP4 PUSH2 0x15B1 JUMP JUMPDEST SWAP2 POP PUSH32 0x45524332303A206275726E20616D6F756E7420657863656564732062616C616E PUSH1 0x0 DUP4 ADD MSTORE PUSH32 0x6365000000000000000000000000000000000000000000000000000000000000 PUSH1 0x20 DUP4 ADD MSTORE PUSH1 0x40 DUP3 ADD SWAP1 POP SWAP2 SWAP1 POP JUMP JUMPDEST PUSH1 0x0 PUSH2 0x10E3 PUSH1 0x22 DUP4 PUSH2 0x15B1 JUMP JUMPDEST SWAP2 POP PUSH32 0x45524332303A20617070726F766520746F20746865207A65726F206164647265 PUSH1 0x0 DUP4 ADD MSTORE PUSH32 0x7373000000000000000000000000000000000000000000000000000000000000 PUSH1 0x20 DUP4 ADD MSTORE PUSH1 0x40 DUP3 ADD SWAP1 POP SWAP2 SWAP1 POP JUMP JUMPDEST PUSH1 0x0 PUSH2 0x1149 PUSH1 0x1D DUP4 PUSH2 0x15B1 JUMP JUMPDEST SWAP2 POP PUSH32 0x45524332303A20696E73756666696369656E7420616C6C6F77616E6365000000 PUSH1 0x0 DUP4 ADD MSTORE PUSH1 0x20 DUP3 ADD SWAP1 POP SWAP2 SWAP1 POP JUMP JUMPDEST PUSH1 0x0 PUSH2 0x1189 PUSH1 0x26 DUP4 PUSH2 0x15B1 JUMP JUMPDEST SWAP2 POP PUSH32 0x45524332303A207472616E7366657220616D6F756E7420657863656564732062 PUSH1 0x0 DUP4 ADD MSTORE PUSH32 0x616C616E63650000000000000000000000000000000000000000000000000000 PUSH1 0x20 DUP4 ADD MSTORE PUSH1 0x40 DUP3 ADD SWAP1 POP SWAP2 SWAP1 POP JUMP JUMPDEST PUSH1 0x0 PUSH2 0x11EF PUSH1 0x21 DUP4 PUSH2 0x15B1 JUMP JUMPDEST SWAP2 POP PUSH32 0x45524332303A206275726E2066726F6D20746865207A65726F20616464726573 PUSH1 0x0 DUP4 ADD MSTORE PUSH32 0x7300000000000000000000000000000000000000000000000000000000000000 PUSH1 0x20 DUP4 ADD MSTORE PUSH1 0x40 DUP3 ADD SWAP1 POP SWAP2 SWAP1 POP JUMP JUMPDEST PUSH1 0x0 PUSH2 0x1255 PUSH1 0x25 DUP4 PUSH2 0x15B1 JUMP JUMPDEST SWAP2 POP PUSH32 0x45524332303A207472616E736665722066726F6D20746865207A65726F206164 PUSH1 0x0 DUP4 ADD MSTORE PUSH32 0x6472657373000000000000000000000000000000000000000000000000000000 PUSH1 0x20 DUP4 ADD MSTORE PUSH1 0x40 DUP3 ADD SWAP1 POP SWAP2 SWAP1 POP JUMP JUMPDEST PUSH1 0x0 PUSH2 0x12BB PUSH1 0x24 DUP4 PUSH2 0x15B1 JUMP JUMPDEST SWAP2 POP PUSH32 0x45524332303A20617070726F76652066726F6D20746865207A65726F20616464 PUSH1 0x0 DUP4 ADD MSTORE PUSH32 0x7265737300000000000000000000000000000000000000000000000000000000 PUSH1 0x20 DUP4 ADD MSTORE PUSH1 0x40 DUP3 ADD SWAP1 POP SWAP2 SWAP1 POP JUMP JUMPDEST PUSH1 0x0 PUSH2 0x1321 PUSH1 0x25 DUP4 PUSH2 0x15B1 JUMP JUMPDEST SWAP2 POP PUSH32 0x45524332303A2064656372656173656420616C6C6F77616E63652062656C6F77 PUSH1 0x0 DUP4 ADD MSTORE PUSH32 0x207A65726F000000000000000000000000000000000000000000000000000000 PUSH1 0x20 DUP4 ADD MSTORE PUSH1 0x40 DUP3 ADD SWAP1 POP SWAP2 SWAP1 POP JUMP JUMPDEST PUSH1 0x0 PUSH2 0x1387 PUSH1 0x1F DUP4 PUSH2 0x15B1 JUMP JUMPDEST SWAP2 POP PUSH32 0x45524332303A206D696E7420746F20746865207A65726F206164647265737300 PUSH1 0x0 DUP4 ADD MSTORE PUSH1 0x20 DUP3 ADD SWAP1 POP SWAP2 SWAP1 POP JUMP JUMPDEST PUSH2 0x13C3 DUP2 PUSH2 0x168A JUMP JUMPDEST DUP3 MSTORE POP POP JUMP JUMPDEST PUSH2 0x13D2 DUP2 PUSH2 0x1694 JUMP JUMPDEST DUP3 MSTORE POP POP JUMP JUMPDEST PUSH1 0x0 PUSH1 0x20 DUP3 ADD SWAP1 POP PUSH2 0x13ED PUSH1 0x0 DUP4 ADD DUP5 PUSH2 0xFB3 JUMP JUMPDEST SWAP3 SWAP2 POP POP JUMP JUMPDEST PUSH1 0x0 PUSH1 0x20 DUP3 ADD SWAP1 POP PUSH2 0x1408 PUSH1 0x0 DUP4 ADD DUP5 PUSH2 0xFC2 JUMP JUMPDEST SWAP3 SWAP2 POP POP JUMP JUMPDEST PUSH1 0x0 PUSH1 0x20 DUP3 ADD SWAP1 POP DUP2 DUP2 SUB PUSH1 0x0 DUP4 ADD MSTORE PUSH2 0x1428 DUP2 DUP5 PUSH2 0xFD1 JUMP JUMPDEST SWAP1 POP SWAP3 SWAP2 POP POP JUMP JUMPDEST PUSH1 0x0 PUSH1 0x20 DUP3 ADD SWAP1 POP DUP2 DUP2 SUB PUSH1 0x0 DUP4 ADD MSTORE PUSH2 0x1449 DUP2 PUSH2 0x100A JUMP JUMPDEST SWAP1 POP SWAP2 SWAP1 POP JUMP JUMPDEST PUSH1 0x0 PUSH1 0x20 DUP3 ADD SWAP1 POP DUP2 DUP2 SUB PUSH1 0x0 DUP4 ADD MSTORE PUSH2 0x1469 DUP2 PUSH2 0x1070 JUMP JUMPDEST SWAP1 POP SWAP2 SWAP1 POP JUMP JUMPDEST PUSH1 0x0 PUSH1 0x20 DUP3 ADD SWAP1 POP DUP2 DUP2 SUB PUSH1 0x0 DUP4 ADD MSTORE PUSH2 0x1489 DUP2 PUSH2 0x10D6 JUMP JUMPDEST SWAP1 POP SWAP2 SWAP1 POP JUMP JUMPDEST PUSH1 0x0 PUSH1 0x20 DUP3 ADD SWAP1 POP DUP2 DUP2 SUB PUSH1 0x0 DUP4 ADD MSTORE PUSH2 0x14A9 DUP2 PUSH2 0x113C JUMP JUMPDEST SWAP1 POP SWAP2 SWAP1 POP JUMP JUMPDEST PUSH1 0x0 PUSH1 0x20 DUP3 ADD SWAP1 POP DUP2 DUP2 SUB PUSH1 0x0 DUP4 ADD MSTORE PUSH2 0x14C9 DUP2 PUSH2 0x117C JUMP JUMPDEST SWAP1 POP SWAP2 SWAP1 POP JUMP JUMPDEST PUSH1 0x0 PUSH1 0x20 DUP3 ADD SWAP1 POP DUP2 DUP2 SUB PUSH1 0x0 DUP4 ADD MSTORE PUSH2 0x14E9 DUP2 PUSH2 0x11E2 JUMP JUMPDEST SWAP1 POP SWAP2 SWAP1 POP JUMP JUMPDEST PUSH1 0x0 PUSH1 0x20 DUP3 ADD SWAP1 POP DUP2 DUP2 SUB PUSH1 0x0 DUP4 ADD MSTORE PUSH2 0x1509 DUP2 PUSH2 0x1248 JUMP JUMPDEST SWAP1 POP SWAP2 SWAP1 POP JUMP JUMPDEST PUSH1 0x0 PUSH1 0x20 DUP3 ADD SWAP1 POP DUP2 DUP2 SUB PUSH1 0x0 DUP4 ADD MSTORE PUSH2 0x1529 DUP2 PUSH2 0x12AE JUMP JUMPDEST SWAP1 POP SWAP2 SWAP1 POP JUMP JUMPDEST PUSH1 0x0 PUSH1 0x20 DUP3 ADD SWAP1 POP DUP2 DUP2 SUB PUSH1 0x0 DUP4 ADD MSTORE PUSH2 0x1549 DUP2 PUSH2 0x1314 JUMP JUMPDEST SWAP1 POP SWAP2 SWAP1 POP JUMP JUMPDEST PUSH1 0x0 PUSH1 0x20 DUP3 ADD SWAP1 POP DUP2 DUP2 SUB PUSH1 0x0 DUP4 ADD MSTORE PUSH2 0x1569 DUP2 PUSH2 0x137A JUMP JUMPDEST SWAP1 POP SWAP2 SWAP1 POP JUMP JUMPDEST PUSH1 0x0 PUSH1 0x20 DUP3 ADD SWAP1 POP PUSH2 0x1585 PUSH1 0x0 DUP4 ADD DUP5 PUSH2 0x13BA JUMP JUMPDEST SWAP3 SWAP2 POP POP JUMP JUMPDEST PUSH1 0x0 PUSH1 0x20 DUP3 ADD SWAP1 POP PUSH2 0x15A0 PUSH1 0x0 DUP4 ADD DUP5 PUSH2 0x13C9 JUMP JUMPDEST SWAP3 SWAP2 POP POP JUMP JUMPDEST PUSH1 0x0 DUP2 MLOAD SWAP1 POP SWAP2 SWAP1 POP JUMP JUMPDEST PUSH1 0x0 DUP3 DUP3 MSTORE PUSH1 0x20 DUP3 ADD SWAP1 POP SWAP3 SWAP2 POP POP JUMP JUMPDEST PUSH1 0x0 PUSH2 0x15CD DUP3 PUSH2 0x168A JUMP JUMPDEST SWAP2 POP PUSH2 0x15D8 DUP4 PUSH2 0x168A JUMP JUMPDEST SWAP3 POP DUP3 PUSH32 0xFFFFFFFFFFFFFFFFFFFFFFFFFFFFFFFFFFFFFFFFFFFFFFFFFFFFFFFFFFFFFFFF SUB DUP3 GT ISZERO PUSH2 0x160D JUMPI PUSH2 0x160C PUSH2 0x1706 JUMP JUMPDEST JUMPDEST DUP3 DUP3 ADD SWAP1 POP SWAP3 SWAP2 POP POP JUMP JUMPDEST PUSH1 0x0 PUSH2 0x1623 DUP3 PUSH2 0x168A JUMP JUMPDEST SWAP2 POP PUSH2 0x162E DUP4 PUSH2 0x168A JUMP JUMPDEST SWAP3 POP DUP3 DUP3 LT ISZERO PUSH2 0x1641 JUMPI PUSH2 0x1640 PUSH2 0x1706 JUMP JUMPDEST JUMPDEST DUP3 DUP3 SUB SWAP1 POP SWAP3 SWAP2 POP POP JUMP JUMPDEST PUSH1 0x0 PUSH2 0x1657 DUP3 PUSH2 0x166A JUMP JUMPDEST SWAP1 POP SWAP2 SWAP1 POP JUMP JUMPDEST PUSH1 0x0 DUP2 ISZERO ISZERO SWAP1 POP SWAP2 SWAP1 POP JUMP JUMPDEST PUSH1 0x0 PUSH20 0xFFFFFFFFFFFFFFFFFFFFFFFFFFFFFFFFFFFFFFFF DUP3 AND SWAP1 POP SWAP2 SWAP1 POP JUMP JUMPDEST PUSH1 0x0 DUP2 SWAP1 POP SWAP2 SWAP1 POP JUMP JUMPDEST PUSH1 0x0 PUSH1 0xFF DUP3 AND SWAP1 POP SWAP2 SWAP1 POP JUMP JUMPDEST PUSH1 0x0 JUMPDEST DUP4 DUP2 LT ISZERO PUSH2 0x16BF JUMPI DUP1 DUP3 ADD MLOAD DUP2 DUP5 ADD MSTORE PUSH1 0x20 DUP2 ADD SWAP1 POP PUSH2 0x16A4 JUMP JUMPDEST DUP4 DUP2 GT ISZERO PUSH2 0x16CE JUMPI PUSH1 0x0 DUP5 DUP5 ADD MSTORE JUMPDEST POP POP POP POP JUMP JUMPDEST PUSH1 0x0 PUSH1 0x2 DUP3 DIV SWAP1 POP PUSH1 0x1 DUP3 AND DUP1 PUSH2 0x16EC JUMPI PUSH1 0x7F DUP3 AND SWAP2 POP JUMPDEST PUSH1 0x20 DUP3 LT DUP2 EQ ISZERO PUSH2 0x1700 JUMPI PUSH2 0x16FF PUSH2 0x1735 JUMP JUMPDEST JUMPDEST POP SWAP2 SWAP1 POP JUMP JUMPDEST PUSH32 0x4E487B7100000000000000000000000000000000000000000000000000000000 PUSH1 0x0 MSTORE PUSH1 0x11 PUSH1 0x4 MSTORE PUSH1 0x24 PUSH1 0x0 REVERT JUMPDEST PUSH32 0x4E487B7100000000000000000000000000000000000000000000000000000000 PUSH1 0x0 MSTORE PUSH1 0x22 PUSH1 0x4 MSTORE PUSH1 0x24 PUSH1 0x0 REVERT JUMPDEST PUSH1 0x0 PUSH1 0x1F NOT PUSH1 0x1F DUP4 ADD AND SWAP1 POP SWAP2 SWAP1 POP JUMP JUMPDEST PUSH2 0x177E DUP2 PUSH2 0x164C JUMP JUMPDEST DUP2 EQ PUSH2 0x1789 JUMPI PUSH1 0x0 DUP1 REVERT JUMPDEST POP JUMP JUMPDEST PUSH2 0x1795 DUP2 PUSH2 0x168A JUMP JUMPDEST DUP2 EQ PUSH2 0x17A0 JUMPI PUSH1 0x0 DUP1 REVERT JUMPDEST POP JUMP INVALID LOG2 PUSH5 0x6970667358 0x22 SLT KECCAK256 0xAE DUP15 JUMPDEST 0x28 ADDRESS 0xEC 0xEB 0xB4 ADDRESS DUP7 0x4C 0xA8 0x5C DUP5 PUSH25 0x400698D5C5E8EBA51F8E385F9C6CFFDD6864736F6C63430008 STOP STOP CALLER "
				},
				"gasEstimates": {
					"creation": {
						"codeDepositCost": "1221000",
						"executionCost": "infinite",
						"totalCost": "infinite"
					},
					"external": {
						"Burn(address,uint256)": "infinite",
						"Mint(address,uint256)": "infinite",
						"Owner()": "1258",
						"allowance(address,address)": "infinite",
						"approve(address,uint256)": "infinite",
						"balanceOf(address)": "1564",
						"decimals()": "410",
						"decreaseAllowance(address,uint256)": "infinite",
						"increaseAllowance(address,uint256)": "infinite",
						"name()": "infinite",
						"symbol()": "infinite",
						"totalSupply()": "1160",
						"transfer(address,uint256)": "infinite",
						"transferFrom(address,address,uint256)": "infinite"
					},
					"internal": {
						"_afterTokenTransfer(address,address,uint256)": "15",
						"_approve(address,address,uint256)": "infinite",
						"_beforeTokenTransfer(address,address,uint256)": "15",
						"_burn(address,uint256)": "infinite",
						"_mint(address,uint256)": "infinite",
						"_spendAllowance(address,address,uint256)": "infinite",
						"_transfer(address,address,uint256)": "infinite"
					}
				},
				"methodIdentifiers": {
					"Burn(address,uint256)": "cc16f5db",
					"Mint(address,uint256)": "0f6798a5",
					"Owner()": "b4a99a4e",
					"allowance(address,address)": "dd62ed3e",
					"approve(address,uint256)": "095ea7b3",
					"balanceOf(address)": "70a08231",
					"decimals()": "313ce567",
					"decreaseAllowance(address,uint256)": "a457c2d7",
					"increaseAllowance(address,uint256)": "39509351",
					"name()": "06fdde03",
					"symbol()": "95d89b41",
					"totalSupply()": "18160ddd",
					"transfer(address,uint256)": "a9059cbb",
					"transferFrom(address,address,uint256)": "23b872dd"
				}
			},
			"storageLayout": {
				"storage": [
					{
						"astId": 37,
						"contract": "ERC20.sol:ERC20",
						"label": "_balances",
						"offset": 0,
						"slot": "0",
						"type": "t_mapping(t_address,t_uint256)"
					},
					{
						"astId": 43,
						"contract": "ERC20.sol:ERC20",
						"label": "_allowances",
						"offset": 0,
						"slot": "1",
						"type": "t_mapping(t_address,t_mapping(t_address,t_uint256))"
					},
					{
						"astId": 46,
						"contract": "ERC20.sol:ERC20",
						"label": "_totalSupply",
						"offset": 0,
						"slot": "2",
						"type": "t_uint256"
					},
					{
						"astId": 48,
						"contract": "ERC20.sol:ERC20",
						"label": "_name",
						"offset": 0,
						"slot": "3",
						"type": "t_string_storage"
					},
					{
						"astId": 50,
						"contract": "ERC20.sol:ERC20",
						"label": "_symbol",
						"offset": 0,
						"slot": "4",
						"type": "t_string_storage"
					},
					{
						"astId": 52,
						"contract": "ERC20.sol:ERC20",
						"label": "Owner",
						"offset": 0,
						"slot": "5",
						"type": "t_address"
					}
				],
				"types": {
					"t_address": {
						"encoding": "inplace",
						"label": "address",
						"numberOfBytes": "20"
					},
					"t_mapping(t_address,t_mapping(t_address,t_uint256))": {
						"encoding": "mapping",
						"key": "t_address",
						"label": "mapping(address => mapping(address => uint256))",
						"numberOfBytes": "32",
						"value": "t_mapping(t_address,t_uint256)"
					},
					"t_mapping(t_address,t_uint256)": {
						"encoding": "mapping",
						"key": "t_address",
						"label": "mapping(address => uint256)",
						"numberOfBytes": "32",
						"value": "t_uint256"
					},
					"t_string_storage": {
						"encoding": "bytes",
						"label": "string",
						"numberOfBytes": "32"
					},
					"t_uint256": {
						"encoding": "inplace",
						"label": "uint256",
						"numberOfBytes": "32"
					}
				}
			},
			"userdoc": {
				"kind": "user",
				"methods": {},
				"version": 1
			}
		}
	}
}