{
	"ERC20.sol": {
		"ERC20": {
			"abi": [
				{
					"inputs": [
						{
							"internalType": "string",
							"name": "name_",
							"type": "string"
						},
						{
							"internalType": "string",
							"name": "symbol_",
							"type": "string"
						}
					],
					"stateMutability": "nonpayable",
					"type": "constructor"
				},
				{
					"anonymous": false,
					"inputs": [
						{
							"indexed": true,
							"internalType": "address",
							"name": "owner",
							"type": "address"
						},
						{
							"indexed": true,
							"internalType": "address",
							"name": "spender",
							"type": "address"
						},
						{
							"indexed": false,
							"internalType": "uint256",
							"name": "value",
							"type": "uint256"
						}
					],
					"name": "Approval",
					"type": "event"
				},
				{
					"anonymous": false,
					"inputs": [
						{
							"indexed": true,
							"internalType": "address",
							"name": "from",
							"type": "address"
						},
						{
							"indexed": true,
							"internalType": "address",
							"name": "to",
							"type": "address"
						},
						{
							"indexed": false,
							"internalType": "uint256",
							"name": "value",
							"type": "uint256"
						}
					],
					"name": "Transfer",
					"type": "event"
				},
				{
					"inputs": [
						{
							"internalType": "address",
							"name": "account",
							"type": "address"
						},
						{
							"internalType": "uint256",
							"name": "amount",
							"type": "uint256"
						}
					],
					"name": "Burn",
					"outputs": [],
					"stateMutability": "nonpayable",
					"type": "function"
				},
				{
					"inputs": [
						{
							"internalType": "address",
							"name": "account",
							"type": "address"
						},
						{
							"internalType": "uint256",
							"name": "amount",
							"type": "uint256"
						}
					],
					"name": "Mint",
					"outputs": [],
					"stateMutability": "nonpayable",
					"type": "function"
				},
				{
					"inputs": [],
					"name": "Owner",
					"outputs": [
						{
							"internalType": "address",
							"name": "",
							"type": "address"
						}
					],
					"stateMutability": "view",
					"type": "function"
				},
				{
					"inputs": [
						{
							"internalType": "address",
							"name": "owner",
							"type": "address"
						},
						{
							"internalType": "address",
							"name": "spender",
							"type": "address"
						}
					],
					"name": "allowance",
					"outputs": [
						{
							"internalType": "uint256",
							"name": "",
							"type": "uint256"
						}
					],
					"stateMutability": "view",
					"type": "function"
				},
				{
					"inputs": [
						{
							"internalType": "address",
							"name": "spender",
							"type": "address"
						},
						{
							"internalType": "uint256",
							"name": "amount",
							"type": "uint256"
						}
					],
					"name": "approve",
					"outputs": [
						{
							"internalType": "bool",
							"name": "",
							"type": "bool"
						}
					],
					"stateMutability": "nonpayable",
					"type": "function"
				},
				{
					"inputs": [
						{
							"internalType": "address",
							"name": "account",
							"type": "address"
						}
					],
					"name": "balanceOf",
					"outputs": [
						{
							"internalType": "uint256",
							"name": "",
							"type": "uint256"
						}
					],
					"stateMutability": "view",
					"type": "function"
				},
				{
					"inputs": [],
					"name": "decimals",
					"outputs": [
						{
							"internalType": "uint8",
							"name": "",
							"type": "uint8"
						}
					],
					"stateMutability": "view",
					"type": "function"
				},
				{
					"inputs": [
						{
							"internalType": "address",
							"name": "spender",
							"type": "address"
						},
						{
							"internalType": "uint256",
							"name": "subtractedValue",
							"type": "uint256"
						}
					],
					"name": "decreaseAllowance",
					"outputs": [
						{
							"internalType": "bool",
							"name": "",
							"type": "bool"
						}
					],
					"stateMutability": "nonpayable",
					"type": "function"
				},
				{
					"inputs": [
						{
							"internalType": "address",
							"name": "spender",
							"type": "address"
						},
						{
							"internalType": "uint256",
							"name": "addedValue",
							"type": "uint256"
						}
					],
					"name": "increaseAllowance",
					"outputs": [
						{
							"internalType": "bool",
							"name": "",
							"type": "bool"
						}
					],
					"stateMutability": "nonpayable",
					"type": "function"
				},
				{
					"inputs": [],
					"name": "name",
					"outputs": [
						{
							"internalType": "string",
							"name": "",
							"type": "string"
						}
					],
					"stateMutability": "view",
					"type": "function"
				},
				{
					"inputs": [],
					"name": "symbol",
					"outputs": [
						{
							"internalType": "string",
							"name": "",
							"type": "string"
						}
					],
					"stateMutability": "view",
					"type": "function"
				},
				{
					"inputs": [],
					"name": "totalSupply",
					"outputs": [
						{
							"internalType": "uint256",
							"name": "",
							"type": "uint256"
						}
					],
					"stateMutability": "view",
					"type": "function"
				},
				{
					"inputs": [
						{
							"internalType": "address",
							"name": "to",
							"type": "address"
						},
						{
							"internalType": "uint256",
							"name": "amount",
							"type": "uint256"
						}
					],
					"name": "transfer",
					"outputs": [
						{
							"internalType": "bool",
							"name": "",
							"type": "bool"
						}
					],
					"stateMutability": "nonpayable",
					"type": "function"
				},
				{
					"inputs": [
						{
							"internalType": "address",
							"name": "from",
							"type": "address"
						},
						{
							"internalType": "address",
							"name": "to",
							"type": "address"
						},
						{
							"internalType": "uint256",
							"name": "amount",
							"type": "uint256"
						}
					],
					"name": "transferFrom",
					"outputs": [
						{
							"internalType": "bool",
							"name": "",
							"type": "bool"
						}
					],
					"stateMutability": "nonpayable",
					"type": "function"
				}
			],
			"devdoc": {
				"details": "Implementation of the {IERC20} interface. This implementation is agnostic to the way tokens are created. This means that a supply mechanism has to be added in a derived contract using {_mint}. For a generic mechanism see {ERC20PresetMinterPauser}. TIP: For a detailed writeup see our guide https://forum.zeppelin.solutions/t/how-to-implement-erc20-supply-mechanisms/226[How to implement supply mechanisms]. We have followed general OpenZeppelin Contracts guidelines: functions revert instead returning `false` on failure. This behavior is nonetheless conventional and does not conflict with the expectations of ERC20 applications. Additionally, an {Approval} event is emitted on calls to {transferFrom}. This allows applications to reconstruct the allowance for all accounts just by listening to said events. Other implementations of the EIP may not emit these events, as it isn't required by the specification. Finally, the non-standard {decreaseAllowance} and {increaseAllowance} functions have been added to mitigate the well-known issues around setting allowances. See {IERC20-approve}.",
				"kind": "dev",
				"methods": {
					"allowance(address,address)": {
						"details": "See {IERC20-allowance}."
					},
					"approve(address,uint256)": {
						"details": "See {IERC20-approve}. NOTE: If `amount` is the maximum `uint256`, the allowance is not updated on `transferFrom`. This is semantically equivalent to an infinite approval. Requirements: - `spender` cannot be the zero address."
					},
					"balanceOf(address)": {
						"details": "See {IERC20-balanceOf}."
					},
					"constructor": {
						"details": "Sets the values for {name} and {symbol}. The default value of {decimals} is 18. To select a different value for {decimals} you should overload it. All two of these values are immutable: they can only be set once during construction."
					},
					"decimals()": {
						"details": "Returns the number of decimals used to get its user representation. For example, if `decimals` equals `2`, a balance of `505` tokens should be displayed to a user as `5.05` (`505 / 10 ** 2`). Tokens usually opt for a value of 18, imitating the relationship between Ether and Wei. This is the value {ERC20} uses, unless this function is overridden; NOTE: This information is only used for _display_ purposes: it in no way affects any of the arithmetic of the contract, including {IERC20-balanceOf} and {IERC20-transfer}."
					},
					"decreaseAllowance(address,uint256)": {
						"details": "Atomically decreases the allowance granted to `spender` by the caller. This is an alternative to {approve} that can be used as a mitigation for problems described in {IERC20-approve}. Emits an {Approval} event indicating the updated allowance. Requirements: - `spender` cannot be the zero address. - `spender` must have allowance for the caller of at least `subtractedValue`."
					},
					"increaseAllowance(address,uint256)": {
						"details": "Atomically increases the allowance granted to `spender` by the caller. This is an alternative to {approve} that can be used as a mitigation for problems described in {IERC20-approve}. Emits an {Approval} event indicating the updated allowance. Requirements: - `spender` cannot be the zero address."
					},
					"name()": {
						"details": "Returns the name of the token."
					},
					"symbol()": {
						"details": "Returns the symbol of the token, usually a shorter version of the name."
					},
					"totalSupply()": {
						"details": "See {IERC20-totalSupply}."
					},
					"transfer(address,uint256)": {
						"details": "See {IERC20-transfer}. Requirements: - `to` cannot be the zero address. - the caller must have a balance of at least `amount`."
					},
					"transferFrom(address,address,uint256)": {
						"details": "See {IERC20-transferFrom}. Emits an {Approval} event indicating the updated allowance. This is not required by the EIP. See the note at the beginning of {ERC20}. NOTE: Does not update the allowance if the current allowance is the maximum `uint256`. Requirements: - `from` and `to` cannot be the zero address. - `from` must have a balance of at least `amount`. - the caller must have allowance for ``from``'s tokens of at least `amount`."
					}
				},
				"version": 1
			},
			"evm": {
				"assembly": "    /* \"ERC20.sol\":1382:12983  contract ERC20 is Context, IERC20, IERC20Metadata {... */\n  mstore(0x40, 0x80)\n    /* \"ERC20.sol\":1595:1604  369000000 */\n  0x15fe7e40\n    /* \"ERC20.sol\":1564:1604  uint256 private _totalSupply = 369000000 */\n  0x02\n  sstore\n    /* \"ERC20.sol\":2103:2244  constructor(string memory name_, string memory symbol_) {... */\n  callvalue\n  dup1\n  iszero\n  tag_1\n  jumpi\n  0x00\n  dup1\n  revert\ntag_1:\n  pop\n  mload(0x40)\n  sub(codesize, bytecodeSize)\n  dup1\n  bytecodeSize\n  dup4\n  codecopy\n  dup2\n  dup2\n  add\n  0x40\n  mstore\n  dup2\n  add\n  swap1\n  tag_2\n  swap2\n  swap1\n  tag_3\n  jump\t// in\ntag_2:\n    /* \"ERC20.sol\":2177:2182  name_ */\n  dup2\n    /* \"ERC20.sol\":2169:2174  _name */\n  0x03\n    /* \"ERC20.sol\":2169:2182  _name = name_ */\n  swap1\n  dup1\n  mload\n  swap1\n  0x20\n  add\n  swap1\n  tag_6\n  swap3\n  swap2\n  swap1\n  tag_7\n  jump\t// in\ntag_6:\n  pop\n    /* \"ERC20.sol\":2202:2209  symbol_ */\n  dup1\n    /* \"ERC20.sol\":2192:2199  _symbol */\n  0x04\n    /* \"ERC20.sol\":2192:2209  _symbol = symbol_ */\n  swap1\n  dup1\n  mload\n  swap1\n  0x20\n  add\n  swap1\n  tag_8\n  swap3\n  swap2\n  swap1\n  tag_7\n  jump\t// in\ntag_8:\n  pop\n    /* \"ERC20.sol\":2227:2237  msg.sender */\n  caller\n    /* \"ERC20.sol\":2219:2224  Owner */\n  0x05\n  0x00\n    /* \"ERC20.sol\":2219:2237  Owner = msg.sender */\n  0x0100\n  exp\n  dup2\n  sload\n  dup2\n  0xffffffffffffffffffffffffffffffffffffffff\n  mul\n  not\n  and\n  swap1\n  dup4\n  0xffffffffffffffffffffffffffffffffffffffff\n  and\n  mul\n  or\n  swap1\n  sstore\n  pop\n    /* \"ERC20.sol\":2103:2244  constructor(string memory name_, string memory symbol_) {... */\n  pop\n  pop\n    /* \"ERC20.sol\":1382:12983  contract ERC20 is Context, IERC20, IERC20Metadata {... */\n  jump(tag_9)\ntag_7:\n  dup3\n  dup1\n  sload\n  tag_10\n  swap1\n  tag_11\n  jump\t// in\ntag_10:\n  swap1\n  0x00\n  mstore\n  keccak256(0x00, 0x20)\n  swap1\n  0x1f\n  add\n  0x20\n  swap1\n  div\n  dup2\n  add\n  swap3\n  dup3\n  tag_13\n  jumpi\n  0x00\n  dup6\n  sstore\n  jump(tag_12)\ntag_13:\n  dup3\n  0x1f\n  lt\n  tag_14\n  jumpi\n  dup1\n  mload\n  not(0xff)\n  and\n  dup4\n  dup1\n  add\n  or\n  dup6\n  sstore\n  jump(tag_12)\ntag_14:\n  dup3\n  dup1\n  add\n  0x01\n  add\n  dup6\n  sstore\n  dup3\n  iszero\n  tag_12\n  jumpi\n  swap2\n  dup3\n  add\ntag_15:\n  dup3\n  dup2\n  gt\n  iszero\n  tag_16\n  jumpi\n  dup3\n  mload\n  dup3\n  sstore\n  swap2\n  0x20\n  add\n  swap2\n  swap1\n  0x01\n  add\n  swap1\n  jump(tag_15)\ntag_16:\ntag_12:\n  pop\n  swap1\n  pop\n  tag_17\n  swap2\n  swap1\n  tag_18\n  jump\t// in\ntag_17:\n  pop\n  swap1\n  jump\t// out\ntag_18:\ntag_19:\n  dup1\n  dup3\n  gt\n  iszero\n  tag_20\n  jumpi\n  0x00\n  dup2\n  0x00\n  swap1\n  sstore\n  pop\n  0x01\n  add\n  jump(tag_19)\ntag_20:\n  pop\n  swap1\n  jump\t// out\n    /* \"#utility.yul\":7:428   */\ntag_22:\n    /* \"#utility.yul\":96:101   */\n  0x00\n    /* \"#utility.yul\":121:187   */\n  tag_24\n    /* \"#utility.yul\":137:186   */\n  tag_25\n    /* \"#utility.yul\":179:185   */\n  dup5\n    /* \"#utility.yul\":137:186   */\n  tag_26\n  jump\t// in\ntag_25:\n    /* \"#utility.yul\":121:187   */\n  tag_27\n  jump\t// in\ntag_24:\n    /* \"#utility.yul\":112:187   */\n  swap1\n  pop\n    /* \"#utility.yul\":210:216   */\n  dup3\n    /* \"#utility.yul\":203:208   */\n  dup2\n    /* \"#utility.yul\":196:217   */\n  mstore\n    /* \"#utility.yul\":248:252   */\n  0x20\n    /* \"#utility.yul\":241:246   */\n  dup2\n    /* \"#utility.yul\":237:253   */\n  add\n    /* \"#utility.yul\":286:289   */\n  dup5\n    /* \"#utility.yul\":277:283   */\n  dup5\n    /* \"#utility.yul\":272:275   */\n  dup5\n    /* \"#utility.yul\":268:284   */\n  add\n    /* \"#utility.yul\":265:290   */\n  gt\n    /* \"#utility.yul\":262:374   */\n  iszero\n  tag_28\n  jumpi\n    /* \"#utility.yul\":293:372   */\n  tag_29\n  tag_30\n  jump\t// in\ntag_29:\n    /* \"#utility.yul\":262:374   */\ntag_28:\n    /* \"#utility.yul\":383:422   */\n  tag_31\n    /* \"#utility.yul\":415:421   */\n  dup5\n    /* \"#utility.yul\":410:413   */\n  dup3\n    /* \"#utility.yul\":405:408   */\n  dup6\n    /* \"#utility.yul\":383:422   */\n  tag_32\n  jump\t// in\ntag_31:\n    /* \"#utility.yul\":102:428   */\n  pop\n    /* \"#utility.yul\":7:428   */\n  swap4\n  swap3\n  pop\n  pop\n  pop\n  jump\t// out\n    /* \"#utility.yul\":448:803   */\ntag_33:\n    /* \"#utility.yul\":515:520   */\n  0x00\n    /* \"#utility.yul\":564:567   */\n  dup3\n    /* \"#utility.yul\":557:561   */\n  0x1f\n    /* \"#utility.yul\":549:555   */\n  dup4\n    /* \"#utility.yul\":545:562   */\n  add\n    /* \"#utility.yul\":541:568   */\n  slt\n    /* \"#utility.yul\":531:653   */\n  tag_35\n  jumpi\n    /* \"#utility.yul\":572:651   */\n  tag_36\n  tag_37\n  jump\t// in\ntag_36:\n    /* \"#utility.yul\":531:653   */\ntag_35:\n    /* \"#utility.yul\":682:688   */\n  dup2\n    /* \"#utility.yul\":676:689   */\n  mload\n    /* \"#utility.yul\":707:797   */\n  tag_38\n    /* \"#utility.yul\":793:796   */\n  dup5\n    /* \"#utility.yul\":785:791   */\n  dup3\n    /* \"#utility.yul\":778:782   */\n  0x20\n    /* \"#utility.yul\":770:776   */\n  dup7\n    /* \"#utility.yul\":766:783   */\n  add\n    /* \"#utility.yul\":707:797   */\n  tag_22\n  jump\t// in\ntag_38:\n    /* \"#utility.yul\":698:797   */\n  swap2\n  pop\n    /* \"#utility.yul\":521:803   */\n  pop\n    /* \"#utility.yul\":448:803   */\n  swap3\n  swap2\n  pop\n  pop\n  jump\t// out\n    /* \"#utility.yul\":809:1662   */\ntag_3:\n    /* \"#utility.yul\":908:914   */\n  0x00\n    /* \"#utility.yul\":916:922   */\n  dup1\n    /* \"#utility.yul\":965:967   */\n  0x40\n    /* \"#utility.yul\":953:962   */\n  dup4\n    /* \"#utility.yul\":944:951   */\n  dup6\n    /* \"#utility.yul\":940:963   */\n  sub\n    /* \"#utility.yul\":936:968   */\n  slt\n    /* \"#utility.yul\":933:1052   */\n  iszero\n  tag_40\n  jumpi\n    /* \"#utility.yul\":971:1050   */\n  tag_41\n  tag_42\n  jump\t// in\ntag_41:\n    /* \"#utility.yul\":933:1052   */\ntag_40:\n    /* \"#utility.yul\":1112:1113   */\n  0x00\n    /* \"#utility.yul\":1101:1110   */\n  dup4\n    /* \"#utility.yul\":1097:1114   */\n  add\n    /* \"#utility.yul\":1091:1115   */\n  mload\n    /* \"#utility.yul\":1142:1160   */\n  0xffffffffffffffff\n    /* \"#utility.yul\":1134:1140   */\n  dup2\n    /* \"#utility.yul\":1131:1161   */\n  gt\n    /* \"#utility.yul\":1128:1245   */\n  iszero\n  tag_43\n  jumpi\n    /* \"#utility.yul\":1164:1243   */\n  tag_44\n  tag_45\n  jump\t// in\ntag_44:\n    /* \"#utility.yul\":1128:1245   */\ntag_43:\n    /* \"#utility.yul\":1269:1343   */\n  tag_46\n    /* \"#utility.yul\":1335:1342   */\n  dup6\n    /* \"#utility.yul\":1326:1332   */\n  dup3\n    /* \"#utility.yul\":1315:1324   */\n  dup7\n    /* \"#utility.yul\":1311:1333   */\n  add\n    /* \"#utility.yul\":1269:1343   */\n  tag_33\n  jump\t// in\ntag_46:\n    /* \"#utility.yul\":1259:1343   */\n  swap3\n  pop\n    /* \"#utility.yul\":1062:1353   */\n  pop\n    /* \"#utility.yul\":1413:1415   */\n  0x20\n    /* \"#utility.yul\":1402:1411   */\n  dup4\n    /* \"#utility.yul\":1398:1416   */\n  add\n    /* \"#utility.yul\":1392:1417   */\n  mload\n    /* \"#utility.yul\":1444:1462   */\n  0xffffffffffffffff\n    /* \"#utility.yul\":1436:1442   */\n  dup2\n    /* \"#utility.yul\":1433:1463   */\n  gt\n    /* \"#utility.yul\":1430:1547   */\n  iszero\n  tag_47\n  jumpi\n    /* \"#utility.yul\":1466:1545   */\n  tag_48\n  tag_45\n  jump\t// in\ntag_48:\n    /* \"#utility.yul\":1430:1547   */\ntag_47:\n    /* \"#utility.yul\":1571:1645   */\n  tag_49\n    /* \"#utility.yul\":1637:1644   */\n  dup6\n    /* \"#utility.yul\":1628:1634   */\n  dup3\n    /* \"#utility.yul\":1617:1626   */\n  dup7\n    /* \"#utility.yul\":1613:1635   */\n  add\n    /* \"#utility.yul\":1571:1645   */\n  tag_33\n  jump\t// in\ntag_49:\n    /* \"#utility.yul\":1561:1645   */\n  swap2\n  pop\n    /* \"#utility.yul\":1363:1655   */\n  pop\n    /* \"#utility.yul\":809:1662   */\n  swap3\n  pop\n  swap3\n  swap1\n  pop\n  jump\t// out\n    /* \"#utility.yul\":1668:1797   */\ntag_27:\n    /* \"#utility.yul\":1702:1708   */\n  0x00\n    /* \"#utility.yul\":1729:1749   */\n  tag_51\n  tag_52\n  jump\t// in\ntag_51:\n    /* \"#utility.yul\":1719:1749   */\n  swap1\n  pop\n    /* \"#utility.yul\":1758:1791   */\n  tag_53\n    /* \"#utility.yul\":1786:1790   */\n  dup3\n    /* \"#utility.yul\":1778:1784   */\n  dup3\n    /* \"#utility.yul\":1758:1791   */\n  tag_54\n  jump\t// in\ntag_53:\n    /* \"#utility.yul\":1668:1797   */\n  swap2\n  swap1\n  pop\n  jump\t// out\n    /* \"#utility.yul\":1803:1878   */\ntag_52:\n    /* \"#utility.yul\":1836:1842   */\n  0x00\n    /* \"#utility.yul\":1869:1871   */\n  0x40\n    /* \"#utility.yul\":1863:1872   */\n  mload\n    /* \"#utility.yul\":1853:1872   */\n  swap1\n  pop\n    /* \"#utility.yul\":1803:1878   */\n  swap1\n  jump\t// out\n    /* \"#utility.yul\":1884:2192   */\ntag_26:\n    /* \"#utility.yul\":1946:1950   */\n  0x00\n    /* \"#utility.yul\":2036:2054   */\n  0xffffffffffffffff\n    /* \"#utility.yul\":2028:2034   */\n  dup3\n    /* \"#utility.yul\":2025:2055   */\n  gt\n    /* \"#utility.yul\":2022:2078   */\n  iszero\n  tag_57\n  jumpi\n    /* \"#utility.yul\":2058:2076   */\n  tag_58\n  tag_59\n  jump\t// in\ntag_58:\n    /* \"#utility.yul\":2022:2078   */\ntag_57:\n    /* \"#utility.yul\":2096:2125   */\n  tag_60\n    /* \"#utility.yul\":2118:2124   */\n  dup3\n    /* \"#utility.yul\":2096:2125   */\n  tag_61\n  jump\t// in\ntag_60:\n    /* \"#utility.yul\":2088:2125   */\n  swap1\n  pop\n    /* \"#utility.yul\":2180:2184   */\n  0x20\n    /* \"#utility.yul\":2174:2178   */\n  dup2\n    /* \"#utility.yul\":2170:2185   */\n  add\n    /* \"#utility.yul\":2162:2185   */\n  swap1\n  pop\n    /* \"#utility.yul\":1884:2192   */\n  swap2\n  swap1\n  pop\n  jump\t// out\n    /* \"#utility.yul\":2198:2505   */\ntag_32:\n    /* \"#utility.yul\":2266:2267   */\n  0x00\n    /* \"#utility.yul\":2276:2389   */\ntag_63:\n    /* \"#utility.yul\":2290:2296   */\n  dup4\n    /* \"#utility.yul\":2287:2288   */\n  dup2\n    /* \"#utility.yul\":2284:2297   */\n  lt\n    /* \"#utility.yul\":2276:2389   */\n  iszero\n  tag_65\n  jumpi\n    /* \"#utility.yul\":2375:2376   */\n  dup1\n    /* \"#utility.yul\":2370:2373   */\n  dup3\n    /* \"#utility.yul\":2366:2377   */\n  add\n    /* \"#utility.yul\":2360:2378   */\n  mload\n    /* \"#utility.yul\":2356:2357   */\n  dup2\n    /* \"#utility.yul\":2351:2354   */\n  dup5\n    /* \"#utility.yul\":2347:2358   */\n  add\n    /* \"#utility.yul\":2340:2379   */\n  mstore\n    /* \"#utility.yul\":2312:2314   */\n  0x20\n    /* \"#utility.yul\":2309:2310   */\n  dup2\n    /* \"#utility.yul\":2305:2315   */\n  add\n    /* \"#utility.yul\":2300:2315   */\n  swap1\n  pop\n    /* \"#utility.yul\":2276:2389   */\n  jump(tag_63)\ntag_65:\n    /* \"#utility.yul\":2407:2413   */\n  dup4\n    /* \"#utility.yul\":2404:2405   */\n  dup2\n    /* \"#utility.yul\":2401:2414   */\n  gt\n    /* \"#utility.yul\":2398:2499   */\n  iszero\n  tag_66\n  jumpi\n    /* \"#utility.yul\":2487:2488   */\n  0x00\n    /* \"#utility.yul\":2478:2484   */\n  dup5\n    /* \"#utility.yul\":2473:2476   */\n  dup5\n    /* \"#utility.yul\":2469:2485   */\n  add\n    /* \"#utility.yul\":2462:2489   */\n  mstore\n    /* \"#utility.yul\":2398:2499   */\ntag_66:\n    /* \"#utility.yul\":2247:2505   */\n  pop\n    /* \"#utility.yul\":2198:2505   */\n  pop\n  pop\n  pop\n  jump\t// out\n    /* \"#utility.yul\":2511:2831   */\ntag_11:\n    /* \"#utility.yul\":2555:2561   */\n  0x00\n    /* \"#utility.yul\":2592:2593   */\n  0x02\n    /* \"#utility.yul\":2586:2590   */\n  dup3\n    /* \"#utility.yul\":2582:2594   */\n  div\n    /* \"#utility.yul\":2572:2594   */\n  swap1\n  pop\n    /* \"#utility.yul\":2639:2640   */\n  0x01\n    /* \"#utility.yul\":2633:2637   */\n  dup3\n    /* \"#utility.yul\":2629:2641   */\n  and\n    /* \"#utility.yul\":2660:2678   */\n  dup1\n    /* \"#utility.yul\":2650:2731   */\n  tag_68\n  jumpi\n    /* \"#utility.yul\":2716:2720   */\n  0x7f\n    /* \"#utility.yul\":2708:2714   */\n  dup3\n    /* \"#utility.yul\":2704:2721   */\n  and\n    /* \"#utility.yul\":2694:2721   */\n  swap2\n  pop\n    /* \"#utility.yul\":2650:2731   */\ntag_68:\n    /* \"#utility.yul\":2778:2780   */\n  0x20\n    /* \"#utility.yul\":2770:2776   */\n  dup3\n    /* \"#utility.yul\":2767:2781   */\n  lt\n    /* \"#utility.yul\":2747:2765   */\n  dup2\n    /* \"#utility.yul\":2744:2782   */\n  eq\n    /* \"#utility.yul\":2741:2825   */\n  iszero\n  tag_69\n  jumpi\n    /* \"#utility.yul\":2797:2815   */\n  tag_70\n  tag_71\n  jump\t// in\ntag_70:\n    /* \"#utility.yul\":2741:2825   */\ntag_69:\n    /* \"#utility.yul\":2562:2831   */\n  pop\n    /* \"#utility.yul\":2511:2831   */\n  swap2\n  swap1\n  pop\n  jump\t// out\n    /* \"#utility.yul\":2837:3118   */\ntag_54:\n    /* \"#utility.yul\":2920:2947   */\n  tag_73\n    /* \"#utility.yul\":2942:2946   */\n  dup3\n    /* \"#utility.yul\":2920:2947   */\n  tag_61\n  jump\t// in\ntag_73:\n    /* \"#utility.yul\":2912:2918   */\n  dup2\n    /* \"#utility.yul\":2908:2948   */\n  add\n    /* \"#utility.yul\":3050:3056   */\n  dup2\n    /* \"#utility.yul\":3038:3048   */\n  dup2\n    /* \"#utility.yul\":3035:3057   */\n  lt\n    /* \"#utility.yul\":3014:3032   */\n  0xffffffffffffffff\n    /* \"#utility.yul\":3002:3012   */\n  dup3\n    /* \"#utility.yul\":2999:3033   */\n  gt\n    /* \"#utility.yul\":2996:3058   */\n  or\n    /* \"#utility.yul\":2993:3081   */\n  iszero\n  tag_74\n  jumpi\n    /* \"#utility.yul\":3061:3079   */\n  tag_75\n  tag_59\n  jump\t// in\ntag_75:\n    /* \"#utility.yul\":2993:3081   */\ntag_74:\n    /* \"#utility.yul\":3101:3111   */\n  dup1\n    /* \"#utility.yul\":3097:3099   */\n  0x40\n    /* \"#utility.yul\":3090:3112   */\n  mstore\n    /* \"#utility.yul\":2880:3118   */\n  pop\n    /* \"#utility.yul\":2837:3118   */\n  pop\n  pop\n  jump\t// out\n    /* \"#utility.yul\":3124:3304   */\ntag_71:\n    /* \"#utility.yul\":3172:3249   */\n  0x4e487b7100000000000000000000000000000000000000000000000000000000\n    /* \"#utility.yul\":3169:3170   */\n  0x00\n    /* \"#utility.yul\":3162:3250   */\n  mstore\n    /* \"#utility.yul\":3269:3273   */\n  0x22\n    /* \"#utility.yul\":3266:3267   */\n  0x04\n    /* \"#utility.yul\":3259:3274   */\n  mstore\n    /* \"#utility.yul\":3293:3297   */\n  0x24\n    /* \"#utility.yul\":3290:3291   */\n  0x00\n    /* \"#utility.yul\":3283:3298   */\n  revert\n    /* \"#utility.yul\":3310:3490   */\ntag_59:\n    /* \"#utility.yul\":3358:3435   */\n  0x4e487b7100000000000000000000000000000000000000000000000000000000\n    /* \"#utility.yul\":3355:3356   */\n  0x00\n    /* \"#utility.yul\":3348:3436   */\n  mstore\n    /* \"#utility.yul\":3455:3459   */\n  0x41\n    /* \"#utility.yul\":3452:3453   */\n  0x04\n    /* \"#utility.yul\":3445:3460   */\n  mstore\n    /* \"#utility.yul\":3479:3483   */\n  0x24\n    /* \"#utility.yul\":3476:3477   */\n  0x00\n    /* \"#utility.yul\":3469:3484   */\n  revert\n    /* \"#utility.yul\":3496:3613   */\ntag_37:\n    /* \"#utility.yul\":3605:3606   */\n  0x00\n    /* \"#utility.yul\":3602:3603   */\n  dup1\n    /* \"#utility.yul\":3595:3607   */\n  revert\n    /* \"#utility.yul\":3619:3736   */\ntag_30:\n    /* \"#utility.yul\":3728:3729   */\n  0x00\n    /* \"#utility.yul\":3725:3726   */\n  dup1\n    /* \"#utility.yul\":3718:3730   */\n  revert\n    /* \"#utility.yul\":3742:3859   */\ntag_45:\n    /* \"#utility.yul\":3851:3852   */\n  0x00\n    /* \"#utility.yul\":3848:3849   */\n  dup1\n    /* \"#utility.yul\":3841:3853   */\n  revert\n    /* \"#utility.yul\":3865:3982   */\ntag_42:\n    /* \"#utility.yul\":3974:3975   */\n  0x00\n    /* \"#utility.yul\":3971:3972   */\n  dup1\n    /* \"#utility.yul\":3964:3976   */\n  revert\n    /* \"#utility.yul\":3988:4090   */\ntag_61:\n    /* \"#utility.yul\":4029:4035   */\n  0x00\n    /* \"#utility.yul\":4080:4082   */\n  0x1f\n    /* \"#utility.yul\":4076:4083   */\n  not\n    /* \"#utility.yul\":4071:4073   */\n  0x1f\n    /* \"#utility.yul\":4064:4069   */\n  dup4\n    /* \"#utility.yul\":4060:4074   */\n  add\n    /* \"#utility.yul\":4056:4084   */\n  and\n    /* \"#utility.yul\":4046:4084   */\n  swap1\n  pop\n    /* \"#utility.yul\":3988:4090   */\n  swap2\n  swap1\n  pop\n  jump\t// out\n    /* \"ERC20.sol\":1382:12983  contract ERC20 is Context, IERC20, IERC20Metadata {... */\ntag_9:\n  dataSize(sub_0)\n  dup1\n  dataOffset(sub_0)\n  0x00\n  codecopy\n  0x00\n  return\nstop\n\nsub_0: assembly {\n        /* \"ERC20.sol\":1382:12983  contract ERC20 is Context, IERC20, IERC20Metadata {... */\n      mstore(0x40, 0x80)\n      callvalue\n      dup1\n      iszero\n      tag_1\n      jumpi\n      0x00\n      dup1\n      revert\n    tag_1:\n      pop\n      jumpi(tag_2, lt(calldatasize, 0x04))\n      shr(0xe0, calldataload(0x00))\n      dup1\n      0x70a08231\n      gt\n      tag_17\n      jumpi\n      dup1\n      0xa9059cbb\n      gt\n      tag_18\n      jumpi\n      dup1\n      0xa9059cbb\n      eq\n      tag_13\n      jumpi\n      dup1\n      0xb4a99a4e\n      eq\n      tag_14\n      jumpi\n      dup1\n      0xcc16f5db\n      eq\n      tag_15\n      jumpi\n      dup1\n      0xdd62ed3e\n      eq\n      tag_16\n      jumpi\n      jump(tag_2)\n    tag_18:\n      dup1\n      0x70a08231\n      eq\n      tag_10\n      jumpi\n      dup1\n      0x95d89b41\n      eq\n      tag_11\n      jumpi\n      dup1\n      0xa457c2d7\n      eq\n      tag_12\n      jumpi\n      jump(tag_2)\n    tag_17:\n      dup1\n      0x18160ddd\n      gt\n      tag_19\n      jumpi\n      dup1\n      0x18160ddd\n      eq\n      tag_6\n      jumpi\n      dup1\n      0x23b872dd\n      eq\n      tag_7\n      jumpi\n      dup1\n      0x313ce567\n      eq\n      tag_8\n      jumpi\n      dup1\n      0x39509351\n      eq\n      tag_9\n      jumpi\n      jump(tag_2)\n    tag_19:\n      dup1\n      0x06fdde03\n      eq\n      tag_3\n      jumpi\n      dup1\n      0x095ea7b3\n      eq\n      tag_4\n      jumpi\n      dup1\n      0x0f6798a5\n      eq\n      tag_5\n      jumpi\n    tag_2:\n      0x00\n      dup1\n      revert\n        /* \"ERC20.sol\":2314:2412  function name() public view virtual override returns (string memory) {... */\n    tag_3:\n      tag_20\n      tag_21\n      jump\t// in\n    tag_20:\n      mload(0x40)\n      tag_22\n      swap2\n      swap1\n      tag_23\n      jump\t// in\n    tag_22:\n      mload(0x40)\n      dup1\n      swap2\n      sub\n      swap1\n      return\n        /* \"ERC20.sol\":4591:4788  function approve(address spender, uint256 amount) public virtual override returns (bool) {... */\n    tag_4:\n      tag_24\n      0x04\n      dup1\n      calldatasize\n      sub\n      dup2\n      add\n      swap1\n      tag_25\n      swap2\n      swap1\n      tag_26\n      jump\t// in\n    tag_25:\n      tag_27\n      jump\t// in\n    tag_24:\n      mload(0x40)\n      tag_28\n      swap2\n      swap1\n      tag_29\n      jump\t// in\n    tag_28:\n      mload(0x40)\n      dup1\n      swap2\n      sub\n      swap1\n      return\n        /* \"ERC20.sol\":6270:6374  function Mint(address account, uint256 amount) public OnlyOwner {... */\n    tag_5:\n      tag_30\n      0x04\n      dup1\n      calldatasize\n      sub\n      dup2\n      add\n      swap1\n      tag_31\n      swap2\n      swap1\n      tag_26\n      jump\t// in\n    tag_31:\n      tag_32\n      jump\t// in\n    tag_30:\n      stop\n        /* \"ERC20.sol\":3402:3508  function totalSupply() public view virtual override returns (uint256) {... */\n    tag_6:\n      tag_33\n      tag_34\n      jump\t// in\n    tag_33:\n      mload(0x40)\n      tag_35\n      swap2\n      swap1\n      tag_36\n      jump\t// in\n    tag_35:\n      mload(0x40)\n      dup1\n      swap2\n      sub\n      swap1\n      return\n        /* \"ERC20.sol\":5350:5636  function transferFrom(... */\n    tag_7:\n      tag_37\n      0x04\n      dup1\n      calldatasize\n      sub\n      dup2\n      add\n      swap1\n      tag_38\n      swap2\n      swap1\n      tag_39\n      jump\t// in\n    tag_38:\n      tag_40\n      jump\t// in\n    tag_37:\n      mload(0x40)\n      tag_41\n      swap2\n      swap1\n      tag_29\n      jump\t// in\n    tag_41:\n      mload(0x40)\n      dup1\n      swap2\n      sub\n      swap1\n      return\n        /* \"ERC20.sol\":3251:3342  function decimals() public view virtual override returns (uint8) {... */\n    tag_8:\n      tag_42\n      tag_43\n      jump\t// in\n    tag_42:\n      mload(0x40)\n      tag_44\n      swap2\n      swap1\n      tag_45\n      jump\t// in\n    tag_44:\n      mload(0x40)\n      dup1\n      swap2\n      sub\n      swap1\n      return\n        /* \"ERC20.sol\":6031:6265  function increaseAllowance(address spender, uint256 addedValue) public virtual returns (bool) {... */\n    tag_9:\n      tag_46\n      0x04\n      dup1\n      calldatasize\n      sub\n      dup2\n      add\n      swap1\n      tag_47\n      swap2\n      swap1\n      tag_26\n      jump\t// in\n    tag_47:\n      tag_48\n      jump\t// in\n    tag_46:\n      mload(0x40)\n      tag_49\n      swap2\n      swap1\n      tag_29\n      jump\t// in\n    tag_49:\n      mload(0x40)\n      dup1\n      swap2\n      sub\n      swap1\n      return\n        /* \"ERC20.sol\":3566:3691  function balanceOf(address account) public view virtual override returns (uint256) {... */\n    tag_10:\n      tag_50\n      0x04\n      dup1\n      calldatasize\n      sub\n      dup2\n      add\n      swap1\n      tag_51\n      swap2\n      swap1\n      tag_52\n      jump\t// in\n    tag_51:\n      tag_53\n      jump\t// in\n    tag_50:\n      mload(0x40)\n      tag_54\n      swap2\n      swap1\n      tag_36\n      jump\t// in\n    tag_54:\n      mload(0x40)\n      dup1\n      swap2\n      sub\n      swap1\n      return\n        /* \"ERC20.sol\":2525:2627  function symbol() public view virtual override returns (string memory) {... */\n    tag_11:\n      tag_55\n      tag_56\n      jump\t// in\n    tag_55:\n      mload(0x40)\n      tag_57\n      swap2\n      swap1\n      tag_23\n      jump\t// in\n    tag_57:\n      mload(0x40)\n      dup1\n      swap2\n      sub\n      swap1\n      return\n        /* \"ERC20.sol\":6959:7386  function decreaseAllowance(address spender, uint256 subtractedValue) public virtual returns (bool) {... */\n    tag_12:\n      tag_58\n      0x04\n      dup1\n      calldatasize\n      sub\n      dup2\n      add\n      swap1\n      tag_59\n      swap2\n      swap1\n      tag_26\n      jump\t// in\n    tag_59:\n      tag_60\n      jump\t// in\n    tag_58:\n      mload(0x40)\n      tag_61\n      swap2\n      swap1\n      tag_29\n      jump\t// in\n    tag_61:\n      mload(0x40)\n      dup1\n      swap2\n      sub\n      swap1\n      return\n        /* \"ERC20.sol\":3887:4076  function transfer(address to, uint256 amount) public virtual override returns (bool) {... */\n    tag_13:\n      tag_62\n      0x04\n      dup1\n      calldatasize\n      sub\n      dup2\n      add\n      swap1\n      tag_63\n      swap2\n      swap1\n      tag_26\n      jump\t// in\n    tag_63:\n      tag_64\n      jump\t// in\n    tag_62:\n      mload(0x40)\n      tag_65\n      swap2\n      swap1\n      tag_29\n      jump\t// in\n    tag_65:\n      mload(0x40)\n      dup1\n      swap2\n      sub\n      swap1\n      return\n        /* \"ERC20.sol\":1772:1792  address public Owner */\n    tag_14:\n      tag_66\n      tag_67\n      jump\t// in\n    tag_66:\n      mload(0x40)\n      tag_68\n      swap2\n      swap1\n      tag_69\n      jump\t// in\n    tag_68:\n      mload(0x40)\n      dup1\n      swap2\n      sub\n      swap1\n      return\n        /* \"ERC20.sol\":6379:6473  function Burn(address account, uint256 amount) public {... */\n    tag_15:\n      tag_70\n      0x04\n      dup1\n      calldatasize\n      sub\n      dup2\n      add\n      swap1\n      tag_71\n      swap2\n      swap1\n      tag_26\n      jump\t// in\n    tag_71:\n      tag_72\n      jump\t// in\n    tag_70:\n      stop\n        /* \"ERC20.sol\":4134:4283  function allowance(address owner, address spender) public view virtual override returns (uint256) {... */\n    tag_16:\n      tag_73\n      0x04\n      dup1\n      calldatasize\n      sub\n      dup2\n      add\n      swap1\n      tag_74\n      swap2\n      swap1\n      tag_75\n      jump\t// in\n    tag_74:\n      tag_76\n      jump\t// in\n    tag_73:\n      mload(0x40)\n      tag_77\n      swap2\n      swap1\n      tag_36\n      jump\t// in\n    tag_77:\n      mload(0x40)\n      dup1\n      swap2\n      sub\n      swap1\n      return\n        /* \"ERC20.sol\":2314:2412  function name() public view virtual override returns (string memory) {... */\n    tag_21:\n        /* \"ERC20.sol\":2368:2381  string memory */\n      0x60\n        /* \"ERC20.sol\":2400:2405  _name */\n      0x03\n        /* \"ERC20.sol\":2393:2405  return _name */\n      dup1\n      sload\n      tag_79\n      swap1\n      tag_80\n      jump\t// in\n    tag_79:\n      dup1\n      0x1f\n      add\n      0x20\n      dup1\n      swap2\n      div\n      mul\n      0x20\n      add\n      mload(0x40)\n      swap1\n      dup2\n      add\n      0x40\n      mstore\n      dup1\n      swap3\n      swap2\n      swap1\n      dup2\n      dup2\n      mstore\n      0x20\n      add\n      dup3\n      dup1\n      sload\n      tag_81\n      swap1\n      tag_80\n      jump\t// in\n    tag_81:\n      dup1\n      iszero\n      tag_82\n      jumpi\n      dup1\n      0x1f\n      lt\n      tag_83\n      jumpi\n      0x0100\n      dup1\n      dup4\n      sload\n      div\n      mul\n      dup4\n      mstore\n      swap2\n      0x20\n      add\n      swap2\n      jump(tag_82)\n    tag_83:\n      dup3\n      add\n      swap2\n      swap1\n      0x00\n      mstore\n      keccak256(0x00, 0x20)\n      swap1\n    tag_84:\n      dup2\n      sload\n      dup2\n      mstore\n      swap1\n      0x01\n      add\n      swap1\n      0x20\n      add\n      dup1\n      dup4\n      gt\n      tag_84\n      jumpi\n      dup3\n      swap1\n      sub\n      0x1f\n      and\n      dup3\n      add\n      swap2\n    tag_82:\n      pop\n      pop\n      pop\n      pop\n      pop\n      swap1\n      pop\n        /* \"ERC20.sol\":2314:2412  function name() public view virtual override returns (string memory) {... */\n      swap1\n      jump\t// out\n        /* \"ERC20.sol\":4591:4788  function approve(address spender, uint256 amount) public virtual override returns (bool) {... */\n    tag_27:\n        /* \"ERC20.sol\":4674:4678  bool */\n      0x00\n        /* \"ERC20.sol\":4690:4703  address owner */\n      dup1\n        /* \"ERC20.sol\":4706:4718  _msgSender() */\n      tag_86\n        /* \"ERC20.sol\":4706:4716  _msgSender */\n      tag_87\n        /* \"ERC20.sol\":4706:4718  _msgSender() */\n      jump\t// in\n    tag_86:\n        /* \"ERC20.sol\":4690:4718  address owner = _msgSender() */\n      swap1\n      pop\n        /* \"ERC20.sol\":4728:4760  _approve(owner, spender, amount) */\n      tag_88\n        /* \"ERC20.sol\":4737:4742  owner */\n      dup2\n        /* \"ERC20.sol\":4744:4751  spender */\n      dup6\n        /* \"ERC20.sol\":4753:4759  amount */\n      dup6\n        /* \"ERC20.sol\":4728:4736  _approve */\n      tag_89\n        /* \"ERC20.sol\":4728:4760  _approve(owner, spender, amount) */\n      jump\t// in\n    tag_88:\n        /* \"ERC20.sol\":4777:4781  true */\n      0x01\n        /* \"ERC20.sol\":4770:4781  return true */\n      swap2\n      pop\n      pop\n        /* \"ERC20.sol\":4591:4788  function approve(address spender, uint256 amount) public virtual override returns (bool) {... */\n      swap3\n      swap2\n      pop\n      pop\n      jump\t// out\n        /* \"ERC20.sol\":6270:6374  function Mint(address account, uint256 amount) public OnlyOwner {... */\n    tag_32:\n        /* \"ERC20.sol\":1663:1668  Owner */\n      0x05\n      0x00\n      swap1\n      sload\n      swap1\n      0x0100\n      exp\n      swap1\n      div\n      0xffffffffffffffffffffffffffffffffffffffff\n      and\n        /* \"ERC20.sol\":1647:1668  _msgSender() == Owner */\n      0xffffffffffffffffffffffffffffffffffffffff\n      and\n        /* \"ERC20.sol\":1647:1659  _msgSender() */\n      tag_91\n        /* \"ERC20.sol\":1647:1657  _msgSender */\n      tag_87\n        /* \"ERC20.sol\":1647:1659  _msgSender() */\n      jump\t// in\n    tag_91:\n        /* \"ERC20.sol\":1647:1668  _msgSender() == Owner */\n      0xffffffffffffffffffffffffffffffffffffffff\n      and\n      eq\n        /* \"ERC20.sol\":1639:1694  require(_msgSender() == Owner, \"Only owner has access\") */\n      tag_92\n      jumpi\n      mload(0x40)\n      0x08c379a000000000000000000000000000000000000000000000000000000000\n      dup2\n      mstore\n      0x04\n      add\n      tag_93\n      swap1\n      tag_94\n      jump\t// in\n    tag_93:\n      mload(0x40)\n      dup1\n      swap2\n      sub\n      swap1\n      revert\n    tag_92:\n        /* \"ERC20.sol\":6344:6367  _mint( account, amount) */\n      tag_96\n        /* \"ERC20.sol\":6351:6358  account */\n      dup3\n        /* \"ERC20.sol\":6360:6366  amount */\n      dup3\n        /* \"ERC20.sol\":6344:6349  _mint */\n      tag_97\n        /* \"ERC20.sol\":6344:6367  _mint( account, amount) */\n      jump\t// in\n    tag_96:\n        /* \"ERC20.sol\":6270:6374  function Mint(address account, uint256 amount) public OnlyOwner {... */\n      pop\n      pop\n      jump\t// out\n        /* \"ERC20.sol\":3402:3508  function totalSupply() public view virtual override returns (uint256) {... */\n    tag_34:\n        /* \"ERC20.sol\":3463:3470  uint256 */\n      0x00\n        /* \"ERC20.sol\":3489:3501  _totalSupply */\n      sload(0x02)\n        /* \"ERC20.sol\":3482:3501  return _totalSupply */\n      swap1\n      pop\n        /* \"ERC20.sol\":3402:3508  function totalSupply() public view virtual override returns (uint256) {... */\n      swap1\n      jump\t// out\n        /* \"ERC20.sol\":5350:5636  function transferFrom(... */\n    tag_40:\n        /* \"ERC20.sol\":5477:5481  bool */\n      0x00\n        /* \"ERC20.sol\":5493:5508  address spender */\n      dup1\n        /* \"ERC20.sol\":5511:5523  _msgSender() */\n      tag_100\n        /* \"ERC20.sol\":5511:5521  _msgSender */\n      tag_87\n        /* \"ERC20.sol\":5511:5523  _msgSender() */\n      jump\t// in\n    tag_100:\n        /* \"ERC20.sol\":5493:5523  address spender = _msgSender() */\n      swap1\n      pop\n        /* \"ERC20.sol\":5533:5571  _spendAllowance(from, spender, amount) */\n      tag_101\n        /* \"ERC20.sol\":5549:5553  from */\n      dup6\n        /* \"ERC20.sol\":5555:5562  spender */\n      dup3\n        /* \"ERC20.sol\":5564:5570  amount */\n      dup6\n        /* \"ERC20.sol\":5533:5548  _spendAllowance */\n      tag_102\n        /* \"ERC20.sol\":5533:5571  _spendAllowance(from, spender, amount) */\n      jump\t// in\n    tag_101:\n        /* \"ERC20.sol\":5581:5608  _transfer(from, to, amount) */\n      tag_103\n        /* \"ERC20.sol\":5591:5595  from */\n      dup6\n        /* \"ERC20.sol\":5597:5599  to */\n      dup6\n        /* \"ERC20.sol\":5601:5607  amount */\n      dup6\n        /* \"ERC20.sol\":5581:5590  _transfer */\n      tag_104\n        /* \"ERC20.sol\":5581:5608  _transfer(from, to, amount) */\n      jump\t// in\n    tag_103:\n        /* \"ERC20.sol\":5625:5629  true */\n      0x01\n        /* \"ERC20.sol\":5618:5629  return true */\n      swap2\n      pop\n      pop\n        /* \"ERC20.sol\":5350:5636  function transferFrom(... */\n      swap4\n      swap3\n      pop\n      pop\n      pop\n      jump\t// out\n        /* \"ERC20.sol\":3251:3342  function decimals() public view virtual override returns (uint8) {... */\n    tag_43:\n        /* \"ERC20.sol\":3309:3314  uint8 */\n      0x00\n        /* \"ERC20.sol\":3333:3335  18 */\n      0x12\n        /* \"ERC20.sol\":3326:3335  return 18 */\n      swap1\n      pop\n        /* \"ERC20.sol\":3251:3342  function decimals() public view virtual override returns (uint8) {... */\n      swap1\n      jump\t// out\n        /* \"ERC20.sol\":6031:6265  function increaseAllowance(address spender, uint256 addedValue) public virtual returns (bool) {... */\n    tag_48:\n        /* \"ERC20.sol\":6119:6123  bool */\n      0x00\n        /* \"ERC20.sol\":6135:6148  address owner */\n      dup1\n        /* \"ERC20.sol\":6151:6163  _msgSender() */\n      tag_107\n        /* \"ERC20.sol\":6151:6161  _msgSender */\n      tag_87\n        /* \"ERC20.sol\":6151:6163  _msgSender() */\n      jump\t// in\n    tag_107:\n        /* \"ERC20.sol\":6135:6163  address owner = _msgSender() */\n      swap1\n      pop\n        /* \"ERC20.sol\":6173:6237  _approve(owner, spender, allowance(owner, spender) + addedValue) */\n      tag_108\n        /* \"ERC20.sol\":6182:6187  owner */\n      dup2\n        /* \"ERC20.sol\":6189:6196  spender */\n      dup6\n        /* \"ERC20.sol\":6226:6236  addedValue */\n      dup6\n        /* \"ERC20.sol\":6198:6223  allowance(owner, spender) */\n      tag_109\n        /* \"ERC20.sol\":6208:6213  owner */\n      dup6\n        /* \"ERC20.sol\":6215:6222  spender */\n      dup10\n        /* \"ERC20.sol\":6198:6207  allowance */\n      tag_76\n        /* \"ERC20.sol\":6198:6223  allowance(owner, spender) */\n      jump\t// in\n    tag_109:\n        /* \"ERC20.sol\":6198:6236  allowance(owner, spender) + addedValue */\n      tag_110\n      swap2\n      swap1\n      tag_111\n      jump\t// in\n    tag_110:\n        /* \"ERC20.sol\":6173:6181  _approve */\n      tag_89\n        /* \"ERC20.sol\":6173:6237  _approve(owner, spender, allowance(owner, spender) + addedValue) */\n      jump\t// in\n    tag_108:\n        /* \"ERC20.sol\":6254:6258  true */\n      0x01\n        /* \"ERC20.sol\":6247:6258  return true */\n      swap2\n      pop\n      pop\n        /* \"ERC20.sol\":6031:6265  function increaseAllowance(address spender, uint256 addedValue) public virtual returns (bool) {... */\n      swap3\n      swap2\n      pop\n      pop\n      jump\t// out\n        /* \"ERC20.sol\":3566:3691  function balanceOf(address account) public view virtual override returns (uint256) {... */\n    tag_53:\n        /* \"ERC20.sol\":3640:3647  uint256 */\n      0x00\n        /* \"ERC20.sol\":3666:3675  _balances */\n      dup1\n        /* \"ERC20.sol\":3666:3684  _balances[account] */\n      0x00\n        /* \"ERC20.sol\":3676:3683  account */\n      dup4\n        /* \"ERC20.sol\":3666:3684  _balances[account] */\n      0xffffffffffffffffffffffffffffffffffffffff\n      and\n      0xffffffffffffffffffffffffffffffffffffffff\n      and\n      dup2\n      mstore\n      0x20\n      add\n      swap1\n      dup2\n      mstore\n      0x20\n      add\n      0x00\n      keccak256\n      sload\n        /* \"ERC20.sol\":3659:3684  return _balances[account] */\n      swap1\n      pop\n        /* \"ERC20.sol\":3566:3691  function balanceOf(address account) public view virtual override returns (uint256) {... */\n      swap2\n      swap1\n      pop\n      jump\t// out\n        /* \"ERC20.sol\":2525:2627  function symbol() public view virtual override returns (string memory) {... */\n    tag_56:\n        /* \"ERC20.sol\":2581:2594  string memory */\n      0x60\n        /* \"ERC20.sol\":2613:2620  _symbol */\n      0x04\n        /* \"ERC20.sol\":2606:2620  return _symbol */\n      dup1\n      sload\n      tag_114\n      swap1\n      tag_80\n      jump\t// in\n    tag_114:\n      dup1\n      0x1f\n      add\n      0x20\n      dup1\n      swap2\n      div\n      mul\n      0x20\n      add\n      mload(0x40)\n      swap1\n      dup2\n      add\n      0x40\n      mstore\n      dup1\n      swap3\n      swap2\n      swap1\n      dup2\n      dup2\n      mstore\n      0x20\n      add\n      dup3\n      dup1\n      sload\n      tag_115\n      swap1\n      tag_80\n      jump\t// in\n    tag_115:\n      dup1\n      iszero\n      tag_116\n      jumpi\n      dup1\n      0x1f\n      lt\n      tag_117\n      jumpi\n      0x0100\n      dup1\n      dup4\n      sload\n      div\n      mul\n      dup4\n      mstore\n      swap2\n      0x20\n      add\n      swap2\n      jump(tag_116)\n    tag_117:\n      dup3\n      add\n      swap2\n      swap1\n      0x00\n      mstore\n      keccak256(0x00, 0x20)\n      swap1\n    tag_118:\n      dup2\n      sload\n      dup2\n      mstore\n      swap1\n      0x01\n      add\n      swap1\n      0x20\n      add\n      dup1\n      dup4\n      gt\n      tag_118\n      jumpi\n      dup3\n      swap1\n      sub\n      0x1f\n      and\n      dup3\n      add\n      swap2\n    tag_116:\n      pop\n      pop\n      pop\n      pop\n      pop\n      swap1\n      pop\n        /* \"ERC20.sol\":2525:2627  function symbol() public view virtual override returns (string memory) {... */\n      swap1\n      jump\t// out\n        /* \"ERC20.sol\":6959:7386  function decreaseAllowance(address spender, uint256 subtractedValue) public virtual returns (bool) {... */\n    tag_60:\n        /* \"ERC20.sol\":7052:7056  bool */\n      0x00\n        /* \"ERC20.sol\":7068:7081  address owner */\n      dup1\n        /* \"ERC20.sol\":7084:7096  _msgSender() */\n      tag_120\n        /* \"ERC20.sol\":7084:7094  _msgSender */\n      tag_87\n        /* \"ERC20.sol\":7084:7096  _msgSender() */\n      jump\t// in\n    tag_120:\n        /* \"ERC20.sol\":7068:7096  address owner = _msgSender() */\n      swap1\n      pop\n        /* \"ERC20.sol\":7106:7130  uint256 currentAllowance */\n      0x00\n        /* \"ERC20.sol\":7133:7158  allowance(owner, spender) */\n      tag_121\n        /* \"ERC20.sol\":7143:7148  owner */\n      dup3\n        /* \"ERC20.sol\":7150:7157  spender */\n      dup7\n        /* \"ERC20.sol\":7133:7142  allowance */\n      tag_76\n        /* \"ERC20.sol\":7133:7158  allowance(owner, spender) */\n      jump\t// in\n    tag_121:\n        /* \"ERC20.sol\":7106:7158  uint256 currentAllowance = allowance(owner, spender) */\n      swap1\n      pop\n        /* \"ERC20.sol\":7196:7211  subtractedValue */\n      dup4\n        /* \"ERC20.sol\":7176:7192  currentAllowance */\n      dup2\n        /* \"ERC20.sol\":7176:7211  currentAllowance >= subtractedValue */\n      lt\n      iszero\n        /* \"ERC20.sol\":7168:7253  require(currentAllowance >= subtractedValue, \"ERC20: decreased allowance below zero\") */\n      tag_122\n      jumpi\n      mload(0x40)\n      0x08c379a000000000000000000000000000000000000000000000000000000000\n      dup2\n      mstore\n      0x04\n      add\n      tag_123\n      swap1\n      tag_124\n      jump\t// in\n    tag_123:\n      mload(0x40)\n      dup1\n      swap2\n      sub\n      swap1\n      revert\n    tag_122:\n        /* \"ERC20.sol\":7287:7347  _approve(owner, spender, currentAllowance - subtractedValue) */\n      tag_125\n        /* \"ERC20.sol\":7296:7301  owner */\n      dup3\n        /* \"ERC20.sol\":7303:7310  spender */\n      dup7\n        /* \"ERC20.sol\":7331:7346  subtractedValue */\n      dup7\n        /* \"ERC20.sol\":7312:7328  currentAllowance */\n      dup5\n        /* \"ERC20.sol\":7312:7346  currentAllowance - subtractedValue */\n      sub\n        /* \"ERC20.sol\":7287:7295  _approve */\n      tag_89\n        /* \"ERC20.sol\":7287:7347  _approve(owner, spender, currentAllowance - subtractedValue) */\n      jump\t// in\n    tag_125:\n        /* \"ERC20.sol\":7375:7379  true */\n      0x01\n        /* \"ERC20.sol\":7368:7379  return true */\n      swap3\n      pop\n      pop\n      pop\n        /* \"ERC20.sol\":6959:7386  function decreaseAllowance(address spender, uint256 subtractedValue) public virtual returns (bool) {... */\n      swap3\n      swap2\n      pop\n      pop\n      jump\t// out\n        /* \"ERC20.sol\":3887:4076  function transfer(address to, uint256 amount) public virtual override returns (bool) {... */\n    tag_64:\n        /* \"ERC20.sol\":3966:3970  bool */\n      0x00\n        /* \"ERC20.sol\":3982:3995  address owner */\n      dup1\n        /* \"ERC20.sol\":3998:4010  _msgSender() */\n      tag_127\n        /* \"ERC20.sol\":3998:4008  _msgSender */\n      tag_87\n        /* \"ERC20.sol\":3998:4010  _msgSender() */\n      jump\t// in\n    tag_127:\n        /* \"ERC20.sol\":3982:4010  address owner = _msgSender() */\n      swap1\n      pop\n        /* \"ERC20.sol\":4020:4048  _transfer(owner, to, amount) */\n      tag_128\n        /* \"ERC20.sol\":4030:4035  owner */\n      dup2\n        /* \"ERC20.sol\":4037:4039  to */\n      dup6\n        /* \"ERC20.sol\":4041:4047  amount */\n      dup6\n        /* \"ERC20.sol\":4020:4029  _transfer */\n      tag_104\n        /* \"ERC20.sol\":4020:4048  _transfer(owner, to, amount) */\n      jump\t// in\n    tag_128:\n        /* \"ERC20.sol\":4065:4069  true */\n      0x01\n        /* \"ERC20.sol\":4058:4069  return true */\n      swap2\n      pop\n      pop\n        /* \"ERC20.sol\":3887:4076  function transfer(address to, uint256 amount) public virtual override returns (bool) {... */\n      swap3\n      swap2\n      pop\n      pop\n      jump\t// out\n        /* \"ERC20.sol\":1772:1792  address public Owner */\n    tag_67:\n      0x05\n      0x00\n      swap1\n      sload\n      swap1\n      0x0100\n      exp\n      swap1\n      div\n      0xffffffffffffffffffffffffffffffffffffffff\n      and\n      dup2\n      jump\t// out\n        /* \"ERC20.sol\":6379:6473  function Burn(address account, uint256 amount) public {... */\n    tag_72:\n        /* \"ERC20.sol\":6443:6466  _burn( account, amount) */\n      tag_130\n        /* \"ERC20.sol\":6450:6457  account */\n      dup3\n        /* \"ERC20.sol\":6459:6465  amount */\n      dup3\n        /* \"ERC20.sol\":6443:6448  _burn */\n      tag_131\n        /* \"ERC20.sol\":6443:6466  _burn( account, amount) */\n      jump\t// in\n    tag_130:\n        /* \"ERC20.sol\":6379:6473  function Burn(address account, uint256 amount) public {... */\n      pop\n      pop\n      jump\t// out\n        /* \"ERC20.sol\":4134:4283  function allowance(address owner, address spender) public view virtual override returns (uint256) {... */\n    tag_76:\n        /* \"ERC20.sol\":4223:4230  uint256 */\n      0x00\n        /* \"ERC20.sol\":4249:4260  _allowances */\n      0x01\n        /* \"ERC20.sol\":4249:4267  _allowances[owner] */\n      0x00\n        /* \"ERC20.sol\":4261:4266  owner */\n      dup5\n        /* \"ERC20.sol\":4249:4267  _allowances[owner] */\n      0xffffffffffffffffffffffffffffffffffffffff\n      and\n      0xffffffffffffffffffffffffffffffffffffffff\n      and\n      dup2\n      mstore\n      0x20\n      add\n      swap1\n      dup2\n      mstore\n      0x20\n      add\n      0x00\n      keccak256\n        /* \"ERC20.sol\":4249:4276  _allowances[owner][spender] */\n      0x00\n        /* \"ERC20.sol\":4268:4275  spender */\n      dup4\n        /* \"ERC20.sol\":4249:4276  _allowances[owner][spender] */\n      0xffffffffffffffffffffffffffffffffffffffff\n      and\n      0xffffffffffffffffffffffffffffffffffffffff\n      and\n      dup2\n      mstore\n      0x20\n      add\n      swap1\n      dup2\n      mstore\n      0x20\n      add\n      0x00\n      keccak256\n      sload\n        /* \"ERC20.sol\":4242:4276  return _allowances[owner][spender] */\n      swap1\n      pop\n        /* \"ERC20.sol\":4134:4283  function allowance(address owner, address spender) public view virtual override returns (uint256) {... */\n      swap3\n      swap2\n      pop\n      pop\n      jump\t// out\n        /* \"Context.sol\":640:736  function _msgSender() internal view virtual returns (address) {... */\n    tag_87:\n        /* \"Context.sol\":693:700  address */\n      0x00\n        /* \"Context.sol\":719:729  msg.sender */\n      caller\n        /* \"Context.sol\":712:729  return msg.sender */\n      swap1\n      pop\n        /* \"Context.sol\":640:736  function _msgSender() internal view virtual returns (address) {... */\n      swap1\n      jump\t// out\n        /* \"ERC20.sol\":10475:10845  function _approve(... */\n    tag_89:\n        /* \"ERC20.sol\":10623:10624  0 */\n      0x00\n        /* \"ERC20.sol\":10606:10625  owner != address(0) */\n      0xffffffffffffffffffffffffffffffffffffffff\n      and\n        /* \"ERC20.sol\":10606:10611  owner */\n      dup4\n        /* \"ERC20.sol\":10606:10625  owner != address(0) */\n      0xffffffffffffffffffffffffffffffffffffffff\n      and\n      eq\n      iszero\n        /* \"ERC20.sol\":10598:10666  require(owner != address(0), \"ERC20: approve from the zero address\") */\n      tag_135\n      jumpi\n      mload(0x40)\n      0x08c379a000000000000000000000000000000000000000000000000000000000\n      dup2\n      mstore\n      0x04\n      add\n      tag_136\n      swap1\n      tag_137\n      jump\t// in\n    tag_136:\n      mload(0x40)\n      dup1\n      swap2\n      sub\n      swap1\n      revert\n    tag_135:\n        /* \"ERC20.sol\":10703:10704  0 */\n      0x00\n        /* \"ERC20.sol\":10684:10705  spender != address(0) */\n      0xffffffffffffffffffffffffffffffffffffffff\n      and\n        /* \"ERC20.sol\":10684:10691  spender */\n      dup3\n        /* \"ERC20.sol\":10684:10705  spender != address(0) */\n      0xffffffffffffffffffffffffffffffffffffffff\n      and\n      eq\n      iszero\n        /* \"ERC20.sol\":10676:10744  require(spender != address(0), \"ERC20: approve to the zero address\") */\n      tag_138\n      jumpi\n      mload(0x40)\n      0x08c379a000000000000000000000000000000000000000000000000000000000\n      dup2\n      mstore\n      0x04\n      add\n      tag_139\n      swap1\n      tag_140\n      jump\t// in\n    tag_139:\n      mload(0x40)\n      dup1\n      swap2\n      sub\n      swap1\n      revert\n    tag_138:\n        /* \"ERC20.sol\":10785:10791  amount */\n      dup1\n        /* \"ERC20.sol\":10755:10766  _allowances */\n      0x01\n        /* \"ERC20.sol\":10755:10773  _allowances[owner] */\n      0x00\n        /* \"ERC20.sol\":10767:10772  owner */\n      dup6\n        /* \"ERC20.sol\":10755:10773  _allowances[owner] */\n      0xffffffffffffffffffffffffffffffffffffffff\n      and\n      0xffffffffffffffffffffffffffffffffffffffff\n      and\n      dup2\n      mstore\n      0x20\n      add\n      swap1\n      dup2\n      mstore\n      0x20\n      add\n      0x00\n      keccak256\n        /* \"ERC20.sol\":10755:10782  _allowances[owner][spender] */\n      0x00\n        /* \"ERC20.sol\":10774:10781  spender */\n      dup5\n        /* \"ERC20.sol\":10755:10782  _allowances[owner][spender] */\n      0xffffffffffffffffffffffffffffffffffffffff\n      and\n      0xffffffffffffffffffffffffffffffffffffffff\n      and\n      dup2\n      mstore\n      0x20\n      add\n      swap1\n      dup2\n      mstore\n      0x20\n      add\n      0x00\n      keccak256\n        /* \"ERC20.sol\":10755:10791  _allowances[owner][spender] = amount */\n      dup2\n      swap1\n      sstore\n      pop\n        /* \"ERC20.sol\":10822:10829  spender */\n      dup2\n        /* \"ERC20.sol\":10806:10838  Approval(owner, spender, amount) */\n      0xffffffffffffffffffffffffffffffffffffffff\n      and\n        /* \"ERC20.sol\":10815:10820  owner */\n      dup4\n        /* \"ERC20.sol\":10806:10838  Approval(owner, spender, amount) */\n      0xffffffffffffffffffffffffffffffffffffffff\n      and\n      0x8c5be1e5ebec7d5bd14f71427d1e84f3dd0314c0f7b2291e5b200ac8c7c3b925\n        /* \"ERC20.sol\":10831:10837  amount */\n      dup4\n        /* \"ERC20.sol\":10806:10838  Approval(owner, spender, amount) */\n      mload(0x40)\n      tag_141\n      swap2\n      swap1\n      tag_36\n      jump\t// in\n    tag_141:\n      mload(0x40)\n      dup1\n      swap2\n      sub\n      swap1\n      log3\n        /* \"ERC20.sol\":10475:10845  function _approve(... */\n      pop\n      pop\n      pop\n      jump\t// out\n        /* \"ERC20.sol\":8767:9156  function _mint(address account, uint256 amount) internal virtual {... */\n    tag_97:\n        /* \"ERC20.sol\":8869:8870  0 */\n      0x00\n        /* \"ERC20.sol\":8850:8871  account != address(0) */\n      0xffffffffffffffffffffffffffffffffffffffff\n      and\n        /* \"ERC20.sol\":8850:8857  account */\n      dup3\n        /* \"ERC20.sol\":8850:8871  account != address(0) */\n      0xffffffffffffffffffffffffffffffffffffffff\n      and\n      eq\n      iszero\n        /* \"ERC20.sol\":8842:8907  require(account != address(0), \"ERC20: mint to the zero address\") */\n      tag_143\n      jumpi\n      mload(0x40)\n      0x08c379a000000000000000000000000000000000000000000000000000000000\n      dup2\n      mstore\n      0x04\n      add\n      tag_144\n      swap1\n      tag_145\n      jump\t// in\n    tag_144:\n      mload(0x40)\n      dup1\n      swap2\n      sub\n      swap1\n      revert\n    tag_143:\n        /* \"ERC20.sol\":8918:8967  _beforeTokenTransfer(address(0), account, amount) */\n      tag_146\n        /* \"ERC20.sol\":8947:8948  0 */\n      0x00\n        /* \"ERC20.sol\":8951:8958  account */\n      dup4\n        /* \"ERC20.sol\":8960:8966  amount */\n      dup4\n        /* \"ERC20.sol\":8918:8938  _beforeTokenTransfer */\n      tag_147\n        /* \"ERC20.sol\":8918:8967  _beforeTokenTransfer(address(0), account, amount) */\n      jump\t// in\n    tag_146:\n        /* \"ERC20.sol\":8994:9000  amount */\n      dup1\n        /* \"ERC20.sol\":8978:8990  _totalSupply */\n      0x02\n      0x00\n        /* \"ERC20.sol\":8978:9000  _totalSupply += amount */\n      dup3\n      dup3\n      sload\n      tag_148\n      swap2\n      swap1\n      tag_111\n      jump\t// in\n    tag_148:\n      swap3\n      pop\n      pop\n      dup2\n      swap1\n      sstore\n      pop\n        /* \"ERC20.sol\":9032:9038  amount */\n      dup1\n        /* \"ERC20.sol\":9010:9019  _balances */\n      0x00\n        /* \"ERC20.sol\":9010:9028  _balances[account] */\n      dup1\n        /* \"ERC20.sol\":9020:9027  account */\n      dup5\n        /* \"ERC20.sol\":9010:9028  _balances[account] */\n      0xffffffffffffffffffffffffffffffffffffffff\n      and\n      0xffffffffffffffffffffffffffffffffffffffff\n      and\n      dup2\n      mstore\n      0x20\n      add\n      swap1\n      dup2\n      mstore\n      0x20\n      add\n      0x00\n      keccak256\n      0x00\n        /* \"ERC20.sol\":9010:9038  _balances[account] += amount */\n      dup3\n      dup3\n      sload\n      tag_149\n      swap2\n      swap1\n      tag_111\n      jump\t// in\n    tag_149:\n      swap3\n      pop\n      pop\n      dup2\n      swap1\n      sstore\n      pop\n        /* \"ERC20.sol\":9074:9081  account */\n      dup2\n        /* \"ERC20.sol\":9053:9090  Transfer(address(0), account, amount) */\n      0xffffffffffffffffffffffffffffffffffffffff\n      and\n        /* \"ERC20.sol\":9070:9071  0 */\n      0x00\n        /* \"ERC20.sol\":9053:9090  Transfer(address(0), account, amount) */\n      0xffffffffffffffffffffffffffffffffffffffff\n      and\n      0xddf252ad1be2c89b69c2b068fc378daa952ba7f163c4a11628f55a4df523b3ef\n        /* \"ERC20.sol\":9083:9089  amount */\n      dup4\n        /* \"ERC20.sol\":9053:9090  Transfer(address(0), account, amount) */\n      mload(0x40)\n      tag_150\n      swap2\n      swap1\n      tag_36\n      jump\t// in\n    tag_150:\n      mload(0x40)\n      dup1\n      swap2\n      sub\n      swap1\n      log3\n        /* \"ERC20.sol\":9101:9149  _afterTokenTransfer(address(0), account, amount) */\n      tag_151\n        /* \"ERC20.sol\":9129:9130  0 */\n      0x00\n        /* \"ERC20.sol\":9133:9140  account */\n      dup4\n        /* \"ERC20.sol\":9142:9148  amount */\n      dup4\n        /* \"ERC20.sol\":9101:9120  _afterTokenTransfer */\n      tag_152\n        /* \"ERC20.sol\":9101:9149  _afterTokenTransfer(address(0), account, amount) */\n      jump\t// in\n    tag_151:\n        /* \"ERC20.sol\":8767:9156  function _mint(address account, uint256 amount) internal virtual {... */\n      pop\n      pop\n      jump\t// out\n        /* \"ERC20.sol\":11126:11567  function _spendAllowance(... */\n    tag_102:\n        /* \"ERC20.sol\":11256:11280  uint256 currentAllowance */\n      0x00\n        /* \"ERC20.sol\":11283:11308  allowance(owner, spender) */\n      tag_154\n        /* \"ERC20.sol\":11293:11298  owner */\n      dup5\n        /* \"ERC20.sol\":11300:11307  spender */\n      dup5\n        /* \"ERC20.sol\":11283:11292  allowance */\n      tag_76\n        /* \"ERC20.sol\":11283:11308  allowance(owner, spender) */\n      jump\t// in\n    tag_154:\n        /* \"ERC20.sol\":11256:11308  uint256 currentAllowance = allowance(owner, spender) */\n      swap1\n      pop\n        /* \"ERC20.sol\":11342:11359  type(uint256).max */\n      0xffffffffffffffffffffffffffffffffffffffffffffffffffffffffffffffff\n        /* \"ERC20.sol\":11322:11338  currentAllowance */\n      dup2\n        /* \"ERC20.sol\":11322:11359  currentAllowance != type(uint256).max */\n      eq\n        /* \"ERC20.sol\":11318:11561  if (currentAllowance != type(uint256).max) {... */\n      tag_155\n      jumpi\n        /* \"ERC20.sol\":11403:11409  amount */\n      dup2\n        /* \"ERC20.sol\":11383:11399  currentAllowance */\n      dup2\n        /* \"ERC20.sol\":11383:11409  currentAllowance >= amount */\n      lt\n      iszero\n        /* \"ERC20.sol\":11375:11443  require(currentAllowance >= amount, \"ERC20: insufficient allowance\") */\n      tag_156\n      jumpi\n      mload(0x40)\n      0x08c379a000000000000000000000000000000000000000000000000000000000\n      dup2\n      mstore\n      0x04\n      add\n      tag_157\n      swap1\n      tag_158\n      jump\t// in\n    tag_157:\n      mload(0x40)\n      dup1\n      swap2\n      sub\n      swap1\n      revert\n    tag_156:\n        /* \"ERC20.sol\":11485:11536  _approve(owner, spender, currentAllowance - amount) */\n      tag_159\n        /* \"ERC20.sol\":11494:11499  owner */\n      dup5\n        /* \"ERC20.sol\":11501:11508  spender */\n      dup5\n        /* \"ERC20.sol\":11529:11535  amount */\n      dup5\n        /* \"ERC20.sol\":11510:11526  currentAllowance */\n      dup5\n        /* \"ERC20.sol\":11510:11535  currentAllowance - amount */\n      sub\n        /* \"ERC20.sol\":11485:11493  _approve */\n      tag_89\n        /* \"ERC20.sol\":11485:11536  _approve(owner, spender, currentAllowance - amount) */\n      jump\t// in\n    tag_159:\n        /* \"ERC20.sol\":11318:11561  if (currentAllowance != type(uint256).max) {... */\n    tag_155:\n        /* \"ERC20.sol\":11246:11567  {... */\n      pop\n        /* \"ERC20.sol\":11126:11567  function _spendAllowance(... */\n      pop\n      pop\n      pop\n      jump\t// out\n        /* \"ERC20.sol\":7840:8491  function _transfer(... */\n    tag_104:\n        /* \"ERC20.sol\":7982:7983  0 */\n      0x00\n        /* \"ERC20.sol\":7966:7984  from != address(0) */\n      0xffffffffffffffffffffffffffffffffffffffff\n      and\n        /* \"ERC20.sol\":7966:7970  from */\n      dup4\n        /* \"ERC20.sol\":7966:7984  from != address(0) */\n      0xffffffffffffffffffffffffffffffffffffffff\n      and\n      eq\n      iszero\n        /* \"ERC20.sol\":7958:8026  require(from != address(0), \"ERC20: transfer from the zero address\") */\n      tag_161\n      jumpi\n      mload(0x40)\n      0x08c379a000000000000000000000000000000000000000000000000000000000\n      dup2\n      mstore\n      0x04\n      add\n      tag_162\n      swap1\n      tag_163\n      jump\t// in\n    tag_162:\n      mload(0x40)\n      dup1\n      swap2\n      sub\n      swap1\n      revert\n    tag_161:\n        /* \"ERC20.sol\":8058:8059  0 */\n      0x00\n        /* \"ERC20.sol\":8044:8060  to != address(0) */\n      0xffffffffffffffffffffffffffffffffffffffff\n      and\n        /* \"ERC20.sol\":8044:8046  to */\n      dup3\n        /* \"ERC20.sol\":8044:8060  to != address(0) */\n      0xffffffffffffffffffffffffffffffffffffffff\n      and\n      eq\n      iszero\n        /* \"ERC20.sol\":8036:8100  require(to != address(0), \"ERC20: transfer to the zero address\") */\n      tag_164\n      jumpi\n      mload(0x40)\n      0x08c379a000000000000000000000000000000000000000000000000000000000\n      dup2\n      mstore\n      0x04\n      add\n      tag_165\n      swap1\n      tag_166\n      jump\t// in\n    tag_165:\n      mload(0x40)\n      dup1\n      swap2\n      sub\n      swap1\n      revert\n    tag_164:\n        /* \"ERC20.sol\":8111:8149  _beforeTokenTransfer(from, to, amount) */\n      tag_167\n        /* \"ERC20.sol\":8132:8136  from */\n      dup4\n        /* \"ERC20.sol\":8138:8140  to */\n      dup4\n        /* \"ERC20.sol\":8142:8148  amount */\n      dup4\n        /* \"ERC20.sol\":8111:8131  _beforeTokenTransfer */\n      tag_147\n        /* \"ERC20.sol\":8111:8149  _beforeTokenTransfer(from, to, amount) */\n      jump\t// in\n    tag_167:\n        /* \"ERC20.sol\":8160:8179  uint256 fromBalance */\n      0x00\n        /* \"ERC20.sol\":8182:8191  _balances */\n      dup1\n        /* \"ERC20.sol\":8182:8197  _balances[from] */\n      0x00\n        /* \"ERC20.sol\":8192:8196  from */\n      dup6\n        /* \"ERC20.sol\":8182:8197  _balances[from] */\n      0xffffffffffffffffffffffffffffffffffffffff\n      and\n      0xffffffffffffffffffffffffffffffffffffffff\n      and\n      dup2\n      mstore\n      0x20\n      add\n      swap1\n      dup2\n      mstore\n      0x20\n      add\n      0x00\n      keccak256\n      sload\n        /* \"ERC20.sol\":8160:8197  uint256 fromBalance = _balances[from] */\n      swap1\n      pop\n        /* \"ERC20.sol\":8230:8236  amount */\n      dup2\n        /* \"ERC20.sol\":8215:8226  fromBalance */\n      dup2\n        /* \"ERC20.sol\":8215:8236  fromBalance >= amount */\n      lt\n      iszero\n        /* \"ERC20.sol\":8207:8279  require(fromBalance >= amount, \"ERC20: transfer amount exceeds balance\") */\n      tag_168\n      jumpi\n      mload(0x40)\n      0x08c379a000000000000000000000000000000000000000000000000000000000\n      dup2\n      mstore\n      0x04\n      add\n      tag_169\n      swap1\n      tag_170\n      jump\t// in\n    tag_169:\n      mload(0x40)\n      dup1\n      swap2\n      sub\n      swap1\n      revert\n    tag_168:\n        /* \"ERC20.sol\":8345:8351  amount */\n      dup2\n        /* \"ERC20.sol\":8331:8342  fromBalance */\n      dup2\n        /* \"ERC20.sol\":8331:8351  fromBalance - amount */\n      sub\n        /* \"ERC20.sol\":8313:8322  _balances */\n      0x00\n        /* \"ERC20.sol\":8313:8328  _balances[from] */\n      dup1\n        /* \"ERC20.sol\":8323:8327  from */\n      dup7\n        /* \"ERC20.sol\":8313:8328  _balances[from] */\n      0xffffffffffffffffffffffffffffffffffffffff\n      and\n      0xffffffffffffffffffffffffffffffffffffffff\n      and\n      dup2\n      mstore\n      0x20\n      add\n      swap1\n      dup2\n      mstore\n      0x20\n      add\n      0x00\n      keccak256\n        /* \"ERC20.sol\":8313:8351  _balances[from] = fromBalance - amount */\n      dup2\n      swap1\n      sstore\n      pop\n        /* \"ERC20.sol\":8388:8394  amount */\n      dup2\n        /* \"ERC20.sol\":8371:8380  _balances */\n      0x00\n        /* \"ERC20.sol\":8371:8384  _balances[to] */\n      dup1\n        /* \"ERC20.sol\":8381:8383  to */\n      dup6\n        /* \"ERC20.sol\":8371:8384  _balances[to] */\n      0xffffffffffffffffffffffffffffffffffffffff\n      and\n      0xffffffffffffffffffffffffffffffffffffffff\n      and\n      dup2\n      mstore\n      0x20\n      add\n      swap1\n      dup2\n      mstore\n      0x20\n      add\n      0x00\n      keccak256\n      0x00\n        /* \"ERC20.sol\":8371:8394  _balances[to] += amount */\n      dup3\n      dup3\n      sload\n      tag_171\n      swap2\n      swap1\n      tag_111\n      jump\t// in\n    tag_171:\n      swap3\n      pop\n      pop\n      dup2\n      swap1\n      sstore\n      pop\n        /* \"ERC20.sol\":8425:8427  to */\n      dup3\n        /* \"ERC20.sol\":8410:8436  Transfer(from, to, amount) */\n      0xffffffffffffffffffffffffffffffffffffffff\n      and\n        /* \"ERC20.sol\":8419:8423  from */\n      dup5\n        /* \"ERC20.sol\":8410:8436  Transfer(from, to, amount) */\n      0xffffffffffffffffffffffffffffffffffffffff\n      and\n      0xddf252ad1be2c89b69c2b068fc378daa952ba7f163c4a11628f55a4df523b3ef\n        /* \"ERC20.sol\":8429:8435  amount */\n      dup5\n        /* \"ERC20.sol\":8410:8436  Transfer(from, to, amount) */\n      mload(0x40)\n      tag_172\n      swap2\n      swap1\n      tag_36\n      jump\t// in\n    tag_172:\n      mload(0x40)\n      dup1\n      swap2\n      sub\n      swap1\n      log3\n        /* \"ERC20.sol\":8447:8484  _afterTokenTransfer(from, to, amount) */\n      tag_173\n        /* \"ERC20.sol\":8467:8471  from */\n      dup5\n        /* \"ERC20.sol\":8473:8475  to */\n      dup5\n        /* \"ERC20.sol\":8477:8483  amount */\n      dup5\n        /* \"ERC20.sol\":8447:8466  _afterTokenTransfer */\n      tag_152\n        /* \"ERC20.sol\":8447:8484  _afterTokenTransfer(from, to, amount) */\n      jump\t// in\n    tag_173:\n        /* \"ERC20.sol\":7948:8491  {... */\n      pop\n        /* \"ERC20.sol\":7840:8491  function _transfer(... */\n      pop\n      pop\n      pop\n      jump\t// out\n        /* \"ERC20.sol\":9476:10052  function _burn(address account, uint256 amount) internal virtual {... */\n    tag_131:\n        /* \"ERC20.sol\":9578:9579  0 */\n      0x00\n        /* \"ERC20.sol\":9559:9580  account != address(0) */\n      0xffffffffffffffffffffffffffffffffffffffff\n      and\n        /* \"ERC20.sol\":9559:9566  account */\n      dup3\n        /* \"ERC20.sol\":9559:9580  account != address(0) */\n      0xffffffffffffffffffffffffffffffffffffffff\n      and\n      eq\n      iszero\n        /* \"ERC20.sol\":9551:9618  require(account != address(0), \"ERC20: burn from the zero address\") */\n      tag_175\n      jumpi\n      mload(0x40)\n      0x08c379a000000000000000000000000000000000000000000000000000000000\n      dup2\n      mstore\n      0x04\n      add\n      tag_176\n      swap1\n      tag_177\n      jump\t// in\n    tag_176:\n      mload(0x40)\n      dup1\n      swap2\n      sub\n      swap1\n      revert\n    tag_175:\n        /* \"ERC20.sol\":9629:9678  _beforeTokenTransfer(account, address(0), amount) */\n      tag_178\n        /* \"ERC20.sol\":9650:9657  account */\n      dup3\n        /* \"ERC20.sol\":9667:9668  0 */\n      0x00\n        /* \"ERC20.sol\":9671:9677  amount */\n      dup4\n        /* \"ERC20.sol\":9629:9649  _beforeTokenTransfer */\n      tag_147\n        /* \"ERC20.sol\":9629:9678  _beforeTokenTransfer(account, address(0), amount) */\n      jump\t// in\n    tag_178:\n        /* \"ERC20.sol\":9689:9711  uint256 accountBalance */\n      0x00\n        /* \"ERC20.sol\":9714:9723  _balances */\n      dup1\n        /* \"ERC20.sol\":9714:9732  _balances[account] */\n      0x00\n        /* \"ERC20.sol\":9724:9731  account */\n      dup5\n        /* \"ERC20.sol\":9714:9732  _balances[account] */\n      0xffffffffffffffffffffffffffffffffffffffff\n      and\n      0xffffffffffffffffffffffffffffffffffffffff\n      and\n      dup2\n      mstore\n      0x20\n      add\n      swap1\n      dup2\n      mstore\n      0x20\n      add\n      0x00\n      keccak256\n      sload\n        /* \"ERC20.sol\":9689:9732  uint256 accountBalance = _balances[account] */\n      swap1\n      pop\n        /* \"ERC20.sol\":9768:9774  amount */\n      dup2\n        /* \"ERC20.sol\":9750:9764  accountBalance */\n      dup2\n        /* \"ERC20.sol\":9750:9774  accountBalance >= amount */\n      lt\n      iszero\n        /* \"ERC20.sol\":9742:9813  require(accountBalance >= amount, \"ERC20: burn amount exceeds balance\") */\n      tag_179\n      jumpi\n      mload(0x40)\n      0x08c379a000000000000000000000000000000000000000000000000000000000\n      dup2\n      mstore\n      0x04\n      add\n      tag_180\n      swap1\n      tag_181\n      jump\t// in\n    tag_180:\n      mload(0x40)\n      dup1\n      swap2\n      sub\n      swap1\n      revert\n    tag_179:\n        /* \"ERC20.sol\":9885:9891  amount */\n      dup2\n        /* \"ERC20.sol\":9868:9882  accountBalance */\n      dup2\n        /* \"ERC20.sol\":9868:9891  accountBalance - amount */\n      sub\n        /* \"ERC20.sol\":9847:9856  _balances */\n      0x00\n        /* \"ERC20.sol\":9847:9865  _balances[account] */\n      dup1\n        /* \"ERC20.sol\":9857:9864  account */\n      dup6\n        /* \"ERC20.sol\":9847:9865  _balances[account] */\n      0xffffffffffffffffffffffffffffffffffffffff\n      and\n      0xffffffffffffffffffffffffffffffffffffffff\n      and\n      dup2\n      mstore\n      0x20\n      add\n      swap1\n      dup2\n      mstore\n      0x20\n      add\n      0x00\n      keccak256\n        /* \"ERC20.sol\":9847:9891  _balances[account] = accountBalance - amount */\n      dup2\n      swap1\n      sstore\n      pop\n        /* \"ERC20.sol\":9927:9933  amount */\n      dup2\n        /* \"ERC20.sol\":9911:9923  _totalSupply */\n      0x02\n      0x00\n        /* \"ERC20.sol\":9911:9933  _totalSupply -= amount */\n      dup3\n      dup3\n      sload\n      tag_182\n      swap2\n      swap1\n      tag_183\n      jump\t// in\n    tag_182:\n      swap3\n      pop\n      pop\n      dup2\n      swap1\n      sstore\n      pop\n        /* \"ERC20.sol\":9975:9976  0 */\n      0x00\n        /* \"ERC20.sol\":9949:9986  Transfer(account, address(0), amount) */\n      0xffffffffffffffffffffffffffffffffffffffff\n      and\n        /* \"ERC20.sol\":9958:9965  account */\n      dup4\n        /* \"ERC20.sol\":9949:9986  Transfer(account, address(0), amount) */\n      0xffffffffffffffffffffffffffffffffffffffff\n      and\n      0xddf252ad1be2c89b69c2b068fc378daa952ba7f163c4a11628f55a4df523b3ef\n        /* \"ERC20.sol\":9979:9985  amount */\n      dup5\n        /* \"ERC20.sol\":9949:9986  Transfer(account, address(0), amount) */\n      mload(0x40)\n      tag_184\n      swap2\n      swap1\n      tag_36\n      jump\t// in\n    tag_184:\n      mload(0x40)\n      dup1\n      swap2\n      sub\n      swap1\n      log3\n        /* \"ERC20.sol\":9997:10045  _afterTokenTransfer(account, address(0), amount) */\n      tag_185\n        /* \"ERC20.sol\":10017:10024  account */\n      dup4\n        /* \"ERC20.sol\":10034:10035  0 */\n      0x00\n        /* \"ERC20.sol\":10038:10044  amount */\n      dup5\n        /* \"ERC20.sol\":9997:10016  _afterTokenTransfer */\n      tag_152\n        /* \"ERC20.sol\":9997:10045  _afterTokenTransfer(account, address(0), amount) */\n      jump\t// in\n    tag_185:\n        /* \"ERC20.sol\":9541:10052  {... */\n      pop\n        /* \"ERC20.sol\":9476:10052  function _burn(address account, uint256 amount) internal virtual {... */\n      pop\n      pop\n      jump\t// out\n        /* \"ERC20.sol\":12151:12272  function _beforeTokenTransfer(... */\n    tag_147:\n      pop\n      pop\n      pop\n      jump\t// out\n        /* \"ERC20.sol\":12861:12981  function _afterTokenTransfer(... */\n    tag_152:\n      pop\n      pop\n      pop\n      jump\t// out\n        /* \"#utility.yul\":7:146   */\n    tag_189:\n        /* \"#utility.yul\":53:58   */\n      0x00\n        /* \"#utility.yul\":91:97   */\n      dup2\n        /* \"#utility.yul\":78:98   */\n      calldataload\n        /* \"#utility.yul\":69:98   */\n      swap1\n      pop\n        /* \"#utility.yul\":107:140   */\n      tag_191\n        /* \"#utility.yul\":134:139   */\n      dup2\n        /* \"#utility.yul\":107:140   */\n      tag_192\n      jump\t// in\n    tag_191:\n        /* \"#utility.yul\":7:146   */\n      swap3\n      swap2\n      pop\n      pop\n      jump\t// out\n        /* \"#utility.yul\":152:291   */\n    tag_193:\n        /* \"#utility.yul\":198:203   */\n      0x00\n        /* \"#utility.yul\":236:242   */\n      dup2\n        /* \"#utility.yul\":223:243   */\n      calldataload\n        /* \"#utility.yul\":214:243   */\n      swap1\n      pop\n        /* \"#utility.yul\":252:285   */\n      tag_195\n        /* \"#utility.yul\":279:284   */\n      dup2\n        /* \"#utility.yul\":252:285   */\n      tag_196\n      jump\t// in\n    tag_195:\n        /* \"#utility.yul\":152:291   */\n      swap3\n      swap2\n      pop\n      pop\n      jump\t// out\n        /* \"#utility.yul\":297:626   */\n    tag_52:\n        /* \"#utility.yul\":356:362   */\n      0x00\n        /* \"#utility.yul\":405:407   */\n      0x20\n        /* \"#utility.yul\":393:402   */\n      dup3\n        /* \"#utility.yul\":384:391   */\n      dup5\n        /* \"#utility.yul\":380:403   */\n      sub\n        /* \"#utility.yul\":376:408   */\n      slt\n        /* \"#utility.yul\":373:492   */\n      iszero\n      tag_198\n      jumpi\n        /* \"#utility.yul\":411:490   */\n      tag_199\n      tag_200\n      jump\t// in\n    tag_199:\n        /* \"#utility.yul\":373:492   */\n    tag_198:\n        /* \"#utility.yul\":531:532   */\n      0x00\n        /* \"#utility.yul\":556:609   */\n      tag_201\n        /* \"#utility.yul\":601:608   */\n      dup5\n        /* \"#utility.yul\":592:598   */\n      dup3\n        /* \"#utility.yul\":581:590   */\n      dup6\n        /* \"#utility.yul\":577:599   */\n      add\n        /* \"#utility.yul\":556:609   */\n      tag_189\n      jump\t// in\n    tag_201:\n        /* \"#utility.yul\":546:609   */\n      swap2\n      pop\n        /* \"#utility.yul\":502:619   */\n      pop\n        /* \"#utility.yul\":297:626   */\n      swap3\n      swap2\n      pop\n      pop\n      jump\t// out\n        /* \"#utility.yul\":632:1106   */\n    tag_75:\n        /* \"#utility.yul\":700:706   */\n      0x00\n        /* \"#utility.yul\":708:714   */\n      dup1\n        /* \"#utility.yul\":757:759   */\n      0x40\n        /* \"#utility.yul\":745:754   */\n      dup4\n        /* \"#utility.yul\":736:743   */\n      dup6\n        /* \"#utility.yul\":732:755   */\n      sub\n        /* \"#utility.yul\":728:760   */\n      slt\n        /* \"#utility.yul\":725:844   */\n      iszero\n      tag_203\n      jumpi\n        /* \"#utility.yul\":763:842   */\n      tag_204\n      tag_200\n      jump\t// in\n    tag_204:\n        /* \"#utility.yul\":725:844   */\n    tag_203:\n        /* \"#utility.yul\":883:884   */\n      0x00\n        /* \"#utility.yul\":908:961   */\n      tag_205\n        /* \"#utility.yul\":953:960   */\n      dup6\n        /* \"#utility.yul\":944:950   */\n      dup3\n        /* \"#utility.yul\":933:942   */\n      dup7\n        /* \"#utility.yul\":929:951   */\n      add\n        /* \"#utility.yul\":908:961   */\n      tag_189\n      jump\t// in\n    tag_205:\n        /* \"#utility.yul\":898:961   */\n      swap3\n      pop\n        /* \"#utility.yul\":854:971   */\n      pop\n        /* \"#utility.yul\":1010:1012   */\n      0x20\n        /* \"#utility.yul\":1036:1089   */\n      tag_206\n        /* \"#utility.yul\":1081:1088   */\n      dup6\n        /* \"#utility.yul\":1072:1078   */\n      dup3\n        /* \"#utility.yul\":1061:1070   */\n      dup7\n        /* \"#utility.yul\":1057:1079   */\n      add\n        /* \"#utility.yul\":1036:1089   */\n      tag_189\n      jump\t// in\n    tag_206:\n        /* \"#utility.yul\":1026:1089   */\n      swap2\n      pop\n        /* \"#utility.yul\":981:1099   */\n      pop\n        /* \"#utility.yul\":632:1106   */\n      swap3\n      pop\n      swap3\n      swap1\n      pop\n      jump\t// out\n        /* \"#utility.yul\":1112:1731   */\n    tag_39:\n        /* \"#utility.yul\":1189:1195   */\n      0x00\n        /* \"#utility.yul\":1197:1203   */\n      dup1\n        /* \"#utility.yul\":1205:1211   */\n      0x00\n        /* \"#utility.yul\":1254:1256   */\n      0x60\n        /* \"#utility.yul\":1242:1251   */\n      dup5\n        /* \"#utility.yul\":1233:1240   */\n      dup7\n        /* \"#utility.yul\":1229:1252   */\n      sub\n        /* \"#utility.yul\":1225:1257   */\n      slt\n        /* \"#utility.yul\":1222:1341   */\n      iszero\n      tag_208\n      jumpi\n        /* \"#utility.yul\":1260:1339   */\n      tag_209\n      tag_200\n      jump\t// in\n    tag_209:\n        /* \"#utility.yul\":1222:1341   */\n    tag_208:\n        /* \"#utility.yul\":1380:1381   */\n      0x00\n        /* \"#utility.yul\":1405:1458   */\n      tag_210\n        /* \"#utility.yul\":1450:1457   */\n      dup7\n        /* \"#utility.yul\":1441:1447   */\n      dup3\n        /* \"#utility.yul\":1430:1439   */\n      dup8\n        /* \"#utility.yul\":1426:1448   */\n      add\n        /* \"#utility.yul\":1405:1458   */\n      tag_189\n      jump\t// in\n    tag_210:\n        /* \"#utility.yul\":1395:1458   */\n      swap4\n      pop\n        /* \"#utility.yul\":1351:1468   */\n      pop\n        /* \"#utility.yul\":1507:1509   */\n      0x20\n        /* \"#utility.yul\":1533:1586   */\n      tag_211\n        /* \"#utility.yul\":1578:1585   */\n      dup7\n        /* \"#utility.yul\":1569:1575   */\n      dup3\n        /* \"#utility.yul\":1558:1567   */\n      dup8\n        /* \"#utility.yul\":1554:1576   */\n      add\n        /* \"#utility.yul\":1533:1586   */\n      tag_189\n      jump\t// in\n    tag_211:\n        /* \"#utility.yul\":1523:1586   */\n      swap3\n      pop\n        /* \"#utility.yul\":1478:1596   */\n      pop\n        /* \"#utility.yul\":1635:1637   */\n      0x40\n        /* \"#utility.yul\":1661:1714   */\n      tag_212\n        /* \"#utility.yul\":1706:1713   */\n      dup7\n        /* \"#utility.yul\":1697:1703   */\n      dup3\n        /* \"#utility.yul\":1686:1695   */\n      dup8\n        /* \"#utility.yul\":1682:1704   */\n      add\n        /* \"#utility.yul\":1661:1714   */\n      tag_193\n      jump\t// in\n    tag_212:\n        /* \"#utility.yul\":1651:1714   */\n      swap2\n      pop\n        /* \"#utility.yul\":1606:1724   */\n      pop\n        /* \"#utility.yul\":1112:1731   */\n      swap3\n      pop\n      swap3\n      pop\n      swap3\n      jump\t// out\n        /* \"#utility.yul\":1737:2211   */\n    tag_26:\n        /* \"#utility.yul\":1805:1811   */\n      0x00\n        /* \"#utility.yul\":1813:1819   */\n      dup1\n        /* \"#utility.yul\":1862:1864   */\n      0x40\n        /* \"#utility.yul\":1850:1859   */\n      dup4\n        /* \"#utility.yul\":1841:1848   */\n      dup6\n        /* \"#utility.yul\":1837:1860   */\n      sub\n        /* \"#utility.yul\":1833:1865   */\n      slt\n        /* \"#utility.yul\":1830:1949   */\n      iszero\n      tag_214\n      jumpi\n        /* \"#utility.yul\":1868:1947   */\n      tag_215\n      tag_200\n      jump\t// in\n    tag_215:\n        /* \"#utility.yul\":1830:1949   */\n    tag_214:\n        /* \"#utility.yul\":1988:1989   */\n      0x00\n        /* \"#utility.yul\":2013:2066   */\n      tag_216\n        /* \"#utility.yul\":2058:2065   */\n      dup6\n        /* \"#utility.yul\":2049:2055   */\n      dup3\n        /* \"#utility.yul\":2038:2047   */\n      dup7\n        /* \"#utility.yul\":2034:2056   */\n      add\n        /* \"#utility.yul\":2013:2066   */\n      tag_189\n      jump\t// in\n    tag_216:\n        /* \"#utility.yul\":2003:2066   */\n      swap3\n      pop\n        /* \"#utility.yul\":1959:2076   */\n      pop\n        /* \"#utility.yul\":2115:2117   */\n      0x20\n        /* \"#utility.yul\":2141:2194   */\n      tag_217\n        /* \"#utility.yul\":2186:2193   */\n      dup6\n        /* \"#utility.yul\":2177:2183   */\n      dup3\n        /* \"#utility.yul\":2166:2175   */\n      dup7\n        /* \"#utility.yul\":2162:2184   */\n      add\n        /* \"#utility.yul\":2141:2194   */\n      tag_193\n      jump\t// in\n    tag_217:\n        /* \"#utility.yul\":2131:2194   */\n      swap2\n      pop\n        /* \"#utility.yul\":2086:2204   */\n      pop\n        /* \"#utility.yul\":1737:2211   */\n      swap3\n      pop\n      swap3\n      swap1\n      pop\n      jump\t// out\n        /* \"#utility.yul\":2217:2335   */\n    tag_218:\n        /* \"#utility.yul\":2304:2328   */\n      tag_220\n        /* \"#utility.yul\":2322:2327   */\n      dup2\n        /* \"#utility.yul\":2304:2328   */\n      tag_221\n      jump\t// in\n    tag_220:\n        /* \"#utility.yul\":2299:2302   */\n      dup3\n        /* \"#utility.yul\":2292:2329   */\n      mstore\n        /* \"#utility.yul\":2217:2335   */\n      pop\n      pop\n      jump\t// out\n        /* \"#utility.yul\":2341:2450   */\n    tag_222:\n        /* \"#utility.yul\":2422:2443   */\n      tag_224\n        /* \"#utility.yul\":2437:2442   */\n      dup2\n        /* \"#utility.yul\":2422:2443   */\n      tag_225\n      jump\t// in\n    tag_224:\n        /* \"#utility.yul\":2417:2420   */\n      dup3\n        /* \"#utility.yul\":2410:2444   */\n      mstore\n        /* \"#utility.yul\":2341:2450   */\n      pop\n      pop\n      jump\t// out\n        /* \"#utility.yul\":2456:2820   */\n    tag_226:\n        /* \"#utility.yul\":2544:2547   */\n      0x00\n        /* \"#utility.yul\":2572:2611   */\n      tag_228\n        /* \"#utility.yul\":2605:2610   */\n      dup3\n        /* \"#utility.yul\":2572:2611   */\n      tag_229\n      jump\t// in\n    tag_228:\n        /* \"#utility.yul\":2627:2698   */\n      tag_230\n        /* \"#utility.yul\":2691:2697   */\n      dup2\n        /* \"#utility.yul\":2686:2689   */\n      dup6\n        /* \"#utility.yul\":2627:2698   */\n      tag_231\n      jump\t// in\n    tag_230:\n        /* \"#utility.yul\":2620:2698   */\n      swap4\n      pop\n        /* \"#utility.yul\":2707:2759   */\n      tag_232\n        /* \"#utility.yul\":2752:2758   */\n      dup2\n        /* \"#utility.yul\":2747:2750   */\n      dup6\n        /* \"#utility.yul\":2740:2744   */\n      0x20\n        /* \"#utility.yul\":2733:2738   */\n      dup7\n        /* \"#utility.yul\":2729:2745   */\n      add\n        /* \"#utility.yul\":2707:2759   */\n      tag_233\n      jump\t// in\n    tag_232:\n        /* \"#utility.yul\":2784:2813   */\n      tag_234\n        /* \"#utility.yul\":2806:2812   */\n      dup2\n        /* \"#utility.yul\":2784:2813   */\n      tag_235\n      jump\t// in\n    tag_234:\n        /* \"#utility.yul\":2779:2782   */\n      dup5\n        /* \"#utility.yul\":2775:2814   */\n      add\n        /* \"#utility.yul\":2768:2814   */\n      swap2\n      pop\n        /* \"#utility.yul\":2548:2820   */\n      pop\n        /* \"#utility.yul\":2456:2820   */\n      swap3\n      swap2\n      pop\n      pop\n      jump\t// out\n        /* \"#utility.yul\":2826:3192   */\n    tag_236:\n        /* \"#utility.yul\":2968:2971   */\n      0x00\n        /* \"#utility.yul\":2989:3056   */\n      tag_238\n        /* \"#utility.yul\":3053:3055   */\n      0x23\n        /* \"#utility.yul\":3048:3051   */\n      dup4\n        /* \"#utility.yul\":2989:3056   */\n      tag_231\n      jump\t// in\n    tag_238:\n        /* \"#utility.yul\":2982:3056   */\n      swap2\n      pop\n        /* \"#utility.yul\":3065:3158   */\n      tag_239\n        /* \"#utility.yul\":3154:3157   */\n      dup3\n        /* \"#utility.yul\":3065:3158   */\n      tag_240\n      jump\t// in\n    tag_239:\n        /* \"#utility.yul\":3183:3185   */\n      0x40\n        /* \"#utility.yul\":3178:3181   */\n      dup3\n        /* \"#utility.yul\":3174:3186   */\n      add\n        /* \"#utility.yul\":3167:3186   */\n      swap1\n      pop\n        /* \"#utility.yul\":2826:3192   */\n      swap2\n      swap1\n      pop\n      jump\t// out\n        /* \"#utility.yul\":3198:3564   */\n    tag_241:\n        /* \"#utility.yul\":3340:3343   */\n      0x00\n        /* \"#utility.yul\":3361:3428   */\n      tag_243\n        /* \"#utility.yul\":3425:3427   */\n      0x22\n        /* \"#utility.yul\":3420:3423   */\n      dup4\n        /* \"#utility.yul\":3361:3428   */\n      tag_231\n      jump\t// in\n    tag_243:\n        /* \"#utility.yul\":3354:3428   */\n      swap2\n      pop\n        /* \"#utility.yul\":3437:3530   */\n      tag_244\n        /* \"#utility.yul\":3526:3529   */\n      dup3\n        /* \"#utility.yul\":3437:3530   */\n      tag_245\n      jump\t// in\n    tag_244:\n        /* \"#utility.yul\":3555:3557   */\n      0x40\n        /* \"#utility.yul\":3550:3553   */\n      dup3\n        /* \"#utility.yul\":3546:3558   */\n      add\n        /* \"#utility.yul\":3539:3558   */\n      swap1\n      pop\n        /* \"#utility.yul\":3198:3564   */\n      swap2\n      swap1\n      pop\n      jump\t// out\n        /* \"#utility.yul\":3570:3936   */\n    tag_246:\n        /* \"#utility.yul\":3712:3715   */\n      0x00\n        /* \"#utility.yul\":3733:3800   */\n      tag_248\n        /* \"#utility.yul\":3797:3799   */\n      0x22\n        /* \"#utility.yul\":3792:3795   */\n      dup4\n        /* \"#utility.yul\":3733:3800   */\n      tag_231\n      jump\t// in\n    tag_248:\n        /* \"#utility.yul\":3726:3800   */\n      swap2\n      pop\n        /* \"#utility.yul\":3809:3902   */\n      tag_249\n        /* \"#utility.yul\":3898:3901   */\n      dup3\n        /* \"#utility.yul\":3809:3902   */\n      tag_250\n      jump\t// in\n    tag_249:\n        /* \"#utility.yul\":3927:3929   */\n      0x40\n        /* \"#utility.yul\":3922:3925   */\n      dup3\n        /* \"#utility.yul\":3918:3930   */\n      add\n        /* \"#utility.yul\":3911:3930   */\n      swap1\n      pop\n        /* \"#utility.yul\":3570:3936   */\n      swap2\n      swap1\n      pop\n      jump\t// out\n        /* \"#utility.yul\":3942:4308   */\n    tag_251:\n        /* \"#utility.yul\":4084:4087   */\n      0x00\n        /* \"#utility.yul\":4105:4172   */\n      tag_253\n        /* \"#utility.yul\":4169:4171   */\n      0x1d\n        /* \"#utility.yul\":4164:4167   */\n      dup4\n        /* \"#utility.yul\":4105:4172   */\n      tag_231\n      jump\t// in\n    tag_253:\n        /* \"#utility.yul\":4098:4172   */\n      swap2\n      pop\n        /* \"#utility.yul\":4181:4274   */\n      tag_254\n        /* \"#utility.yul\":4270:4273   */\n      dup3\n        /* \"#utility.yul\":4181:4274   */\n      tag_255\n      jump\t// in\n    tag_254:\n        /* \"#utility.yul\":4299:4301   */\n      0x20\n        /* \"#utility.yul\":4294:4297   */\n      dup3\n        /* \"#utility.yul\":4290:4302   */\n      add\n        /* \"#utility.yul\":4283:4302   */\n      swap1\n      pop\n        /* \"#utility.yul\":3942:4308   */\n      swap2\n      swap1\n      pop\n      jump\t// out\n        /* \"#utility.yul\":4314:4680   */\n    tag_256:\n        /* \"#utility.yul\":4456:4459   */\n      0x00\n        /* \"#utility.yul\":4477:4544   */\n      tag_258\n        /* \"#utility.yul\":4541:4543   */\n      0x26\n        /* \"#utility.yul\":4536:4539   */\n      dup4\n        /* \"#utility.yul\":4477:4544   */\n      tag_231\n      jump\t// in\n    tag_258:\n        /* \"#utility.yul\":4470:4544   */\n      swap2\n      pop\n        /* \"#utility.yul\":4553:4646   */\n      tag_259\n        /* \"#utility.yul\":4642:4645   */\n      dup3\n        /* \"#utility.yul\":4553:4646   */\n      tag_260\n      jump\t// in\n    tag_259:\n        /* \"#utility.yul\":4671:4673   */\n      0x40\n        /* \"#utility.yul\":4666:4669   */\n      dup3\n        /* \"#utility.yul\":4662:4674   */\n      add\n        /* \"#utility.yul\":4655:4674   */\n      swap1\n      pop\n        /* \"#utility.yul\":4314:4680   */\n      swap2\n      swap1\n      pop\n      jump\t// out\n        /* \"#utility.yul\":4686:5052   */\n    tag_261:\n        /* \"#utility.yul\":4828:4831   */\n      0x00\n        /* \"#utility.yul\":4849:4916   */\n      tag_263\n        /* \"#utility.yul\":4913:4915   */\n      0x15\n        /* \"#utility.yul\":4908:4911   */\n      dup4\n        /* \"#utility.yul\":4849:4916   */\n      tag_231\n      jump\t// in\n    tag_263:\n        /* \"#utility.yul\":4842:4916   */\n      swap2\n      pop\n        /* \"#utility.yul\":4925:5018   */\n      tag_264\n        /* \"#utility.yul\":5014:5017   */\n      dup3\n        /* \"#utility.yul\":4925:5018   */\n      tag_265\n      jump\t// in\n    tag_264:\n        /* \"#utility.yul\":5043:5045   */\n      0x20\n        /* \"#utility.yul\":5038:5041   */\n      dup3\n        /* \"#utility.yul\":5034:5046   */\n      add\n        /* \"#utility.yul\":5027:5046   */\n      swap1\n      pop\n        /* \"#utility.yul\":4686:5052   */\n      swap2\n      swap1\n      pop\n      jump\t// out\n        /* \"#utility.yul\":5058:5424   */\n    tag_266:\n        /* \"#utility.yul\":5200:5203   */\n      0x00\n        /* \"#utility.yul\":5221:5288   */\n      tag_268\n        /* \"#utility.yul\":5285:5287   */\n      0x21\n        /* \"#utility.yul\":5280:5283   */\n      dup4\n        /* \"#utility.yul\":5221:5288   */\n      tag_231\n      jump\t// in\n    tag_268:\n        /* \"#utility.yul\":5214:5288   */\n      swap2\n      pop\n        /* \"#utility.yul\":5297:5390   */\n      tag_269\n        /* \"#utility.yul\":5386:5389   */\n      dup3\n        /* \"#utility.yul\":5297:5390   */\n      tag_270\n      jump\t// in\n    tag_269:\n        /* \"#utility.yul\":5415:5417   */\n      0x40\n        /* \"#utility.yul\":5410:5413   */\n      dup3\n        /* \"#utility.yul\":5406:5418   */\n      add\n        /* \"#utility.yul\":5399:5418   */\n      swap1\n      pop\n        /* \"#utility.yul\":5058:5424   */\n      swap2\n      swap1\n      pop\n      jump\t// out\n        /* \"#utility.yul\":5430:5796   */\n    tag_271:\n        /* \"#utility.yul\":5572:5575   */\n      0x00\n        /* \"#utility.yul\":5593:5660   */\n      tag_273\n        /* \"#utility.yul\":5657:5659   */\n      0x25\n        /* \"#utility.yul\":5652:5655   */\n      dup4\n        /* \"#utility.yul\":5593:5660   */\n      tag_231\n      jump\t// in\n    tag_273:\n        /* \"#utility.yul\":5586:5660   */\n      swap2\n      pop\n        /* \"#utility.yul\":5669:5762   */\n      tag_274\n        /* \"#utility.yul\":5758:5761   */\n      dup3\n        /* \"#utility.yul\":5669:5762   */\n      tag_275\n      jump\t// in\n    tag_274:\n        /* \"#utility.yul\":5787:5789   */\n      0x40\n        /* \"#utility.yul\":5782:5785   */\n      dup3\n        /* \"#utility.yul\":5778:5790   */\n      add\n        /* \"#utility.yul\":5771:5790   */\n      swap1\n      pop\n        /* \"#utility.yul\":5430:5796   */\n      swap2\n      swap1\n      pop\n      jump\t// out\n        /* \"#utility.yul\":5802:6168   */\n    tag_276:\n        /* \"#utility.yul\":5944:5947   */\n      0x00\n        /* \"#utility.yul\":5965:6032   */\n      tag_278\n        /* \"#utility.yul\":6029:6031   */\n      0x24\n        /* \"#utility.yul\":6024:6027   */\n      dup4\n        /* \"#utility.yul\":5965:6032   */\n      tag_231\n      jump\t// in\n    tag_278:\n        /* \"#utility.yul\":5958:6032   */\n      swap2\n      pop\n        /* \"#utility.yul\":6041:6134   */\n      tag_279\n        /* \"#utility.yul\":6130:6133   */\n      dup3\n        /* \"#utility.yul\":6041:6134   */\n      tag_280\n      jump\t// in\n    tag_279:\n        /* \"#utility.yul\":6159:6161   */\n      0x40\n        /* \"#utility.yul\":6154:6157   */\n      dup3\n        /* \"#utility.yul\":6150:6162   */\n      add\n        /* \"#utility.yul\":6143:6162   */\n      swap1\n      pop\n        /* \"#utility.yul\":5802:6168   */\n      swap2\n      swap1\n      pop\n      jump\t// out\n        /* \"#utility.yul\":6174:6540   */\n    tag_281:\n        /* \"#utility.yul\":6316:6319   */\n      0x00\n        /* \"#utility.yul\":6337:6404   */\n      tag_283\n        /* \"#utility.yul\":6401:6403   */\n      0x25\n        /* \"#utility.yul\":6396:6399   */\n      dup4\n        /* \"#utility.yul\":6337:6404   */\n      tag_231\n      jump\t// in\n    tag_283:\n        /* \"#utility.yul\":6330:6404   */\n      swap2\n      pop\n        /* \"#utility.yul\":6413:6506   */\n      tag_284\n        /* \"#utility.yul\":6502:6505   */\n      dup3\n        /* \"#utility.yul\":6413:6506   */\n      tag_285\n      jump\t// in\n    tag_284:\n        /* \"#utility.yul\":6531:6533   */\n      0x40\n        /* \"#utility.yul\":6526:6529   */\n      dup3\n        /* \"#utility.yul\":6522:6534   */\n      add\n        /* \"#utility.yul\":6515:6534   */\n      swap1\n      pop\n        /* \"#utility.yul\":6174:6540   */\n      swap2\n      swap1\n      pop\n      jump\t// out\n        /* \"#utility.yul\":6546:6912   */\n    tag_286:\n        /* \"#utility.yul\":6688:6691   */\n      0x00\n        /* \"#utility.yul\":6709:6776   */\n      tag_288\n        /* \"#utility.yul\":6773:6775   */\n      0x1f\n        /* \"#utility.yul\":6768:6771   */\n      dup4\n        /* \"#utility.yul\":6709:6776   */\n      tag_231\n      jump\t// in\n    tag_288:\n        /* \"#utility.yul\":6702:6776   */\n      swap2\n      pop\n        /* \"#utility.yul\":6785:6878   */\n      tag_289\n        /* \"#utility.yul\":6874:6877   */\n      dup3\n        /* \"#utility.yul\":6785:6878   */\n      tag_290\n      jump\t// in\n    tag_289:\n        /* \"#utility.yul\":6903:6905   */\n      0x20\n        /* \"#utility.yul\":6898:6901   */\n      dup3\n        /* \"#utility.yul\":6894:6906   */\n      add\n        /* \"#utility.yul\":6887:6906   */\n      swap1\n      pop\n        /* \"#utility.yul\":6546:6912   */\n      swap2\n      swap1\n      pop\n      jump\t// out\n        /* \"#utility.yul\":6918:7036   */\n    tag_291:\n        /* \"#utility.yul\":7005:7029   */\n      tag_293\n        /* \"#utility.yul\":7023:7028   */\n      dup2\n        /* \"#utility.yul\":7005:7029   */\n      tag_294\n      jump\t// in\n    tag_293:\n        /* \"#utility.yul\":7000:7003   */\n      dup3\n        /* \"#utility.yul\":6993:7030   */\n      mstore\n        /* \"#utility.yul\":6918:7036   */\n      pop\n      pop\n      jump\t// out\n        /* \"#utility.yul\":7042:7154   */\n    tag_295:\n        /* \"#utility.yul\":7125:7147   */\n      tag_297\n        /* \"#utility.yul\":7141:7146   */\n      dup2\n        /* \"#utility.yul\":7125:7147   */\n      tag_298\n      jump\t// in\n    tag_297:\n        /* \"#utility.yul\":7120:7123   */\n      dup3\n        /* \"#utility.yul\":7113:7148   */\n      mstore\n        /* \"#utility.yul\":7042:7154   */\n      pop\n      pop\n      jump\t// out\n        /* \"#utility.yul\":7160:7382   */\n    tag_69:\n        /* \"#utility.yul\":7253:7257   */\n      0x00\n        /* \"#utility.yul\":7291:7293   */\n      0x20\n        /* \"#utility.yul\":7280:7289   */\n      dup3\n        /* \"#utility.yul\":7276:7294   */\n      add\n        /* \"#utility.yul\":7268:7294   */\n      swap1\n      pop\n        /* \"#utility.yul\":7304:7375   */\n      tag_300\n        /* \"#utility.yul\":7372:7373   */\n      0x00\n        /* \"#utility.yul\":7361:7370   */\n      dup4\n        /* \"#utility.yul\":7357:7374   */\n      add\n        /* \"#utility.yul\":7348:7354   */\n      dup5\n        /* \"#utility.yul\":7304:7375   */\n      tag_218\n      jump\t// in\n    tag_300:\n        /* \"#utility.yul\":7160:7382   */\n      swap3\n      swap2\n      pop\n      pop\n      jump\t// out\n        /* \"#utility.yul\":7388:7598   */\n    tag_29:\n        /* \"#utility.yul\":7475:7479   */\n      0x00\n        /* \"#utility.yul\":7513:7515   */\n      0x20\n        /* \"#utility.yul\":7502:7511   */\n      dup3\n        /* \"#utility.yul\":7498:7516   */\n      add\n        /* \"#utility.yul\":7490:7516   */\n      swap1\n      pop\n        /* \"#utility.yul\":7526:7591   */\n      tag_302\n        /* \"#utility.yul\":7588:7589   */\n      0x00\n        /* \"#utility.yul\":7577:7586   */\n      dup4\n        /* \"#utility.yul\":7573:7590   */\n      add\n        /* \"#utility.yul\":7564:7570   */\n      dup5\n        /* \"#utility.yul\":7526:7591   */\n      tag_222\n      jump\t// in\n    tag_302:\n        /* \"#utility.yul\":7388:7598   */\n      swap3\n      swap2\n      pop\n      pop\n      jump\t// out\n        /* \"#utility.yul\":7604:7917   */\n    tag_23:\n        /* \"#utility.yul\":7717:7721   */\n      0x00\n        /* \"#utility.yul\":7755:7757   */\n      0x20\n        /* \"#utility.yul\":7744:7753   */\n      dup3\n        /* \"#utility.yul\":7740:7758   */\n      add\n        /* \"#utility.yul\":7732:7758   */\n      swap1\n      pop\n        /* \"#utility.yul\":7804:7813   */\n      dup2\n        /* \"#utility.yul\":7798:7802   */\n      dup2\n        /* \"#utility.yul\":7794:7814   */\n      sub\n        /* \"#utility.yul\":7790:7791   */\n      0x00\n        /* \"#utility.yul\":7779:7788   */\n      dup4\n        /* \"#utility.yul\":7775:7792   */\n      add\n        /* \"#utility.yul\":7768:7815   */\n      mstore\n        /* \"#utility.yul\":7832:7910   */\n      tag_304\n        /* \"#utility.yul\":7905:7909   */\n      dup2\n        /* \"#utility.yul\":7896:7902   */\n      dup5\n        /* \"#utility.yul\":7832:7910   */\n      tag_226\n      jump\t// in\n    tag_304:\n        /* \"#utility.yul\":7824:7910   */\n      swap1\n      pop\n        /* \"#utility.yul\":7604:7917   */\n      swap3\n      swap2\n      pop\n      pop\n      jump\t// out\n        /* \"#utility.yul\":7923:8342   */\n    tag_166:\n        /* \"#utility.yul\":8089:8093   */\n      0x00\n        /* \"#utility.yul\":8127:8129   */\n      0x20\n        /* \"#utility.yul\":8116:8125   */\n      dup3\n        /* \"#utility.yul\":8112:8130   */\n      add\n        /* \"#utility.yul\":8104:8130   */\n      swap1\n      pop\n        /* \"#utility.yul\":8176:8185   */\n      dup2\n        /* \"#utility.yul\":8170:8174   */\n      dup2\n        /* \"#utility.yul\":8166:8186   */\n      sub\n        /* \"#utility.yul\":8162:8163   */\n      0x00\n        /* \"#utility.yul\":8151:8160   */\n      dup4\n        /* \"#utility.yul\":8147:8164   */\n      add\n        /* \"#utility.yul\":8140:8187   */\n      mstore\n        /* \"#utility.yul\":8204:8335   */\n      tag_306\n        /* \"#utility.yul\":8330:8334   */\n      dup2\n        /* \"#utility.yul\":8204:8335   */\n      tag_236\n      jump\t// in\n    tag_306:\n        /* \"#utility.yul\":8196:8335   */\n      swap1\n      pop\n        /* \"#utility.yul\":7923:8342   */\n      swap2\n      swap1\n      pop\n      jump\t// out\n        /* \"#utility.yul\":8348:8767   */\n    tag_181:\n        /* \"#utility.yul\":8514:8518   */\n      0x00\n        /* \"#utility.yul\":8552:8554   */\n      0x20\n        /* \"#utility.yul\":8541:8550   */\n      dup3\n        /* \"#utility.yul\":8537:8555   */\n      add\n        /* \"#utility.yul\":8529:8555   */\n      swap1\n      pop\n        /* \"#utility.yul\":8601:8610   */\n      dup2\n        /* \"#utility.yul\":8595:8599   */\n      dup2\n        /* \"#utility.yul\":8591:8611   */\n      sub\n        /* \"#utility.yul\":8587:8588   */\n      0x00\n        /* \"#utility.yul\":8576:8585   */\n      dup4\n        /* \"#utility.yul\":8572:8589   */\n      add\n        /* \"#utility.yul\":8565:8612   */\n      mstore\n        /* \"#utility.yul\":8629:8760   */\n      tag_308\n        /* \"#utility.yul\":8755:8759   */\n      dup2\n        /* \"#utility.yul\":8629:8760   */\n      tag_241\n      jump\t// in\n    tag_308:\n        /* \"#utility.yul\":8621:8760   */\n      swap1\n      pop\n        /* \"#utility.yul\":8348:8767   */\n      swap2\n      swap1\n      pop\n      jump\t// out\n        /* \"#utility.yul\":8773:9192   */\n    tag_140:\n        /* \"#utility.yul\":8939:8943   */\n      0x00\n        /* \"#utility.yul\":8977:8979   */\n      0x20\n        /* \"#utility.yul\":8966:8975   */\n      dup3\n        /* \"#utility.yul\":8962:8980   */\n      add\n        /* \"#utility.yul\":8954:8980   */\n      swap1\n      pop\n        /* \"#utility.yul\":9026:9035   */\n      dup2\n        /* \"#utility.yul\":9020:9024   */\n      dup2\n        /* \"#utility.yul\":9016:9036   */\n      sub\n        /* \"#utility.yul\":9012:9013   */\n      0x00\n        /* \"#utility.yul\":9001:9010   */\n      dup4\n        /* \"#utility.yul\":8997:9014   */\n      add\n        /* \"#utility.yul\":8990:9037   */\n      mstore\n        /* \"#utility.yul\":9054:9185   */\n      tag_310\n        /* \"#utility.yul\":9180:9184   */\n      dup2\n        /* \"#utility.yul\":9054:9185   */\n      tag_246\n      jump\t// in\n    tag_310:\n        /* \"#utility.yul\":9046:9185   */\n      swap1\n      pop\n        /* \"#utility.yul\":8773:9192   */\n      swap2\n      swap1\n      pop\n      jump\t// out\n        /* \"#utility.yul\":9198:9617   */\n    tag_158:\n        /* \"#utility.yul\":9364:9368   */\n      0x00\n        /* \"#utility.yul\":9402:9404   */\n      0x20\n        /* \"#utility.yul\":9391:9400   */\n      dup3\n        /* \"#utility.yul\":9387:9405   */\n      add\n        /* \"#utility.yul\":9379:9405   */\n      swap1\n      pop\n        /* \"#utility.yul\":9451:9460   */\n      dup2\n        /* \"#utility.yul\":9445:9449   */\n      dup2\n        /* \"#utility.yul\":9441:9461   */\n      sub\n        /* \"#utility.yul\":9437:9438   */\n      0x00\n        /* \"#utility.yul\":9426:9435   */\n      dup4\n        /* \"#utility.yul\":9422:9439   */\n      add\n        /* \"#utility.yul\":9415:9462   */\n      mstore\n        /* \"#utility.yul\":9479:9610   */\n      tag_312\n        /* \"#utility.yul\":9605:9609   */\n      dup2\n        /* \"#utility.yul\":9479:9610   */\n      tag_251\n      jump\t// in\n    tag_312:\n        /* \"#utility.yul\":9471:9610   */\n      swap1\n      pop\n        /* \"#utility.yul\":9198:9617   */\n      swap2\n      swap1\n      pop\n      jump\t// out\n        /* \"#utility.yul\":9623:10042   */\n    tag_170:\n        /* \"#utility.yul\":9789:9793   */\n      0x00\n        /* \"#utility.yul\":9827:9829   */\n      0x20\n        /* \"#utility.yul\":9816:9825   */\n      dup3\n        /* \"#utility.yul\":9812:9830   */\n      add\n        /* \"#utility.yul\":9804:9830   */\n      swap1\n      pop\n        /* \"#utility.yul\":9876:9885   */\n      dup2\n        /* \"#utility.yul\":9870:9874   */\n      dup2\n        /* \"#utility.yul\":9866:9886   */\n      sub\n        /* \"#utility.yul\":9862:9863   */\n      0x00\n        /* \"#utility.yul\":9851:9860   */\n      dup4\n        /* \"#utility.yul\":9847:9864   */\n      add\n        /* \"#utility.yul\":9840:9887   */\n      mstore\n        /* \"#utility.yul\":9904:10035   */\n      tag_314\n        /* \"#utility.yul\":10030:10034   */\n      dup2\n        /* \"#utility.yul\":9904:10035   */\n      tag_256\n      jump\t// in\n    tag_314:\n        /* \"#utility.yul\":9896:10035   */\n      swap1\n      pop\n        /* \"#utility.yul\":9623:10042   */\n      swap2\n      swap1\n      pop\n      jump\t// out\n        /* \"#utility.yul\":10048:10467   */\n    tag_94:\n        /* \"#utility.yul\":10214:10218   */\n      0x00\n        /* \"#utility.yul\":10252:10254   */\n      0x20\n        /* \"#utility.yul\":10241:10250   */\n      dup3\n        /* \"#utility.yul\":10237:10255   */\n      add\n        /* \"#utility.yul\":10229:10255   */\n      swap1\n      pop\n        /* \"#utility.yul\":10301:10310   */\n      dup2\n        /* \"#utility.yul\":10295:10299   */\n      dup2\n        /* \"#utility.yul\":10291:10311   */\n      sub\n        /* \"#utility.yul\":10287:10288   */\n      0x00\n        /* \"#utility.yul\":10276:10285   */\n      dup4\n        /* \"#utility.yul\":10272:10289   */\n      add\n        /* \"#utility.yul\":10265:10312   */\n      mstore\n        /* \"#utility.yul\":10329:10460   */\n      tag_316\n        /* \"#utility.yul\":10455:10459   */\n      dup2\n        /* \"#utility.yul\":10329:10460   */\n      tag_261\n      jump\t// in\n    tag_316:\n        /* \"#utility.yul\":10321:10460   */\n      swap1\n      pop\n        /* \"#utility.yul\":10048:10467   */\n      swap2\n      swap1\n      pop\n      jump\t// out\n        /* \"#utility.yul\":10473:10892   */\n    tag_177:\n        /* \"#utility.yul\":10639:10643   */\n      0x00\n        /* \"#utility.yul\":10677:10679   */\n      0x20\n        /* \"#utility.yul\":10666:10675   */\n      dup3\n        /* \"#utility.yul\":10662:10680   */\n      add\n        /* \"#utility.yul\":10654:10680   */\n      swap1\n      pop\n        /* \"#utility.yul\":10726:10735   */\n      dup2\n        /* \"#utility.yul\":10720:10724   */\n      dup2\n        /* \"#utility.yul\":10716:10736   */\n      sub\n        /* \"#utility.yul\":10712:10713   */\n      0x00\n        /* \"#utility.yul\":10701:10710   */\n      dup4\n        /* \"#utility.yul\":10697:10714   */\n      add\n        /* \"#utility.yul\":10690:10737   */\n      mstore\n        /* \"#utility.yul\":10754:10885   */\n      tag_318\n        /* \"#utility.yul\":10880:10884   */\n      dup2\n        /* \"#utility.yul\":10754:10885   */\n      tag_266\n      jump\t// in\n    tag_318:\n        /* \"#utility.yul\":10746:10885   */\n      swap1\n      pop\n        /* \"#utility.yul\":10473:10892   */\n      swap2\n      swap1\n      pop\n      jump\t// out\n        /* \"#utility.yul\":10898:11317   */\n    tag_163:\n        /* \"#utility.yul\":11064:11068   */\n      0x00\n        /* \"#utility.yul\":11102:11104   */\n      0x20\n        /* \"#utility.yul\":11091:11100   */\n      dup3\n        /* \"#utility.yul\":11087:11105   */\n      add\n        /* \"#utility.yul\":11079:11105   */\n      swap1\n      pop\n        /* \"#utility.yul\":11151:11160   */\n      dup2\n        /* \"#utility.yul\":11145:11149   */\n      dup2\n        /* \"#utility.yul\":11141:11161   */\n      sub\n        /* \"#utility.yul\":11137:11138   */\n      0x00\n        /* \"#utility.yul\":11126:11135   */\n      dup4\n        /* \"#utility.yul\":11122:11139   */\n      add\n        /* \"#utility.yul\":11115:11162   */\n      mstore\n        /* \"#utility.yul\":11179:11310   */\n      tag_320\n        /* \"#utility.yul\":11305:11309   */\n      dup2\n        /* \"#utility.yul\":11179:11310   */\n      tag_271\n      jump\t// in\n    tag_320:\n        /* \"#utility.yul\":11171:11310   */\n      swap1\n      pop\n        /* \"#utility.yul\":10898:11317   */\n      swap2\n      swap1\n      pop\n      jump\t// out\n        /* \"#utility.yul\":11323:11742   */\n    tag_137:\n        /* \"#utility.yul\":11489:11493   */\n      0x00\n        /* \"#utility.yul\":11527:11529   */\n      0x20\n        /* \"#utility.yul\":11516:11525   */\n      dup3\n        /* \"#utility.yul\":11512:11530   */\n      add\n        /* \"#utility.yul\":11504:11530   */\n      swap1\n      pop\n        /* \"#utility.yul\":11576:11585   */\n      dup2\n        /* \"#utility.yul\":11570:11574   */\n      dup2\n        /* \"#utility.yul\":11566:11586   */\n      sub\n        /* \"#utility.yul\":11562:11563   */\n      0x00\n        /* \"#utility.yul\":11551:11560   */\n      dup4\n        /* \"#utility.yul\":11547:11564   */\n      add\n        /* \"#utility.yul\":11540:11587   */\n      mstore\n        /* \"#utility.yul\":11604:11735   */\n      tag_322\n        /* \"#utility.yul\":11730:11734   */\n      dup2\n        /* \"#utility.yul\":11604:11735   */\n      tag_276\n      jump\t// in\n    tag_322:\n        /* \"#utility.yul\":11596:11735   */\n      swap1\n      pop\n        /* \"#utility.yul\":11323:11742   */\n      swap2\n      swap1\n      pop\n      jump\t// out\n        /* \"#utility.yul\":11748:12167   */\n    tag_124:\n        /* \"#utility.yul\":11914:11918   */\n      0x00\n        /* \"#utility.yul\":11952:11954   */\n      0x20\n        /* \"#utility.yul\":11941:11950   */\n      dup3\n        /* \"#utility.yul\":11937:11955   */\n      add\n        /* \"#utility.yul\":11929:11955   */\n      swap1\n      pop\n        /* \"#utility.yul\":12001:12010   */\n      dup2\n        /* \"#utility.yul\":11995:11999   */\n      dup2\n        /* \"#utility.yul\":11991:12011   */\n      sub\n        /* \"#utility.yul\":11987:11988   */\n      0x00\n        /* \"#utility.yul\":11976:11985   */\n      dup4\n        /* \"#utility.yul\":11972:11989   */\n      add\n        /* \"#utility.yul\":11965:12012   */\n      mstore\n        /* \"#utility.yul\":12029:12160   */\n      tag_324\n        /* \"#utility.yul\":12155:12159   */\n      dup2\n        /* \"#utility.yul\":12029:12160   */\n      tag_281\n      jump\t// in\n    tag_324:\n        /* \"#utility.yul\":12021:12160   */\n      swap1\n      pop\n        /* \"#utility.yul\":11748:12167   */\n      swap2\n      swap1\n      pop\n      jump\t// out\n        /* \"#utility.yul\":12173:12592   */\n    tag_145:\n        /* \"#utility.yul\":12339:12343   */\n      0x00\n        /* \"#utility.yul\":12377:12379   */\n      0x20\n        /* \"#utility.yul\":12366:12375   */\n      dup3\n        /* \"#utility.yul\":12362:12380   */\n      add\n        /* \"#utility.yul\":12354:12380   */\n      swap1\n      pop\n        /* \"#utility.yul\":12426:12435   */\n      dup2\n        /* \"#utility.yul\":12420:12424   */\n      dup2\n        /* \"#utility.yul\":12416:12436   */\n      sub\n        /* \"#utility.yul\":12412:12413   */\n      0x00\n        /* \"#utility.yul\":12401:12410   */\n      dup4\n        /* \"#utility.yul\":12397:12414   */\n      add\n        /* \"#utility.yul\":12390:12437   */\n      mstore\n        /* \"#utility.yul\":12454:12585   */\n      tag_326\n        /* \"#utility.yul\":12580:12584   */\n      dup2\n        /* \"#utility.yul\":12454:12585   */\n      tag_286\n      jump\t// in\n    tag_326:\n        /* \"#utility.yul\":12446:12585   */\n      swap1\n      pop\n        /* \"#utility.yul\":12173:12592   */\n      swap2\n      swap1\n      pop\n      jump\t// out\n        /* \"#utility.yul\":12598:12820   */\n    tag_36:\n        /* \"#utility.yul\":12691:12695   */\n      0x00\n        /* \"#utility.yul\":12729:12731   */\n      0x20\n        /* \"#utility.yul\":12718:12727   */\n      dup3\n        /* \"#utility.yul\":12714:12732   */\n      add\n        /* \"#utility.yul\":12706:12732   */\n      swap1\n      pop\n        /* \"#utility.yul\":12742:12813   */\n      tag_328\n        /* \"#utility.yul\":12810:12811   */\n      0x00\n        /* \"#utility.yul\":12799:12808   */\n      dup4\n        /* \"#utility.yul\":12795:12812   */\n      add\n        /* \"#utility.yul\":12786:12792   */\n      dup5\n        /* \"#utility.yul\":12742:12813   */\n      tag_291\n      jump\t// in\n    tag_328:\n        /* \"#utility.yul\":12598:12820   */\n      swap3\n      swap2\n      pop\n      pop\n      jump\t// out\n        /* \"#utility.yul\":12826:13040   */\n    tag_45:\n        /* \"#utility.yul\":12915:12919   */\n      0x00\n        /* \"#utility.yul\":12953:12955   */\n      0x20\n        /* \"#utility.yul\":12942:12951   */\n      dup3\n        /* \"#utility.yul\":12938:12956   */\n      add\n        /* \"#utility.yul\":12930:12956   */\n      swap1\n      pop\n        /* \"#utility.yul\":12966:13033   */\n      tag_330\n        /* \"#utility.yul\":13030:13031   */\n      0x00\n        /* \"#utility.yul\":13019:13028   */\n      dup4\n        /* \"#utility.yul\":13015:13032   */\n      add\n        /* \"#utility.yul\":13006:13012   */\n      dup5\n        /* \"#utility.yul\":12966:13033   */\n      tag_295\n      jump\t// in\n    tag_330:\n        /* \"#utility.yul\":12826:13040   */\n      swap3\n      swap2\n      pop\n      pop\n      jump\t// out\n        /* \"#utility.yul\":13127:13226   */\n    tag_229:\n        /* \"#utility.yul\":13179:13185   */\n      0x00\n        /* \"#utility.yul\":13213:13218   */\n      dup2\n        /* \"#utility.yul\":13207:13219   */\n      mload\n        /* \"#utility.yul\":13197:13219   */\n      swap1\n      pop\n        /* \"#utility.yul\":13127:13226   */\n      swap2\n      swap1\n      pop\n      jump\t// out\n        /* \"#utility.yul\":13232:13401   */\n    tag_231:\n        /* \"#utility.yul\":13316:13327   */\n      0x00\n        /* \"#utility.yul\":13350:13356   */\n      dup3\n        /* \"#utility.yul\":13345:13348   */\n      dup3\n        /* \"#utility.yul\":13338:13357   */\n      mstore\n        /* \"#utility.yul\":13390:13394   */\n      0x20\n        /* \"#utility.yul\":13385:13388   */\n      dup3\n        /* \"#utility.yul\":13381:13395   */\n      add\n        /* \"#utility.yul\":13366:13395   */\n      swap1\n      pop\n        /* \"#utility.yul\":13232:13401   */\n      swap3\n      swap2\n      pop\n      pop\n      jump\t// out\n        /* \"#utility.yul\":13407:13712   */\n    tag_111:\n        /* \"#utility.yul\":13447:13450   */\n      0x00\n        /* \"#utility.yul\":13466:13486   */\n      tag_336\n        /* \"#utility.yul\":13484:13485   */\n      dup3\n        /* \"#utility.yul\":13466:13486   */\n      tag_294\n      jump\t// in\n    tag_336:\n        /* \"#utility.yul\":13461:13486   */\n      swap2\n      pop\n        /* \"#utility.yul\":13500:13520   */\n      tag_337\n        /* \"#utility.yul\":13518:13519   */\n      dup4\n        /* \"#utility.yul\":13500:13520   */\n      tag_294\n      jump\t// in\n    tag_337:\n        /* \"#utility.yul\":13495:13520   */\n      swap3\n      pop\n        /* \"#utility.yul\":13654:13655   */\n      dup3\n        /* \"#utility.yul\":13586:13652   */\n      0xffffffffffffffffffffffffffffffffffffffffffffffffffffffffffffffff\n        /* \"#utility.yul\":13582:13656   */\n      sub\n        /* \"#utility.yul\":13579:13580   */\n      dup3\n        /* \"#utility.yul\":13576:13657   */\n      gt\n        /* \"#utility.yul\":13573:13680   */\n      iszero\n      tag_338\n      jumpi\n        /* \"#utility.yul\":13660:13678   */\n      tag_339\n      tag_340\n      jump\t// in\n    tag_339:\n        /* \"#utility.yul\":13573:13680   */\n    tag_338:\n        /* \"#utility.yul\":13704:13705   */\n      dup3\n        /* \"#utility.yul\":13701:13702   */\n      dup3\n        /* \"#utility.yul\":13697:13706   */\n      add\n        /* \"#utility.yul\":13690:13706   */\n      swap1\n      pop\n        /* \"#utility.yul\":13407:13712   */\n      swap3\n      swap2\n      pop\n      pop\n      jump\t// out\n        /* \"#utility.yul\":13718:13909   */\n    tag_183:\n        /* \"#utility.yul\":13758:13762   */\n      0x00\n        /* \"#utility.yul\":13778:13798   */\n      tag_342\n        /* \"#utility.yul\":13796:13797   */\n      dup3\n        /* \"#utility.yul\":13778:13798   */\n      tag_294\n      jump\t// in\n    tag_342:\n        /* \"#utility.yul\":13773:13798   */\n      swap2\n      pop\n        /* \"#utility.yul\":13812:13832   */\n      tag_343\n        /* \"#utility.yul\":13830:13831   */\n      dup4\n        /* \"#utility.yul\":13812:13832   */\n      tag_294\n      jump\t// in\n    tag_343:\n        /* \"#utility.yul\":13807:13832   */\n      swap3\n      pop\n        /* \"#utility.yul\":13851:13852   */\n      dup3\n        /* \"#utility.yul\":13848:13849   */\n      dup3\n        /* \"#utility.yul\":13845:13853   */\n      lt\n        /* \"#utility.yul\":13842:13876   */\n      iszero\n      tag_344\n      jumpi\n        /* \"#utility.yul\":13856:13874   */\n      tag_345\n      tag_340\n      jump\t// in\n    tag_345:\n        /* \"#utility.yul\":13842:13876   */\n    tag_344:\n        /* \"#utility.yul\":13901:13902   */\n      dup3\n        /* \"#utility.yul\":13898:13899   */\n      dup3\n        /* \"#utility.yul\":13894:13903   */\n      sub\n        /* \"#utility.yul\":13886:13903   */\n      swap1\n      pop\n        /* \"#utility.yul\":13718:13909   */\n      swap3\n      swap2\n      pop\n      pop\n      jump\t// out\n        /* \"#utility.yul\":13915:14011   */\n    tag_221:\n        /* \"#utility.yul\":13952:13959   */\n      0x00\n        /* \"#utility.yul\":13981:14005   */\n      tag_347\n        /* \"#utility.yul\":13999:14004   */\n      dup3\n        /* \"#utility.yul\":13981:14005   */\n      tag_348\n      jump\t// in\n    tag_347:\n        /* \"#utility.yul\":13970:14005   */\n      swap1\n      pop\n        /* \"#utility.yul\":13915:14011   */\n      swap2\n      swap1\n      pop\n      jump\t// out\n        /* \"#utility.yul\":14017:14107   */\n    tag_225:\n        /* \"#utility.yul\":14051:14058   */\n      0x00\n        /* \"#utility.yul\":14094:14099   */\n      dup2\n        /* \"#utility.yul\":14087:14100   */\n      iszero\n        /* \"#utility.yul\":14080:14101   */\n      iszero\n        /* \"#utility.yul\":14069:14101   */\n      swap1\n      pop\n        /* \"#utility.yul\":14017:14107   */\n      swap2\n      swap1\n      pop\n      jump\t// out\n        /* \"#utility.yul\":14113:14239   */\n    tag_348:\n        /* \"#utility.yul\":14150:14157   */\n      0x00\n        /* \"#utility.yul\":14190:14232   */\n      0xffffffffffffffffffffffffffffffffffffffff\n        /* \"#utility.yul\":14183:14188   */\n      dup3\n        /* \"#utility.yul\":14179:14233   */\n      and\n        /* \"#utility.yul\":14168:14233   */\n      swap1\n      pop\n        /* \"#utility.yul\":14113:14239   */\n      swap2\n      swap1\n      pop\n      jump\t// out\n        /* \"#utility.yul\":14245:14322   */\n    tag_294:\n        /* \"#utility.yul\":14282:14289   */\n      0x00\n        /* \"#utility.yul\":14311:14316   */\n      dup2\n        /* \"#utility.yul\":14300:14316   */\n      swap1\n      pop\n        /* \"#utility.yul\":14245:14322   */\n      swap2\n      swap1\n      pop\n      jump\t// out\n        /* \"#utility.yul\":14328:14414   */\n    tag_298:\n        /* \"#utility.yul\":14363:14370   */\n      0x00\n        /* \"#utility.yul\":14403:14407   */\n      0xff\n        /* \"#utility.yul\":14396:14401   */\n      dup3\n        /* \"#utility.yul\":14392:14408   */\n      and\n        /* \"#utility.yul\":14381:14408   */\n      swap1\n      pop\n        /* \"#utility.yul\":14328:14414   */\n      swap2\n      swap1\n      pop\n      jump\t// out\n        /* \"#utility.yul\":14420:14727   */\n    tag_233:\n        /* \"#utility.yul\":14488:14489   */\n      0x00\n        /* \"#utility.yul\":14498:14611   */\n    tag_354:\n        /* \"#utility.yul\":14512:14518   */\n      dup4\n        /* \"#utility.yul\":14509:14510   */\n      dup2\n        /* \"#utility.yul\":14506:14519   */\n      lt\n        /* \"#utility.yul\":14498:14611   */\n      iszero\n      tag_356\n      jumpi\n        /* \"#utility.yul\":14597:14598   */\n      dup1\n        /* \"#utility.yul\":14592:14595   */\n      dup3\n        /* \"#utility.yul\":14588:14599   */\n      add\n        /* \"#utility.yul\":14582:14600   */\n      mload\n        /* \"#utility.yul\":14578:14579   */\n      dup2\n        /* \"#utility.yul\":14573:14576   */\n      dup5\n        /* \"#utility.yul\":14569:14580   */\n      add\n        /* \"#utility.yul\":14562:14601   */\n      mstore\n        /* \"#utility.yul\":14534:14536   */\n      0x20\n        /* \"#utility.yul\":14531:14532   */\n      dup2\n        /* \"#utility.yul\":14527:14537   */\n      add\n        /* \"#utility.yul\":14522:14537   */\n      swap1\n      pop\n        /* \"#utility.yul\":14498:14611   */\n      jump(tag_354)\n    tag_356:\n        /* \"#utility.yul\":14629:14635   */\n      dup4\n        /* \"#utility.yul\":14626:14627   */\n      dup2\n        /* \"#utility.yul\":14623:14636   */\n      gt\n        /* \"#utility.yul\":14620:14721   */\n      iszero\n      tag_357\n      jumpi\n        /* \"#utility.yul\":14709:14710   */\n      0x00\n        /* \"#utility.yul\":14700:14706   */\n      dup5\n        /* \"#utility.yul\":14695:14698   */\n      dup5\n        /* \"#utility.yul\":14691:14707   */\n      add\n        /* \"#utility.yul\":14684:14711   */\n      mstore\n        /* \"#utility.yul\":14620:14721   */\n    tag_357:\n        /* \"#utility.yul\":14469:14727   */\n      pop\n        /* \"#utility.yul\":14420:14727   */\n      pop\n      pop\n      pop\n      jump\t// out\n        /* \"#utility.yul\":14733:15053   */\n    tag_80:\n        /* \"#utility.yul\":14777:14783   */\n      0x00\n        /* \"#utility.yul\":14814:14815   */\n      0x02\n        /* \"#utility.yul\":14808:14812   */\n      dup3\n        /* \"#utility.yul\":14804:14816   */\n      div\n        /* \"#utility.yul\":14794:14816   */\n      swap1\n      pop\n        /* \"#utility.yul\":14861:14862   */\n      0x01\n        /* \"#utility.yul\":14855:14859   */\n      dup3\n        /* \"#utility.yul\":14851:14863   */\n      and\n        /* \"#utility.yul\":14882:14900   */\n      dup1\n        /* \"#utility.yul\":14872:14953   */\n      tag_359\n      jumpi\n        /* \"#utility.yul\":14938:14942   */\n      0x7f\n        /* \"#utility.yul\":14930:14936   */\n      dup3\n        /* \"#utility.yul\":14926:14943   */\n      and\n        /* \"#utility.yul\":14916:14943   */\n      swap2\n      pop\n        /* \"#utility.yul\":14872:14953   */\n    tag_359:\n        /* \"#utility.yul\":15000:15002   */\n      0x20\n        /* \"#utility.yul\":14992:14998   */\n      dup3\n        /* \"#utility.yul\":14989:15003   */\n      lt\n        /* \"#utility.yul\":14969:14987   */\n      dup2\n        /* \"#utility.yul\":14966:15004   */\n      eq\n        /* \"#utility.yul\":14963:15047   */\n      iszero\n      tag_360\n      jumpi\n        /* \"#utility.yul\":15019:15037   */\n      tag_361\n      tag_362\n      jump\t// in\n    tag_361:\n        /* \"#utility.yul\":14963:15047   */\n    tag_360:\n        /* \"#utility.yul\":14784:15053   */\n      pop\n        /* \"#utility.yul\":14733:15053   */\n      swap2\n      swap1\n      pop\n      jump\t// out\n        /* \"#utility.yul\":15059:15239   */\n    tag_340:\n        /* \"#utility.yul\":15107:15184   */\n      0x4e487b7100000000000000000000000000000000000000000000000000000000\n        /* \"#utility.yul\":15104:15105   */\n      0x00\n        /* \"#utility.yul\":15097:15185   */\n      mstore\n        /* \"#utility.yul\":15204:15208   */\n      0x11\n        /* \"#utility.yul\":15201:15202   */\n      0x04\n        /* \"#utility.yul\":15194:15209   */\n      mstore\n        /* \"#utility.yul\":15228:15232   */\n      0x24\n        /* \"#utility.yul\":15225:15226   */\n      0x00\n        /* \"#utility.yul\":15218:15233   */\n      revert\n        /* \"#utility.yul\":15245:15425   */\n    tag_362:\n        /* \"#utility.yul\":15293:15370   */\n      0x4e487b7100000000000000000000000000000000000000000000000000000000\n        /* \"#utility.yul\":15290:15291   */\n      0x00\n        /* \"#utility.yul\":15283:15371   */\n      mstore\n        /* \"#utility.yul\":15390:15394   */\n      0x22\n        /* \"#utility.yul\":15387:15388   */\n      0x04\n        /* \"#utility.yul\":15380:15395   */\n      mstore\n        /* \"#utility.yul\":15414:15418   */\n      0x24\n        /* \"#utility.yul\":15411:15412   */\n      0x00\n        /* \"#utility.yul\":15404:15419   */\n      revert\n        /* \"#utility.yul\":15554:15671   */\n    tag_200:\n        /* \"#utility.yul\":15663:15664   */\n      0x00\n        /* \"#utility.yul\":15660:15661   */\n      dup1\n        /* \"#utility.yul\":15653:15665   */\n      revert\n        /* \"#utility.yul\":15677:15779   */\n    tag_235:\n        /* \"#utility.yul\":15718:15724   */\n      0x00\n        /* \"#utility.yul\":15769:15771   */\n      0x1f\n        /* \"#utility.yul\":15765:15772   */\n      not\n        /* \"#utility.yul\":15760:15762   */\n      0x1f\n        /* \"#utility.yul\":15753:15758   */\n      dup4\n        /* \"#utility.yul\":15749:15763   */\n      add\n        /* \"#utility.yul\":15745:15773   */\n      and\n        /* \"#utility.yul\":15735:15773   */\n      swap1\n      pop\n        /* \"#utility.yul\":15677:15779   */\n      swap2\n      swap1\n      pop\n      jump\t// out\n        /* \"#utility.yul\":15785:16007   */\n    tag_240:\n        /* \"#utility.yul\":15925:15959   */\n      0x45524332303a207472616e7366657220746f20746865207a65726f2061646472\n        /* \"#utility.yul\":15921:15922   */\n      0x00\n        /* \"#utility.yul\":15913:15919   */\n      dup3\n        /* \"#utility.yul\":15909:15923   */\n      add\n        /* \"#utility.yul\":15902:15960   */\n      mstore\n        /* \"#utility.yul\":15994:15999   */\n      0x6573730000000000000000000000000000000000000000000000000000000000\n        /* \"#utility.yul\":15989:15991   */\n      0x20\n        /* \"#utility.yul\":15981:15987   */\n      dup3\n        /* \"#utility.yul\":15977:15992   */\n      add\n        /* \"#utility.yul\":15970:16000   */\n      mstore\n        /* \"#utility.yul\":15785:16007   */\n      pop\n      jump\t// out\n        /* \"#utility.yul\":16013:16234   */\n    tag_245:\n        /* \"#utility.yul\":16153:16187   */\n      0x45524332303a206275726e20616d6f756e7420657863656564732062616c616e\n        /* \"#utility.yul\":16149:16150   */\n      0x00\n        /* \"#utility.yul\":16141:16147   */\n      dup3\n        /* \"#utility.yul\":16137:16151   */\n      add\n        /* \"#utility.yul\":16130:16188   */\n      mstore\n        /* \"#utility.yul\":16222:16226   */\n      0x6365000000000000000000000000000000000000000000000000000000000000\n        /* \"#utility.yul\":16217:16219   */\n      0x20\n        /* \"#utility.yul\":16209:16215   */\n      dup3\n        /* \"#utility.yul\":16205:16220   */\n      add\n        /* \"#utility.yul\":16198:16227   */\n      mstore\n        /* \"#utility.yul\":16013:16234   */\n      pop\n      jump\t// out\n        /* \"#utility.yul\":16240:16461   */\n    tag_250:\n        /* \"#utility.yul\":16380:16414   */\n      0x45524332303a20617070726f766520746f20746865207a65726f206164647265\n        /* \"#utility.yul\":16376:16377   */\n      0x00\n        /* \"#utility.yul\":16368:16374   */\n      dup3\n        /* \"#utility.yul\":16364:16378   */\n      add\n        /* \"#utility.yul\":16357:16415   */\n      mstore\n        /* \"#utility.yul\":16449:16453   */\n      0x7373000000000000000000000000000000000000000000000000000000000000\n        /* \"#utility.yul\":16444:16446   */\n      0x20\n        /* \"#utility.yul\":16436:16442   */\n      dup3\n        /* \"#utility.yul\":16432:16447   */\n      add\n        /* \"#utility.yul\":16425:16454   */\n      mstore\n        /* \"#utility.yul\":16240:16461   */\n      pop\n      jump\t// out\n        /* \"#utility.yul\":16467:16646   */\n    tag_255:\n        /* \"#utility.yul\":16607:16638   */\n      0x45524332303a20696e73756666696369656e7420616c6c6f77616e6365000000\n        /* \"#utility.yul\":16603:16604   */\n      0x00\n        /* \"#utility.yul\":16595:16601   */\n      dup3\n        /* \"#utility.yul\":16591:16605   */\n      add\n        /* \"#utility.yul\":16584:16639   */\n      mstore\n        /* \"#utility.yul\":16467:16646   */\n      pop\n      jump\t// out\n        /* \"#utility.yul\":16652:16877   */\n    tag_260:\n        /* \"#utility.yul\":16792:16826   */\n      0x45524332303a207472616e7366657220616d6f756e7420657863656564732062\n        /* \"#utility.yul\":16788:16789   */\n      0x00\n        /* \"#utility.yul\":16780:16786   */\n      dup3\n        /* \"#utility.yul\":16776:16790   */\n      add\n        /* \"#utility.yul\":16769:16827   */\n      mstore\n        /* \"#utility.yul\":16861:16869   */\n      0x616c616e63650000000000000000000000000000000000000000000000000000\n        /* \"#utility.yul\":16856:16858   */\n      0x20\n        /* \"#utility.yul\":16848:16854   */\n      dup3\n        /* \"#utility.yul\":16844:16859   */\n      add\n        /* \"#utility.yul\":16837:16870   */\n      mstore\n        /* \"#utility.yul\":16652:16877   */\n      pop\n      jump\t// out\n        /* \"#utility.yul\":16883:17054   */\n    tag_265:\n        /* \"#utility.yul\":17023:17046   */\n      0x4f6e6c79206f776e657220686173206163636573730000000000000000000000\n        /* \"#utility.yul\":17019:17020   */\n      0x00\n        /* \"#utility.yul\":17011:17017   */\n      dup3\n        /* \"#utility.yul\":17007:17021   */\n      add\n        /* \"#utility.yul\":17000:17047   */\n      mstore\n        /* \"#utility.yul\":16883:17054   */\n      pop\n      jump\t// out\n        /* \"#utility.yul\":17060:17280   */\n    tag_270:\n        /* \"#utility.yul\":17200:17234   */\n      0x45524332303a206275726e2066726f6d20746865207a65726f20616464726573\n        /* \"#utility.yul\":17196:17197   */\n      0x00\n        /* \"#utility.yul\":17188:17194   */\n      dup3\n        /* \"#utility.yul\":17184:17198   */\n      add\n        /* \"#utility.yul\":17177:17235   */\n      mstore\n        /* \"#utility.yul\":17269:17272   */\n      0x7300000000000000000000000000000000000000000000000000000000000000\n        /* \"#utility.yul\":17264:17266   */\n      0x20\n        /* \"#utility.yul\":17256:17262   */\n      dup3\n        /* \"#utility.yul\":17252:17267   */\n      add\n        /* \"#utility.yul\":17245:17273   */\n      mstore\n        /* \"#utility.yul\":17060:17280   */\n      pop\n      jump\t// out\n        /* \"#utility.yul\":17286:17510   */\n    tag_275:\n        /* \"#utility.yul\":17426:17460   */\n      0x45524332303a207472616e736665722066726f6d20746865207a65726f206164\n        /* \"#utility.yul\":17422:17423   */\n      0x00\n        /* \"#utility.yul\":17414:17420   */\n      dup3\n        /* \"#utility.yul\":17410:17424   */\n      add\n        /* \"#utility.yul\":17403:17461   */\n      mstore\n        /* \"#utility.yul\":17495:17502   */\n      0x6472657373000000000000000000000000000000000000000000000000000000\n        /* \"#utility.yul\":17490:17492   */\n      0x20\n        /* \"#utility.yul\":17482:17488   */\n      dup3\n        /* \"#utility.yul\":17478:17493   */\n      add\n        /* \"#utility.yul\":17471:17503   */\n      mstore\n        /* \"#utility.yul\":17286:17510   */\n      pop\n      jump\t// out\n        /* \"#utility.yul\":17516:17739   */\n    tag_280:\n        /* \"#utility.yul\":17656:17690   */\n      0x45524332303a20617070726f76652066726f6d20746865207a65726f20616464\n        /* \"#utility.yul\":17652:17653   */\n      0x00\n        /* \"#utility.yul\":17644:17650   */\n      dup3\n        /* \"#utility.yul\":17640:17654   */\n      add\n        /* \"#utility.yul\":17633:17691   */\n      mstore\n        /* \"#utility.yul\":17725:17731   */\n      0x7265737300000000000000000000000000000000000000000000000000000000\n        /* \"#utility.yul\":17720:17722   */\n      0x20\n        /* \"#utility.yul\":17712:17718   */\n      dup3\n        /* \"#utility.yul\":17708:17723   */\n      add\n        /* \"#utility.yul\":17701:17732   */\n      mstore\n        /* \"#utility.yul\":17516:17739   */\n      pop\n      jump\t// out\n        /* \"#utility.yul\":17745:17969   */\n    tag_285:\n        /* \"#utility.yul\":17885:17919   */\n      0x45524332303a2064656372656173656420616c6c6f77616e63652062656c6f77\n        /* \"#utility.yul\":17881:17882   */\n      0x00\n        /* \"#utility.yul\":17873:17879   */\n      dup3\n        /* \"#utility.yul\":17869:17883   */\n      add\n        /* \"#utility.yul\":17862:17920   */\n      mstore\n        /* \"#utility.yul\":17954:17961   */\n      0x207a65726f000000000000000000000000000000000000000000000000000000\n        /* \"#utility.yul\":17949:17951   */\n      0x20\n        /* \"#utility.yul\":17941:17947   */\n      dup3\n        /* \"#utility.yul\":17937:17952   */\n      add\n        /* \"#utility.yul\":17930:17962   */\n      mstore\n        /* \"#utility.yul\":17745:17969   */\n      pop\n      jump\t// out\n        /* \"#utility.yul\":17975:18156   */\n    tag_290:\n        /* \"#utility.yul\":18115:18148   */\n      0x45524332303a206d696e7420746f20746865207a65726f206164647265737300\n        /* \"#utility.yul\":18111:18112   */\n      0x00\n        /* \"#utility.yul\":18103:18109   */\n      dup3\n        /* \"#utility.yul\":18099:18113   */\n      add\n        /* \"#utility.yul\":18092:18149   */\n      mstore\n        /* \"#utility.yul\":17975:18156   */\n      pop\n      jump\t// out\n        /* \"#utility.yul\":18162:18284   */\n    tag_192:\n        /* \"#utility.yul\":18235:18259   */\n      tag_381\n        /* \"#utility.yul\":18253:18258   */\n      dup2\n        /* \"#utility.yul\":18235:18259   */\n      tag_221\n      jump\t// in\n    tag_381:\n        /* \"#utility.yul\":18228:18233   */\n      dup2\n        /* \"#utility.yul\":18225:18260   */\n      eq\n        /* \"#utility.yul\":18215:18278   */\n      tag_382\n      jumpi\n        /* \"#utility.yul\":18274:18275   */\n      0x00\n        /* \"#utility.yul\":18271:18272   */\n      dup1\n        /* \"#utility.yul\":18264:18276   */\n      revert\n        /* \"#utility.yul\":18215:18278   */\n    tag_382:\n        /* \"#utility.yul\":18162:18284   */\n      pop\n      jump\t// out\n        /* \"#utility.yul\":18290:18412   */\n    tag_196:\n        /* \"#utility.yul\":18363:18387   */\n      tag_384\n        /* \"#utility.yul\":18381:18386   */\n      dup2\n        /* \"#utility.yul\":18363:18387   */\n      tag_294\n      jump\t// in\n    tag_384:\n        /* \"#utility.yul\":18356:18361   */\n      dup2\n        /* \"#utility.yul\":18353:18388   */\n      eq\n        /* \"#utility.yul\":18343:18406   */\n      tag_385\n      jumpi\n        /* \"#utility.yul\":18402:18403   */\n      0x00\n        /* \"#utility.yul\":18399:18400   */\n      dup1\n        /* \"#utility.yul\":18392:18404   */\n      revert\n        /* \"#utility.yul\":18343:18406   */\n    tag_385:\n        /* \"#utility.yul\":18290:18412   */\n      pop\n      jump\t// out\n\n    auxdata: 0xa2646970667358221220694315d3bb815af3df4ba732f8db4996cb5b4be42387341c1aaacce2659331d264736f6c63430008070033\n}\n",
				"bytecode": {
					"linkReferences": {},
					"object": "60806040526315fe7e406002553480156200001957600080fd5b5060405162001d6a38038062001d6a83398181016040528101906200003f9190620001e8565b816003908051906020019062000057929190620000ba565b50806004908051906020019062000070929190620000ba565b5033600560006101000a81548173ffffffffffffffffffffffffffffffffffffffff021916908373ffffffffffffffffffffffffffffffffffffffff1602179055505050620003f1565b828054620000c89062000302565b90600052602060002090601f016020900481019282620000ec576000855562000138565b82601f106200010757805160ff191683800117855562000138565b8280016001018555821562000138579182015b82811115620001375782518255916020019190600101906200011a565b5b5090506200014791906200014b565b5090565b5b80821115620001665760008160009055506001016200014c565b5090565b6000620001816200017b8462000296565b6200026d565b905082815260208101848484011115620001a0576200019f620003d1565b5b620001ad848285620002cc565b509392505050565b600082601f830112620001cd57620001cc620003cc565b5b8151620001df8482602086016200016a565b91505092915050565b60008060408385031215620002025762000201620003db565b5b600083015167ffffffffffffffff811115620002235762000222620003d6565b5b6200023185828601620001b5565b925050602083015167ffffffffffffffff811115620002555762000254620003d6565b5b6200026385828601620001b5565b9150509250929050565b6000620002796200028c565b905062000287828262000338565b919050565b6000604051905090565b600067ffffffffffffffff821115620002b457620002b36200039d565b5b620002bf82620003e0565b9050602081019050919050565b60005b83811015620002ec578082015181840152602081019050620002cf565b83811115620002fc576000848401525b50505050565b600060028204905060018216806200031b57607f821691505b602082108114156200033257620003316200036e565b5b50919050565b6200034382620003e0565b810181811067ffffffffffffffff821117156200036557620003646200039d565b5b80604052505050565b7f4e487b7100000000000000000000000000000000000000000000000000000000600052602260045260246000fd5b7f4e487b7100000000000000000000000000000000000000000000000000000000600052604160045260246000fd5b600080fd5b600080fd5b600080fd5b600080fd5b6000601f19601f8301169050919050565b61196980620004016000396000f3fe608060405234801561001057600080fd5b50600436106100ea5760003560e01c806370a082311161008c578063a9059cbb11610066578063a9059cbb14610273578063b4a99a4e146102a3578063cc16f5db146102c1578063dd62ed3e146102dd576100ea565b806370a08231146101f557806395d89b4114610225578063a457c2d714610243576100ea565b806318160ddd116100c857806318160ddd1461015957806323b872dd14610177578063313ce567146101a757806339509351146101c5576100ea565b806306fdde03146100ef578063095ea7b31461010d5780630f6798a51461013d575b600080fd5b6100f761030d565b6040516101049190611286565b60405180910390f35b6101276004803603810190610122919061101a565b61039f565b604051610134919061126b565b60405180910390f35b6101576004803603810190610152919061101a565b6103c2565b005b610161610467565b60405161016e9190611408565b60405180910390f35b610191600480360381019061018c9190610fc7565b610471565b60405161019e919061126b565b60405180910390f35b6101af6104a0565b6040516101bc9190611423565b60405180910390f35b6101df60048036038101906101da919061101a565b6104a9565b6040516101ec919061126b565b60405180910390f35b61020f600480360381019061020a9190610f5a565b6104e0565b60405161021c9190611408565b60405180910390f35b61022d610528565b60405161023a9190611286565b60405180910390f35b61025d6004803603810190610258919061101a565b6105ba565b60405161026a919061126b565b60405180910390f35b61028d6004803603810190610288919061101a565b610631565b60405161029a919061126b565b60405180910390f35b6102ab610654565b6040516102b89190611250565b60405180910390f35b6102db60048036038101906102d6919061101a565b61067a565b005b6102f760048036038101906102f29190610f87565b610688565b6040516103049190611408565b60405180910390f35b60606003805461031c9061156c565b80601f01602080910402602001604051908101604052809291908181526020018280546103489061156c565b80156103955780601f1061036a57610100808354040283529160200191610395565b820191906000526020600020905b81548152906001019060200180831161037857829003601f168201915b5050505050905090565b6000806103aa61070f565b90506103b7818585610717565b600191505092915050565b600560009054906101000a900473ffffffffffffffffffffffffffffffffffffffff1673ffffffffffffffffffffffffffffffffffffffff1661040361070f565b73ffffffffffffffffffffffffffffffffffffffff1614610459576040517f08c379a000000000000000000000000000000000000000000000000000000000815260040161045090611348565b60405180910390fd5b61046382826108e2565b5050565b6000600254905090565b60008061047c61070f565b9050610489858285610a42565b610494858585610ace565b60019150509392505050565b60006012905090565b6000806104b461070f565b90506104d58185856104c68589610688565b6104d0919061145a565b610717565b600191505092915050565b60008060008373ffffffffffffffffffffffffffffffffffffffff1673ffffffffffffffffffffffffffffffffffffffff168152602001908152602001600020549050919050565b6060600480546105379061156c565b80601f01602080910402602001604051908101604052809291908181526020018280546105639061156c565b80156105b05780601f10610585576101008083540402835291602001916105b0565b820191906000526020600020905b81548152906001019060200180831161059357829003601f168201915b5050505050905090565b6000806105c561070f565b905060006105d38286610688565b905083811015610618576040517f08c379a000000000000000000000000000000000000000000000000000000000815260040161060f906113c8565b60405180910390fd5b6106258286868403610717565b60019250505092915050565b60008061063c61070f565b9050610649818585610ace565b600191505092915050565b600560009054906101000a900473ffffffffffffffffffffffffffffffffffffffff1681565b6106848282610d4f565b5050565b6000600160008473ffffffffffffffffffffffffffffffffffffffff1673ffffffffffffffffffffffffffffffffffffffff16815260200190815260200160002060008373ffffffffffffffffffffffffffffffffffffffff1673ffffffffffffffffffffffffffffffffffffffff16815260200190815260200160002054905092915050565b600033905090565b600073ffffffffffffffffffffffffffffffffffffffff168373ffffffffffffffffffffffffffffffffffffffff161415610787576040517f08c379a000000000000000000000000000000000000000000000000000000000815260040161077e906113a8565b60405180910390fd5b600073ffffffffffffffffffffffffffffffffffffffff168273ffffffffffffffffffffffffffffffffffffffff1614156107f7576040517f08c379a00000000000000000000000000000000000000000000000000000000081526004016107ee906112e8565b60405180910390fd5b80600160008573ffffffffffffffffffffffffffffffffffffffff1673ffffffffffffffffffffffffffffffffffffffff16815260200190815260200160002060008473ffffffffffffffffffffffffffffffffffffffff1673ffffffffffffffffffffffffffffffffffffffff168152602001908152602001600020819055508173ffffffffffffffffffffffffffffffffffffffff168373ffffffffffffffffffffffffffffffffffffffff167f8c5be1e5ebec7d5bd14f71427d1e84f3dd0314c0f7b2291e5b200ac8c7c3b925836040516108d59190611408565b60405180910390a3505050565b600073ffffffffffffffffffffffffffffffffffffffff168273ffffffffffffffffffffffffffffffffffffffff161415610952576040517f08c379a0000000000000000000000000000000000000000000000000000000008152600401610949906113e8565b60405180910390fd5b61095e60008383610f26565b8060026000828254610970919061145a565b92505081905550806000808473ffffffffffffffffffffffffffffffffffffffff1673ffffffffffffffffffffffffffffffffffffffff16815260200190815260200160002060008282546109c5919061145a565b925050819055508173ffffffffffffffffffffffffffffffffffffffff16600073ffffffffffffffffffffffffffffffffffffffff167fddf252ad1be2c89b69c2b068fc378daa952ba7f163c4a11628f55a4df523b3ef83604051610a2a9190611408565b60405180910390a3610a3e60008383610f2b565b5050565b6000610a4e8484610688565b90507fffffffffffffffffffffffffffffffffffffffffffffffffffffffffffffffff8114610ac85781811015610aba576040517f08c379a0000000000000000000000000000000000000000000000000000000008152600401610ab190611308565b60405180910390fd5b610ac78484848403610717565b5b50505050565b600073ffffffffffffffffffffffffffffffffffffffff168373ffffffffffffffffffffffffffffffffffffffff161415610b3e576040517f08c379a0000000000000000000000000000000000000000000000000000000008152600401610b3590611388565b60405180910390fd5b600073ffffffffffffffffffffffffffffffffffffffff168273ffffffffffffffffffffffffffffffffffffffff161415610bae576040517f08c379a0000000000000000000000000000000000000000000000000000000008152600401610ba5906112a8565b60405180910390fd5b610bb9838383610f26565b60008060008573ffffffffffffffffffffffffffffffffffffffff1673ffffffffffffffffffffffffffffffffffffffff16815260200190815260200160002054905081811015610c3f576040517f08c379a0000000000000000000000000000000000000000000000000000000008152600401610c3690611328565b60405180910390fd5b8181036000808673ffffffffffffffffffffffffffffffffffffffff1673ffffffffffffffffffffffffffffffffffffffff16815260200190815260200160002081905550816000808573ffffffffffffffffffffffffffffffffffffffff1673ffffffffffffffffffffffffffffffffffffffff1681526020019081526020016000206000828254610cd2919061145a565b925050819055508273ffffffffffffffffffffffffffffffffffffffff168473ffffffffffffffffffffffffffffffffffffffff167fddf252ad1be2c89b69c2b068fc378daa952ba7f163c4a11628f55a4df523b3ef84604051610d369190611408565b60405180910390a3610d49848484610f2b565b50505050565b600073ffffffffffffffffffffffffffffffffffffffff168273ffffffffffffffffffffffffffffffffffffffff161415610dbf576040517f08c379a0000000000000000000000000000000000000000000000000000000008152600401610db690611368565b60405180910390fd5b610dcb82600083610f26565b60008060008473ffffffffffffffffffffffffffffffffffffffff1673ffffffffffffffffffffffffffffffffffffffff16815260200190815260200160002054905081811015610e51576040517f08c379a0000000000000000000000000000000000000000000000000000000008152600401610e48906112c8565b60405180910390fd5b8181036000808573ffffffffffffffffffffffffffffffffffffffff1673ffffffffffffffffffffffffffffffffffffffff168152602001908152602001600020819055508160026000828254610ea891906114b0565b92505081905550600073ffffffffffffffffffffffffffffffffffffffff168373ffffffffffffffffffffffffffffffffffffffff167fddf252ad1be2c89b69c2b068fc378daa952ba7f163c4a11628f55a4df523b3ef84604051610f0d9190611408565b60405180910390a3610f2183600084610f2b565b505050565b505050565b505050565b600081359050610f3f81611905565b92915050565b600081359050610f548161191c565b92915050565b600060208284031215610f7057610f6f6115fc565b5b6000610f7e84828501610f30565b91505092915050565b60008060408385031215610f9e57610f9d6115fc565b5b6000610fac85828601610f30565b9250506020610fbd85828601610f30565b9150509250929050565b600080600060608486031215610fe057610fdf6115fc565b5b6000610fee86828701610f30565b9350506020610fff86828701610f30565b925050604061101086828701610f45565b9150509250925092565b60008060408385031215611031576110306115fc565b5b600061103f85828601610f30565b925050602061105085828601610f45565b9150509250929050565b611063816114e4565b82525050565b611072816114f6565b82525050565b60006110838261143e565b61108d8185611449565b935061109d818560208601611539565b6110a681611601565b840191505092915050565b60006110be602383611449565b91506110c982611612565b604082019050919050565b60006110e1602283611449565b91506110ec82611661565b604082019050919050565b6000611104602283611449565b915061110f826116b0565b604082019050919050565b6000611127601d83611449565b9150611132826116ff565b602082019050919050565b600061114a602683611449565b915061115582611728565b604082019050919050565b600061116d601583611449565b915061117882611777565b602082019050919050565b6000611190602183611449565b915061119b826117a0565b604082019050919050565b60006111b3602583611449565b91506111be826117ef565b604082019050919050565b60006111d6602483611449565b91506111e18261183e565b604082019050919050565b60006111f9602583611449565b91506112048261188d565b604082019050919050565b600061121c601f83611449565b9150611227826118dc565b602082019050919050565b61123b81611522565b82525050565b61124a8161152c565b82525050565b6000602082019050611265600083018461105a565b92915050565b60006020820190506112806000830184611069565b92915050565b600060208201905081810360008301526112a08184611078565b905092915050565b600060208201905081810360008301526112c1816110b1565b9050919050565b600060208201905081810360008301526112e1816110d4565b9050919050565b60006020820190508181036000830152611301816110f7565b9050919050565b600060208201905081810360008301526113218161111a565b9050919050565b600060208201905081810360008301526113418161113d565b9050919050565b6000602082019050818103600083015261136181611160565b9050919050565b6000602082019050818103600083015261138181611183565b9050919050565b600060208201905081810360008301526113a1816111a6565b9050919050565b600060208201905081810360008301526113c1816111c9565b9050919050565b600060208201905081810360008301526113e1816111ec565b9050919050565b600060208201905081810360008301526114018161120f565b9050919050565b600060208201905061141d6000830184611232565b92915050565b60006020820190506114386000830184611241565b92915050565b600081519050919050565b600082825260208201905092915050565b600061146582611522565b915061147083611522565b9250827fffffffffffffffffffffffffffffffffffffffffffffffffffffffffffffffff038211156114a5576114a461159e565b5b828201905092915050565b60006114bb82611522565b91506114c683611522565b9250828210156114d9576114d861159e565b5b828203905092915050565b60006114ef82611502565b9050919050565b60008115159050919050565b600073ffffffffffffffffffffffffffffffffffffffff82169050919050565b6000819050919050565b600060ff82169050919050565b60005b8381101561155757808201518184015260208101905061153c565b83811115611566576000848401525b50505050565b6000600282049050600182168061158457607f821691505b60208210811415611598576115976115cd565b5b50919050565b7f4e487b7100000000000000000000000000000000000000000000000000000000600052601160045260246000fd5b7f4e487b7100000000000000000000000000000000000000000000000000000000600052602260045260246000fd5b600080fd5b6000601f19601f8301169050919050565b7f45524332303a207472616e7366657220746f20746865207a65726f206164647260008201527f6573730000000000000000000000000000000000000000000000000000000000602082015250565b7f45524332303a206275726e20616d6f756e7420657863656564732062616c616e60008201527f6365000000000000000000000000000000000000000000000000000000000000602082015250565b7f45524332303a20617070726f766520746f20746865207a65726f20616464726560008201527f7373000000000000000000000000000000000000000000000000000000000000602082015250565b7f45524332303a20696e73756666696369656e7420616c6c6f77616e6365000000600082015250565b7f45524332303a207472616e7366657220616d6f756e742065786365656473206260008201527f616c616e63650000000000000000000000000000000000000000000000000000602082015250565b7f4f6e6c79206f776e657220686173206163636573730000000000000000000000600082015250565b7f45524332303a206275726e2066726f6d20746865207a65726f2061646472657360008201527f7300000000000000000000000000000000000000000000000000000000000000602082015250565b7f45524332303a207472616e736665722066726f6d20746865207a65726f20616460008201527f6472657373000000000000000000000000000000000000000000000000000000602082015250565b7f45524332303a20617070726f76652066726f6d20746865207a65726f2061646460008201527f7265737300000000000000000000000000000000000000000000000000000000602082015250565b7f45524332303a2064656372656173656420616c6c6f77616e63652062656c6f7760008201527f207a65726f000000000000000000000000000000000000000000000000000000602082015250565b7f45524332303a206d696e7420746f20746865207a65726f206164647265737300600082015250565b61190e816114e4565b811461191957600080fd5b50565b61192581611522565b811461193057600080fd5b5056fea2646970667358221220694315d3bb815af3df4ba732f8db4996cb5b4be42387341c1aaacce2659331d264736f6c63430008070033",
					"opcodes": "PUSH1 0x80 PUSH1 0x40 MSTORE PUSH4 0x15FE7E40 PUSH1 0x2 SSTORE CALLVALUE DUP1 ISZERO PUSH3 0x19 JUMPI PUSH1 0x0 DUP1 REVERT JUMPDEST POP PUSH1 0x40 MLOAD PUSH3 0x1D6A CODESIZE SUB DUP1 PUSH3 0x1D6A DUP4 CODECOPY DUP2 DUP2 ADD PUSH1 0x40 MSTORE DUP2 ADD SWAP1 PUSH3 0x3F SWAP2 SWAP1 PUSH3 0x1E8 JUMP JUMPDEST DUP2 PUSH1 0x3 SWAP1 DUP1 MLOAD SWAP1 PUSH1 0x20 ADD SWAP1 PUSH3 0x57 SWAP3 SWAP2 SWAP1 PUSH3 0xBA JUMP JUMPDEST POP DUP1 PUSH1 0x4 SWAP1 DUP1 MLOAD SWAP1 PUSH1 0x20 ADD SWAP1 PUSH3 0x70 SWAP3 SWAP2 SWAP1 PUSH3 0xBA JUMP JUMPDEST POP CALLER PUSH1 0x5 PUSH1 0x0 PUSH2 0x100 EXP DUP2 SLOAD DUP2 PUSH20 0xFFFFFFFFFFFFFFFFFFFFFFFFFFFFFFFFFFFFFFFF MUL NOT AND SWAP1 DUP4 PUSH20 0xFFFFFFFFFFFFFFFFFFFFFFFFFFFFFFFFFFFFFFFF AND MUL OR SWAP1 SSTORE POP POP POP PUSH3 0x3F1 JUMP JUMPDEST DUP3 DUP1 SLOAD PUSH3 0xC8 SWAP1 PUSH3 0x302 JUMP JUMPDEST SWAP1 PUSH1 0x0 MSTORE PUSH1 0x20 PUSH1 0x0 KECCAK256 SWAP1 PUSH1 0x1F ADD PUSH1 0x20 SWAP1 DIV DUP2 ADD SWAP3 DUP3 PUSH3 0xEC JUMPI PUSH1 0x0 DUP6 SSTORE PUSH3 0x138 JUMP JUMPDEST DUP3 PUSH1 0x1F LT PUSH3 0x107 JUMPI DUP1 MLOAD PUSH1 0xFF NOT AND DUP4 DUP1 ADD OR DUP6 SSTORE PUSH3 0x138 JUMP JUMPDEST DUP3 DUP1 ADD PUSH1 0x1 ADD DUP6 SSTORE DUP3 ISZERO PUSH3 0x138 JUMPI SWAP2 DUP3 ADD JUMPDEST DUP3 DUP2 GT ISZERO PUSH3 0x137 JUMPI DUP3 MLOAD DUP3 SSTORE SWAP2 PUSH1 0x20 ADD SWAP2 SWAP1 PUSH1 0x1 ADD SWAP1 PUSH3 0x11A JUMP JUMPDEST JUMPDEST POP SWAP1 POP PUSH3 0x147 SWAP2 SWAP1 PUSH3 0x14B JUMP JUMPDEST POP SWAP1 JUMP JUMPDEST JUMPDEST DUP1 DUP3 GT ISZERO PUSH3 0x166 JUMPI PUSH1 0x0 DUP2 PUSH1 0x0 SWAP1 SSTORE POP PUSH1 0x1 ADD PUSH3 0x14C JUMP JUMPDEST POP SWAP1 JUMP JUMPDEST PUSH1 0x0 PUSH3 0x181 PUSH3 0x17B DUP5 PUSH3 0x296 JUMP JUMPDEST PUSH3 0x26D JUMP JUMPDEST SWAP1 POP DUP3 DUP2 MSTORE PUSH1 0x20 DUP2 ADD DUP5 DUP5 DUP5 ADD GT ISZERO PUSH3 0x1A0 JUMPI PUSH3 0x19F PUSH3 0x3D1 JUMP JUMPDEST JUMPDEST PUSH3 0x1AD DUP5 DUP3 DUP6 PUSH3 0x2CC JUMP JUMPDEST POP SWAP4 SWAP3 POP POP POP JUMP JUMPDEST PUSH1 0x0 DUP3 PUSH1 0x1F DUP4 ADD SLT PUSH3 0x1CD JUMPI PUSH3 0x1CC PUSH3 0x3CC JUMP JUMPDEST JUMPDEST DUP2 MLOAD PUSH3 0x1DF DUP5 DUP3 PUSH1 0x20 DUP7 ADD PUSH3 0x16A JUMP JUMPDEST SWAP2 POP POP SWAP3 SWAP2 POP POP JUMP JUMPDEST PUSH1 0x0 DUP1 PUSH1 0x40 DUP4 DUP6 SUB SLT ISZERO PUSH3 0x202 JUMPI PUSH3 0x201 PUSH3 0x3DB JUMP JUMPDEST JUMPDEST PUSH1 0x0 DUP4 ADD MLOAD PUSH8 0xFFFFFFFFFFFFFFFF DUP2 GT ISZERO PUSH3 0x223 JUMPI PUSH3 0x222 PUSH3 0x3D6 JUMP JUMPDEST JUMPDEST PUSH3 0x231 DUP6 DUP3 DUP7 ADD PUSH3 0x1B5 JUMP JUMPDEST SWAP3 POP POP PUSH1 0x20 DUP4 ADD MLOAD PUSH8 0xFFFFFFFFFFFFFFFF DUP2 GT ISZERO PUSH3 0x255 JUMPI PUSH3 0x254 PUSH3 0x3D6 JUMP JUMPDEST JUMPDEST PUSH3 0x263 DUP6 DUP3 DUP7 ADD PUSH3 0x1B5 JUMP JUMPDEST SWAP2 POP POP SWAP3 POP SWAP3 SWAP1 POP JUMP JUMPDEST PUSH1 0x0 PUSH3 0x279 PUSH3 0x28C JUMP JUMPDEST SWAP1 POP PUSH3 0x287 DUP3 DUP3 PUSH3 0x338 JUMP JUMPDEST SWAP2 SWAP1 POP JUMP JUMPDEST PUSH1 0x0 PUSH1 0x40 MLOAD SWAP1 POP SWAP1 JUMP JUMPDEST PUSH1 0x0 PUSH8 0xFFFFFFFFFFFFFFFF DUP3 GT ISZERO PUSH3 0x2B4 JUMPI PUSH3 0x2B3 PUSH3 0x39D JUMP JUMPDEST JUMPDEST PUSH3 0x2BF DUP3 PUSH3 0x3E0 JUMP JUMPDEST SWAP1 POP PUSH1 0x20 DUP2 ADD SWAP1 POP SWAP2 SWAP1 POP JUMP JUMPDEST PUSH1 0x0 JUMPDEST DUP4 DUP2 LT ISZERO PUSH3 0x2EC JUMPI DUP1 DUP3 ADD MLOAD DUP2 DUP5 ADD MSTORE PUSH1 0x20 DUP2 ADD SWAP1 POP PUSH3 0x2CF JUMP JUMPDEST DUP4 DUP2 GT ISZERO PUSH3 0x2FC JUMPI PUSH1 0x0 DUP5 DUP5 ADD MSTORE JUMPDEST POP POP POP POP JUMP JUMPDEST PUSH1 0x0 PUSH1 0x2 DUP3 DIV SWAP1 POP PUSH1 0x1 DUP3 AND DUP1 PUSH3 0x31B JUMPI PUSH1 0x7F DUP3 AND SWAP2 POP JUMPDEST PUSH1 0x20 DUP3 LT DUP2 EQ ISZERO PUSH3 0x332 JUMPI PUSH3 0x331 PUSH3 0x36E JUMP JUMPDEST JUMPDEST POP SWAP2 SWAP1 POP JUMP JUMPDEST PUSH3 0x343 DUP3 PUSH3 0x3E0 JUMP JUMPDEST DUP2 ADD DUP2 DUP2 LT PUSH8 0xFFFFFFFFFFFFFFFF DUP3 GT OR ISZERO PUSH3 0x365 JUMPI PUSH3 0x364 PUSH3 0x39D JUMP JUMPDEST JUMPDEST DUP1 PUSH1 0x40 MSTORE POP POP POP JUMP JUMPDEST PUSH32 0x4E487B7100000000000000000000000000000000000000000000000000000000 PUSH1 0x0 MSTORE PUSH1 0x22 PUSH1 0x4 MSTORE PUSH1 0x24 PUSH1 0x0 REVERT JUMPDEST PUSH32 0x4E487B7100000000000000000000000000000000000000000000000000000000 PUSH1 0x0 MSTORE PUSH1 0x41 PUSH1 0x4 MSTORE PUSH1 0x24 PUSH1 0x0 REVERT JUMPDEST PUSH1 0x0 DUP1 REVERT JUMPDEST PUSH1 0x0 DUP1 REVERT JUMPDEST PUSH1 0x0 DUP1 REVERT JUMPDEST PUSH1 0x0 DUP1 REVERT JUMPDEST PUSH1 0x0 PUSH1 0x1F NOT PUSH1 0x1F DUP4 ADD AND SWAP1 POP SWAP2 SWAP1 POP JUMP JUMPDEST PUSH2 0x1969 DUP1 PUSH3 0x401 PUSH1 0x0 CODECOPY PUSH1 0x0 RETURN INVALID PUSH1 0x80 PUSH1 0x40 MSTORE CALLVALUE DUP1 ISZERO PUSH2 0x10 JUMPI PUSH1 0x0 DUP1 REVERT JUMPDEST POP PUSH1 0x4 CALLDATASIZE LT PUSH2 0xEA JUMPI PUSH1 0x0 CALLDATALOAD PUSH1 0xE0 SHR DUP1 PUSH4 0x70A08231 GT PUSH2 0x8C JUMPI DUP1 PUSH4 0xA9059CBB GT PUSH2 0x66 JUMPI DUP1 PUSH4 0xA9059CBB EQ PUSH2 0x273 JUMPI DUP1 PUSH4 0xB4A99A4E EQ PUSH2 0x2A3 JUMPI DUP1 PUSH4 0xCC16F5DB EQ PUSH2 0x2C1 JUMPI DUP1 PUSH4 0xDD62ED3E EQ PUSH2 0x2DD JUMPI PUSH2 0xEA JUMP JUMPDEST DUP1 PUSH4 0x70A08231 EQ PUSH2 0x1F5 JUMPI DUP1 PUSH4 0x95D89B41 EQ PUSH2 0x225 JUMPI DUP1 PUSH4 0xA457C2D7 EQ PUSH2 0x243 JUMPI PUSH2 0xEA JUMP JUMPDEST DUP1 PUSH4 0x18160DDD GT PUSH2 0xC8 JUMPI DUP1 PUSH4 0x18160DDD EQ PUSH2 0x159 JUMPI DUP1 PUSH4 0x23B872DD EQ PUSH2 0x177 JUMPI DUP1 PUSH4 0x313CE567 EQ PUSH2 0x1A7 JUMPI DUP1 PUSH4 0x39509351 EQ PUSH2 0x1C5 JUMPI PUSH2 0xEA JUMP JUMPDEST DUP1 PUSH4 0x6FDDE03 EQ PUSH2 0xEF JUMPI DUP1 PUSH4 0x95EA7B3 EQ PUSH2 0x10D JUMPI DUP1 PUSH4 0xF6798A5 EQ PUSH2 0x13D JUMPI JUMPDEST PUSH1 0x0 DUP1 REVERT JUMPDEST PUSH2 0xF7 PUSH2 0x30D JUMP JUMPDEST PUSH1 0x40 MLOAD PUSH2 0x104 SWAP2 SWAP1 PUSH2 0x1286 JUMP JUMPDEST PUSH1 0x40 MLOAD DUP1 SWAP2 SUB SWAP1 RETURN JUMPDEST PUSH2 0x127 PUSH1 0x4 DUP1 CALLDATASIZE SUB DUP2 ADD SWAP1 PUSH2 0x122 SWAP2 SWAP1 PUSH2 0x101A JUMP JUMPDEST PUSH2 0x39F JUMP JUMPDEST PUSH1 0x40 MLOAD PUSH2 0x134 SWAP2 SWAP1 PUSH2 0x126B JUMP JUMPDEST PUSH1 0x40 MLOAD DUP1 SWAP2 SUB SWAP1 RETURN JUMPDEST PUSH2 0x157 PUSH1 0x4 DUP1 CALLDATASIZE SUB DUP2 ADD SWAP1 PUSH2 0x152 SWAP2 SWAP1 PUSH2 0x101A JUMP JUMPDEST PUSH2 0x3C2 JUMP JUMPDEST STOP JUMPDEST PUSH2 0x161 PUSH2 0x467 JUMP JUMPDEST PUSH1 0x40 MLOAD PUSH2 0x16E SWAP2 SWAP1 PUSH2 0x1408 JUMP JUMPDEST PUSH1 0x40 MLOAD DUP1 SWAP2 SUB SWAP1 RETURN JUMPDEST PUSH2 0x191 PUSH1 0x4 DUP1 CALLDATASIZE SUB DUP2 ADD SWAP1 PUSH2 0x18C SWAP2 SWAP1 PUSH2 0xFC7 JUMP JUMPDEST PUSH2 0x471 JUMP JUMPDEST PUSH1 0x40 MLOAD PUSH2 0x19E SWAP2 SWAP1 PUSH2 0x126B JUMP JUMPDEST PUSH1 0x40 MLOAD DUP1 SWAP2 SUB SWAP1 RETURN JUMPDEST PUSH2 0x1AF PUSH2 0x4A0 JUMP JUMPDEST PUSH1 0x40 MLOAD PUSH2 0x1BC SWAP2 SWAP1 PUSH2 0x1423 JUMP JUMPDEST PUSH1 0x40 MLOAD DUP1 SWAP2 SUB SWAP1 RETURN JUMPDEST PUSH2 0x1DF PUSH1 0x4 DUP1 CALLDATASIZE SUB DUP2 ADD SWAP1 PUSH2 0x1DA SWAP2 SWAP1 PUSH2 0x101A JUMP JUMPDEST PUSH2 0x4A9 JUMP JUMPDEST PUSH1 0x40 MLOAD PUSH2 0x1EC SWAP2 SWAP1 PUSH2 0x126B JUMP JUMPDEST PUSH1 0x40 MLOAD DUP1 SWAP2 SUB SWAP1 RETURN JUMPDEST PUSH2 0x20F PUSH1 0x4 DUP1 CALLDATASIZE SUB DUP2 ADD SWAP1 PUSH2 0x20A SWAP2 SWAP1 PUSH2 0xF5A JUMP JUMPDEST PUSH2 0x4E0 JUMP JUMPDEST PUSH1 0x40 MLOAD PUSH2 0x21C SWAP2 SWAP1 PUSH2 0x1408 JUMP JUMPDEST PUSH1 0x40 MLOAD DUP1 SWAP2 SUB SWAP1 RETURN JUMPDEST PUSH2 0x22D PUSH2 0x528 JUMP JUMPDEST PUSH1 0x40 MLOAD PUSH2 0x23A SWAP2 SWAP1 PUSH2 0x1286 JUMP JUMPDEST PUSH1 0x40 MLOAD DUP1 SWAP2 SUB SWAP1 RETURN JUMPDEST PUSH2 0x25D PUSH1 0x4 DUP1 CALLDATASIZE SUB DUP2 ADD SWAP1 PUSH2 0x258 SWAP2 SWAP1 PUSH2 0x101A JUMP JUMPDEST PUSH2 0x5BA JUMP JUMPDEST PUSH1 0x40 MLOAD PUSH2 0x26A SWAP2 SWAP1 PUSH2 0x126B JUMP JUMPDEST PUSH1 0x40 MLOAD DUP1 SWAP2 SUB SWAP1 RETURN JUMPDEST PUSH2 0x28D PUSH1 0x4 DUP1 CALLDATASIZE SUB DUP2 ADD SWAP1 PUSH2 0x288 SWAP2 SWAP1 PUSH2 0x101A JUMP JUMPDEST PUSH2 0x631 JUMP JUMPDEST PUSH1 0x40 MLOAD PUSH2 0x29A SWAP2 SWAP1 PUSH2 0x126B JUMP JUMPDEST PUSH1 0x40 MLOAD DUP1 SWAP2 SUB SWAP1 RETURN JUMPDEST PUSH2 0x2AB PUSH2 0x654 JUMP JUMPDEST PUSH1 0x40 MLOAD PUSH2 0x2B8 SWAP2 SWAP1 PUSH2 0x1250 JUMP JUMPDEST PUSH1 0x40 MLOAD DUP1 SWAP2 SUB SWAP1 RETURN JUMPDEST PUSH2 0x2DB PUSH1 0x4 DUP1 CALLDATASIZE SUB DUP2 ADD SWAP1 PUSH2 0x2D6 SWAP2 SWAP1 PUSH2 0x101A JUMP JUMPDEST PUSH2 0x67A JUMP JUMPDEST STOP JUMPDEST PUSH2 0x2F7 PUSH1 0x4 DUP1 CALLDATASIZE SUB DUP2 ADD SWAP1 PUSH2 0x2F2 SWAP2 SWAP1 PUSH2 0xF87 JUMP JUMPDEST PUSH2 0x688 JUMP JUMPDEST PUSH1 0x40 MLOAD PUSH2 0x304 SWAP2 SWAP1 PUSH2 0x1408 JUMP JUMPDEST PUSH1 0x40 MLOAD DUP1 SWAP2 SUB SWAP1 RETURN JUMPDEST PUSH1 0x60 PUSH1 0x3 DUP1 SLOAD PUSH2 0x31C SWAP1 PUSH2 0x156C JUMP JUMPDEST DUP1 PUSH1 0x1F ADD PUSH1 0x20 DUP1 SWAP2 DIV MUL PUSH1 0x20 ADD PUSH1 0x40 MLOAD SWAP1 DUP2 ADD PUSH1 0x40 MSTORE DUP1 SWAP3 SWAP2 SWAP1 DUP2 DUP2 MSTORE PUSH1 0x20 ADD DUP3 DUP1 SLOAD PUSH2 0x348 SWAP1 PUSH2 0x156C JUMP JUMPDEST DUP1 ISZERO PUSH2 0x395 JUMPI DUP1 PUSH1 0x1F LT PUSH2 0x36A JUMPI PUSH2 0x100 DUP1 DUP4 SLOAD DIV MUL DUP4 MSTORE SWAP2 PUSH1 0x20 ADD SWAP2 PUSH2 0x395 JUMP JUMPDEST DUP3 ADD SWAP2 SWAP1 PUSH1 0x0 MSTORE PUSH1 0x20 PUSH1 0x0 KECCAK256 SWAP1 JUMPDEST DUP2 SLOAD DUP2 MSTORE SWAP1 PUSH1 0x1 ADD SWAP1 PUSH1 0x20 ADD DUP1 DUP4 GT PUSH2 0x378 JUMPI DUP3 SWAP1 SUB PUSH1 0x1F AND DUP3 ADD SWAP2 JUMPDEST POP POP POP POP POP SWAP1 POP SWAP1 JUMP JUMPDEST PUSH1 0x0 DUP1 PUSH2 0x3AA PUSH2 0x70F JUMP JUMPDEST SWAP1 POP PUSH2 0x3B7 DUP2 DUP6 DUP6 PUSH2 0x717 JUMP JUMPDEST PUSH1 0x1 SWAP2 POP POP SWAP3 SWAP2 POP POP JUMP JUMPDEST PUSH1 0x5 PUSH1 0x0 SWAP1 SLOAD SWAP1 PUSH2 0x100 EXP SWAP1 DIV PUSH20 0xFFFFFFFFFFFFFFFFFFFFFFFFFFFFFFFFFFFFFFFF AND PUSH20 0xFFFFFFFFFFFFFFFFFFFFFFFFFFFFFFFFFFFFFFFF AND PUSH2 0x403 PUSH2 0x70F JUMP JUMPDEST PUSH20 0xFFFFFFFFFFFFFFFFFFFFFFFFFFFFFFFFFFFFFFFF AND EQ PUSH2 0x459 JUMPI PUSH1 0x40 MLOAD PUSH32 0x8C379A000000000000000000000000000000000000000000000000000000000 DUP2 MSTORE PUSH1 0x4 ADD PUSH2 0x450 SWAP1 PUSH2 0x1348 JUMP JUMPDEST PUSH1 0x40 MLOAD DUP1 SWAP2 SUB SWAP1 REVERT JUMPDEST PUSH2 0x463 DUP3 DUP3 PUSH2 0x8E2 JUMP JUMPDEST POP POP JUMP JUMPDEST PUSH1 0x0 PUSH1 0x2 SLOAD SWAP1 POP SWAP1 JUMP JUMPDEST PUSH1 0x0 DUP1 PUSH2 0x47C PUSH2 0x70F JUMP JUMPDEST SWAP1 POP PUSH2 0x489 DUP6 DUP3 DUP6 PUSH2 0xA42 JUMP JUMPDEST PUSH2 0x494 DUP6 DUP6 DUP6 PUSH2 0xACE JUMP JUMPDEST PUSH1 0x1 SWAP2 POP POP SWAP4 SWAP3 POP POP POP JUMP JUMPDEST PUSH1 0x0 PUSH1 0x12 SWAP1 POP SWAP1 JUMP JUMPDEST PUSH1 0x0 DUP1 PUSH2 0x4B4 PUSH2 0x70F JUMP JUMPDEST SWAP1 POP PUSH2 0x4D5 DUP2 DUP6 DUP6 PUSH2 0x4C6 DUP6 DUP10 PUSH2 0x688 JUMP JUMPDEST PUSH2 0x4D0 SWAP2 SWAP1 PUSH2 0x145A JUMP JUMPDEST PUSH2 0x717 JUMP JUMPDEST PUSH1 0x1 SWAP2 POP POP SWAP3 SWAP2 POP POP JUMP JUMPDEST PUSH1 0x0 DUP1 PUSH1 0x0 DUP4 PUSH20 0xFFFFFFFFFFFFFFFFFFFFFFFFFFFFFFFFFFFFFFFF AND PUSH20 0xFFFFFFFFFFFFFFFFFFFFFFFFFFFFFFFFFFFFFFFF AND DUP2 MSTORE PUSH1 0x20 ADD SWAP1 DUP2 MSTORE PUSH1 0x20 ADD PUSH1 0x0 KECCAK256 SLOAD SWAP1 POP SWAP2 SWAP1 POP JUMP JUMPDEST PUSH1 0x60 PUSH1 0x4 DUP1 SLOAD PUSH2 0x537 SWAP1 PUSH2 0x156C JUMP JUMPDEST DUP1 PUSH1 0x1F ADD PUSH1 0x20 DUP1 SWAP2 DIV MUL PUSH1 0x20 ADD PUSH1 0x40 MLOAD SWAP1 DUP2 ADD PUSH1 0x40 MSTORE DUP1 SWAP3 SWAP2 SWAP1 DUP2 DUP2 MSTORE PUSH1 0x20 ADD DUP3 DUP1 SLOAD PUSH2 0x563 SWAP1 PUSH2 0x156C JUMP JUMPDEST DUP1 ISZERO PUSH2 0x5B0 JUMPI DUP1 PUSH1 0x1F LT PUSH2 0x585 JUMPI PUSH2 0x100 DUP1 DUP4 SLOAD DIV MUL DUP4 MSTORE SWAP2 PUSH1 0x20 ADD SWAP2 PUSH2 0x5B0 JUMP JUMPDEST DUP3 ADD SWAP2 SWAP1 PUSH1 0x0 MSTORE PUSH1 0x20 PUSH1 0x0 KECCAK256 SWAP1 JUMPDEST DUP2 SLOAD DUP2 MSTORE SWAP1 PUSH1 0x1 ADD SWAP1 PUSH1 0x20 ADD DUP1 DUP4 GT PUSH2 0x593 JUMPI DUP3 SWAP1 SUB PUSH1 0x1F AND DUP3 ADD SWAP2 JUMPDEST POP POP POP POP POP SWAP1 POP SWAP1 JUMP JUMPDEST PUSH1 0x0 DUP1 PUSH2 0x5C5 PUSH2 0x70F JUMP JUMPDEST SWAP1 POP PUSH1 0x0 PUSH2 0x5D3 DUP3 DUP7 PUSH2 0x688 JUMP JUMPDEST SWAP1 POP DUP4 DUP2 LT ISZERO PUSH2 0x618 JUMPI PUSH1 0x40 MLOAD PUSH32 0x8C379A000000000000000000000000000000000000000000000000000000000 DUP2 MSTORE PUSH1 0x4 ADD PUSH2 0x60F SWAP1 PUSH2 0x13C8 JUMP JUMPDEST PUSH1 0x40 MLOAD DUP1 SWAP2 SUB SWAP1 REVERT JUMPDEST PUSH2 0x625 DUP3 DUP7 DUP7 DUP5 SUB PUSH2 0x717 JUMP JUMPDEST PUSH1 0x1 SWAP3 POP POP POP SWAP3 SWAP2 POP POP JUMP JUMPDEST PUSH1 0x0 DUP1 PUSH2 0x63C PUSH2 0x70F JUMP JUMPDEST SWAP1 POP PUSH2 0x649 DUP2 DUP6 DUP6 PUSH2 0xACE JUMP JUMPDEST PUSH1 0x1 SWAP2 POP POP SWAP3 SWAP2 POP POP JUMP JUMPDEST PUSH1 0x5 PUSH1 0x0 SWAP1 SLOAD SWAP1 PUSH2 0x100 EXP SWAP1 DIV PUSH20 0xFFFFFFFFFFFFFFFFFFFFFFFFFFFFFFFFFFFFFFFF AND DUP2 JUMP JUMPDEST PUSH2 0x684 DUP3 DUP3 PUSH2 0xD4F JUMP JUMPDEST POP POP JUMP JUMPDEST PUSH1 0x0 PUSH1 0x1 PUSH1 0x0 DUP5 PUSH20 0xFFFFFFFFFFFFFFFFFFFFFFFFFFFFFFFFFFFFFFFF AND PUSH20 0xFFFFFFFFFFFFFFFFFFFFFFFFFFFFFFFFFFFFFFFF AND DUP2 MSTORE PUSH1 0x20 ADD SWAP1 DUP2 MSTORE PUSH1 0x20 ADD PUSH1 0x0 KECCAK256 PUSH1 0x0 DUP4 PUSH20 0xFFFFFFFFFFFFFFFFFFFFFFFFFFFFFFFFFFFFFFFF AND PUSH20 0xFFFFFFFFFFFFFFFFFFFFFFFFFFFFFFFFFFFFFFFF AND DUP2 MSTORE PUSH1 0x20 ADD SWAP1 DUP2 MSTORE PUSH1 0x20 ADD PUSH1 0x0 KECCAK256 SLOAD SWAP1 POP SWAP3 SWAP2 POP POP JUMP JUMPDEST PUSH1 0x0 CALLER SWAP1 POP SWAP1 JUMP JUMPDEST PUSH1 0x0 PUSH20 0xFFFFFFFFFFFFFFFFFFFFFFFFFFFFFFFFFFFFFFFF AND DUP4 PUSH20 0xFFFFFFFFFFFFFFFFFFFFFFFFFFFFFFFFFFFFFFFF AND EQ ISZERO PUSH2 0x787 JUMPI PUSH1 0x40 MLOAD PUSH32 0x8C379A000000000000000000000000000000000000000000000000000000000 DUP2 MSTORE PUSH1 0x4 ADD PUSH2 0x77E SWAP1 PUSH2 0x13A8 JUMP JUMPDEST PUSH1 0x40 MLOAD DUP1 SWAP2 SUB SWAP1 REVERT JUMPDEST PUSH1 0x0 PUSH20 0xFFFFFFFFFFFFFFFFFFFFFFFFFFFFFFFFFFFFFFFF AND DUP3 PUSH20 0xFFFFFFFFFFFFFFFFFFFFFFFFFFFFFFFFFFFFFFFF AND EQ ISZERO PUSH2 0x7F7 JUMPI PUSH1 0x40 MLOAD PUSH32 0x8C379A000000000000000000000000000000000000000000000000000000000 DUP2 MSTORE PUSH1 0x4 ADD PUSH2 0x7EE SWAP1 PUSH2 0x12E8 JUMP JUMPDEST PUSH1 0x40 MLOAD DUP1 SWAP2 SUB SWAP1 REVERT JUMPDEST DUP1 PUSH1 0x1 PUSH1 0x0 DUP6 PUSH20 0xFFFFFFFFFFFFFFFFFFFFFFFFFFFFFFFFFFFFFFFF AND PUSH20 0xFFFFFFFFFFFFFFFFFFFFFFFFFFFFFFFFFFFFFFFF AND DUP2 MSTORE PUSH1 0x20 ADD SWAP1 DUP2 MSTORE PUSH1 0x20 ADD PUSH1 0x0 KECCAK256 PUSH1 0x0 DUP5 PUSH20 0xFFFFFFFFFFFFFFFFFFFFFFFFFFFFFFFFFFFFFFFF AND PUSH20 0xFFFFFFFFFFFFFFFFFFFFFFFFFFFFFFFFFFFFFFFF AND DUP2 MSTORE PUSH1 0x20 ADD SWAP1 DUP2 MSTORE PUSH1 0x20 ADD PUSH1 0x0 KECCAK256 DUP2 SWAP1 SSTORE POP DUP2 PUSH20 0xFFFFFFFFFFFFFFFFFFFFFFFFFFFFFFFFFFFFFFFF AND DUP4 PUSH20 0xFFFFFFFFFFFFFFFFFFFFFFFFFFFFFFFFFFFFFFFF AND PUSH32 0x8C5BE1E5EBEC7D5BD14F71427D1E84F3DD0314C0F7B2291E5B200AC8C7C3B925 DUP4 PUSH1 0x40 MLOAD PUSH2 0x8D5 SWAP2 SWAP1 PUSH2 0x1408 JUMP JUMPDEST PUSH1 0x40 MLOAD DUP1 SWAP2 SUB SWAP1 LOG3 POP POP POP JUMP JUMPDEST PUSH1 0x0 PUSH20 0xFFFFFFFFFFFFFFFFFFFFFFFFFFFFFFFFFFFFFFFF AND DUP3 PUSH20 0xFFFFFFFFFFFFFFFFFFFFFFFFFFFFFFFFFFFFFFFF AND EQ ISZERO PUSH2 0x952 JUMPI PUSH1 0x40 MLOAD PUSH32 0x8C379A000000000000000000000000000000000000000000000000000000000 DUP2 MSTORE PUSH1 0x4 ADD PUSH2 0x949 SWAP1 PUSH2 0x13E8 JUMP JUMPDEST PUSH1 0x40 MLOAD DUP1 SWAP2 SUB SWAP1 REVERT JUMPDEST PUSH2 0x95E PUSH1 0x0 DUP4 DUP4 PUSH2 0xF26 JUMP JUMPDEST DUP1 PUSH1 0x2 PUSH1 0x0 DUP3 DUP3 SLOAD PUSH2 0x970 SWAP2 SWAP1 PUSH2 0x145A JUMP JUMPDEST SWAP3 POP POP DUP2 SWAP1 SSTORE POP DUP1 PUSH1 0x0 DUP1 DUP5 PUSH20 0xFFFFFFFFFFFFFFFFFFFFFFFFFFFFFFFFFFFFFFFF AND PUSH20 0xFFFFFFFFFFFFFFFFFFFFFFFFFFFFFFFFFFFFFFFF AND DUP2 MSTORE PUSH1 0x20 ADD SWAP1 DUP2 MSTORE PUSH1 0x20 ADD PUSH1 0x0 KECCAK256 PUSH1 0x0 DUP3 DUP3 SLOAD PUSH2 0x9C5 SWAP2 SWAP1 PUSH2 0x145A JUMP JUMPDEST SWAP3 POP POP DUP2 SWAP1 SSTORE POP DUP2 PUSH20 0xFFFFFFFFFFFFFFFFFFFFFFFFFFFFFFFFFFFFFFFF AND PUSH1 0x0 PUSH20 0xFFFFFFFFFFFFFFFFFFFFFFFFFFFFFFFFFFFFFFFF AND PUSH32 0xDDF252AD1BE2C89B69C2B068FC378DAA952BA7F163C4A11628F55A4DF523B3EF DUP4 PUSH1 0x40 MLOAD PUSH2 0xA2A SWAP2 SWAP1 PUSH2 0x1408 JUMP JUMPDEST PUSH1 0x40 MLOAD DUP1 SWAP2 SUB SWAP1 LOG3 PUSH2 0xA3E PUSH1 0x0 DUP4 DUP4 PUSH2 0xF2B JUMP JUMPDEST POP POP JUMP JUMPDEST PUSH1 0x0 PUSH2 0xA4E DUP5 DUP5 PUSH2 0x688 JUMP JUMPDEST SWAP1 POP PUSH32 0xFFFFFFFFFFFFFFFFFFFFFFFFFFFFFFFFFFFFFFFFFFFFFFFFFFFFFFFFFFFFFFFF DUP2 EQ PUSH2 0xAC8 JUMPI DUP2 DUP2 LT ISZERO PUSH2 0xABA JUMPI PUSH1 0x40 MLOAD PUSH32 0x8C379A000000000000000000000000000000000000000000000000000000000 DUP2 MSTORE PUSH1 0x4 ADD PUSH2 0xAB1 SWAP1 PUSH2 0x1308 JUMP JUMPDEST PUSH1 0x40 MLOAD DUP1 SWAP2 SUB SWAP1 REVERT JUMPDEST PUSH2 0xAC7 DUP5 DUP5 DUP5 DUP5 SUB PUSH2 0x717 JUMP JUMPDEST JUMPDEST POP POP POP POP JUMP JUMPDEST PUSH1 0x0 PUSH20 0xFFFFFFFFFFFFFFFFFFFFFFFFFFFFFFFFFFFFFFFF AND DUP4 PUSH20 0xFFFFFFFFFFFFFFFFFFFFFFFFFFFFFFFFFFFFFFFF AND EQ ISZERO PUSH2 0xB3E JUMPI PUSH1 0x40 MLOAD PUSH32 0x8C379A000000000000000000000000000000000000000000000000000000000 DUP2 MSTORE PUSH1 0x4 ADD PUSH2 0xB35 SWAP1 PUSH2 0x1388 JUMP JUMPDEST PUSH1 0x40 MLOAD DUP1 SWAP2 SUB SWAP1 REVERT JUMPDEST PUSH1 0x0 PUSH20 0xFFFFFFFFFFFFFFFFFFFFFFFFFFFFFFFFFFFFFFFF AND DUP3 PUSH20 0xFFFFFFFFFFFFFFFFFFFFFFFFFFFFFFFFFFFFFFFF AND EQ ISZERO PUSH2 0xBAE JUMPI PUSH1 0x40 MLOAD PUSH32 0x8C379A000000000000000000000000000000000000000000000000000000000 DUP2 MSTORE PUSH1 0x4 ADD PUSH2 0xBA5 SWAP1 PUSH2 0x12A8 JUMP JUMPDEST PUSH1 0x40 MLOAD DUP1 SWAP2 SUB SWAP1 REVERT JUMPDEST PUSH2 0xBB9 DUP4 DUP4 DUP4 PUSH2 0xF26 JUMP JUMPDEST PUSH1 0x0 DUP1 PUSH1 0x0 DUP6 PUSH20 0xFFFFFFFFFFFFFFFFFFFFFFFFFFFFFFFFFFFFFFFF AND PUSH20 0xFFFFFFFFFFFFFFFFFFFFFFFFFFFFFFFFFFFFFFFF AND DUP2 MSTORE PUSH1 0x20 ADD SWAP1 DUP2 MSTORE PUSH1 0x20 ADD PUSH1 0x0 KECCAK256 SLOAD SWAP1 POP DUP2 DUP2 LT ISZERO PUSH2 0xC3F JUMPI PUSH1 0x40 MLOAD PUSH32 0x8C379A000000000000000000000000000000000000000000000000000000000 DUP2 MSTORE PUSH1 0x4 ADD PUSH2 0xC36 SWAP1 PUSH2 0x1328 JUMP JUMPDEST PUSH1 0x40 MLOAD DUP1 SWAP2 SUB SWAP1 REVERT JUMPDEST DUP2 DUP2 SUB PUSH1 0x0 DUP1 DUP7 PUSH20 0xFFFFFFFFFFFFFFFFFFFFFFFFFFFFFFFFFFFFFFFF AND PUSH20 0xFFFFFFFFFFFFFFFFFFFFFFFFFFFFFFFFFFFFFFFF AND DUP2 MSTORE PUSH1 0x20 ADD SWAP1 DUP2 MSTORE PUSH1 0x20 ADD PUSH1 0x0 KECCAK256 DUP2 SWAP1 SSTORE POP DUP2 PUSH1 0x0 DUP1 DUP6 PUSH20 0xFFFFFFFFFFFFFFFFFFFFFFFFFFFFFFFFFFFFFFFF AND PUSH20 0xFFFFFFFFFFFFFFFFFFFFFFFFFFFFFFFFFFFFFFFF AND DUP2 MSTORE PUSH1 0x20 ADD SWAP1 DUP2 MSTORE PUSH1 0x20 ADD PUSH1 0x0 KECCAK256 PUSH1 0x0 DUP3 DUP3 SLOAD PUSH2 0xCD2 SWAP2 SWAP1 PUSH2 0x145A JUMP JUMPDEST SWAP3 POP POP DUP2 SWAP1 SSTORE POP DUP3 PUSH20 0xFFFFFFFFFFFFFFFFFFFFFFFFFFFFFFFFFFFFFFFF AND DUP5 PUSH20 0xFFFFFFFFFFFFFFFFFFFFFFFFFFFFFFFFFFFFFFFF AND PUSH32 0xDDF252AD1BE2C89B69C2B068FC378DAA952BA7F163C4A11628F55A4DF523B3EF DUP5 PUSH1 0x40 MLOAD PUSH2 0xD36 SWAP2 SWAP1 PUSH2 0x1408 JUMP JUMPDEST PUSH1 0x40 MLOAD DUP1 SWAP2 SUB SWAP1 LOG3 PUSH2 0xD49 DUP5 DUP5 DUP5 PUSH2 0xF2B JUMP JUMPDEST POP POP POP POP JUMP JUMPDEST PUSH1 0x0 PUSH20 0xFFFFFFFFFFFFFFFFFFFFFFFFFFFFFFFFFFFFFFFF AND DUP3 PUSH20 0xFFFFFFFFFFFFFFFFFFFFFFFFFFFFFFFFFFFFFFFF AND EQ ISZERO PUSH2 0xDBF JUMPI PUSH1 0x40 MLOAD PUSH32 0x8C379A000000000000000000000000000000000000000000000000000000000 DUP2 MSTORE PUSH1 0x4 ADD PUSH2 0xDB6 SWAP1 PUSH2 0x1368 JUMP JUMPDEST PUSH1 0x40 MLOAD DUP1 SWAP2 SUB SWAP1 REVERT JUMPDEST PUSH2 0xDCB DUP3 PUSH1 0x0 DUP4 PUSH2 0xF26 JUMP JUMPDEST PUSH1 0x0 DUP1 PUSH1 0x0 DUP5 PUSH20 0xFFFFFFFFFFFFFFFFFFFFFFFFFFFFFFFFFFFFFFFF AND PUSH20 0xFFFFFFFFFFFFFFFFFFFFFFFFFFFFFFFFFFFFFFFF AND DUP2 MSTORE PUSH1 0x20 ADD SWAP1 DUP2 MSTORE PUSH1 0x20 ADD PUSH1 0x0 KECCAK256 SLOAD SWAP1 POP DUP2 DUP2 LT ISZERO PUSH2 0xE51 JUMPI PUSH1 0x40 MLOAD PUSH32 0x8C379A000000000000000000000000000000000000000000000000000000000 DUP2 MSTORE PUSH1 0x4 ADD PUSH2 0xE48 SWAP1 PUSH2 0x12C8 JUMP JUMPDEST PUSH1 0x40 MLOAD DUP1 SWAP2 SUB SWAP1 REVERT JUMPDEST DUP2 DUP2 SUB PUSH1 0x0 DUP1 DUP6 PUSH20 0xFFFFFFFFFFFFFFFFFFFFFFFFFFFFFFFFFFFFFFFF AND PUSH20 0xFFFFFFFFFFFFFFFFFFFFFFFFFFFFFFFFFFFFFFFF AND DUP2 MSTORE PUSH1 0x20 ADD SWAP1 DUP2 MSTORE PUSH1 0x20 ADD PUSH1 0x0 KECCAK256 DUP2 SWAP1 SSTORE POP DUP2 PUSH1 0x2 PUSH1 0x0 DUP3 DUP3 SLOAD PUSH2 0xEA8 SWAP2 SWAP1 PUSH2 0x14B0 JUMP JUMPDEST SWAP3 POP POP DUP2 SWAP1 SSTORE POP PUSH1 0x0 PUSH20 0xFFFFFFFFFFFFFFFFFFFFFFFFFFFFFFFFFFFFFFFF AND DUP4 PUSH20 0xFFFFFFFFFFFFFFFFFFFFFFFFFFFFFFFFFFFFFFFF AND PUSH32 0xDDF252AD1BE2C89B69C2B068FC378DAA952BA7F163C4A11628F55A4DF523B3EF DUP5 PUSH1 0x40 MLOAD PUSH2 0xF0D SWAP2 SWAP1 PUSH2 0x1408 JUMP JUMPDEST PUSH1 0x40 MLOAD DUP1 SWAP2 SUB SWAP1 LOG3 PUSH2 0xF21 DUP4 PUSH1 0x0 DUP5 PUSH2 0xF2B JUMP JUMPDEST POP POP POP JUMP JUMPDEST POP POP POP JUMP JUMPDEST POP POP POP JUMP JUMPDEST PUSH1 0x0 DUP2 CALLDATALOAD SWAP1 POP PUSH2 0xF3F DUP2 PUSH2 0x1905 JUMP JUMPDEST SWAP3 SWAP2 POP POP JUMP JUMPDEST PUSH1 0x0 DUP2 CALLDATALOAD SWAP1 POP PUSH2 0xF54 DUP2 PUSH2 0x191C JUMP JUMPDEST SWAP3 SWAP2 POP POP JUMP JUMPDEST PUSH1 0x0 PUSH1 0x20 DUP3 DUP5 SUB SLT ISZERO PUSH2 0xF70 JUMPI PUSH2 0xF6F PUSH2 0x15FC JUMP JUMPDEST JUMPDEST PUSH1 0x0 PUSH2 0xF7E DUP5 DUP3 DUP6 ADD PUSH2 0xF30 JUMP JUMPDEST SWAP2 POP POP SWAP3 SWAP2 POP POP JUMP JUMPDEST PUSH1 0x0 DUP1 PUSH1 0x40 DUP4 DUP6 SUB SLT ISZERO PUSH2 0xF9E JUMPI PUSH2 0xF9D PUSH2 0x15FC JUMP JUMPDEST JUMPDEST PUSH1 0x0 PUSH2 0xFAC DUP6 DUP3 DUP7 ADD PUSH2 0xF30 JUMP JUMPDEST SWAP3 POP POP PUSH1 0x20 PUSH2 0xFBD DUP6 DUP3 DUP7 ADD PUSH2 0xF30 JUMP JUMPDEST SWAP2 POP POP SWAP3 POP SWAP3 SWAP1 POP JUMP JUMPDEST PUSH1 0x0 DUP1 PUSH1 0x0 PUSH1 0x60 DUP5 DUP7 SUB SLT ISZERO PUSH2 0xFE0 JUMPI PUSH2 0xFDF PUSH2 0x15FC JUMP JUMPDEST JUMPDEST PUSH1 0x0 PUSH2 0xFEE DUP7 DUP3 DUP8 ADD PUSH2 0xF30 JUMP JUMPDEST SWAP4 POP POP PUSH1 0x20 PUSH2 0xFFF DUP7 DUP3 DUP8 ADD PUSH2 0xF30 JUMP JUMPDEST SWAP3 POP POP PUSH1 0x40 PUSH2 0x1010 DUP7 DUP3 DUP8 ADD PUSH2 0xF45 JUMP JUMPDEST SWAP2 POP POP SWAP3 POP SWAP3 POP SWAP3 JUMP JUMPDEST PUSH1 0x0 DUP1 PUSH1 0x40 DUP4 DUP6 SUB SLT ISZERO PUSH2 0x1031 JUMPI PUSH2 0x1030 PUSH2 0x15FC JUMP JUMPDEST JUMPDEST PUSH1 0x0 PUSH2 0x103F DUP6 DUP3 DUP7 ADD PUSH2 0xF30 JUMP JUMPDEST SWAP3 POP POP PUSH1 0x20 PUSH2 0x1050 DUP6 DUP3 DUP7 ADD PUSH2 0xF45 JUMP JUMPDEST SWAP2 POP POP SWAP3 POP SWAP3 SWAP1 POP JUMP JUMPDEST PUSH2 0x1063 DUP2 PUSH2 0x14E4 JUMP JUMPDEST DUP3 MSTORE POP POP JUMP JUMPDEST PUSH2 0x1072 DUP2 PUSH2 0x14F6 JUMP JUMPDEST DUP3 MSTORE POP POP JUMP JUMPDEST PUSH1 0x0 PUSH2 0x1083 DUP3 PUSH2 0x143E JUMP JUMPDEST PUSH2 0x108D DUP2 DUP6 PUSH2 0x1449 JUMP JUMPDEST SWAP4 POP PUSH2 0x109D DUP2 DUP6 PUSH1 0x20 DUP7 ADD PUSH2 0x1539 JUMP JUMPDEST PUSH2 0x10A6 DUP2 PUSH2 0x1601 JUMP JUMPDEST DUP5 ADD SWAP2 POP POP SWAP3 SWAP2 POP POP JUMP JUMPDEST PUSH1 0x0 PUSH2 0x10BE PUSH1 0x23 DUP4 PUSH2 0x1449 JUMP JUMPDEST SWAP2 POP PUSH2 0x10C9 DUP3 PUSH2 0x1612 JUMP JUMPDEST PUSH1 0x40 DUP3 ADD SWAP1 POP SWAP2 SWAP1 POP JUMP JUMPDEST PUSH1 0x0 PUSH2 0x10E1 PUSH1 0x22 DUP4 PUSH2 0x1449 JUMP JUMPDEST SWAP2 POP PUSH2 0x10EC DUP3 PUSH2 0x1661 JUMP JUMPDEST PUSH1 0x40 DUP3 ADD SWAP1 POP SWAP2 SWAP1 POP JUMP JUMPDEST PUSH1 0x0 PUSH2 0x1104 PUSH1 0x22 DUP4 PUSH2 0x1449 JUMP JUMPDEST SWAP2 POP PUSH2 0x110F DUP3 PUSH2 0x16B0 JUMP JUMPDEST PUSH1 0x40 DUP3 ADD SWAP1 POP SWAP2 SWAP1 POP JUMP JUMPDEST PUSH1 0x0 PUSH2 0x1127 PUSH1 0x1D DUP4 PUSH2 0x1449 JUMP JUMPDEST SWAP2 POP PUSH2 0x1132 DUP3 PUSH2 0x16FF JUMP JUMPDEST PUSH1 0x20 DUP3 ADD SWAP1 POP SWAP2 SWAP1 POP JUMP JUMPDEST PUSH1 0x0 PUSH2 0x114A PUSH1 0x26 DUP4 PUSH2 0x1449 JUMP JUMPDEST SWAP2 POP PUSH2 0x1155 DUP3 PUSH2 0x1728 JUMP JUMPDEST PUSH1 0x40 DUP3 ADD SWAP1 POP SWAP2 SWAP1 POP JUMP JUMPDEST PUSH1 0x0 PUSH2 0x116D PUSH1 0x15 DUP4 PUSH2 0x1449 JUMP JUMPDEST SWAP2 POP PUSH2 0x1178 DUP3 PUSH2 0x1777 JUMP JUMPDEST PUSH1 0x20 DUP3 ADD SWAP1 POP SWAP2 SWAP1 POP JUMP JUMPDEST PUSH1 0x0 PUSH2 0x1190 PUSH1 0x21 DUP4 PUSH2 0x1449 JUMP JUMPDEST SWAP2 POP PUSH2 0x119B DUP3 PUSH2 0x17A0 JUMP JUMPDEST PUSH1 0x40 DUP3 ADD SWAP1 POP SWAP2 SWAP1 POP JUMP JUMPDEST PUSH1 0x0 PUSH2 0x11B3 PUSH1 0x25 DUP4 PUSH2 0x1449 JUMP JUMPDEST SWAP2 POP PUSH2 0x11BE DUP3 PUSH2 0x17EF JUMP JUMPDEST PUSH1 0x40 DUP3 ADD SWAP1 POP SWAP2 SWAP1 POP JUMP JUMPDEST PUSH1 0x0 PUSH2 0x11D6 PUSH1 0x24 DUP4 PUSH2 0x1449 JUMP JUMPDEST SWAP2 POP PUSH2 0x11E1 DUP3 PUSH2 0x183E JUMP JUMPDEST PUSH1 0x40 DUP3 ADD SWAP1 POP SWAP2 SWAP1 POP JUMP JUMPDEST PUSH1 0x0 PUSH2 0x11F9 PUSH1 0x25 DUP4 PUSH2 0x1449 JUMP JUMPDEST SWAP2 POP PUSH2 0x1204 DUP3 PUSH2 0x188D JUMP JUMPDEST PUSH1 0x40 DUP3 ADD SWAP1 POP SWAP2 SWAP1 POP JUMP JUMPDEST PUSH1 0x0 PUSH2 0x121C PUSH1 0x1F DUP4 PUSH2 0x1449 JUMP JUMPDEST SWAP2 POP PUSH2 0x1227 DUP3 PUSH2 0x18DC JUMP JUMPDEST PUSH1 0x20 DUP3 ADD SWAP1 POP SWAP2 SWAP1 POP JUMP JUMPDEST PUSH2 0x123B DUP2 PUSH2 0x1522 JUMP JUMPDEST DUP3 MSTORE POP POP JUMP JUMPDEST PUSH2 0x124A DUP2 PUSH2 0x152C JUMP JUMPDEST DUP3 MSTORE POP POP JUMP JUMPDEST PUSH1 0x0 PUSH1 0x20 DUP3 ADD SWAP1 POP PUSH2 0x1265 PUSH1 0x0 DUP4 ADD DUP5 PUSH2 0x105A JUMP JUMPDEST SWAP3 SWAP2 POP POP JUMP JUMPDEST PUSH1 0x0 PUSH1 0x20 DUP3 ADD SWAP1 POP PUSH2 0x1280 PUSH1 0x0 DUP4 ADD DUP5 PUSH2 0x1069 JUMP JUMPDEST SWAP3 SWAP2 POP POP JUMP JUMPDEST PUSH1 0x0 PUSH1 0x20 DUP3 ADD SWAP1 POP DUP2 DUP2 SUB PUSH1 0x0 DUP4 ADD MSTORE PUSH2 0x12A0 DUP2 DUP5 PUSH2 0x1078 JUMP JUMPDEST SWAP1 POP SWAP3 SWAP2 POP POP JUMP JUMPDEST PUSH1 0x0 PUSH1 0x20 DUP3 ADD SWAP1 POP DUP2 DUP2 SUB PUSH1 0x0 DUP4 ADD MSTORE PUSH2 0x12C1 DUP2 PUSH2 0x10B1 JUMP JUMPDEST SWAP1 POP SWAP2 SWAP1 POP JUMP JUMPDEST PUSH1 0x0 PUSH1 0x20 DUP3 ADD SWAP1 POP DUP2 DUP2 SUB PUSH1 0x0 DUP4 ADD MSTORE PUSH2 0x12E1 DUP2 PUSH2 0x10D4 JUMP JUMPDEST SWAP1 POP SWAP2 SWAP1 POP JUMP JUMPDEST PUSH1 0x0 PUSH1 0x20 DUP3 ADD SWAP1 POP DUP2 DUP2 SUB PUSH1 0x0 DUP4 ADD MSTORE PUSH2 0x1301 DUP2 PUSH2 0x10F7 JUMP JUMPDEST SWAP1 POP SWAP2 SWAP1 POP JUMP JUMPDEST PUSH1 0x0 PUSH1 0x20 DUP3 ADD SWAP1 POP DUP2 DUP2 SUB PUSH1 0x0 DUP4 ADD MSTORE PUSH2 0x1321 DUP2 PUSH2 0x111A JUMP JUMPDEST SWAP1 POP SWAP2 SWAP1 POP JUMP JUMPDEST PUSH1 0x0 PUSH1 0x20 DUP3 ADD SWAP1 POP DUP2 DUP2 SUB PUSH1 0x0 DUP4 ADD MSTORE PUSH2 0x1341 DUP2 PUSH2 0x113D JUMP JUMPDEST SWAP1 POP SWAP2 SWAP1 POP JUMP JUMPDEST PUSH1 0x0 PUSH1 0x20 DUP3 ADD SWAP1 POP DUP2 DUP2 SUB PUSH1 0x0 DUP4 ADD MSTORE PUSH2 0x1361 DUP2 PUSH2 0x1160 JUMP JUMPDEST SWAP1 POP SWAP2 SWAP1 POP JUMP JUMPDEST PUSH1 0x0 PUSH1 0x20 DUP3 ADD SWAP1 POP DUP2 DUP2 SUB PUSH1 0x0 DUP4 ADD MSTORE PUSH2 0x1381 DUP2 PUSH2 0x1183 JUMP JUMPDEST SWAP1 POP SWAP2 SWAP1 POP JUMP JUMPDEST PUSH1 0x0 PUSH1 0x20 DUP3 ADD SWAP1 POP DUP2 DUP2 SUB PUSH1 0x0 DUP4 ADD MSTORE PUSH2 0x13A1 DUP2 PUSH2 0x11A6 JUMP JUMPDEST SWAP1 POP SWAP2 SWAP1 POP JUMP JUMPDEST PUSH1 0x0 PUSH1 0x20 DUP3 ADD SWAP1 POP DUP2 DUP2 SUB PUSH1 0x0 DUP4 ADD MSTORE PUSH2 0x13C1 DUP2 PUSH2 0x11C9 JUMP JUMPDEST SWAP1 POP SWAP2 SWAP1 POP JUMP JUMPDEST PUSH1 0x0 PUSH1 0x20 DUP3 ADD SWAP1 POP DUP2 DUP2 SUB PUSH1 0x0 DUP4 ADD MSTORE PUSH2 0x13E1 DUP2 PUSH2 0x11EC JUMP JUMPDEST SWAP1 POP SWAP2 SWAP1 POP JUMP JUMPDEST PUSH1 0x0 PUSH1 0x20 DUP3 ADD SWAP1 POP DUP2 DUP2 SUB PUSH1 0x0 DUP4 ADD MSTORE PUSH2 0x1401 DUP2 PUSH2 0x120F JUMP JUMPDEST SWAP1 POP SWAP2 SWAP1 POP JUMP JUMPDEST PUSH1 0x0 PUSH1 0x20 DUP3 ADD SWAP1 POP PUSH2 0x141D PUSH1 0x0 DUP4 ADD DUP5 PUSH2 0x1232 JUMP JUMPDEST SWAP3 SWAP2 POP POP JUMP JUMPDEST PUSH1 0x0 PUSH1 0x20 DUP3 ADD SWAP1 POP PUSH2 0x1438 PUSH1 0x0 DUP4 ADD DUP5 PUSH2 0x1241 JUMP JUMPDEST SWAP3 SWAP2 POP POP JUMP JUMPDEST PUSH1 0x0 DUP2 MLOAD SWAP1 POP SWAP2 SWAP1 POP JUMP JUMPDEST PUSH1 0x0 DUP3 DUP3 MSTORE PUSH1 0x20 DUP3 ADD SWAP1 POP SWAP3 SWAP2 POP POP JUMP JUMPDEST PUSH1 0x0 PUSH2 0x1465 DUP3 PUSH2 0x1522 JUMP JUMPDEST SWAP2 POP PUSH2 0x1470 DUP4 PUSH2 0x1522 JUMP JUMPDEST SWAP3 POP DUP3 PUSH32 0xFFFFFFFFFFFFFFFFFFFFFFFFFFFFFFFFFFFFFFFFFFFFFFFFFFFFFFFFFFFFFFFF SUB DUP3 GT ISZERO PUSH2 0x14A5 JUMPI PUSH2 0x14A4 PUSH2 0x159E JUMP JUMPDEST JUMPDEST DUP3 DUP3 ADD SWAP1 POP SWAP3 SWAP2 POP POP JUMP JUMPDEST PUSH1 0x0 PUSH2 0x14BB DUP3 PUSH2 0x1522 JUMP JUMPDEST SWAP2 POP PUSH2 0x14C6 DUP4 PUSH2 0x1522 JUMP JUMPDEST SWAP3 POP DUP3 DUP3 LT ISZERO PUSH2 0x14D9 JUMPI PUSH2 0x14D8 PUSH2 0x159E JUMP JUMPDEST JUMPDEST DUP3 DUP3 SUB SWAP1 POP SWAP3 SWAP2 POP POP JUMP JUMPDEST PUSH1 0x0 PUSH2 0x14EF DUP3 PUSH2 0x1502 JUMP JUMPDEST SWAP1 POP SWAP2 SWAP1 POP JUMP JUMPDEST PUSH1 0x0 DUP2 ISZERO ISZERO SWAP1 POP SWAP2 SWAP1 POP JUMP JUMPDEST PUSH1 0x0 PUSH20 0xFFFFFFFFFFFFFFFFFFFFFFFFFFFFFFFFFFFFFFFF DUP3 AND SWAP1 POP SWAP2 SWAP1 POP JUMP JUMPDEST PUSH1 0x0 DUP2 SWAP1 POP SWAP2 SWAP1 POP JUMP JUMPDEST PUSH1 0x0 PUSH1 0xFF DUP3 AND SWAP1 POP SWAP2 SWAP1 POP JUMP JUMPDEST PUSH1 0x0 JUMPDEST DUP4 DUP2 LT ISZERO PUSH2 0x1557 JUMPI DUP1 DUP3 ADD MLOAD DUP2 DUP5 ADD MSTORE PUSH1 0x20 DUP2 ADD SWAP1 POP PUSH2 0x153C JUMP JUMPDEST DUP4 DUP2 GT ISZERO PUSH2 0x1566 JUMPI PUSH1 0x0 DUP5 DUP5 ADD MSTORE JUMPDEST POP POP POP POP JUMP JUMPDEST PUSH1 0x0 PUSH1 0x2 DUP3 DIV SWAP1 POP PUSH1 0x1 DUP3 AND DUP1 PUSH2 0x1584 JUMPI PUSH1 0x7F DUP3 AND SWAP2 POP JUMPDEST PUSH1 0x20 DUP3 LT DUP2 EQ ISZERO PUSH2 0x1598 JUMPI PUSH2 0x1597 PUSH2 0x15CD JUMP JUMPDEST JUMPDEST POP SWAP2 SWAP1 POP JUMP JUMPDEST PUSH32 0x4E487B7100000000000000000000000000000000000000000000000000000000 PUSH1 0x0 MSTORE PUSH1 0x11 PUSH1 0x4 MSTORE PUSH1 0x24 PUSH1 0x0 REVERT JUMPDEST PUSH32 0x4E487B7100000000000000000000000000000000000000000000000000000000 PUSH1 0x0 MSTORE PUSH1 0x22 PUSH1 0x4 MSTORE PUSH1 0x24 PUSH1 0x0 REVERT JUMPDEST PUSH1 0x0 DUP1 REVERT JUMPDEST PUSH1 0x0 PUSH1 0x1F NOT PUSH1 0x1F DUP4 ADD AND SWAP1 POP SWAP2 SWAP1 POP JUMP JUMPDEST PUSH32 0x45524332303A207472616E7366657220746F20746865207A65726F2061646472 PUSH1 0x0 DUP3 ADD MSTORE PUSH32 0x6573730000000000000000000000000000000000000000000000000000000000 PUSH1 0x20 DUP3 ADD MSTORE POP JUMP JUMPDEST PUSH32 0x45524332303A206275726E20616D6F756E7420657863656564732062616C616E PUSH1 0x0 DUP3 ADD MSTORE PUSH32 0x6365000000000000000000000000000000000000000000000000000000000000 PUSH1 0x20 DUP3 ADD MSTORE POP JUMP JUMPDEST PUSH32 0x45524332303A20617070726F766520746F20746865207A65726F206164647265 PUSH1 0x0 DUP3 ADD MSTORE PUSH32 0x7373000000000000000000000000000000000000000000000000000000000000 PUSH1 0x20 DUP3 ADD MSTORE POP JUMP JUMPDEST PUSH32 0x45524332303A20696E73756666696369656E7420616C6C6F77616E6365000000 PUSH1 0x0 DUP3 ADD MSTORE POP JUMP JUMPDEST PUSH32 0x45524332303A207472616E7366657220616D6F756E7420657863656564732062 PUSH1 0x0 DUP3 ADD MSTORE PUSH32 0x616C616E63650000000000000000000000000000000000000000000000000000 PUSH1 0x20 DUP3 ADD MSTORE POP JUMP JUMPDEST PUSH32 0x4F6E6C79206F776E657220686173206163636573730000000000000000000000 PUSH1 0x0 DUP3 ADD MSTORE POP JUMP JUMPDEST PUSH32 0x45524332303A206275726E2066726F6D20746865207A65726F20616464726573 PUSH1 0x0 DUP3 ADD MSTORE PUSH32 0x7300000000000000000000000000000000000000000000000000000000000000 PUSH1 0x20 DUP3 ADD MSTORE POP JUMP JUMPDEST PUSH32 0x45524332303A207472616E736665722066726F6D20746865207A65726F206164 PUSH1 0x0 DUP3 ADD MSTORE PUSH32 0x6472657373000000000000000000000000000000000000000000000000000000 PUSH1 0x20 DUP3 ADD MSTORE POP JUMP JUMPDEST PUSH32 0x45524332303A20617070726F76652066726F6D20746865207A65726F20616464 PUSH1 0x0 DUP3 ADD MSTORE PUSH32 0x7265737300000000000000000000000000000000000000000000000000000000 PUSH1 0x20 DUP3 ADD MSTORE POP JUMP JUMPDEST PUSH32 0x45524332303A2064656372656173656420616C6C6F77616E63652062656C6F77 PUSH1 0x0 DUP3 ADD MSTORE PUSH32 0x207A65726F000000000000000000000000000000000000000000000000000000 PUSH1 0x20 DUP3 ADD MSTORE POP JUMP JUMPDEST PUSH32 0x45524332303A206D696E7420746F20746865207A65726F206164647265737300 PUSH1 0x0 DUP3 ADD MSTORE POP JUMP JUMPDEST PUSH2 0x190E DUP2 PUSH2 0x14E4 JUMP JUMPDEST DUP2 EQ PUSH2 0x1919 JUMPI PUSH1 0x0 DUP1 REVERT JUMPDEST POP JUMP JUMPDEST PUSH2 0x1925 DUP2 PUSH2 0x1522 JUMP JUMPDEST DUP2 EQ PUSH2 0x1930 JUMPI PUSH1 0x0 DUP1 REVERT JUMPDEST POP JUMP INVALID LOG2 PUSH5 0x6970667358 0x22 SLT KECCAK256 PUSH10 0x4315D3BB815AF3DF4BA7 ORIGIN 0xF8 0xDB 0x49 SWAP7 0xCB JUMPDEST 0x4B 0xE4 0x23 DUP8 CALLVALUE SHR BYTE 0xAA 0xCC 0xE2 PUSH6 0x9331D264736F PUSH13 0x63430008070033000000000000 "
				},
				"gasEstimates": {
					"creation": {
						"codeDepositCost": "1301000",
						"executionCost": "infinite",
						"totalCost": "infinite"
					},
					"external": {
						"Burn(address,uint256)": "infinite",
						"Mint(address,uint256)": "infinite",
						"Owner()": "2558",
						"allowance(address,address)": "infinite",
						"approve(address,uint256)": "infinite",
						"balanceOf(address)": "2864",
						"decimals()": "410",
						"decreaseAllowance(address,uint256)": "infinite",
						"increaseAllowance(address,uint256)": "infinite",
						"name()": "infinite",
						"symbol()": "infinite",
						"totalSupply()": "2460",
						"transfer(address,uint256)": "infinite",
						"transferFrom(address,address,uint256)": "infinite"
					},
					"internal": {
						"_afterTokenTransfer(address,address,uint256)": "15",
						"_approve(address,address,uint256)": "infinite",
						"_beforeTokenTransfer(address,address,uint256)": "15",
						"_burn(address,uint256)": "infinite",
						"_mint(address,uint256)": "infinite",
						"_spendAllowance(address,address,uint256)": "infinite",
						"_transfer(address,address,uint256)": "infinite"
					}
				},
				"methodIdentifiers": {
					"Burn(address,uint256)": "cc16f5db",
					"Mint(address,uint256)": "0f6798a5",
					"Owner()": "b4a99a4e",
					"allowance(address,address)": "dd62ed3e",
					"approve(address,uint256)": "095ea7b3",
					"balanceOf(address)": "70a08231",
					"decimals()": "313ce567",
					"decreaseAllowance(address,uint256)": "a457c2d7",
					"increaseAllowance(address,uint256)": "39509351",
					"name()": "06fdde03",
					"symbol()": "95d89b41",
					"totalSupply()": "18160ddd",
					"transfer(address,uint256)": "a9059cbb",
					"transferFrom(address,address,uint256)": "23b872dd"
				}
			},
			"storageLayout": {
				"storage": [
					{
						"astId": 37,
						"contract": "ERC20.sol:ERC20",
						"label": "_balances",
						"offset": 0,
						"slot": "0",
						"type": "t_mapping(t_address,t_uint256)"
					},
					{
						"astId": 43,
						"contract": "ERC20.sol:ERC20",
						"label": "_allowances",
						"offset": 0,
						"slot": "1",
						"type": "t_mapping(t_address,t_mapping(t_address,t_uint256))"
					},
					{
						"astId": 46,
						"contract": "ERC20.sol:ERC20",
						"label": "_totalSupply",
						"offset": 0,
						"slot": "2",
						"type": "t_uint256"
					},
					{
						"astId": 60,
						"contract": "ERC20.sol:ERC20",
						"label": "_name",
						"offset": 0,
						"slot": "3",
						"type": "t_string_storage"
					},
					{
						"astId": 62,
						"contract": "ERC20.sol:ERC20",
						"label": "_symbol",
						"offset": 0,
						"slot": "4",
						"type": "t_string_storage"
					},
					{
						"astId": 64,
						"contract": "ERC20.sol:ERC20",
						"label": "Owner",
						"offset": 0,
						"slot": "5",
						"type": "t_address"
					}
				],
				"types": {
					"t_address": {
						"encoding": "inplace",
						"label": "address",
						"numberOfBytes": "20"
					},
					"t_mapping(t_address,t_mapping(t_address,t_uint256))": {
						"encoding": "mapping",
						"key": "t_address",
						"label": "mapping(address => mapping(address => uint256))",
						"numberOfBytes": "32",
						"value": "t_mapping(t_address,t_uint256)"
					},
					"t_mapping(t_address,t_uint256)": {
						"encoding": "mapping",
						"key": "t_address",
						"label": "mapping(address => uint256)",
						"numberOfBytes": "32",
						"value": "t_uint256"
					},
					"t_string_storage": {
						"encoding": "bytes",
						"label": "string",
						"numberOfBytes": "32"
					},
					"t_uint256": {
						"encoding": "inplace",
						"label": "uint256",
						"numberOfBytes": "32"
					}
				}
			},
			"userdoc": {
				"kind": "user",
				"methods": {},
				"version": 1
			}
		}
	}
}